{
	"contracts/DegenToken.sol": {
		"DegenToken": {
			"abi": [
				{
					"inputs": [],
					"stateMutability": "nonpayable",
					"type": "constructor"
				},
				{
					"anonymous": false,
					"inputs": [
						{
							"indexed": true,
							"internalType": "address",
							"name": "owner",
							"type": "address"
						},
						{
							"indexed": true,
							"internalType": "address",
							"name": "spender",
							"type": "address"
						},
						{
							"indexed": false,
							"internalType": "uint256",
							"name": "value",
							"type": "uint256"
						}
					],
					"name": "Approval",
					"type": "event"
				},
				{
					"anonymous": false,
					"inputs": [
						{
							"indexed": true,
							"internalType": "address",
							"name": "player",
							"type": "address"
						},
						{
							"indexed": false,
							"internalType": "string",
							"name": "itemId",
							"type": "string"
						},
						{
							"indexed": false,
							"internalType": "string",
							"name": "itemName",
							"type": "string"
						},
						{
							"indexed": false,
							"internalType": "uint256",
							"name": "price",
							"type": "uint256"
						}
					],
					"name": "ItemRedeemed",
					"type": "event"
				},
				{
					"anonymous": false,
					"inputs": [
						{
							"indexed": true,
							"internalType": "address",
							"name": "previousOwner",
							"type": "address"
						},
						{
							"indexed": true,
							"internalType": "address",
							"name": "newOwner",
							"type": "address"
						}
					],
					"name": "OwnershipTransferred",
					"type": "event"
				},
				{
					"anonymous": false,
					"inputs": [
						{
							"indexed": true,
							"internalType": "address",
							"name": "burner",
							"type": "address"
						},
						{
							"indexed": false,
							"internalType": "uint256",
							"name": "amount",
							"type": "uint256"
						}
					],
					"name": "TokensBurned",
					"type": "event"
				},
				{
					"anonymous": false,
					"inputs": [
						{
							"indexed": true,
							"internalType": "address",
							"name": "from",
							"type": "address"
						},
						{
							"indexed": true,
							"internalType": "address",
							"name": "to",
							"type": "address"
						},
						{
							"indexed": false,
							"internalType": "uint256",
							"name": "value",
							"type": "uint256"
						}
					],
					"name": "Transfer",
					"type": "event"
				},
				{
					"inputs": [
						{
							"internalType": "string",
							"name": "itemId",
							"type": "string"
						},
						{
							"internalType": "string",
							"name": "name",
							"type": "string"
						},
						{
							"internalType": "uint256",
							"name": "price",
							"type": "uint256"
						},
						{
							"internalType": "string",
							"name": "description",
							"type": "string"
						}
					],
					"name": "addItem",
					"outputs": [],
					"stateMutability": "nonpayable",
					"type": "function"
				},
				{
					"inputs": [
						{
							"internalType": "address",
							"name": "owner",
							"type": "address"
						},
						{
							"internalType": "address",
							"name": "spender",
							"type": "address"
						}
					],
					"name": "allowance",
					"outputs": [
						{
							"internalType": "uint256",
							"name": "",
							"type": "uint256"
						}
					],
					"stateMutability": "view",
					"type": "function"
				},
				{
					"inputs": [
						{
							"internalType": "address",
							"name": "spender",
							"type": "address"
						},
						{
							"internalType": "uint256",
							"name": "amount",
							"type": "uint256"
						}
					],
					"name": "approve",
					"outputs": [
						{
							"internalType": "bool",
							"name": "",
							"type": "bool"
						}
					],
					"stateMutability": "nonpayable",
					"type": "function"
				},
				{
					"inputs": [
						{
							"internalType": "address",
							"name": "account",
							"type": "address"
						}
					],
					"name": "balanceOf",
					"outputs": [
						{
							"internalType": "uint256",
							"name": "",
							"type": "uint256"
						}
					],
					"stateMutability": "view",
					"type": "function"
				},
				{
					"inputs": [
						{
							"internalType": "uint256",
							"name": "amount",
							"type": "uint256"
						}
					],
					"name": "burn",
					"outputs": [],
					"stateMutability": "nonpayable",
					"type": "function"
				},
				{
					"inputs": [],
					"name": "decimals",
					"outputs": [
						{
							"internalType": "uint8",
							"name": "",
							"type": "uint8"
						}
					],
					"stateMutability": "view",
					"type": "function"
				},
				{
					"inputs": [
						{
							"internalType": "address",
							"name": "spender",
							"type": "address"
						},
						{
							"internalType": "uint256",
							"name": "subtractedValue",
							"type": "uint256"
						}
					],
					"name": "decreaseAllowance",
					"outputs": [
						{
							"internalType": "bool",
							"name": "",
							"type": "bool"
						}
					],
					"stateMutability": "nonpayable",
					"type": "function"
				},
				{
					"inputs": [],
					"name": "getShopItems",
					"outputs": [
						{
							"components": [
								{
									"internalType": "string",
									"name": "id",
									"type": "string"
								},
								{
									"internalType": "string",
									"name": "name",
									"type": "string"
								},
								{
									"internalType": "uint256",
									"name": "price",
									"type": "uint256"
								},
								{
									"internalType": "string",
									"name": "description",
									"type": "string"
								}
							],
							"internalType": "struct DegenToken.Item[]",
							"name": "",
							"type": "tuple[]"
						}
					],
					"stateMutability": "view",
					"type": "function"
				},
				{
					"inputs": [
						{
							"internalType": "address",
							"name": "spender",
							"type": "address"
						},
						{
							"internalType": "uint256",
							"name": "addedValue",
							"type": "uint256"
						}
					],
					"name": "increaseAllowance",
					"outputs": [
						{
							"internalType": "bool",
							"name": "",
							"type": "bool"
						}
					],
					"stateMutability": "nonpayable",
					"type": "function"
				},
				{
					"inputs": [
						{
							"internalType": "address",
							"name": "to",
							"type": "address"
						},
						{
							"internalType": "uint256",
							"name": "amount",
							"type": "uint256"
						}
					],
					"name": "mint",
					"outputs": [],
					"stateMutability": "nonpayable",
					"type": "function"
				},
				{
					"inputs": [],
					"name": "name",
					"outputs": [
						{
							"internalType": "string",
							"name": "",
							"type": "string"
						}
					],
					"stateMutability": "view",
					"type": "function"
				},
				{
					"inputs": [],
					"name": "owner",
					"outputs": [
						{
							"internalType": "address",
							"name": "",
							"type": "address"
						}
					],
					"stateMutability": "view",
					"type": "function"
				},
				{
					"inputs": [
						{
							"internalType": "string",
							"name": "itemId",
							"type": "string"
						}
					],
					"name": "redeem",
					"outputs": [],
					"stateMutability": "nonpayable",
					"type": "function"
				},
				{
					"inputs": [],
					"name": "renounceOwnership",
					"outputs": [],
					"stateMutability": "nonpayable",
					"type": "function"
				},
				{
					"inputs": [],
					"name": "symbol",
					"outputs": [
						{
							"internalType": "string",
							"name": "",
							"type": "string"
						}
					],
					"stateMutability": "view",
					"type": "function"
				},
				{
					"inputs": [],
					"name": "totalSupply",
					"outputs": [
						{
							"internalType": "uint256",
							"name": "",
							"type": "uint256"
						}
					],
					"stateMutability": "view",
					"type": "function"
				},
				{
					"inputs": [
						{
							"internalType": "address",
							"name": "recipient",
							"type": "address"
						},
						{
							"internalType": "uint256",
							"name": "amount",
							"type": "uint256"
						}
					],
					"name": "transfer",
					"outputs": [
						{
							"internalType": "bool",
							"name": "",
							"type": "bool"
						}
					],
					"stateMutability": "nonpayable",
					"type": "function"
				},
				{
					"inputs": [
						{
							"internalType": "address",
							"name": "from",
							"type": "address"
						},
						{
							"internalType": "address",
							"name": "to",
							"type": "address"
						},
						{
							"internalType": "uint256",
							"name": "amount",
							"type": "uint256"
						}
					],
					"name": "transferFrom",
					"outputs": [
						{
							"internalType": "bool",
							"name": "",
							"type": "bool"
						}
					],
					"stateMutability": "nonpayable",
					"type": "function"
				},
				{
					"inputs": [
						{
							"internalType": "address",
							"name": "newOwner",
							"type": "address"
						}
					],
					"name": "transferOwnership",
					"outputs": [],
					"stateMutability": "nonpayable",
					"type": "function"
				}
			],
			"devdoc": {
				"events": {
					"Approval(address,address,uint256)": {
						"details": "Emitted when the allowance of a `spender` for an `owner` is set by a call to {approve}. `value` is the new allowance."
					},
					"Transfer(address,address,uint256)": {
						"details": "Emitted when `value` tokens are moved from one account (`from`) to another (`to`). Note that `value` may be zero."
					}
				},
				"kind": "dev",
				"methods": {
					"allowance(address,address)": {
						"details": "See {IERC20-allowance}."
					},
					"approve(address,uint256)": {
						"details": "See {IERC20-approve}. NOTE: If `amount` is the maximum `uint256`, the allowance is not updated on `transferFrom`. This is semantically equivalent to an infinite approval. Requirements: - `spender` cannot be the zero address."
					},
					"balanceOf(address)": {
						"details": "See {IERC20-balanceOf}."
					},
					"decimals()": {
						"details": "Returns the number of decimals used to get its user representation. For example, if `decimals` equals `2`, a balance of `505` tokens should be displayed to a user as `5.05` (`505 / 10 ** 2`). Tokens usually opt for a value of 18, imitating the relationship between Ether and Wei. This is the value {ERC20} uses, unless this function is overridden; NOTE: This information is only used for _display_ purposes: it in no way affects any of the arithmetic of the contract, including {IERC20-balanceOf} and {IERC20-transfer}."
					},
					"decreaseAllowance(address,uint256)": {
						"details": "Atomically decreases the allowance granted to `spender` by the caller. This is an alternative to {approve} that can be used as a mitigation for problems described in {IERC20-approve}. Emits an {Approval} event indicating the updated allowance. Requirements: - `spender` cannot be the zero address. - `spender` must have allowance for the caller of at least `subtractedValue`."
					},
					"increaseAllowance(address,uint256)": {
						"details": "Atomically increases the allowance granted to `spender` by the caller. This is an alternative to {approve} that can be used as a mitigation for problems described in {IERC20-approve}. Emits an {Approval} event indicating the updated allowance. Requirements: - `spender` cannot be the zero address."
					},
					"name()": {
						"details": "Returns the name of the token."
					},
					"owner()": {
						"details": "Returns the address of the current owner."
					},
					"renounceOwnership()": {
						"details": "Leaves the contract without owner. It will not be possible to call `onlyOwner` functions anymore. Can only be called by the current owner. NOTE: Renouncing ownership will leave the contract without an owner, thereby removing any functionality that is only available to the owner."
					},
					"symbol()": {
						"details": "Returns the symbol of the token, usually a shorter version of the name."
					},
					"totalSupply()": {
						"details": "See {IERC20-totalSupply}."
					},
					"transferFrom(address,address,uint256)": {
						"details": "See {IERC20-transferFrom}. Emits an {Approval} event indicating the updated allowance. This is not required by the EIP. See the note at the beginning of {ERC20}. NOTE: Does not update the allowance if the current allowance is the maximum `uint256`. Requirements: - `from` and `to` cannot be the zero address. - `from` must have a balance of at least `amount`. - the caller must have allowance for ``from``'s tokens of at least `amount`."
					},
					"transferOwnership(address)": {
						"details": "Transfers ownership of the contract to a new account (`newOwner`). Can only be called by the current owner."
					}
				},
				"version": 1
			},
			"evm": {
				"assembly": "    /* \"contracts/DegenToken.sol\":168:2760  contract DegenToken is ERC20, Ownable {... */\n  mstore(0x40, 0x80)\n    /* \"contracts/DegenToken.sol\":592:934  constructor() ERC20(\"Degen\", \"DGN\") {... */\n  callvalue\n  dup1\n  iszero\n  tag_1\n  jumpi\n  0x00\n  dup1\n  revert\ntag_1:\n  pop\n    /* \"@openzeppelin/contracts/token/ERC20/ERC20.sol\":1976:2089  constructor(string memory name_, string memory symbol_) {... */\n  mload(0x40)\n  dup1\n  0x40\n  add\n  0x40\n  mstore\n  dup1\n  0x05\n  dup2\n  mstore\n  0x20\n  add\n  0x446567656e000000000000000000000000000000000000000000000000000000\n  dup2\n  mstore\n  pop\n  mload(0x40)\n  dup1\n  0x40\n  add\n  0x40\n  mstore\n  dup1\n  0x03\n  dup2\n  mstore\n  0x20\n  add\n  0x44474e0000000000000000000000000000000000000000000000000000000000\n  dup2\n  mstore\n  pop\n    /* \"@openzeppelin/contracts/token/ERC20/ERC20.sol\":2050:2055  name_ */\n  dup2\n    /* \"@openzeppelin/contracts/token/ERC20/ERC20.sol\":2042:2047  _name */\n  0x03\n    /* \"@openzeppelin/contracts/token/ERC20/ERC20.sol\":2042:2055  _name = name_ */\n  swap1\n  dup2\n  tag_6\n  swap2\n  swap1\n  tag_7\n  jump\t// in\ntag_6:\n  pop\n    /* \"@openzeppelin/contracts/token/ERC20/ERC20.sol\":2075:2082  symbol_ */\n  dup1\n    /* \"@openzeppelin/contracts/token/ERC20/ERC20.sol\":2065:2072  _symbol */\n  0x04\n    /* \"@openzeppelin/contracts/token/ERC20/ERC20.sol\":2065:2082  _symbol = symbol_ */\n  swap1\n  dup2\n  tag_8\n  swap2\n  swap1\n  tag_7\n  jump\t// in\ntag_8:\n  pop\n    /* \"@openzeppelin/contracts/token/ERC20/ERC20.sol\":1976:2089  constructor(string memory name_, string memory symbol_) {... */\n  pop\n  pop\n    /* \"@openzeppelin/contracts/access/Ownable.sol\":936:968  _transferOwnership(_msgSender()) */\n  tag_10\n    /* \"@openzeppelin/contracts/access/Ownable.sol\":955:967  _msgSender() */\n  tag_11\n    /* \"@openzeppelin/contracts/access/Ownable.sol\":955:965  _msgSender */\n  shl(0x20, tag_12)\n    /* \"@openzeppelin/contracts/access/Ownable.sol\":955:967  _msgSender() */\n  0x20\n  shr\n  jump\t// in\ntag_11:\n    /* \"@openzeppelin/contracts/access/Ownable.sol\":936:954  _transferOwnership */\n  shl(0x20, tag_13)\n    /* \"@openzeppelin/contracts/access/Ownable.sol\":936:968  _transferOwnership(_msgSender()) */\n  0x20\n  shr\n  jump\t// in\ntag_10:\n    /* \"contracts/DegenToken.sol\":672:748  addItem(\"gold-sword\", \"Gold Sword\", 500, \"A mighty sword forged from gold.\") */\n  tag_15\n  mload(0x40)\n  dup1\n  0x40\n  add\n  0x40\n  mstore\n  dup1\n  0x0a\n  dup2\n  mstore\n  0x20\n  add\n  0x676f6c642d73776f726400000000000000000000000000000000000000000000\n  dup2\n  mstore\n  pop\n  mload(0x40)\n  dup1\n  0x40\n  add\n  0x40\n  mstore\n  dup1\n  0x0a\n  dup2\n  mstore\n  0x20\n  add\n  0x476f6c642053776f726400000000000000000000000000000000000000000000\n  dup2\n  mstore\n  pop\n    /* \"contracts/DegenToken.sol\":708:711  500 */\n  0x01f4\n    /* \"contracts/DegenToken.sol\":672:748  addItem(\"gold-sword\", \"Gold Sword\", 500, \"A mighty sword forged from gold.\") */\n  mload(0x40)\n  dup1\n  0x40\n  add\n  0x40\n  mstore\n  dup1\n  0x20\n  dup2\n  mstore\n  0x20\n  add\n  0x41206d69676874792073776f726420666f726765642066726f6d20676f6c642e\n  dup2\n  mstore\n  pop\n    /* \"contracts/DegenToken.sol\":672:679  addItem */\n  shl(0x20, tag_16)\n    /* \"contracts/DegenToken.sol\":672:748  addItem(\"gold-sword\", \"Gold Sword\", 500, \"A mighty sword forged from gold.\") */\n  0x20\n  shr\n  jump\t// in\ntag_15:\n    /* \"contracts/DegenToken.sol\":758:839  addItem(\"silver-shield\", \"Silver Shield\", 300, \"A sturdy shield made of silver.\") */\n  tag_17\n  mload(0x40)\n  dup1\n  0x40\n  add\n  0x40\n  mstore\n  dup1\n  0x0d\n  dup2\n  mstore\n  0x20\n  add\n  0x73696c7665722d736869656c6400000000000000000000000000000000000000\n  dup2\n  mstore\n  pop\n  mload(0x40)\n  dup1\n  0x40\n  add\n  0x40\n  mstore\n  dup1\n  0x0d\n  dup2\n  mstore\n  0x20\n  add\n  0x53696c76657220536869656c6400000000000000000000000000000000000000\n  dup2\n  mstore\n  pop\n    /* \"contracts/DegenToken.sol\":800:803  300 */\n  0x012c\n    /* \"contracts/DegenToken.sol\":758:839  addItem(\"silver-shield\", \"Silver Shield\", 300, \"A sturdy shield made of silver.\") */\n  mload(0x40)\n  dup1\n  0x40\n  add\n  0x40\n  mstore\n  dup1\n  0x1f\n  dup2\n  mstore\n  0x20\n  add\n  0x412073747572647920736869656c64206d616465206f662073696c7665722e00\n  dup2\n  mstore\n  pop\n    /* \"contracts/DegenToken.sol\":758:765  addItem */\n  shl(0x20, tag_16)\n    /* \"contracts/DegenToken.sol\":758:839  addItem(\"silver-shield\", \"Silver Shield\", 300, \"A sturdy shield made of silver.\") */\n  0x20\n  shr\n  jump\t// in\ntag_17:\n    /* \"contracts/DegenToken.sol\":849:927  addItem(\"healing-potion\", \"Healing Potion\", 100, \"Restores 50 health points.\") */\n  tag_18\n  mload(0x40)\n  dup1\n  0x40\n  add\n  0x40\n  mstore\n  dup1\n  0x0e\n  dup2\n  mstore\n  0x20\n  add\n  0x6865616c696e672d706f74696f6e000000000000000000000000000000000000\n  dup2\n  mstore\n  pop\n  mload(0x40)\n  dup1\n  0x40\n  add\n  0x40\n  mstore\n  dup1\n  0x0e\n  dup2\n  mstore\n  0x20\n  add\n  0x4865616c696e6720506f74696f6e000000000000000000000000000000000000\n  dup2\n  mstore\n  pop\n    /* \"contracts/DegenToken.sol\":893:896  100 */\n  0x64\n    /* \"contracts/DegenToken.sol\":849:927  addItem(\"healing-potion\", \"Healing Potion\", 100, \"Restores 50 health points.\") */\n  mload(0x40)\n  dup1\n  0x40\n  add\n  0x40\n  mstore\n  dup1\n  0x1a\n  dup2\n  mstore\n  0x20\n  add\n  0x526573746f726573203530206865616c746820706f696e74732e000000000000\n  dup2\n  mstore\n  pop\n    /* \"contracts/DegenToken.sol\":849:856  addItem */\n  shl(0x20, tag_16)\n    /* \"contracts/DegenToken.sol\":849:927  addItem(\"healing-potion\", \"Healing Potion\", 100, \"Restores 50 health points.\") */\n  0x20\n  shr\n  jump\t// in\ntag_18:\n    /* \"contracts/DegenToken.sol\":168:2760  contract DegenToken is ERC20, Ownable {... */\n  jump(tag_19)\n    /* \"@openzeppelin/contracts/utils/Context.sol\":640:736  function _msgSender() internal view virtual returns (address) {... */\ntag_12:\n    /* \"@openzeppelin/contracts/utils/Context.sol\":693:700  address */\n  0x00\n    /* \"@openzeppelin/contracts/utils/Context.sol\":719:729  msg.sender */\n  caller\n    /* \"@openzeppelin/contracts/utils/Context.sol\":712:729  return msg.sender */\n  swap1\n  pop\n    /* \"@openzeppelin/contracts/utils/Context.sol\":640:736  function _msgSender() internal view virtual returns (address) {... */\n  swap1\n  jump\t// out\n    /* \"@openzeppelin/contracts/access/Ownable.sol\":2433:2620  function _transferOwnership(address newOwner) internal virtual {... */\ntag_13:\n    /* \"@openzeppelin/contracts/access/Ownable.sol\":2506:2522  address oldOwner */\n  0x00\n    /* \"@openzeppelin/contracts/access/Ownable.sol\":2525:2531  _owner */\n  0x05\n  0x00\n  swap1\n  sload\n  swap1\n  0x0100\n  exp\n  swap1\n  div\n  0xffffffffffffffffffffffffffffffffffffffff\n  and\n    /* \"@openzeppelin/contracts/access/Ownable.sol\":2506:2531  address oldOwner = _owner */\n  swap1\n  pop\n    /* \"@openzeppelin/contracts/access/Ownable.sol\":2550:2558  newOwner */\n  dup2\n    /* \"@openzeppelin/contracts/access/Ownable.sol\":2541:2547  _owner */\n  0x05\n  0x00\n    /* \"@openzeppelin/contracts/access/Ownable.sol\":2541:2558  _owner = newOwner */\n  0x0100\n  exp\n  dup2\n  sload\n  dup2\n  0xffffffffffffffffffffffffffffffffffffffff\n  mul\n  not\n  and\n  swap1\n  dup4\n  0xffffffffffffffffffffffffffffffffffffffff\n  and\n  mul\n  or\n  swap1\n  sstore\n  pop\n    /* \"@openzeppelin/contracts/access/Ownable.sol\":2604:2612  newOwner */\n  dup2\n    /* \"@openzeppelin/contracts/access/Ownable.sol\":2573:2613  OwnershipTransferred(oldOwner, newOwner) */\n  0xffffffffffffffffffffffffffffffffffffffff\n  and\n    /* \"@openzeppelin/contracts/access/Ownable.sol\":2594:2602  oldOwner */\n  dup2\n    /* \"@openzeppelin/contracts/access/Ownable.sol\":2573:2613  OwnershipTransferred(oldOwner, newOwner) */\n  0xffffffffffffffffffffffffffffffffffffffff\n  and\n  0x8be0079c531659141344cd1fd0a4f28419497f9722a3daafe3b4186f6b6457e0\n  mload(0x40)\n  mload(0x40)\n  dup1\n  swap2\n  sub\n  swap1\n  log3\n    /* \"@openzeppelin/contracts/access/Ownable.sol\":2496:2620  {... */\n  pop\n    /* \"@openzeppelin/contracts/access/Ownable.sol\":2433:2620  function _transferOwnership(address newOwner) internal virtual {... */\n  pop\n  jump\t// out\n    /* \"contracts/DegenToken.sol\":2242:2430  function addItem(string memory itemId, string memory name, uint256 price, string memory description) public onlyOwner {... */\ntag_16:\n    /* \"@openzeppelin/contracts/access/Ownable.sol\":1094:1107  _checkOwner() */\n  tag_23\n    /* \"@openzeppelin/contracts/access/Ownable.sol\":1094:1105  _checkOwner */\n  shl(0x20, tag_24)\n    /* \"@openzeppelin/contracts/access/Ownable.sol\":1094:1107  _checkOwner() */\n  0x20\n  shr\n  jump\t// in\ntag_23:\n    /* \"contracts/DegenToken.sol\":2385:2423  Item(itemId, name, price, description) */\n  mload(0x40)\n  dup1\n  0x80\n  add\n  0x40\n  mstore\n  dup1\n    /* \"contracts/DegenToken.sol\":2390:2396  itemId */\n  dup6\n    /* \"contracts/DegenToken.sol\":2385:2423  Item(itemId, name, price, description) */\n  dup2\n  mstore\n  0x20\n  add\n    /* \"contracts/DegenToken.sol\":2398:2402  name */\n  dup5\n    /* \"contracts/DegenToken.sol\":2385:2423  Item(itemId, name, price, description) */\n  dup2\n  mstore\n  0x20\n  add\n    /* \"contracts/DegenToken.sol\":2404:2409  price */\n  dup4\n    /* \"contracts/DegenToken.sol\":2385:2423  Item(itemId, name, price, description) */\n  dup2\n  mstore\n  0x20\n  add\n    /* \"contracts/DegenToken.sol\":2411:2422  description */\n  dup3\n    /* \"contracts/DegenToken.sol\":2385:2423  Item(itemId, name, price, description) */\n  dup2\n  mstore\n  pop\n    /* \"contracts/DegenToken.sol\":2370:2374  shop */\n  0x06\n    /* \"contracts/DegenToken.sol\":2375:2381  itemId */\n  dup6\n    /* \"contracts/DegenToken.sol\":2370:2382  shop[itemId] */\n  mload(0x40)\n  tag_26\n  swap2\n  swap1\n  tag_27\n  jump\t// in\ntag_26:\n  swap1\n  dup2\n  mstore\n  0x20\n  add\n  mload(0x40)\n  dup1\n  swap2\n  sub\n  swap1\n  keccak256\n    /* \"contracts/DegenToken.sol\":2370:2423  shop[itemId] = Item(itemId, name, price, description) */\n  0x00\n  dup3\n  add\n  mload\n  dup2\n  0x00\n  add\n  swap1\n  dup2\n  tag_28\n  swap2\n  swap1\n  tag_7\n  jump\t// in\ntag_28:\n  pop\n  0x20\n  dup3\n  add\n  mload\n  dup2\n  0x01\n  add\n  swap1\n  dup2\n  tag_29\n  swap2\n  swap1\n  tag_7\n  jump\t// in\ntag_29:\n  pop\n  0x40\n  dup3\n  add\n  mload\n  dup2\n  0x02\n  add\n  sstore\n  0x60\n  dup3\n  add\n  mload\n  dup2\n  0x03\n  add\n  swap1\n  dup2\n  tag_30\n  swap2\n  swap1\n  tag_7\n  jump\t// in\ntag_30:\n  pop\n  swap1\n  pop\n  pop\n    /* \"contracts/DegenToken.sol\":2242:2430  function addItem(string memory itemId, string memory name, uint256 price, string memory description) public onlyOwner {... */\n  pop\n  pop\n  pop\n  pop\n  jump\t// out\n    /* \"@openzeppelin/contracts/access/Ownable.sol\":1359:1489  function _checkOwner() internal view virtual {... */\ntag_24:\n    /* \"@openzeppelin/contracts/access/Ownable.sol\":1433:1445  _msgSender() */\n  tag_32\n    /* \"@openzeppelin/contracts/access/Ownable.sol\":1433:1443  _msgSender */\n  shl(0x20, tag_12)\n    /* \"@openzeppelin/contracts/access/Ownable.sol\":1433:1445  _msgSender() */\n  0x20\n  shr\n  jump\t// in\ntag_32:\n    /* \"@openzeppelin/contracts/access/Ownable.sol\":1422:1445  owner() == _msgSender() */\n  0xffffffffffffffffffffffffffffffffffffffff\n  and\n    /* \"@openzeppelin/contracts/access/Ownable.sol\":1422:1429  owner() */\n  tag_33\n    /* \"@openzeppelin/contracts/access/Ownable.sol\":1422:1427  owner */\n  shl(0x20, tag_34)\n    /* \"@openzeppelin/contracts/access/Ownable.sol\":1422:1429  owner() */\n  0x20\n  shr\n  jump\t// in\ntag_33:\n    /* \"@openzeppelin/contracts/access/Ownable.sol\":1422:1445  owner() == _msgSender() */\n  0xffffffffffffffffffffffffffffffffffffffff\n  and\n  eq\n    /* \"@openzeppelin/contracts/access/Ownable.sol\":1414:1482  require(owner() == _msgSender(), \"Ownable: caller is not the owner\") */\n  tag_35\n  jumpi\n  mload(0x40)\n  0x08c379a000000000000000000000000000000000000000000000000000000000\n  dup2\n  mstore\n  0x04\n  add\n  tag_36\n  swap1\n  tag_37\n  jump\t// in\ntag_36:\n  mload(0x40)\n  dup1\n  swap2\n  sub\n  swap1\n  revert\ntag_35:\n    /* \"@openzeppelin/contracts/access/Ownable.sol\":1359:1489  function _checkOwner() internal view virtual {... */\n  jump\t// out\n    /* \"@openzeppelin/contracts/access/Ownable.sol\":1201:1286  function owner() public view virtual returns (address) {... */\ntag_34:\n    /* \"@openzeppelin/contracts/access/Ownable.sol\":1247:1254  address */\n  0x00\n    /* \"@openzeppelin/contracts/access/Ownable.sol\":1273:1279  _owner */\n  0x05\n  0x00\n  swap1\n  sload\n  swap1\n  0x0100\n  exp\n  swap1\n  div\n  0xffffffffffffffffffffffffffffffffffffffff\n  and\n    /* \"@openzeppelin/contracts/access/Ownable.sol\":1266:1279  return _owner */\n  swap1\n  pop\n    /* \"@openzeppelin/contracts/access/Ownable.sol\":1201:1286  function owner() public view virtual returns (address) {... */\n  swap1\n  jump\t// out\n    /* \"#utility.yul\":7:106   */\ntag_39:\n    /* \"#utility.yul\":59:65   */\n  0x00\n    /* \"#utility.yul\":93:98   */\n  dup2\n    /* \"#utility.yul\":87:99   */\n  mload\n    /* \"#utility.yul\":77:99   */\n  swap1\n  pop\n    /* \"#utility.yul\":7:106   */\n  swap2\n  swap1\n  pop\n  jump\t// out\n    /* \"#utility.yul\":112:292   */\ntag_40:\n    /* \"#utility.yul\":160:237   */\n  0x4e487b7100000000000000000000000000000000000000000000000000000000\n    /* \"#utility.yul\":157:158   */\n  0x00\n    /* \"#utility.yul\":150:238   */\n  mstore\n    /* \"#utility.yul\":257:261   */\n  0x41\n    /* \"#utility.yul\":254:255   */\n  0x04\n    /* \"#utility.yul\":247:262   */\n  mstore\n    /* \"#utility.yul\":281:285   */\n  0x24\n    /* \"#utility.yul\":278:279   */\n  0x00\n    /* \"#utility.yul\":271:286   */\n  revert\n    /* \"#utility.yul\":298:478   */\ntag_41:\n    /* \"#utility.yul\":346:423   */\n  0x4e487b7100000000000000000000000000000000000000000000000000000000\n    /* \"#utility.yul\":343:344   */\n  0x00\n    /* \"#utility.yul\":336:424   */\n  mstore\n    /* \"#utility.yul\":443:447   */\n  0x22\n    /* \"#utility.yul\":440:441   */\n  0x04\n    /* \"#utility.yul\":433:448   */\n  mstore\n    /* \"#utility.yul\":467:471   */\n  0x24\n    /* \"#utility.yul\":464:465   */\n  0x00\n    /* \"#utility.yul\":457:472   */\n  revert\n    /* \"#utility.yul\":484:804   */\ntag_42:\n    /* \"#utility.yul\":528:534   */\n  0x00\n    /* \"#utility.yul\":565:566   */\n  0x02\n    /* \"#utility.yul\":559:563   */\n  dup3\n    /* \"#utility.yul\":555:567   */\n  div\n    /* \"#utility.yul\":545:567   */\n  swap1\n  pop\n    /* \"#utility.yul\":612:613   */\n  0x01\n    /* \"#utility.yul\":606:610   */\n  dup3\n    /* \"#utility.yul\":602:614   */\n  and\n    /* \"#utility.yul\":633:651   */\n  dup1\n    /* \"#utility.yul\":623:704   */\n  tag_70\n  jumpi\n    /* \"#utility.yul\":689:693   */\n  0x7f\n    /* \"#utility.yul\":681:687   */\n  dup3\n    /* \"#utility.yul\":677:694   */\n  and\n    /* \"#utility.yul\":667:694   */\n  swap2\n  pop\n    /* \"#utility.yul\":623:704   */\ntag_70:\n    /* \"#utility.yul\":751:753   */\n  0x20\n    /* \"#utility.yul\":743:749   */\n  dup3\n    /* \"#utility.yul\":740:754   */\n  lt\n    /* \"#utility.yul\":720:738   */\n  dup2\n    /* \"#utility.yul\":717:755   */\n  sub\n    /* \"#utility.yul\":714:798   */\n  tag_71\n  jumpi\n    /* \"#utility.yul\":770:788   */\n  tag_72\n  tag_41\n  jump\t// in\ntag_72:\n    /* \"#utility.yul\":714:798   */\ntag_71:\n    /* \"#utility.yul\":535:804   */\n  pop\n    /* \"#utility.yul\":484:804   */\n  swap2\n  swap1\n  pop\n  jump\t// out\n    /* \"#utility.yul\":810:951   */\ntag_43:\n    /* \"#utility.yul\":859:863   */\n  0x00\n    /* \"#utility.yul\":882:885   */\n  dup2\n    /* \"#utility.yul\":874:885   */\n  swap1\n  pop\n    /* \"#utility.yul\":905:908   */\n  dup2\n    /* \"#utility.yul\":902:903   */\n  0x00\n    /* \"#utility.yul\":895:909   */\n  mstore\n    /* \"#utility.yul\":939:943   */\n  0x20\n    /* \"#utility.yul\":936:937   */\n  0x00\n    /* \"#utility.yul\":926:944   */\n  keccak256\n    /* \"#utility.yul\":918:944   */\n  swap1\n  pop\n    /* \"#utility.yul\":810:951   */\n  swap2\n  swap1\n  pop\n  jump\t// out\n    /* \"#utility.yul\":957:1050   */\ntag_44:\n    /* \"#utility.yul\":994:1000   */\n  0x00\n    /* \"#utility.yul\":1041:1043   */\n  0x20\n    /* \"#utility.yul\":1036:1038   */\n  0x1f\n    /* \"#utility.yul\":1029:1034   */\n  dup4\n    /* \"#utility.yul\":1025:1039   */\n  add\n    /* \"#utility.yul\":1021:1044   */\n  div\n    /* \"#utility.yul\":1011:1044   */\n  swap1\n  pop\n    /* \"#utility.yul\":957:1050   */\n  swap2\n  swap1\n  pop\n  jump\t// out\n    /* \"#utility.yul\":1056:1163   */\ntag_45:\n    /* \"#utility.yul\":1100:1108   */\n  0x00\n    /* \"#utility.yul\":1150:1155   */\n  dup3\n    /* \"#utility.yul\":1144:1148   */\n  dup3\n    /* \"#utility.yul\":1140:1156   */\n  shl\n    /* \"#utility.yul\":1119:1156   */\n  swap1\n  pop\n    /* \"#utility.yul\":1056:1163   */\n  swap3\n  swap2\n  pop\n  pop\n  jump\t// out\n    /* \"#utility.yul\":1169:1562   */\ntag_46:\n    /* \"#utility.yul\":1238:1244   */\n  0x00\n    /* \"#utility.yul\":1288:1289   */\n  0x08\n    /* \"#utility.yul\":1276:1286   */\n  dup4\n    /* \"#utility.yul\":1272:1290   */\n  mul\n    /* \"#utility.yul\":1311:1408   */\n  tag_77\n    /* \"#utility.yul\":1341:1407   */\n  0xffffffffffffffffffffffffffffffffffffffffffffffffffffffffffffffff\n    /* \"#utility.yul\":1330:1339   */\n  dup3\n    /* \"#utility.yul\":1311:1408   */\n  tag_45\n  jump\t// in\ntag_77:\n    /* \"#utility.yul\":1429:1468   */\n  tag_78\n    /* \"#utility.yul\":1459:1467   */\n  dup7\n    /* \"#utility.yul\":1448:1457   */\n  dup4\n    /* \"#utility.yul\":1429:1468   */\n  tag_45\n  jump\t// in\ntag_78:\n    /* \"#utility.yul\":1417:1468   */\n  swap6\n  pop\n    /* \"#utility.yul\":1501:1505   */\n  dup1\n    /* \"#utility.yul\":1497:1506   */\n  not\n    /* \"#utility.yul\":1490:1495   */\n  dup5\n    /* \"#utility.yul\":1486:1507   */\n  and\n    /* \"#utility.yul\":1477:1507   */\n  swap4\n  pop\n    /* \"#utility.yul\":1550:1554   */\n  dup1\n    /* \"#utility.yul\":1540:1548   */\n  dup7\n    /* \"#utility.yul\":1536:1555   */\n  and\n    /* \"#utility.yul\":1529:1534   */\n  dup5\n    /* \"#utility.yul\":1526:1556   */\n  or\n    /* \"#utility.yul\":1516:1556   */\n  swap3\n  pop\n    /* \"#utility.yul\":1245:1562   */\n  pop\n  pop\n    /* \"#utility.yul\":1169:1562   */\n  swap4\n  swap3\n  pop\n  pop\n  pop\n  jump\t// out\n    /* \"#utility.yul\":1568:1645   */\ntag_47:\n    /* \"#utility.yul\":1605:1612   */\n  0x00\n    /* \"#utility.yul\":1634:1639   */\n  dup2\n    /* \"#utility.yul\":1623:1639   */\n  swap1\n  pop\n    /* \"#utility.yul\":1568:1645   */\n  swap2\n  swap1\n  pop\n  jump\t// out\n    /* \"#utility.yul\":1651:1711   */\ntag_48:\n    /* \"#utility.yul\":1679:1682   */\n  0x00\n    /* \"#utility.yul\":1700:1705   */\n  dup2\n    /* \"#utility.yul\":1693:1705   */\n  swap1\n  pop\n    /* \"#utility.yul\":1651:1711   */\n  swap2\n  swap1\n  pop\n  jump\t// out\n    /* \"#utility.yul\":1717:1859   */\ntag_49:\n    /* \"#utility.yul\":1767:1776   */\n  0x00\n    /* \"#utility.yul\":1800:1853   */\n  tag_82\n    /* \"#utility.yul\":1818:1852   */\n  tag_83\n    /* \"#utility.yul\":1827:1851   */\n  tag_84\n    /* \"#utility.yul\":1845:1850   */\n  dup5\n    /* \"#utility.yul\":1827:1851   */\n  tag_47\n  jump\t// in\ntag_84:\n    /* \"#utility.yul\":1818:1852   */\n  tag_48\n  jump\t// in\ntag_83:\n    /* \"#utility.yul\":1800:1853   */\n  tag_47\n  jump\t// in\ntag_82:\n    /* \"#utility.yul\":1787:1853   */\n  swap1\n  pop\n    /* \"#utility.yul\":1717:1859   */\n  swap2\n  swap1\n  pop\n  jump\t// out\n    /* \"#utility.yul\":1865:1940   */\ntag_50:\n    /* \"#utility.yul\":1908:1911   */\n  0x00\n    /* \"#utility.yul\":1929:1934   */\n  dup2\n    /* \"#utility.yul\":1922:1934   */\n  swap1\n  pop\n    /* \"#utility.yul\":1865:1940   */\n  swap2\n  swap1\n  pop\n  jump\t// out\n    /* \"#utility.yul\":1946:2215   */\ntag_51:\n    /* \"#utility.yul\":2056:2095   */\n  tag_87\n    /* \"#utility.yul\":2087:2094   */\n  dup4\n    /* \"#utility.yul\":2056:2095   */\n  tag_49\n  jump\t// in\ntag_87:\n    /* \"#utility.yul\":2117:2208   */\n  tag_88\n    /* \"#utility.yul\":2166:2207   */\n  tag_89\n    /* \"#utility.yul\":2190:2206   */\n  dup3\n    /* \"#utility.yul\":2166:2207   */\n  tag_50\n  jump\t// in\ntag_89:\n    /* \"#utility.yul\":2158:2164   */\n  dup5\n    /* \"#utility.yul\":2151:2155   */\n  dup5\n    /* \"#utility.yul\":2145:2156   */\n  sload\n    /* \"#utility.yul\":2117:2208   */\n  tag_46\n  jump\t// in\ntag_88:\n    /* \"#utility.yul\":2111:2115   */\n  dup3\n    /* \"#utility.yul\":2104:2209   */\n  sstore\n    /* \"#utility.yul\":2022:2215   */\n  pop\n    /* \"#utility.yul\":1946:2215   */\n  pop\n  pop\n  pop\n  jump\t// out\n    /* \"#utility.yul\":2221:2294   */\ntag_52:\n    /* \"#utility.yul\":2266:2269   */\n  0x00\n    /* \"#utility.yul\":2221:2294   */\n  swap1\n  jump\t// out\n    /* \"#utility.yul\":2300:2489   */\ntag_53:\n    /* \"#utility.yul\":2377:2409   */\n  tag_92\n  tag_52\n  jump\t// in\ntag_92:\n    /* \"#utility.yul\":2418:2483   */\n  tag_93\n    /* \"#utility.yul\":2476:2482   */\n  dup2\n    /* \"#utility.yul\":2468:2474   */\n  dup5\n    /* \"#utility.yul\":2462:2466   */\n  dup5\n    /* \"#utility.yul\":2418:2483   */\n  tag_51\n  jump\t// in\ntag_93:\n    /* \"#utility.yul\":2353:2489   */\n  pop\n    /* \"#utility.yul\":2300:2489   */\n  pop\n  pop\n  jump\t// out\n    /* \"#utility.yul\":2495:2681   */\ntag_54:\n    /* \"#utility.yul\":2555:2675   */\ntag_95:\n    /* \"#utility.yul\":2572:2575   */\n  dup2\n    /* \"#utility.yul\":2565:2570   */\n  dup2\n    /* \"#utility.yul\":2562:2576   */\n  lt\n    /* \"#utility.yul\":2555:2675   */\n  iszero\n  tag_97\n  jumpi\n    /* \"#utility.yul\":2626:2665   */\n  tag_98\n    /* \"#utility.yul\":2663:2664   */\n  0x00\n    /* \"#utility.yul\":2656:2661   */\n  dup3\n    /* \"#utility.yul\":2626:2665   */\n  tag_53\n  jump\t// in\ntag_98:\n    /* \"#utility.yul\":2599:2600   */\n  0x01\n    /* \"#utility.yul\":2592:2597   */\n  dup2\n    /* \"#utility.yul\":2588:2601   */\n  add\n    /* \"#utility.yul\":2579:2601   */\n  swap1\n  pop\n    /* \"#utility.yul\":2555:2675   */\n  jump(tag_95)\ntag_97:\n    /* \"#utility.yul\":2495:2681   */\n  pop\n  pop\n  jump\t// out\n    /* \"#utility.yul\":2687:3230   */\ntag_55:\n    /* \"#utility.yul\":2788:2790   */\n  0x1f\n    /* \"#utility.yul\":2783:2786   */\n  dup3\n    /* \"#utility.yul\":2780:2791   */\n  gt\n    /* \"#utility.yul\":2777:3223   */\n  iszero\n  tag_100\n  jumpi\n    /* \"#utility.yul\":2822:2860   */\n  tag_101\n    /* \"#utility.yul\":2854:2859   */\n  dup2\n    /* \"#utility.yul\":2822:2860   */\n  tag_43\n  jump\t// in\ntag_101:\n    /* \"#utility.yul\":2906:2935   */\n  tag_102\n    /* \"#utility.yul\":2924:2934   */\n  dup5\n    /* \"#utility.yul\":2906:2935   */\n  tag_44\n  jump\t// in\ntag_102:\n    /* \"#utility.yul\":2896:2904   */\n  dup2\n    /* \"#utility.yul\":2892:2936   */\n  add\n    /* \"#utility.yul\":3089:3091   */\n  0x20\n    /* \"#utility.yul\":3077:3087   */\n  dup6\n    /* \"#utility.yul\":3074:3092   */\n  lt\n    /* \"#utility.yul\":3071:3120   */\n  iszero\n  tag_103\n  jumpi\n    /* \"#utility.yul\":3110:3118   */\n  dup2\n    /* \"#utility.yul\":3095:3118   */\n  swap1\n  pop\n    /* \"#utility.yul\":3071:3120   */\ntag_103:\n    /* \"#utility.yul\":3133:3213   */\n  tag_104\n    /* \"#utility.yul\":3189:3211   */\n  tag_105\n    /* \"#utility.yul\":3207:3210   */\n  dup6\n    /* \"#utility.yul\":3189:3211   */\n  tag_44\n  jump\t// in\ntag_105:\n    /* \"#utility.yul\":3179:3187   */\n  dup4\n    /* \"#utility.yul\":3175:3212   */\n  add\n    /* \"#utility.yul\":3162:3173   */\n  dup3\n    /* \"#utility.yul\":3133:3213   */\n  tag_54\n  jump\t// in\ntag_104:\n    /* \"#utility.yul\":2792:3223   */\n  pop\n  pop\n    /* \"#utility.yul\":2777:3223   */\ntag_100:\n    /* \"#utility.yul\":2687:3230   */\n  pop\n  pop\n  pop\n  jump\t// out\n    /* \"#utility.yul\":3236:3353   */\ntag_56:\n    /* \"#utility.yul\":3290:3298   */\n  0x00\n    /* \"#utility.yul\":3340:3345   */\n  dup3\n    /* \"#utility.yul\":3334:3338   */\n  dup3\n    /* \"#utility.yul\":3330:3346   */\n  shr\n    /* \"#utility.yul\":3309:3346   */\n  swap1\n  pop\n    /* \"#utility.yul\":3236:3353   */\n  swap3\n  swap2\n  pop\n  pop\n  jump\t// out\n    /* \"#utility.yul\":3359:3528   */\ntag_57:\n    /* \"#utility.yul\":3403:3409   */\n  0x00\n    /* \"#utility.yul\":3436:3487   */\n  tag_108\n    /* \"#utility.yul\":3484:3485   */\n  0x00\n    /* \"#utility.yul\":3480:3486   */\n  not\n    /* \"#utility.yul\":3472:3477   */\n  dup5\n    /* \"#utility.yul\":3469:3470   */\n  0x08\n    /* \"#utility.yul\":3465:3478   */\n  mul\n    /* \"#utility.yul\":3436:3487   */\n  tag_56\n  jump\t// in\ntag_108:\n    /* \"#utility.yul\":3432:3488   */\n  not\n    /* \"#utility.yul\":3517:3521   */\n  dup1\n    /* \"#utility.yul\":3511:3515   */\n  dup4\n    /* \"#utility.yul\":3507:3522   */\n  and\n    /* \"#utility.yul\":3497:3522   */\n  swap2\n  pop\n    /* \"#utility.yul\":3410:3528   */\n  pop\n    /* \"#utility.yul\":3359:3528   */\n  swap3\n  swap2\n  pop\n  pop\n  jump\t// out\n    /* \"#utility.yul\":3533:3828   */\ntag_58:\n    /* \"#utility.yul\":3609:3613   */\n  0x00\n    /* \"#utility.yul\":3755:3784   */\n  tag_110\n    /* \"#utility.yul\":3780:3783   */\n  dup4\n    /* \"#utility.yul\":3774:3778   */\n  dup4\n    /* \"#utility.yul\":3755:3784   */\n  tag_57\n  jump\t// in\ntag_110:\n    /* \"#utility.yul\":3747:3784   */\n  swap2\n  pop\n    /* \"#utility.yul\":3817:3820   */\n  dup3\n    /* \"#utility.yul\":3814:3815   */\n  0x02\n    /* \"#utility.yul\":3810:3821   */\n  mul\n    /* \"#utility.yul\":3804:3808   */\n  dup3\n    /* \"#utility.yul\":3801:3822   */\n  or\n    /* \"#utility.yul\":3793:3822   */\n  swap1\n  pop\n    /* \"#utility.yul\":3533:3828   */\n  swap3\n  swap2\n  pop\n  pop\n  jump\t// out\n    /* \"#utility.yul\":3833:5228   */\ntag_7:\n    /* \"#utility.yul\":3950:3987   */\n  tag_112\n    /* \"#utility.yul\":3983:3986   */\n  dup3\n    /* \"#utility.yul\":3950:3987   */\n  tag_39\n  jump\t// in\ntag_112:\n    /* \"#utility.yul\":4052:4070   */\n  0xffffffffffffffff\n    /* \"#utility.yul\":4044:4050   */\n  dup2\n    /* \"#utility.yul\":4041:4071   */\n  gt\n    /* \"#utility.yul\":4038:4094   */\n  iszero\n  tag_113\n  jumpi\n    /* \"#utility.yul\":4074:4092   */\n  tag_114\n  tag_40\n  jump\t// in\ntag_114:\n    /* \"#utility.yul\":4038:4094   */\ntag_113:\n    /* \"#utility.yul\":4118:4156   */\n  tag_115\n    /* \"#utility.yul\":4150:4154   */\n  dup3\n    /* \"#utility.yul\":4144:4155   */\n  sload\n    /* \"#utility.yul\":4118:4156   */\n  tag_42\n  jump\t// in\ntag_115:\n    /* \"#utility.yul\":4203:4270   */\n  tag_116\n    /* \"#utility.yul\":4263:4269   */\n  dup3\n    /* \"#utility.yul\":4255:4261   */\n  dup3\n    /* \"#utility.yul\":4249:4253   */\n  dup6\n    /* \"#utility.yul\":4203:4270   */\n  tag_55\n  jump\t// in\ntag_116:\n    /* \"#utility.yul\":4297:4298   */\n  0x00\n    /* \"#utility.yul\":4321:4325   */\n  0x20\n    /* \"#utility.yul\":4308:4325   */\n  swap1\n  pop\n    /* \"#utility.yul\":4353:4355   */\n  0x1f\n    /* \"#utility.yul\":4345:4351   */\n  dup4\n    /* \"#utility.yul\":4342:4356   */\n  gt\n    /* \"#utility.yul\":4370:4371   */\n  0x01\n    /* \"#utility.yul\":4365:4983   */\n  dup2\n  eq\n  tag_118\n  jumpi\n    /* \"#utility.yul\":5027:5028   */\n  0x00\n    /* \"#utility.yul\":5044:5050   */\n  dup5\n    /* \"#utility.yul\":5041:5118   */\n  iszero\n  tag_119\n  jumpi\n    /* \"#utility.yul\":5093:5102   */\n  dup3\n    /* \"#utility.yul\":5088:5091   */\n  dup8\n    /* \"#utility.yul\":5084:5103   */\n  add\n    /* \"#utility.yul\":5078:5104   */\n  mload\n    /* \"#utility.yul\":5069:5104   */\n  swap1\n  pop\n    /* \"#utility.yul\":5041:5118   */\ntag_119:\n    /* \"#utility.yul\":5144:5211   */\n  tag_120\n    /* \"#utility.yul\":5204:5210   */\n  dup6\n    /* \"#utility.yul\":5197:5202   */\n  dup3\n    /* \"#utility.yul\":5144:5211   */\n  tag_58\n  jump\t// in\ntag_120:\n    /* \"#utility.yul\":5138:5142   */\n  dup7\n    /* \"#utility.yul\":5131:5212   */\n  sstore\n    /* \"#utility.yul\":5000:5222   */\n  pop\n    /* \"#utility.yul\":4335:5222   */\n  jump(tag_117)\n    /* \"#utility.yul\":4365:4983   */\ntag_118:\n    /* \"#utility.yul\":4417:4421   */\n  0x1f\n    /* \"#utility.yul\":4413:4422   */\n  not\n    /* \"#utility.yul\":4405:4411   */\n  dup5\n    /* \"#utility.yul\":4401:4423   */\n  and\n    /* \"#utility.yul\":4451:4488   */\n  tag_121\n    /* \"#utility.yul\":4483:4487   */\n  dup7\n    /* \"#utility.yul\":4451:4488   */\n  tag_43\n  jump\t// in\ntag_121:\n    /* \"#utility.yul\":4510:4511   */\n  0x00\n    /* \"#utility.yul\":4524:4732   */\ntag_122:\n    /* \"#utility.yul\":4538:4545   */\n  dup3\n    /* \"#utility.yul\":4535:4536   */\n  dup2\n    /* \"#utility.yul\":4532:4546   */\n  lt\n    /* \"#utility.yul\":4524:4732   */\n  iszero\n  tag_124\n  jumpi\n    /* \"#utility.yul\":4617:4626   */\n  dup5\n    /* \"#utility.yul\":4612:4615   */\n  dup10\n    /* \"#utility.yul\":4608:4627   */\n  add\n    /* \"#utility.yul\":4602:4628   */\n  mload\n    /* \"#utility.yul\":4594:4600   */\n  dup3\n    /* \"#utility.yul\":4587:4629   */\n  sstore\n    /* \"#utility.yul\":4668:4669   */\n  0x01\n    /* \"#utility.yul\":4660:4666   */\n  dup3\n    /* \"#utility.yul\":4656:4670   */\n  add\n    /* \"#utility.yul\":4646:4670   */\n  swap2\n  pop\n    /* \"#utility.yul\":4715:4717   */\n  0x20\n    /* \"#utility.yul\":4704:4713   */\n  dup6\n    /* \"#utility.yul\":4700:4718   */\n  add\n    /* \"#utility.yul\":4687:4718   */\n  swap5\n  pop\n    /* \"#utility.yul\":4561:4565   */\n  0x20\n    /* \"#utility.yul\":4558:4559   */\n  dup2\n    /* \"#utility.yul\":4554:4566   */\n  add\n    /* \"#utility.yul\":4549:4566   */\n  swap1\n  pop\n    /* \"#utility.yul\":4524:4732   */\n  jump(tag_122)\ntag_124:\n    /* \"#utility.yul\":4760:4766   */\n  dup7\n    /* \"#utility.yul\":4751:4758   */\n  dup4\n    /* \"#utility.yul\":4748:4767   */\n  lt\n    /* \"#utility.yul\":4745:4924   */\n  iszero\n  tag_125\n  jumpi\n    /* \"#utility.yul\":4818:4827   */\n  dup5\n    /* \"#utility.yul\":4813:4816   */\n  dup10\n    /* \"#utility.yul\":4809:4828   */\n  add\n    /* \"#utility.yul\":4803:4829   */\n  mload\n    /* \"#utility.yul\":4861:4909   */\n  tag_126\n    /* \"#utility.yul\":4903:4907   */\n  0x1f\n    /* \"#utility.yul\":4895:4901   */\n  dup10\n    /* \"#utility.yul\":4891:4908   */\n  and\n    /* \"#utility.yul\":4880:4889   */\n  dup3\n    /* \"#utility.yul\":4861:4909   */\n  tag_57\n  jump\t// in\ntag_126:\n    /* \"#utility.yul\":4853:4859   */\n  dup4\n    /* \"#utility.yul\":4846:4910   */\n  sstore\n    /* \"#utility.yul\":4768:4924   */\n  pop\n    /* \"#utility.yul\":4745:4924   */\ntag_125:\n    /* \"#utility.yul\":4970:4971   */\n  0x01\n    /* \"#utility.yul\":4966:4967   */\n  0x02\n    /* \"#utility.yul\":4958:4964   */\n  dup9\n    /* \"#utility.yul\":4954:4968   */\n  mul\n    /* \"#utility.yul\":4950:4972   */\n  add\n    /* \"#utility.yul\":4944:4948   */\n  dup9\n    /* \"#utility.yul\":4937:4973   */\n  sstore\n    /* \"#utility.yul\":4372:4983   */\n  pop\n  pop\n  pop\n    /* \"#utility.yul\":4335:5222   */\ntag_117:\n  pop\n    /* \"#utility.yul\":3925:5228   */\n  pop\n  pop\n  pop\n    /* \"#utility.yul\":3833:5228   */\n  pop\n  pop\n  jump\t// out\n    /* \"#utility.yul\":5234:5382   */\ntag_59:\n    /* \"#utility.yul\":5336:5347   */\n  0x00\n    /* \"#utility.yul\":5373:5376   */\n  dup2\n    /* \"#utility.yul\":5358:5376   */\n  swap1\n  pop\n    /* \"#utility.yul\":5234:5382   */\n  swap3\n  swap2\n  pop\n  pop\n  jump\t// out\n    /* \"#utility.yul\":5388:5634   */\ntag_60:\n    /* \"#utility.yul\":5469:5470   */\n  0x00\n    /* \"#utility.yul\":5479:5592   */\ntag_129:\n    /* \"#utility.yul\":5493:5499   */\n  dup4\n    /* \"#utility.yul\":5490:5491   */\n  dup2\n    /* \"#utility.yul\":5487:5500   */\n  lt\n    /* \"#utility.yul\":5479:5592   */\n  iszero\n  tag_131\n  jumpi\n    /* \"#utility.yul\":5578:5579   */\n  dup1\n    /* \"#utility.yul\":5573:5576   */\n  dup3\n    /* \"#utility.yul\":5569:5580   */\n  add\n    /* \"#utility.yul\":5563:5581   */\n  mload\n    /* \"#utility.yul\":5559:5560   */\n  dup2\n    /* \"#utility.yul\":5554:5557   */\n  dup5\n    /* \"#utility.yul\":5550:5561   */\n  add\n    /* \"#utility.yul\":5543:5582   */\n  mstore\n    /* \"#utility.yul\":5515:5517   */\n  0x20\n    /* \"#utility.yul\":5512:5513   */\n  dup2\n    /* \"#utility.yul\":5508:5518   */\n  add\n    /* \"#utility.yul\":5503:5518   */\n  swap1\n  pop\n    /* \"#utility.yul\":5479:5592   */\n  jump(tag_129)\ntag_131:\n    /* \"#utility.yul\":5626:5627   */\n  0x00\n    /* \"#utility.yul\":5617:5623   */\n  dup5\n    /* \"#utility.yul\":5612:5615   */\n  dup5\n    /* \"#utility.yul\":5608:5624   */\n  add\n    /* \"#utility.yul\":5601:5628   */\n  mstore\n    /* \"#utility.yul\":5450:5634   */\n  pop\n    /* \"#utility.yul\":5388:5634   */\n  pop\n  pop\n  pop\n  jump\t// out\n    /* \"#utility.yul\":5640:6030   */\ntag_61:\n    /* \"#utility.yul\":5746:5749   */\n  0x00\n    /* \"#utility.yul\":5774:5813   */\n  tag_133\n    /* \"#utility.yul\":5807:5812   */\n  dup3\n    /* \"#utility.yul\":5774:5813   */\n  tag_39\n  jump\t// in\ntag_133:\n    /* \"#utility.yul\":5829:5918   */\n  tag_134\n    /* \"#utility.yul\":5911:5917   */\n  dup2\n    /* \"#utility.yul\":5906:5909   */\n  dup6\n    /* \"#utility.yul\":5829:5918   */\n  tag_59\n  jump\t// in\ntag_134:\n    /* \"#utility.yul\":5822:5918   */\n  swap4\n  pop\n    /* \"#utility.yul\":5927:5992   */\n  tag_135\n    /* \"#utility.yul\":5985:5991   */\n  dup2\n    /* \"#utility.yul\":5980:5983   */\n  dup6\n    /* \"#utility.yul\":5973:5977   */\n  0x20\n    /* \"#utility.yul\":5966:5971   */\n  dup7\n    /* \"#utility.yul\":5962:5978   */\n  add\n    /* \"#utility.yul\":5927:5992   */\n  tag_60\n  jump\t// in\ntag_135:\n    /* \"#utility.yul\":6017:6023   */\n  dup1\n    /* \"#utility.yul\":6012:6015   */\n  dup5\n    /* \"#utility.yul\":6008:6024   */\n  add\n    /* \"#utility.yul\":6001:6024   */\n  swap2\n  pop\n    /* \"#utility.yul\":5750:6030   */\n  pop\n    /* \"#utility.yul\":5640:6030   */\n  swap3\n  swap2\n  pop\n  pop\n  jump\t// out\n    /* \"#utility.yul\":6036:6311   */\ntag_27:\n    /* \"#utility.yul\":6168:6171   */\n  0x00\n    /* \"#utility.yul\":6190:6285   */\n  tag_137\n    /* \"#utility.yul\":6281:6284   */\n  dup3\n    /* \"#utility.yul\":6272:6278   */\n  dup5\n    /* \"#utility.yul\":6190:6285   */\n  tag_61\n  jump\t// in\ntag_137:\n    /* \"#utility.yul\":6183:6285   */\n  swap2\n  pop\n    /* \"#utility.yul\":6302:6305   */\n  dup2\n    /* \"#utility.yul\":6295:6305   */\n  swap1\n  pop\n    /* \"#utility.yul\":6036:6311   */\n  swap3\n  swap2\n  pop\n  pop\n  jump\t// out\n    /* \"#utility.yul\":6317:6486   */\ntag_62:\n    /* \"#utility.yul\":6401:6412   */\n  0x00\n    /* \"#utility.yul\":6435:6441   */\n  dup3\n    /* \"#utility.yul\":6430:6433   */\n  dup3\n    /* \"#utility.yul\":6423:6442   */\n  mstore\n    /* \"#utility.yul\":6475:6479   */\n  0x20\n    /* \"#utility.yul\":6470:6473   */\n  dup3\n    /* \"#utility.yul\":6466:6480   */\n  add\n    /* \"#utility.yul\":6451:6480   */\n  swap1\n  pop\n    /* \"#utility.yul\":6317:6486   */\n  swap3\n  swap2\n  pop\n  pop\n  jump\t// out\n    /* \"#utility.yul\":6492:6674   */\ntag_63:\n    /* \"#utility.yul\":6632:6666   */\n  0x4f776e61626c653a2063616c6c6572206973206e6f7420746865206f776e6572\n    /* \"#utility.yul\":6628:6629   */\n  0x00\n    /* \"#utility.yul\":6620:6626   */\n  dup3\n    /* \"#utility.yul\":6616:6630   */\n  add\n    /* \"#utility.yul\":6609:6667   */\n  mstore\n    /* \"#utility.yul\":6492:6674   */\n  pop\n  jump\t// out\n    /* \"#utility.yul\":6680:7046   */\ntag_64:\n    /* \"#utility.yul\":6822:6825   */\n  0x00\n    /* \"#utility.yul\":6843:6910   */\n  tag_141\n    /* \"#utility.yul\":6907:6909   */\n  0x20\n    /* \"#utility.yul\":6902:6905   */\n  dup4\n    /* \"#utility.yul\":6843:6910   */\n  tag_62\n  jump\t// in\ntag_141:\n    /* \"#utility.yul\":6836:6910   */\n  swap2\n  pop\n    /* \"#utility.yul\":6919:7012   */\n  tag_142\n    /* \"#utility.yul\":7008:7011   */\n  dup3\n    /* \"#utility.yul\":6919:7012   */\n  tag_63\n  jump\t// in\ntag_142:\n    /* \"#utility.yul\":7037:7039   */\n  0x20\n    /* \"#utility.yul\":7032:7035   */\n  dup3\n    /* \"#utility.yul\":7028:7040   */\n  add\n    /* \"#utility.yul\":7021:7040   */\n  swap1\n  pop\n    /* \"#utility.yul\":6680:7046   */\n  swap2\n  swap1\n  pop\n  jump\t// out\n    /* \"#utility.yul\":7052:7471   */\ntag_37:\n    /* \"#utility.yul\":7218:7222   */\n  0x00\n    /* \"#utility.yul\":7256:7258   */\n  0x20\n    /* \"#utility.yul\":7245:7254   */\n  dup3\n    /* \"#utility.yul\":7241:7259   */\n  add\n    /* \"#utility.yul\":7233:7259   */\n  swap1\n  pop\n    /* \"#utility.yul\":7305:7314   */\n  dup2\n    /* \"#utility.yul\":7299:7303   */\n  dup2\n    /* \"#utility.yul\":7295:7315   */\n  sub\n    /* \"#utility.yul\":7291:7292   */\n  0x00\n    /* \"#utility.yul\":7280:7289   */\n  dup4\n    /* \"#utility.yul\":7276:7293   */\n  add\n    /* \"#utility.yul\":7269:7316   */\n  mstore\n    /* \"#utility.yul\":7333:7464   */\n  tag_144\n    /* \"#utility.yul\":7459:7463   */\n  dup2\n    /* \"#utility.yul\":7333:7464   */\n  tag_64\n  jump\t// in\ntag_144:\n    /* \"#utility.yul\":7325:7464   */\n  swap1\n  pop\n    /* \"#utility.yul\":7052:7471   */\n  swap2\n  swap1\n  pop\n  jump\t// out\n    /* \"contracts/DegenToken.sol\":168:2760  contract DegenToken is ERC20, Ownable {... */\ntag_19:\n  dataSize(sub_0)\n  dup1\n  dataOffset(sub_0)\n  0x00\n  codecopy\n  0x00\n  return\nstop\n\nsub_0: assembly {\n        /* \"contracts/DegenToken.sol\":168:2760  contract DegenToken is ERC20, Ownable {... */\n      mstore(0x40, 0x80)\n      callvalue\n      dup1\n      iszero\n      tag_1\n      jumpi\n      0x00\n      dup1\n      revert\n    tag_1:\n      pop\n      jumpi(tag_2, lt(calldatasize, 0x04))\n      shr(0xe0, calldataload(0x00))\n      dup1\n      0x42966c68\n      gt\n      tag_22\n      jumpi\n      dup1\n      0x95d89b41\n      gt\n      tag_23\n      jumpi\n      dup1\n      0x95d89b41\n      eq\n      tag_17\n      jumpi\n      dup1\n      0xa457c2d7\n      eq\n      tag_18\n      jumpi\n      dup1\n      0xa9059cbb\n      eq\n      tag_19\n      jumpi\n      dup1\n      0xdd62ed3e\n      eq\n      tag_20\n      jumpi\n      dup1\n      0xf2fde38b\n      eq\n      tag_21\n      jumpi\n      jump(tag_2)\n    tag_23:\n      dup1\n      0x42966c68\n      eq\n      tag_12\n      jumpi\n      dup1\n      0x65e17540\n      eq\n      tag_13\n      jumpi\n      dup1\n      0x70a08231\n      eq\n      tag_14\n      jumpi\n      dup1\n      0x715018a6\n      eq\n      tag_15\n      jumpi\n      dup1\n      0x8da5cb5b\n      eq\n      tag_16\n      jumpi\n      jump(tag_2)\n    tag_22:\n      dup1\n      0x18160ddd\n      gt\n      tag_24\n      jumpi\n      dup1\n      0x18160ddd\n      eq\n      tag_7\n      jumpi\n      dup1\n      0x23b872dd\n      eq\n      tag_8\n      jumpi\n      dup1\n      0x313ce567\n      eq\n      tag_9\n      jumpi\n      dup1\n      0x39509351\n      eq\n      tag_10\n      jumpi\n      dup1\n      0x40c10f19\n      eq\n      tag_11\n      jumpi\n      jump(tag_2)\n    tag_24:\n      dup1\n      0x06fdde03\n      eq\n      tag_3\n      jumpi\n      dup1\n      0x095ea7b3\n      eq\n      tag_4\n      jumpi\n      dup1\n      0x1222c25a\n      eq\n      tag_5\n      jumpi\n      dup1\n      0x13df81d6\n      eq\n      tag_6\n      jumpi\n    tag_2:\n      0x00\n      dup1\n      revert\n        /* \"@openzeppelin/contracts/token/ERC20/ERC20.sol\":2154:2252  function name() public view virtual override returns (string memory) {... */\n    tag_3:\n      tag_25\n      tag_26\n      jump\t// in\n    tag_25:\n      mload(0x40)\n      tag_27\n      swap2\n      swap1\n      tag_28\n      jump\t// in\n    tag_27:\n      mload(0x40)\n      dup1\n      swap2\n      sub\n      swap1\n      return\n        /* \"@openzeppelin/contracts/token/ERC20/ERC20.sol\":4431:4628  function approve(address spender, uint256 amount) public virtual override returns (bool) {... */\n    tag_4:\n      tag_29\n      0x04\n      dup1\n      calldatasize\n      sub\n      dup2\n      add\n      swap1\n      tag_30\n      swap2\n      swap1\n      tag_31\n      jump\t// in\n    tag_30:\n      tag_32\n      jump\t// in\n    tag_29:\n      mload(0x40)\n      tag_33\n      swap2\n      swap1\n      tag_34\n      jump\t// in\n    tag_33:\n      mload(0x40)\n      dup1\n      swap2\n      sub\n      swap1\n      return\n        /* \"contracts/DegenToken.sol\":1802:2207  function redeem(string memory itemId) external {... */\n    tag_5:\n      tag_35\n      0x04\n      dup1\n      calldatasize\n      sub\n      dup2\n      add\n      swap1\n      tag_36\n      swap2\n      swap1\n      tag_37\n      jump\t// in\n    tag_36:\n      tag_38\n      jump\t// in\n    tag_35:\n      stop\n        /* \"contracts/DegenToken.sol\":2242:2430  function addItem(string memory itemId, string memory name, uint256 price, string memory description) public onlyOwner {... */\n    tag_6:\n      tag_39\n      0x04\n      dup1\n      calldatasize\n      sub\n      dup2\n      add\n      swap1\n      tag_40\n      swap2\n      swap1\n      tag_41\n      jump\t// in\n    tag_40:\n      tag_42\n      jump\t// in\n    tag_39:\n      stop\n        /* \"@openzeppelin/contracts/token/ERC20/ERC20.sol\":3242:3348  function totalSupply() public view virtual override returns (uint256) {... */\n    tag_7:\n      tag_43\n      tag_44\n      jump\t// in\n    tag_43:\n      mload(0x40)\n      tag_45\n      swap2\n      swap1\n      tag_46\n      jump\t// in\n    tag_45:\n      mload(0x40)\n      dup1\n      swap2\n      sub\n      swap1\n      return\n        /* \"@openzeppelin/contracts/token/ERC20/ERC20.sol\":5190:5476  function transferFrom(... */\n    tag_8:\n      tag_47\n      0x04\n      dup1\n      calldatasize\n      sub\n      dup2\n      add\n      swap1\n      tag_48\n      swap2\n      swap1\n      tag_49\n      jump\t// in\n    tag_48:\n      tag_50\n      jump\t// in\n    tag_47:\n      mload(0x40)\n      tag_51\n      swap2\n      swap1\n      tag_34\n      jump\t// in\n    tag_51:\n      mload(0x40)\n      dup1\n      swap2\n      sub\n      swap1\n      return\n        /* \"@openzeppelin/contracts/token/ERC20/ERC20.sol\":3091:3182  function decimals() public view virtual override returns (uint8) {... */\n    tag_9:\n      tag_52\n      tag_53\n      jump\t// in\n    tag_52:\n      mload(0x40)\n      tag_54\n      swap2\n      swap1\n      tag_55\n      jump\t// in\n    tag_54:\n      mload(0x40)\n      dup1\n      swap2\n      sub\n      swap1\n      return\n        /* \"@openzeppelin/contracts/token/ERC20/ERC20.sol\":5871:6105  function increaseAllowance(address spender, uint256 addedValue) public virtual returns (bool) {... */\n    tag_10:\n      tag_56\n      0x04\n      dup1\n      calldatasize\n      sub\n      dup2\n      add\n      swap1\n      tag_57\n      swap2\n      swap1\n      tag_31\n      jump\t// in\n    tag_57:\n      tag_58\n      jump\t// in\n    tag_56:\n      mload(0x40)\n      tag_59\n      swap2\n      swap1\n      tag_34\n      jump\t// in\n    tag_59:\n      mload(0x40)\n      dup1\n      swap2\n      sub\n      swap1\n      return\n        /* \"contracts/DegenToken.sol\":985:1145  function mint(address to, uint256 amount) external onlyOwner {... */\n    tag_11:\n      tag_60\n      0x04\n      dup1\n      calldatasize\n      sub\n      dup2\n      add\n      swap1\n      tag_61\n      swap2\n      swap1\n      tag_31\n      jump\t// in\n    tag_61:\n      tag_62\n      jump\t// in\n    tag_60:\n      stop\n        /* \"contracts/DegenToken.sol\":1170:1437  function burn(uint256 amount) external {... */\n    tag_12:\n      tag_63\n      0x04\n      dup1\n      calldatasize\n      sub\n      dup2\n      add\n      swap1\n      tag_64\n      swap2\n      swap1\n      tag_65\n      jump\t// in\n    tag_64:\n      tag_66\n      jump\t// in\n    tag_63:\n      stop\n        /* \"contracts/DegenToken.sol\":2459:2758  function getShopItems() external view returns (Item[] memory) {... */\n    tag_13:\n      tag_67\n      tag_68\n      jump\t// in\n    tag_67:\n      mload(0x40)\n      tag_69\n      swap2\n      swap1\n      tag_70\n      jump\t// in\n    tag_69:\n      mload(0x40)\n      dup1\n      swap2\n      sub\n      swap1\n      return\n        /* \"@openzeppelin/contracts/token/ERC20/ERC20.sol\":3406:3531  function balanceOf(address account) public view virtual override returns (uint256) {... */\n    tag_14:\n      tag_71\n      0x04\n      dup1\n      calldatasize\n      sub\n      dup2\n      add\n      swap1\n      tag_72\n      swap2\n      swap1\n      tag_73\n      jump\t// in\n    tag_72:\n      tag_74\n      jump\t// in\n    tag_71:\n      mload(0x40)\n      tag_75\n      swap2\n      swap1\n      tag_46\n      jump\t// in\n    tag_75:\n      mload(0x40)\n      dup1\n      swap2\n      sub\n      swap1\n      return\n        /* \"@openzeppelin/contracts/access/Ownable.sol\":1831:1932  function renounceOwnership() public virtual onlyOwner {... */\n    tag_15:\n      tag_76\n      tag_77\n      jump\t// in\n    tag_76:\n      stop\n        /* \"@openzeppelin/contracts/access/Ownable.sol\":1201:1286  function owner() public view virtual returns (address) {... */\n    tag_16:\n      tag_78\n      tag_79\n      jump\t// in\n    tag_78:\n      mload(0x40)\n      tag_80\n      swap2\n      swap1\n      tag_81\n      jump\t// in\n    tag_80:\n      mload(0x40)\n      dup1\n      swap2\n      sub\n      swap1\n      return\n        /* \"@openzeppelin/contracts/token/ERC20/ERC20.sol\":2365:2467  function symbol() public view virtual override returns (string memory) {... */\n    tag_17:\n      tag_82\n      tag_83\n      jump\t// in\n    tag_82:\n      mload(0x40)\n      tag_84\n      swap2\n      swap1\n      tag_28\n      jump\t// in\n    tag_84:\n      mload(0x40)\n      dup1\n      swap2\n      sub\n      swap1\n      return\n        /* \"@openzeppelin/contracts/token/ERC20/ERC20.sol\":6592:7019  function decreaseAllowance(address spender, uint256 subtractedValue) public virtual returns (bool) {... */\n    tag_18:\n      tag_85\n      0x04\n      dup1\n      calldatasize\n      sub\n      dup2\n      add\n      swap1\n      tag_86\n      swap2\n      swap1\n      tag_31\n      jump\t// in\n    tag_86:\n      tag_87\n      jump\t// in\n    tag_85:\n      mload(0x40)\n      tag_88\n      swap2\n      swap1\n      tag_34\n      jump\t// in\n    tag_88:\n      mload(0x40)\n      dup1\n      swap2\n      sub\n      swap1\n      return\n        /* \"contracts/DegenToken.sol\":1466:1760  function transfer(address recipient, uint256 amount) public override returns (bool) {... */\n    tag_19:\n      tag_89\n      0x04\n      dup1\n      calldatasize\n      sub\n      dup2\n      add\n      swap1\n      tag_90\n      swap2\n      swap1\n      tag_31\n      jump\t// in\n    tag_90:\n      tag_91\n      jump\t// in\n    tag_89:\n      mload(0x40)\n      tag_92\n      swap2\n      swap1\n      tag_34\n      jump\t// in\n    tag_92:\n      mload(0x40)\n      dup1\n      swap2\n      sub\n      swap1\n      return\n        /* \"@openzeppelin/contracts/token/ERC20/ERC20.sol\":3974:4123  function allowance(address owner, address spender) public view virtual override returns (uint256) {... */\n    tag_20:\n      tag_93\n      0x04\n      dup1\n      calldatasize\n      sub\n      dup2\n      add\n      swap1\n      tag_94\n      swap2\n      swap1\n      tag_95\n      jump\t// in\n    tag_94:\n      tag_96\n      jump\t// in\n    tag_93:\n      mload(0x40)\n      tag_97\n      swap2\n      swap1\n      tag_46\n      jump\t// in\n    tag_97:\n      mload(0x40)\n      dup1\n      swap2\n      sub\n      swap1\n      return\n        /* \"@openzeppelin/contracts/access/Ownable.sol\":2081:2279  function transferOwnership(address newOwner) public virtual onlyOwner {... */\n    tag_21:\n      tag_98\n      0x04\n      dup1\n      calldatasize\n      sub\n      dup2\n      add\n      swap1\n      tag_99\n      swap2\n      swap1\n      tag_73\n      jump\t// in\n    tag_99:\n      tag_100\n      jump\t// in\n    tag_98:\n      stop\n        /* \"@openzeppelin/contracts/token/ERC20/ERC20.sol\":2154:2252  function name() public view virtual override returns (string memory) {... */\n    tag_26:\n        /* \"@openzeppelin/contracts/token/ERC20/ERC20.sol\":2208:2221  string memory */\n      0x60\n        /* \"@openzeppelin/contracts/token/ERC20/ERC20.sol\":2240:2245  _name */\n      0x03\n        /* \"@openzeppelin/contracts/token/ERC20/ERC20.sol\":2233:2245  return _name */\n      dup1\n      sload\n      tag_102\n      swap1\n      tag_103\n      jump\t// in\n    tag_102:\n      dup1\n      0x1f\n      add\n      0x20\n      dup1\n      swap2\n      div\n      mul\n      0x20\n      add\n      mload(0x40)\n      swap1\n      dup2\n      add\n      0x40\n      mstore\n      dup1\n      swap3\n      swap2\n      swap1\n      dup2\n      dup2\n      mstore\n      0x20\n      add\n      dup3\n      dup1\n      sload\n      tag_104\n      swap1\n      tag_103\n      jump\t// in\n    tag_104:\n      dup1\n      iszero\n      tag_105\n      jumpi\n      dup1\n      0x1f\n      lt\n      tag_106\n      jumpi\n      0x0100\n      dup1\n      dup4\n      sload\n      div\n      mul\n      dup4\n      mstore\n      swap2\n      0x20\n      add\n      swap2\n      jump(tag_105)\n    tag_106:\n      dup3\n      add\n      swap2\n      swap1\n      0x00\n      mstore\n      keccak256(0x00, 0x20)\n      swap1\n    tag_107:\n      dup2\n      sload\n      dup2\n      mstore\n      swap1\n      0x01\n      add\n      swap1\n      0x20\n      add\n      dup1\n      dup4\n      gt\n      tag_107\n      jumpi\n      dup3\n      swap1\n      sub\n      0x1f\n      and\n      dup3\n      add\n      swap2\n    tag_105:\n      pop\n      pop\n      pop\n      pop\n      pop\n      swap1\n      pop\n        /* \"@openzeppelin/contracts/token/ERC20/ERC20.sol\":2154:2252  function name() public view virtual override returns (string memory) {... */\n      swap1\n      jump\t// out\n        /* \"@openzeppelin/contracts/token/ERC20/ERC20.sol\":4431:4628  function approve(address spender, uint256 amount) public virtual override returns (bool) {... */\n    tag_32:\n        /* \"@openzeppelin/contracts/token/ERC20/ERC20.sol\":4514:4518  bool */\n      0x00\n        /* \"@openzeppelin/contracts/token/ERC20/ERC20.sol\":4530:4543  address owner */\n      dup1\n        /* \"@openzeppelin/contracts/token/ERC20/ERC20.sol\":4546:4558  _msgSender() */\n      tag_109\n        /* \"@openzeppelin/contracts/token/ERC20/ERC20.sol\":4546:4556  _msgSender */\n      tag_110\n        /* \"@openzeppelin/contracts/token/ERC20/ERC20.sol\":4546:4558  _msgSender() */\n      jump\t// in\n    tag_109:\n        /* \"@openzeppelin/contracts/token/ERC20/ERC20.sol\":4530:4558  address owner = _msgSender() */\n      swap1\n      pop\n        /* \"@openzeppelin/contracts/token/ERC20/ERC20.sol\":4568:4600  _approve(owner, spender, amount) */\n      tag_111\n        /* \"@openzeppelin/contracts/token/ERC20/ERC20.sol\":4577:4582  owner */\n      dup2\n        /* \"@openzeppelin/contracts/token/ERC20/ERC20.sol\":4584:4591  spender */\n      dup6\n        /* \"@openzeppelin/contracts/token/ERC20/ERC20.sol\":4593:4599  amount */\n      dup6\n        /* \"@openzeppelin/contracts/token/ERC20/ERC20.sol\":4568:4576  _approve */\n      tag_112\n        /* \"@openzeppelin/contracts/token/ERC20/ERC20.sol\":4568:4600  _approve(owner, spender, amount) */\n      jump\t// in\n    tag_111:\n        /* \"@openzeppelin/contracts/token/ERC20/ERC20.sol\":4617:4621  true */\n      0x01\n        /* \"@openzeppelin/contracts/token/ERC20/ERC20.sol\":4610:4621  return true */\n      swap2\n      pop\n      pop\n        /* \"@openzeppelin/contracts/token/ERC20/ERC20.sol\":4431:4628  function approve(address spender, uint256 amount) public virtual override returns (bool) {... */\n      swap3\n      swap2\n      pop\n      pop\n      jump\t// out\n        /* \"contracts/DegenToken.sol\":1802:2207  function redeem(string memory itemId) external {... */\n    tag_38:\n        /* \"contracts/DegenToken.sol\":1859:1875  Item memory item */\n      0x00\n        /* \"contracts/DegenToken.sol\":1878:1882  shop */\n      0x06\n        /* \"contracts/DegenToken.sol\":1883:1889  itemId */\n      dup3\n        /* \"contracts/DegenToken.sol\":1878:1890  shop[itemId] */\n      mload(0x40)\n      tag_114\n      swap2\n      swap1\n      tag_115\n      jump\t// in\n    tag_114:\n      swap1\n      dup2\n      mstore\n      0x20\n      add\n      mload(0x40)\n      dup1\n      swap2\n      sub\n      swap1\n      keccak256\n        /* \"contracts/DegenToken.sol\":1859:1890  Item memory item = shop[itemId] */\n      mload(0x40)\n      dup1\n      0x80\n      add\n      0x40\n      mstore\n      swap1\n      dup2\n      0x00\n      dup3\n      add\n      dup1\n      sload\n      tag_116\n      swap1\n      tag_103\n      jump\t// in\n    tag_116:\n      dup1\n      0x1f\n      add\n      0x20\n      dup1\n      swap2\n      div\n      mul\n      0x20\n      add\n      mload(0x40)\n      swap1\n      dup2\n      add\n      0x40\n      mstore\n      dup1\n      swap3\n      swap2\n      swap1\n      dup2\n      dup2\n      mstore\n      0x20\n      add\n      dup3\n      dup1\n      sload\n      tag_117\n      swap1\n      tag_103\n      jump\t// in\n    tag_117:\n      dup1\n      iszero\n      tag_118\n      jumpi\n      dup1\n      0x1f\n      lt\n      tag_119\n      jumpi\n      0x0100\n      dup1\n      dup4\n      sload\n      div\n      mul\n      dup4\n      mstore\n      swap2\n      0x20\n      add\n      swap2\n      jump(tag_118)\n    tag_119:\n      dup3\n      add\n      swap2\n      swap1\n      0x00\n      mstore\n      keccak256(0x00, 0x20)\n      swap1\n    tag_120:\n      dup2\n      sload\n      dup2\n      mstore\n      swap1\n      0x01\n      add\n      swap1\n      0x20\n      add\n      dup1\n      dup4\n      gt\n      tag_120\n      jumpi\n      dup3\n      swap1\n      sub\n      0x1f\n      and\n      dup3\n      add\n      swap2\n    tag_118:\n      pop\n      pop\n      pop\n      pop\n      pop\n      dup2\n      mstore\n      0x20\n      add\n      0x01\n      dup3\n      add\n      dup1\n      sload\n      tag_121\n      swap1\n      tag_103\n      jump\t// in\n    tag_121:\n      dup1\n      0x1f\n      add\n      0x20\n      dup1\n      swap2\n      div\n      mul\n      0x20\n      add\n      mload(0x40)\n      swap1\n      dup2\n      add\n      0x40\n      mstore\n      dup1\n      swap3\n      swap2\n      swap1\n      dup2\n      dup2\n      mstore\n      0x20\n      add\n      dup3\n      dup1\n      sload\n      tag_122\n      swap1\n      tag_103\n      jump\t// in\n    tag_122:\n      dup1\n      iszero\n      tag_123\n      jumpi\n      dup1\n      0x1f\n      lt\n      tag_124\n      jumpi\n      0x0100\n      dup1\n      dup4\n      sload\n      div\n      mul\n      dup4\n      mstore\n      swap2\n      0x20\n      add\n      swap2\n      jump(tag_123)\n    tag_124:\n      dup3\n      add\n      swap2\n      swap1\n      0x00\n      mstore\n      keccak256(0x00, 0x20)\n      swap1\n    tag_125:\n      dup2\n      sload\n      dup2\n      mstore\n      swap1\n      0x01\n      add\n      swap1\n      0x20\n      add\n      dup1\n      dup4\n      gt\n      tag_125\n      jumpi\n      dup3\n      swap1\n      sub\n      0x1f\n      and\n      dup3\n      add\n      swap2\n    tag_123:\n      pop\n      pop\n      pop\n      pop\n      pop\n      dup2\n      mstore\n      0x20\n      add\n      0x02\n      dup3\n      add\n      sload\n      dup2\n      mstore\n      0x20\n      add\n      0x03\n      dup3\n      add\n      dup1\n      sload\n      tag_126\n      swap1\n      tag_103\n      jump\t// in\n    tag_126:\n      dup1\n      0x1f\n      add\n      0x20\n      dup1\n      swap2\n      div\n      mul\n      0x20\n      add\n      mload(0x40)\n      swap1\n      dup2\n      add\n      0x40\n      mstore\n      dup1\n      swap3\n      swap2\n      swap1\n      dup2\n      dup2\n      mstore\n      0x20\n      add\n      dup3\n      dup1\n      sload\n      tag_127\n      swap1\n      tag_103\n      jump\t// in\n    tag_127:\n      dup1\n      iszero\n      tag_128\n      jumpi\n      dup1\n      0x1f\n      lt\n      tag_129\n      jumpi\n      0x0100\n      dup1\n      dup4\n      sload\n      div\n      mul\n      dup4\n      mstore\n      swap2\n      0x20\n      add\n      swap2\n      jump(tag_128)\n    tag_129:\n      dup3\n      add\n      swap2\n      swap1\n      0x00\n      mstore\n      keccak256(0x00, 0x20)\n      swap1\n    tag_130:\n      dup2\n      sload\n      dup2\n      mstore\n      swap1\n      0x01\n      add\n      swap1\n      0x20\n      add\n      dup1\n      dup4\n      gt\n      tag_130\n      jumpi\n      dup3\n      swap1\n      sub\n      0x1f\n      and\n      dup3\n      add\n      swap2\n    tag_128:\n      pop\n      pop\n      pop\n      pop\n      pop\n      dup2\n      mstore\n      pop\n      pop\n      swap1\n      pop\n        /* \"contracts/DegenToken.sol\":1932:1933  0 */\n      0x00\n        /* \"contracts/DegenToken.sol\":1914:1918  item */\n      dup2\n        /* \"contracts/DegenToken.sol\":1914:1921  item.id */\n      0x00\n      add\n      mload\n        /* \"contracts/DegenToken.sol\":1908:1929  bytes(item.id).length */\n      mload\n        /* \"contracts/DegenToken.sol\":1908:1933  bytes(item.id).length > 0 */\n      gt\n        /* \"contracts/DegenToken.sol\":1900:1957  require(bytes(item.id).length > 0, \"Item does not exist\") */\n      tag_131\n      jumpi\n      mload(0x40)\n      0x08c379a000000000000000000000000000000000000000000000000000000000\n      dup2\n      mstore\n      0x04\n      add\n      tag_132\n      swap1\n      tag_133\n      jump\t// in\n    tag_132:\n      mload(0x40)\n      dup1\n      swap2\n      sub\n      swap1\n      revert\n    tag_131:\n        /* \"contracts/DegenToken.sol\":2000:2004  item */\n      dup1\n        /* \"contracts/DegenToken.sol\":2000:2010  item.price */\n      0x40\n      add\n      mload\n        /* \"contracts/DegenToken.sol\":1975:1996  balanceOf(msg.sender) */\n      tag_134\n        /* \"contracts/DegenToken.sol\":1985:1995  msg.sender */\n      caller\n        /* \"contracts/DegenToken.sol\":1975:1984  balanceOf */\n      tag_74\n        /* \"contracts/DegenToken.sol\":1975:1996  balanceOf(msg.sender) */\n      jump\t// in\n    tag_134:\n        /* \"contracts/DegenToken.sol\":1975:2010  balanceOf(msg.sender) >= item.price */\n      lt\n      iszero\n        /* \"contracts/DegenToken.sol\":1967:2035  require(balanceOf(msg.sender) >= item.price, \"Insufficient balance\") */\n      tag_135\n      jumpi\n      mload(0x40)\n      0x08c379a000000000000000000000000000000000000000000000000000000000\n      dup2\n      mstore\n      0x04\n      add\n      tag_136\n      swap1\n      tag_137\n      jump\t// in\n    tag_136:\n      mload(0x40)\n      dup1\n      swap2\n      sub\n      swap1\n      revert\n    tag_135:\n        /* \"contracts/DegenToken.sol\":2046:2075  _burn(msg.sender, item.price) */\n      tag_138\n        /* \"contracts/DegenToken.sol\":2052:2062  msg.sender */\n      caller\n        /* \"contracts/DegenToken.sol\":2064:2068  item */\n      dup3\n        /* \"contracts/DegenToken.sol\":2064:2074  item.price */\n      0x40\n      add\n      mload\n        /* \"contracts/DegenToken.sol\":2046:2051  _burn */\n      tag_139\n        /* \"contracts/DegenToken.sol\":2046:2075  _burn(msg.sender, item.price) */\n      jump\t// in\n    tag_138:\n        /* \"contracts/DegenToken.sol\":2086:2102  playerOwnedItems */\n      0x07\n        /* \"contracts/DegenToken.sol\":2086:2114  playerOwnedItems[msg.sender] */\n      0x00\n        /* \"contracts/DegenToken.sol\":2103:2113  msg.sender */\n      caller\n        /* \"contracts/DegenToken.sol\":2086:2114  playerOwnedItems[msg.sender] */\n      0xffffffffffffffffffffffffffffffffffffffff\n      and\n      0xffffffffffffffffffffffffffffffffffffffff\n      and\n      dup2\n      mstore\n      0x20\n      add\n      swap1\n      dup2\n      mstore\n      0x20\n      add\n      0x00\n      keccak256\n        /* \"contracts/DegenToken.sol\":2120:2126  itemId */\n      dup3\n        /* \"contracts/DegenToken.sol\":2086:2127  playerOwnedItems[msg.sender].push(itemId) */\n      swap1\n      dup1\n      0x01\n      dup2\n      sload\n      add\n      dup1\n      dup3\n      sstore\n      dup1\n      swap2\n      pop\n      pop\n      0x01\n      swap1\n      sub\n      swap1\n      0x00\n      mstore\n      keccak256(0x00, 0x20)\n      add\n      0x00\n      swap1\n      swap2\n      swap1\n      swap2\n      swap1\n      swap2\n      pop\n      swap1\n      dup2\n      tag_141\n      swap2\n      swap1\n      tag_142\n      jump\t// in\n    tag_141:\n      pop\n        /* \"contracts/DegenToken.sol\":2157:2167  msg.sender */\n      caller\n        /* \"contracts/DegenToken.sol\":2144:2200  ItemRedeemed(msg.sender, item.id, item.name, item.price) */\n      0xffffffffffffffffffffffffffffffffffffffff\n      and\n      0xeae102626b1948901686254c9254dbea782595b232309c4e8af998581393149a\n        /* \"contracts/DegenToken.sol\":2169:2173  item */\n      dup3\n        /* \"contracts/DegenToken.sol\":2169:2176  item.id */\n      0x00\n      add\n      mload\n        /* \"contracts/DegenToken.sol\":2178:2182  item */\n      dup4\n        /* \"contracts/DegenToken.sol\":2178:2187  item.name */\n      0x20\n      add\n      mload\n        /* \"contracts/DegenToken.sol\":2189:2193  item */\n      dup5\n        /* \"contracts/DegenToken.sol\":2189:2199  item.price */\n      0x40\n      add\n      mload\n        /* \"contracts/DegenToken.sol\":2144:2200  ItemRedeemed(msg.sender, item.id, item.name, item.price) */\n      mload(0x40)\n      tag_143\n      swap4\n      swap3\n      swap2\n      swap1\n      tag_144\n      jump\t// in\n    tag_143:\n      mload(0x40)\n      dup1\n      swap2\n      sub\n      swap1\n      log2\n        /* \"contracts/DegenToken.sol\":1849:2207  {... */\n      pop\n        /* \"contracts/DegenToken.sol\":1802:2207  function redeem(string memory itemId) external {... */\n      pop\n      jump\t// out\n        /* \"contracts/DegenToken.sol\":2242:2430  function addItem(string memory itemId, string memory name, uint256 price, string memory description) public onlyOwner {... */\n    tag_42:\n        /* \"@openzeppelin/contracts/access/Ownable.sol\":1094:1107  _checkOwner() */\n      tag_146\n        /* \"@openzeppelin/contracts/access/Ownable.sol\":1094:1105  _checkOwner */\n      tag_147\n        /* \"@openzeppelin/contracts/access/Ownable.sol\":1094:1107  _checkOwner() */\n      jump\t// in\n    tag_146:\n        /* \"contracts/DegenToken.sol\":2385:2423  Item(itemId, name, price, description) */\n      mload(0x40)\n      dup1\n      0x80\n      add\n      0x40\n      mstore\n      dup1\n        /* \"contracts/DegenToken.sol\":2390:2396  itemId */\n      dup6\n        /* \"contracts/DegenToken.sol\":2385:2423  Item(itemId, name, price, description) */\n      dup2\n      mstore\n      0x20\n      add\n        /* \"contracts/DegenToken.sol\":2398:2402  name */\n      dup5\n        /* \"contracts/DegenToken.sol\":2385:2423  Item(itemId, name, price, description) */\n      dup2\n      mstore\n      0x20\n      add\n        /* \"contracts/DegenToken.sol\":2404:2409  price */\n      dup4\n        /* \"contracts/DegenToken.sol\":2385:2423  Item(itemId, name, price, description) */\n      dup2\n      mstore\n      0x20\n      add\n        /* \"contracts/DegenToken.sol\":2411:2422  description */\n      dup3\n        /* \"contracts/DegenToken.sol\":2385:2423  Item(itemId, name, price, description) */\n      dup2\n      mstore\n      pop\n        /* \"contracts/DegenToken.sol\":2370:2374  shop */\n      0x06\n        /* \"contracts/DegenToken.sol\":2375:2381  itemId */\n      dup6\n        /* \"contracts/DegenToken.sol\":2370:2382  shop[itemId] */\n      mload(0x40)\n      tag_149\n      swap2\n      swap1\n      tag_115\n      jump\t// in\n    tag_149:\n      swap1\n      dup2\n      mstore\n      0x20\n      add\n      mload(0x40)\n      dup1\n      swap2\n      sub\n      swap1\n      keccak256\n        /* \"contracts/DegenToken.sol\":2370:2423  shop[itemId] = Item(itemId, name, price, description) */\n      0x00\n      dup3\n      add\n      mload\n      dup2\n      0x00\n      add\n      swap1\n      dup2\n      tag_150\n      swap2\n      swap1\n      tag_142\n      jump\t// in\n    tag_150:\n      pop\n      0x20\n      dup3\n      add\n      mload\n      dup2\n      0x01\n      add\n      swap1\n      dup2\n      tag_151\n      swap2\n      swap1\n      tag_142\n      jump\t// in\n    tag_151:\n      pop\n      0x40\n      dup3\n      add\n      mload\n      dup2\n      0x02\n      add\n      sstore\n      0x60\n      dup3\n      add\n      mload\n      dup2\n      0x03\n      add\n      swap1\n      dup2\n      tag_152\n      swap2\n      swap1\n      tag_142\n      jump\t// in\n    tag_152:\n      pop\n      swap1\n      pop\n      pop\n        /* \"contracts/DegenToken.sol\":2242:2430  function addItem(string memory itemId, string memory name, uint256 price, string memory description) public onlyOwner {... */\n      pop\n      pop\n      pop\n      pop\n      jump\t// out\n        /* \"@openzeppelin/contracts/token/ERC20/ERC20.sol\":3242:3348  function totalSupply() public view virtual override returns (uint256) {... */\n    tag_44:\n        /* \"@openzeppelin/contracts/token/ERC20/ERC20.sol\":3303:3310  uint256 */\n      0x00\n        /* \"@openzeppelin/contracts/token/ERC20/ERC20.sol\":3329:3341  _totalSupply */\n      sload(0x02)\n        /* \"@openzeppelin/contracts/token/ERC20/ERC20.sol\":3322:3341  return _totalSupply */\n      swap1\n      pop\n        /* \"@openzeppelin/contracts/token/ERC20/ERC20.sol\":3242:3348  function totalSupply() public view virtual override returns (uint256) {... */\n      swap1\n      jump\t// out\n        /* \"@openzeppelin/contracts/token/ERC20/ERC20.sol\":5190:5476  function transferFrom(... */\n    tag_50:\n        /* \"@openzeppelin/contracts/token/ERC20/ERC20.sol\":5317:5321  bool */\n      0x00\n        /* \"@openzeppelin/contracts/token/ERC20/ERC20.sol\":5333:5348  address spender */\n      dup1\n        /* \"@openzeppelin/contracts/token/ERC20/ERC20.sol\":5351:5363  _msgSender() */\n      tag_155\n        /* \"@openzeppelin/contracts/token/ERC20/ERC20.sol\":5351:5361  _msgSender */\n      tag_110\n        /* \"@openzeppelin/contracts/token/ERC20/ERC20.sol\":5351:5363  _msgSender() */\n      jump\t// in\n    tag_155:\n        /* \"@openzeppelin/contracts/token/ERC20/ERC20.sol\":5333:5363  address spender = _msgSender() */\n      swap1\n      pop\n        /* \"@openzeppelin/contracts/token/ERC20/ERC20.sol\":5373:5411  _spendAllowance(from, spender, amount) */\n      tag_156\n        /* \"@openzeppelin/contracts/token/ERC20/ERC20.sol\":5389:5393  from */\n      dup6\n        /* \"@openzeppelin/contracts/token/ERC20/ERC20.sol\":5395:5402  spender */\n      dup3\n        /* \"@openzeppelin/contracts/token/ERC20/ERC20.sol\":5404:5410  amount */\n      dup6\n        /* \"@openzeppelin/contracts/token/ERC20/ERC20.sol\":5373:5388  _spendAllowance */\n      tag_157\n        /* \"@openzeppelin/contracts/token/ERC20/ERC20.sol\":5373:5411  _spendAllowance(from, spender, amount) */\n      jump\t// in\n    tag_156:\n        /* \"@openzeppelin/contracts/token/ERC20/ERC20.sol\":5421:5448  _transfer(from, to, amount) */\n      tag_158\n        /* \"@openzeppelin/contracts/token/ERC20/ERC20.sol\":5431:5435  from */\n      dup6\n        /* \"@openzeppelin/contracts/token/ERC20/ERC20.sol\":5437:5439  to */\n      dup6\n        /* \"@openzeppelin/contracts/token/ERC20/ERC20.sol\":5441:5447  amount */\n      dup6\n        /* \"@openzeppelin/contracts/token/ERC20/ERC20.sol\":5421:5430  _transfer */\n      tag_159\n        /* \"@openzeppelin/contracts/token/ERC20/ERC20.sol\":5421:5448  _transfer(from, to, amount) */\n      jump\t// in\n    tag_158:\n        /* \"@openzeppelin/contracts/token/ERC20/ERC20.sol\":5465:5469  true */\n      0x01\n        /* \"@openzeppelin/contracts/token/ERC20/ERC20.sol\":5458:5469  return true */\n      swap2\n      pop\n      pop\n        /* \"@openzeppelin/contracts/token/ERC20/ERC20.sol\":5190:5476  function transferFrom(... */\n      swap4\n      swap3\n      pop\n      pop\n      pop\n      jump\t// out\n        /* \"@openzeppelin/contracts/token/ERC20/ERC20.sol\":3091:3182  function decimals() public view virtual override returns (uint8) {... */\n    tag_53:\n        /* \"@openzeppelin/contracts/token/ERC20/ERC20.sol\":3149:3154  uint8 */\n      0x00\n        /* \"@openzeppelin/contracts/token/ERC20/ERC20.sol\":3173:3175  18 */\n      0x12\n        /* \"@openzeppelin/contracts/token/ERC20/ERC20.sol\":3166:3175  return 18 */\n      swap1\n      pop\n        /* \"@openzeppelin/contracts/token/ERC20/ERC20.sol\":3091:3182  function decimals() public view virtual override returns (uint8) {... */\n      swap1\n      jump\t// out\n        /* \"@openzeppelin/contracts/token/ERC20/ERC20.sol\":5871:6105  function increaseAllowance(address spender, uint256 addedValue) public virtual returns (bool) {... */\n    tag_58:\n        /* \"@openzeppelin/contracts/token/ERC20/ERC20.sol\":5959:5963  bool */\n      0x00\n        /* \"@openzeppelin/contracts/token/ERC20/ERC20.sol\":5975:5988  address owner */\n      dup1\n        /* \"@openzeppelin/contracts/token/ERC20/ERC20.sol\":5991:6003  _msgSender() */\n      tag_162\n        /* \"@openzeppelin/contracts/token/ERC20/ERC20.sol\":5991:6001  _msgSender */\n      tag_110\n        /* \"@openzeppelin/contracts/token/ERC20/ERC20.sol\":5991:6003  _msgSender() */\n      jump\t// in\n    tag_162:\n        /* \"@openzeppelin/contracts/token/ERC20/ERC20.sol\":5975:6003  address owner = _msgSender() */\n      swap1\n      pop\n        /* \"@openzeppelin/contracts/token/ERC20/ERC20.sol\":6013:6077  _approve(owner, spender, allowance(owner, spender) + addedValue) */\n      tag_163\n        /* \"@openzeppelin/contracts/token/ERC20/ERC20.sol\":6022:6027  owner */\n      dup2\n        /* \"@openzeppelin/contracts/token/ERC20/ERC20.sol\":6029:6036  spender */\n      dup6\n        /* \"@openzeppelin/contracts/token/ERC20/ERC20.sol\":6066:6076  addedValue */\n      dup6\n        /* \"@openzeppelin/contracts/token/ERC20/ERC20.sol\":6038:6063  allowance(owner, spender) */\n      tag_164\n        /* \"@openzeppelin/contracts/token/ERC20/ERC20.sol\":6048:6053  owner */\n      dup6\n        /* \"@openzeppelin/contracts/token/ERC20/ERC20.sol\":6055:6062  spender */\n      dup10\n        /* \"@openzeppelin/contracts/token/ERC20/ERC20.sol\":6038:6047  allowance */\n      tag_96\n        /* \"@openzeppelin/contracts/token/ERC20/ERC20.sol\":6038:6063  allowance(owner, spender) */\n      jump\t// in\n    tag_164:\n        /* \"@openzeppelin/contracts/token/ERC20/ERC20.sol\":6038:6076  allowance(owner, spender) + addedValue */\n      tag_165\n      swap2\n      swap1\n      tag_166\n      jump\t// in\n    tag_165:\n        /* \"@openzeppelin/contracts/token/ERC20/ERC20.sol\":6013:6021  _approve */\n      tag_112\n        /* \"@openzeppelin/contracts/token/ERC20/ERC20.sol\":6013:6077  _approve(owner, spender, allowance(owner, spender) + addedValue) */\n      jump\t// in\n    tag_163:\n        /* \"@openzeppelin/contracts/token/ERC20/ERC20.sol\":6094:6098  true */\n      0x01\n        /* \"@openzeppelin/contracts/token/ERC20/ERC20.sol\":6087:6098  return true */\n      swap2\n      pop\n      pop\n        /* \"@openzeppelin/contracts/token/ERC20/ERC20.sol\":5871:6105  function increaseAllowance(address spender, uint256 addedValue) public virtual returns (bool) {... */\n      swap3\n      swap2\n      pop\n      pop\n      jump\t// out\n        /* \"contracts/DegenToken.sol\":985:1145  function mint(address to, uint256 amount) external onlyOwner {... */\n    tag_62:\n        /* \"@openzeppelin/contracts/access/Ownable.sol\":1094:1107  _checkOwner() */\n      tag_168\n        /* \"@openzeppelin/contracts/access/Ownable.sol\":1094:1105  _checkOwner */\n      tag_147\n        /* \"@openzeppelin/contracts/access/Ownable.sol\":1094:1107  _checkOwner() */\n      jump\t// in\n    tag_168:\n        /* \"contracts/DegenToken.sol\":1073:1074  0 */\n      0x00\n        /* \"contracts/DegenToken.sol\":1064:1070  amount */\n      dup2\n        /* \"contracts/DegenToken.sol\":1064:1074  amount > 0 */\n      gt\n        /* \"contracts/DegenToken.sol\":1056:1111  require(amount > 0, \"Amount must be greater than zero\") */\n      tag_170\n      jumpi\n      mload(0x40)\n      0x08c379a000000000000000000000000000000000000000000000000000000000\n      dup2\n      mstore\n      0x04\n      add\n      tag_171\n      swap1\n      tag_172\n      jump\t// in\n    tag_171:\n      mload(0x40)\n      dup1\n      swap2\n      sub\n      swap1\n      revert\n    tag_170:\n        /* \"contracts/DegenToken.sol\":1121:1138  _mint(to, amount) */\n      tag_173\n        /* \"contracts/DegenToken.sol\":1127:1129  to */\n      dup3\n        /* \"contracts/DegenToken.sol\":1131:1137  amount */\n      dup3\n        /* \"contracts/DegenToken.sol\":1121:1126  _mint */\n      tag_174\n        /* \"contracts/DegenToken.sol\":1121:1138  _mint(to, amount) */\n      jump\t// in\n    tag_173:\n        /* \"contracts/DegenToken.sol\":985:1145  function mint(address to, uint256 amount) external onlyOwner {... */\n      pop\n      pop\n      jump\t// out\n        /* \"contracts/DegenToken.sol\":1170:1437  function burn(uint256 amount) external {... */\n    tag_66:\n        /* \"contracts/DegenToken.sol\":1236:1237  0 */\n      0x00\n        /* \"contracts/DegenToken.sol\":1227:1233  amount */\n      dup2\n        /* \"contracts/DegenToken.sol\":1227:1237  amount > 0 */\n      gt\n        /* \"contracts/DegenToken.sol\":1219:1274  require(amount > 0, \"Amount must be greater than zero\") */\n      tag_176\n      jumpi\n      mload(0x40)\n      0x08c379a000000000000000000000000000000000000000000000000000000000\n      dup2\n      mstore\n      0x04\n      add\n      tag_177\n      swap1\n      tag_172\n      jump\t// in\n    tag_177:\n      mload(0x40)\n      dup1\n      swap2\n      sub\n      swap1\n      revert\n    tag_176:\n        /* \"contracts/DegenToken.sol\":1317:1323  amount */\n      dup1\n        /* \"contracts/DegenToken.sol\":1292:1313  balanceOf(msg.sender) */\n      tag_178\n        /* \"contracts/DegenToken.sol\":1302:1312  msg.sender */\n      caller\n        /* \"contracts/DegenToken.sol\":1292:1301  balanceOf */\n      tag_74\n        /* \"contracts/DegenToken.sol\":1292:1313  balanceOf(msg.sender) */\n      jump\t// in\n    tag_178:\n        /* \"contracts/DegenToken.sol\":1292:1323  balanceOf(msg.sender) >= amount */\n      lt\n      iszero\n        /* \"contracts/DegenToken.sol\":1284:1348  require(balanceOf(msg.sender) >= amount, \"Insufficient balance\") */\n      tag_179\n      jumpi\n      mload(0x40)\n      0x08c379a000000000000000000000000000000000000000000000000000000000\n      dup2\n      mstore\n      0x04\n      add\n      tag_180\n      swap1\n      tag_137\n      jump\t// in\n    tag_180:\n      mload(0x40)\n      dup1\n      swap2\n      sub\n      swap1\n      revert\n    tag_179:\n        /* \"contracts/DegenToken.sol\":1358:1383  _burn(msg.sender, amount) */\n      tag_181\n        /* \"contracts/DegenToken.sol\":1364:1374  msg.sender */\n      caller\n        /* \"contracts/DegenToken.sol\":1376:1382  amount */\n      dup3\n        /* \"contracts/DegenToken.sol\":1358:1363  _burn */\n      tag_139\n        /* \"contracts/DegenToken.sol\":1358:1383  _burn(msg.sender, amount) */\n      jump\t// in\n    tag_181:\n        /* \"contracts/DegenToken.sol\":1411:1421  msg.sender */\n      caller\n        /* \"contracts/DegenToken.sol\":1398:1430  TokensBurned(msg.sender, amount) */\n      0xffffffffffffffffffffffffffffffffffffffff\n      and\n      0xfd38818f5291bf0bb3a2a48aadc06ba8757865d1dabd804585338aab3009dcb6\n        /* \"contracts/DegenToken.sol\":1423:1429  amount */\n      dup3\n        /* \"contracts/DegenToken.sol\":1398:1430  TokensBurned(msg.sender, amount) */\n      mload(0x40)\n      tag_182\n      swap2\n      swap1\n      tag_46\n      jump\t// in\n    tag_182:\n      mload(0x40)\n      dup1\n      swap2\n      sub\n      swap1\n      log2\n        /* \"contracts/DegenToken.sol\":1170:1437  function burn(uint256 amount) external {... */\n      pop\n      jump\t// out\n        /* \"contracts/DegenToken.sol\":2459:2758  function getShopItems() external view returns (Item[] memory) {... */\n    tag_68:\n        /* \"contracts/DegenToken.sol\":2506:2519  Item[] memory */\n      0x60\n        /* \"contracts/DegenToken.sol\":2531:2547  uint256 shopSize */\n      0x00\n        /* \"contracts/DegenToken.sol\":2550:2551  3 */\n      0x03\n        /* \"contracts/DegenToken.sol\":2531:2551  uint256 shopSize = 3 */\n      swap1\n      pop\n        /* \"contracts/DegenToken.sol\":2561:2580  Item[] memory items */\n      0x00\n        /* \"contracts/DegenToken.sol\":2594:2602  shopSize */\n      dup2\n        /* \"contracts/DegenToken.sol\":2583:2603  new Item[](shopSize) */\n      0xffffffffffffffff\n      dup2\n      gt\n      iszero\n      tag_184\n      jumpi\n      tag_185\n      tag_186\n      jump\t// in\n    tag_185:\n    tag_184:\n      mload(0x40)\n      swap1\n      dup1\n      dup3\n      mstore\n      dup1\n      0x20\n      mul\n      0x20\n      add\n      dup3\n      add\n      0x40\n      mstore\n      dup1\n      iszero\n      tag_187\n      jumpi\n      dup2\n      0x20\n      add\n    tag_188:\n      tag_189\n      tag_190\n      jump\t// in\n    tag_189:\n      dup2\n      mstore\n      0x20\n      add\n      swap1\n      0x01\n      swap1\n      sub\n      swap1\n      dup2\n      tag_188\n      jumpi\n      swap1\n      pop\n    tag_187:\n      pop\n        /* \"contracts/DegenToken.sol\":2561:2603  Item[] memory items = new Item[](shopSize) */\n      swap1\n      pop\n        /* \"contracts/DegenToken.sol\":2625:2629  shop */\n      0x06\n        /* \"contracts/DegenToken.sol\":2625:2643  shop[\"gold-sword\"] */\n      mload(0x40)\n      tag_191\n      swap1\n      tag_192\n      jump\t// in\n    tag_191:\n      swap1\n      dup2\n      mstore\n      0x20\n      add\n      mload(0x40)\n      dup1\n      swap2\n      sub\n      swap1\n      keccak256\n        /* \"contracts/DegenToken.sol\":2614:2643  items[0] = shop[\"gold-sword\"] */\n      mload(0x40)\n      dup1\n      0x80\n      add\n      0x40\n      mstore\n      swap1\n      dup2\n      0x00\n      dup3\n      add\n      dup1\n      sload\n      tag_193\n      swap1\n      tag_103\n      jump\t// in\n    tag_193:\n      dup1\n      0x1f\n      add\n      0x20\n      dup1\n      swap2\n      div\n      mul\n      0x20\n      add\n      mload(0x40)\n      swap1\n      dup2\n      add\n      0x40\n      mstore\n      dup1\n      swap3\n      swap2\n      swap1\n      dup2\n      dup2\n      mstore\n      0x20\n      add\n      dup3\n      dup1\n      sload\n      tag_194\n      swap1\n      tag_103\n      jump\t// in\n    tag_194:\n      dup1\n      iszero\n      tag_195\n      jumpi\n      dup1\n      0x1f\n      lt\n      tag_196\n      jumpi\n      0x0100\n      dup1\n      dup4\n      sload\n      div\n      mul\n      dup4\n      mstore\n      swap2\n      0x20\n      add\n      swap2\n      jump(tag_195)\n    tag_196:\n      dup3\n      add\n      swap2\n      swap1\n      0x00\n      mstore\n      keccak256(0x00, 0x20)\n      swap1\n    tag_197:\n      dup2\n      sload\n      dup2\n      mstore\n      swap1\n      0x01\n      add\n      swap1\n      0x20\n      add\n      dup1\n      dup4\n      gt\n      tag_197\n      jumpi\n      dup3\n      swap1\n      sub\n      0x1f\n      and\n      dup3\n      add\n      swap2\n    tag_195:\n      pop\n      pop\n      pop\n      pop\n      pop\n      dup2\n      mstore\n      0x20\n      add\n      0x01\n      dup3\n      add\n      dup1\n      sload\n      tag_198\n      swap1\n      tag_103\n      jump\t// in\n    tag_198:\n      dup1\n      0x1f\n      add\n      0x20\n      dup1\n      swap2\n      div\n      mul\n      0x20\n      add\n      mload(0x40)\n      swap1\n      dup2\n      add\n      0x40\n      mstore\n      dup1\n      swap3\n      swap2\n      swap1\n      dup2\n      dup2\n      mstore\n      0x20\n      add\n      dup3\n      dup1\n      sload\n      tag_199\n      swap1\n      tag_103\n      jump\t// in\n    tag_199:\n      dup1\n      iszero\n      tag_200\n      jumpi\n      dup1\n      0x1f\n      lt\n      tag_201\n      jumpi\n      0x0100\n      dup1\n      dup4\n      sload\n      div\n      mul\n      dup4\n      mstore\n      swap2\n      0x20\n      add\n      swap2\n      jump(tag_200)\n    tag_201:\n      dup3\n      add\n      swap2\n      swap1\n      0x00\n      mstore\n      keccak256(0x00, 0x20)\n      swap1\n    tag_202:\n      dup2\n      sload\n      dup2\n      mstore\n      swap1\n      0x01\n      add\n      swap1\n      0x20\n      add\n      dup1\n      dup4\n      gt\n      tag_202\n      jumpi\n      dup3\n      swap1\n      sub\n      0x1f\n      and\n      dup3\n      add\n      swap2\n    tag_200:\n      pop\n      pop\n      pop\n      pop\n      pop\n      dup2\n      mstore\n      0x20\n      add\n      0x02\n      dup3\n      add\n      sload\n      dup2\n      mstore\n      0x20\n      add\n      0x03\n      dup3\n      add\n      dup1\n      sload\n      tag_203\n      swap1\n      tag_103\n      jump\t// in\n    tag_203:\n      dup1\n      0x1f\n      add\n      0x20\n      dup1\n      swap2\n      div\n      mul\n      0x20\n      add\n      mload(0x40)\n      swap1\n      dup2\n      add\n      0x40\n      mstore\n      dup1\n      swap3\n      swap2\n      swap1\n      dup2\n      dup2\n      mstore\n      0x20\n      add\n      dup3\n      dup1\n      sload\n      tag_204\n      swap1\n      tag_103\n      jump\t// in\n    tag_204:\n      dup1\n      iszero\n      tag_205\n      jumpi\n      dup1\n      0x1f\n      lt\n      tag_206\n      jumpi\n      0x0100\n      dup1\n      dup4\n      sload\n      div\n      mul\n      dup4\n      mstore\n      swap2\n      0x20\n      add\n      swap2\n      jump(tag_205)\n    tag_206:\n      dup3\n      add\n      swap2\n      swap1\n      0x00\n      mstore\n      keccak256(0x00, 0x20)\n      swap1\n    tag_207:\n      dup2\n      sload\n      dup2\n      mstore\n      swap1\n      0x01\n      add\n      swap1\n      0x20\n      add\n      dup1\n      dup4\n      gt\n      tag_207\n      jumpi\n      dup3\n      swap1\n      sub\n      0x1f\n      and\n      dup3\n      add\n      swap2\n    tag_205:\n      pop\n      pop\n      pop\n      pop\n      pop\n      dup2\n      mstore\n      pop\n      pop\n        /* \"contracts/DegenToken.sol\":2614:2619  items */\n      dup2\n        /* \"contracts/DegenToken.sol\":2620:2621  0 */\n      0x00\n        /* \"contracts/DegenToken.sol\":2614:2622  items[0] */\n      dup2\n      mload\n      dup2\n      lt\n      tag_208\n      jumpi\n      tag_209\n      tag_210\n      jump\t// in\n    tag_209:\n    tag_208:\n      0x20\n      mul\n      0x20\n      add\n      add\n        /* \"contracts/DegenToken.sol\":2614:2643  items[0] = shop[\"gold-sword\"] */\n      dup2\n      swap1\n      mstore\n      pop\n        /* \"contracts/DegenToken.sol\":2664:2668  shop */\n      0x06\n        /* \"contracts/DegenToken.sol\":2664:2685  shop[\"silver-shield\"] */\n      mload(0x40)\n      tag_211\n      swap1\n      tag_212\n      jump\t// in\n    tag_211:\n      swap1\n      dup2\n      mstore\n      0x20\n      add\n      mload(0x40)\n      dup1\n      swap2\n      sub\n      swap1\n      keccak256\n        /* \"contracts/DegenToken.sol\":2653:2685  items[1] = shop[\"silver-shield\"] */\n      mload(0x40)\n      dup1\n      0x80\n      add\n      0x40\n      mstore\n      swap1\n      dup2\n      0x00\n      dup3\n      add\n      dup1\n      sload\n      tag_213\n      swap1\n      tag_103\n      jump\t// in\n    tag_213:\n      dup1\n      0x1f\n      add\n      0x20\n      dup1\n      swap2\n      div\n      mul\n      0x20\n      add\n      mload(0x40)\n      swap1\n      dup2\n      add\n      0x40\n      mstore\n      dup1\n      swap3\n      swap2\n      swap1\n      dup2\n      dup2\n      mstore\n      0x20\n      add\n      dup3\n      dup1\n      sload\n      tag_214\n      swap1\n      tag_103\n      jump\t// in\n    tag_214:\n      dup1\n      iszero\n      tag_215\n      jumpi\n      dup1\n      0x1f\n      lt\n      tag_216\n      jumpi\n      0x0100\n      dup1\n      dup4\n      sload\n      div\n      mul\n      dup4\n      mstore\n      swap2\n      0x20\n      add\n      swap2\n      jump(tag_215)\n    tag_216:\n      dup3\n      add\n      swap2\n      swap1\n      0x00\n      mstore\n      keccak256(0x00, 0x20)\n      swap1\n    tag_217:\n      dup2\n      sload\n      dup2\n      mstore\n      swap1\n      0x01\n      add\n      swap1\n      0x20\n      add\n      dup1\n      dup4\n      gt\n      tag_217\n      jumpi\n      dup3\n      swap1\n      sub\n      0x1f\n      and\n      dup3\n      add\n      swap2\n    tag_215:\n      pop\n      pop\n      pop\n      pop\n      pop\n      dup2\n      mstore\n      0x20\n      add\n      0x01\n      dup3\n      add\n      dup1\n      sload\n      tag_218\n      swap1\n      tag_103\n      jump\t// in\n    tag_218:\n      dup1\n      0x1f\n      add\n      0x20\n      dup1\n      swap2\n      div\n      mul\n      0x20\n      add\n      mload(0x40)\n      swap1\n      dup2\n      add\n      0x40\n      mstore\n      dup1\n      swap3\n      swap2\n      swap1\n      dup2\n      dup2\n      mstore\n      0x20\n      add\n      dup3\n      dup1\n      sload\n      tag_219\n      swap1\n      tag_103\n      jump\t// in\n    tag_219:\n      dup1\n      iszero\n      tag_220\n      jumpi\n      dup1\n      0x1f\n      lt\n      tag_221\n      jumpi\n      0x0100\n      dup1\n      dup4\n      sload\n      div\n      mul\n      dup4\n      mstore\n      swap2\n      0x20\n      add\n      swap2\n      jump(tag_220)\n    tag_221:\n      dup3\n      add\n      swap2\n      swap1\n      0x00\n      mstore\n      keccak256(0x00, 0x20)\n      swap1\n    tag_222:\n      dup2\n      sload\n      dup2\n      mstore\n      swap1\n      0x01\n      add\n      swap1\n      0x20\n      add\n      dup1\n      dup4\n      gt\n      tag_222\n      jumpi\n      dup3\n      swap1\n      sub\n      0x1f\n      and\n      dup3\n      add\n      swap2\n    tag_220:\n      pop\n      pop\n      pop\n      pop\n      pop\n      dup2\n      mstore\n      0x20\n      add\n      0x02\n      dup3\n      add\n      sload\n      dup2\n      mstore\n      0x20\n      add\n      0x03\n      dup3\n      add\n      dup1\n      sload\n      tag_223\n      swap1\n      tag_103\n      jump\t// in\n    tag_223:\n      dup1\n      0x1f\n      add\n      0x20\n      dup1\n      swap2\n      div\n      mul\n      0x20\n      add\n      mload(0x40)\n      swap1\n      dup2\n      add\n      0x40\n      mstore\n      dup1\n      swap3\n      swap2\n      swap1\n      dup2\n      dup2\n      mstore\n      0x20\n      add\n      dup3\n      dup1\n      sload\n      tag_224\n      swap1\n      tag_103\n      jump\t// in\n    tag_224:\n      dup1\n      iszero\n      tag_225\n      jumpi\n      dup1\n      0x1f\n      lt\n      tag_226\n      jumpi\n      0x0100\n      dup1\n      dup4\n      sload\n      div\n      mul\n      dup4\n      mstore\n      swap2\n      0x20\n      add\n      swap2\n      jump(tag_225)\n    tag_226:\n      dup3\n      add\n      swap2\n      swap1\n      0x00\n      mstore\n      keccak256(0x00, 0x20)\n      swap1\n    tag_227:\n      dup2\n      sload\n      dup2\n      mstore\n      swap1\n      0x01\n      add\n      swap1\n      0x20\n      add\n      dup1\n      dup4\n      gt\n      tag_227\n      jumpi\n      dup3\n      swap1\n      sub\n      0x1f\n      and\n      dup3\n      add\n      swap2\n    tag_225:\n      pop\n      pop\n      pop\n      pop\n      pop\n      dup2\n      mstore\n      pop\n      pop\n        /* \"contracts/DegenToken.sol\":2653:2658  items */\n      dup2\n        /* \"contracts/DegenToken.sol\":2659:2660  1 */\n      0x01\n        /* \"contracts/DegenToken.sol\":2653:2661  items[1] */\n      dup2\n      mload\n      dup2\n      lt\n      tag_228\n      jumpi\n      tag_229\n      tag_210\n      jump\t// in\n    tag_229:\n    tag_228:\n      0x20\n      mul\n      0x20\n      add\n      add\n        /* \"contracts/DegenToken.sol\":2653:2685  items[1] = shop[\"silver-shield\"] */\n      dup2\n      swap1\n      mstore\n      pop\n        /* \"contracts/DegenToken.sol\":2706:2710  shop */\n      0x06\n        /* \"contracts/DegenToken.sol\":2706:2728  shop[\"healing-potion\"] */\n      mload(0x40)\n      tag_230\n      swap1\n      tag_231\n      jump\t// in\n    tag_230:\n      swap1\n      dup2\n      mstore\n      0x20\n      add\n      mload(0x40)\n      dup1\n      swap2\n      sub\n      swap1\n      keccak256\n        /* \"contracts/DegenToken.sol\":2695:2728  items[2] = shop[\"healing-potion\"] */\n      mload(0x40)\n      dup1\n      0x80\n      add\n      0x40\n      mstore\n      swap1\n      dup2\n      0x00\n      dup3\n      add\n      dup1\n      sload\n      tag_232\n      swap1\n      tag_103\n      jump\t// in\n    tag_232:\n      dup1\n      0x1f\n      add\n      0x20\n      dup1\n      swap2\n      div\n      mul\n      0x20\n      add\n      mload(0x40)\n      swap1\n      dup2\n      add\n      0x40\n      mstore\n      dup1\n      swap3\n      swap2\n      swap1\n      dup2\n      dup2\n      mstore\n      0x20\n      add\n      dup3\n      dup1\n      sload\n      tag_233\n      swap1\n      tag_103\n      jump\t// in\n    tag_233:\n      dup1\n      iszero\n      tag_234\n      jumpi\n      dup1\n      0x1f\n      lt\n      tag_235\n      jumpi\n      0x0100\n      dup1\n      dup4\n      sload\n      div\n      mul\n      dup4\n      mstore\n      swap2\n      0x20\n      add\n      swap2\n      jump(tag_234)\n    tag_235:\n      dup3\n      add\n      swap2\n      swap1\n      0x00\n      mstore\n      keccak256(0x00, 0x20)\n      swap1\n    tag_236:\n      dup2\n      sload\n      dup2\n      mstore\n      swap1\n      0x01\n      add\n      swap1\n      0x20\n      add\n      dup1\n      dup4\n      gt\n      tag_236\n      jumpi\n      dup3\n      swap1\n      sub\n      0x1f\n      and\n      dup3\n      add\n      swap2\n    tag_234:\n      pop\n      pop\n      pop\n      pop\n      pop\n      dup2\n      mstore\n      0x20\n      add\n      0x01\n      dup3\n      add\n      dup1\n      sload\n      tag_237\n      swap1\n      tag_103\n      jump\t// in\n    tag_237:\n      dup1\n      0x1f\n      add\n      0x20\n      dup1\n      swap2\n      div\n      mul\n      0x20\n      add\n      mload(0x40)\n      swap1\n      dup2\n      add\n      0x40\n      mstore\n      dup1\n      swap3\n      swap2\n      swap1\n      dup2\n      dup2\n      mstore\n      0x20\n      add\n      dup3\n      dup1\n      sload\n      tag_238\n      swap1\n      tag_103\n      jump\t// in\n    tag_238:\n      dup1\n      iszero\n      tag_239\n      jumpi\n      dup1\n      0x1f\n      lt\n      tag_240\n      jumpi\n      0x0100\n      dup1\n      dup4\n      sload\n      div\n      mul\n      dup4\n      mstore\n      swap2\n      0x20\n      add\n      swap2\n      jump(tag_239)\n    tag_240:\n      dup3\n      add\n      swap2\n      swap1\n      0x00\n      mstore\n      keccak256(0x00, 0x20)\n      swap1\n    tag_241:\n      dup2\n      sload\n      dup2\n      mstore\n      swap1\n      0x01\n      add\n      swap1\n      0x20\n      add\n      dup1\n      dup4\n      gt\n      tag_241\n      jumpi\n      dup3\n      swap1\n      sub\n      0x1f\n      and\n      dup3\n      add\n      swap2\n    tag_239:\n      pop\n      pop\n      pop\n      pop\n      pop\n      dup2\n      mstore\n      0x20\n      add\n      0x02\n      dup3\n      add\n      sload\n      dup2\n      mstore\n      0x20\n      add\n      0x03\n      dup3\n      add\n      dup1\n      sload\n      tag_242\n      swap1\n      tag_103\n      jump\t// in\n    tag_242:\n      dup1\n      0x1f\n      add\n      0x20\n      dup1\n      swap2\n      div\n      mul\n      0x20\n      add\n      mload(0x40)\n      swap1\n      dup2\n      add\n      0x40\n      mstore\n      dup1\n      swap3\n      swap2\n      swap1\n      dup2\n      dup2\n      mstore\n      0x20\n      add\n      dup3\n      dup1\n      sload\n      tag_243\n      swap1\n      tag_103\n      jump\t// in\n    tag_243:\n      dup1\n      iszero\n      tag_244\n      jumpi\n      dup1\n      0x1f\n      lt\n      tag_245\n      jumpi\n      0x0100\n      dup1\n      dup4\n      sload\n      div\n      mul\n      dup4\n      mstore\n      swap2\n      0x20\n      add\n      swap2\n      jump(tag_244)\n    tag_245:\n      dup3\n      add\n      swap2\n      swap1\n      0x00\n      mstore\n      keccak256(0x00, 0x20)\n      swap1\n    tag_246:\n      dup2\n      sload\n      dup2\n      mstore\n      swap1\n      0x01\n      add\n      swap1\n      0x20\n      add\n      dup1\n      dup4\n      gt\n      tag_246\n      jumpi\n      dup3\n      swap1\n      sub\n      0x1f\n      and\n      dup3\n      add\n      swap2\n    tag_244:\n      pop\n      pop\n      pop\n      pop\n      pop\n      dup2\n      mstore\n      pop\n      pop\n        /* \"contracts/DegenToken.sol\":2695:2700  items */\n      dup2\n        /* \"contracts/DegenToken.sol\":2701:2702  2 */\n      0x02\n        /* \"contracts/DegenToken.sol\":2695:2703  items[2] */\n      dup2\n      mload\n      dup2\n      lt\n      tag_247\n      jumpi\n      tag_248\n      tag_210\n      jump\t// in\n    tag_248:\n    tag_247:\n      0x20\n      mul\n      0x20\n      add\n      add\n        /* \"contracts/DegenToken.sol\":2695:2728  items[2] = shop[\"healing-potion\"] */\n      dup2\n      swap1\n      mstore\n      pop\n        /* \"contracts/DegenToken.sol\":2746:2751  items */\n      dup1\n        /* \"contracts/DegenToken.sol\":2739:2751  return items */\n      swap3\n      pop\n      pop\n      pop\n        /* \"contracts/DegenToken.sol\":2459:2758  function getShopItems() external view returns (Item[] memory) {... */\n      swap1\n      jump\t// out\n        /* \"@openzeppelin/contracts/token/ERC20/ERC20.sol\":3406:3531  function balanceOf(address account) public view virtual override returns (uint256) {... */\n    tag_74:\n        /* \"@openzeppelin/contracts/token/ERC20/ERC20.sol\":3480:3487  uint256 */\n      0x00\n        /* \"@openzeppelin/contracts/token/ERC20/ERC20.sol\":3506:3515  _balances */\n      dup1\n        /* \"@openzeppelin/contracts/token/ERC20/ERC20.sol\":3506:3524  _balances[account] */\n      0x00\n        /* \"@openzeppelin/contracts/token/ERC20/ERC20.sol\":3516:3523  account */\n      dup4\n        /* \"@openzeppelin/contracts/token/ERC20/ERC20.sol\":3506:3524  _balances[account] */\n      0xffffffffffffffffffffffffffffffffffffffff\n      and\n      0xffffffffffffffffffffffffffffffffffffffff\n      and\n      dup2\n      mstore\n      0x20\n      add\n      swap1\n      dup2\n      mstore\n      0x20\n      add\n      0x00\n      keccak256\n      sload\n        /* \"@openzeppelin/contracts/token/ERC20/ERC20.sol\":3499:3524  return _balances[account] */\n      swap1\n      pop\n        /* \"@openzeppelin/contracts/token/ERC20/ERC20.sol\":3406:3531  function balanceOf(address account) public view virtual override returns (uint256) {... */\n      swap2\n      swap1\n      pop\n      jump\t// out\n        /* \"@openzeppelin/contracts/access/Ownable.sol\":1831:1932  function renounceOwnership() public virtual onlyOwner {... */\n    tag_77:\n        /* \"@openzeppelin/contracts/access/Ownable.sol\":1094:1107  _checkOwner() */\n      tag_251\n        /* \"@openzeppelin/contracts/access/Ownable.sol\":1094:1105  _checkOwner */\n      tag_147\n        /* \"@openzeppelin/contracts/access/Ownable.sol\":1094:1107  _checkOwner() */\n      jump\t// in\n    tag_251:\n        /* \"@openzeppelin/contracts/access/Ownable.sol\":1895:1925  _transferOwnership(address(0)) */\n      tag_253\n        /* \"@openzeppelin/contracts/access/Ownable.sol\":1922:1923  0 */\n      0x00\n        /* \"@openzeppelin/contracts/access/Ownable.sol\":1895:1913  _transferOwnership */\n      tag_254\n        /* \"@openzeppelin/contracts/access/Ownable.sol\":1895:1925  _transferOwnership(address(0)) */\n      jump\t// in\n    tag_253:\n        /* \"@openzeppelin/contracts/access/Ownable.sol\":1831:1932  function renounceOwnership() public virtual onlyOwner {... */\n      jump\t// out\n        /* \"@openzeppelin/contracts/access/Ownable.sol\":1201:1286  function owner() public view virtual returns (address) {... */\n    tag_79:\n        /* \"@openzeppelin/contracts/access/Ownable.sol\":1247:1254  address */\n      0x00\n        /* \"@openzeppelin/contracts/access/Ownable.sol\":1273:1279  _owner */\n      0x05\n      0x00\n      swap1\n      sload\n      swap1\n      0x0100\n      exp\n      swap1\n      div\n      0xffffffffffffffffffffffffffffffffffffffff\n      and\n        /* \"@openzeppelin/contracts/access/Ownable.sol\":1266:1279  return _owner */\n      swap1\n      pop\n        /* \"@openzeppelin/contracts/access/Ownable.sol\":1201:1286  function owner() public view virtual returns (address) {... */\n      swap1\n      jump\t// out\n        /* \"@openzeppelin/contracts/token/ERC20/ERC20.sol\":2365:2467  function symbol() public view virtual override returns (string memory) {... */\n    tag_83:\n        /* \"@openzeppelin/contracts/token/ERC20/ERC20.sol\":2421:2434  string memory */\n      0x60\n        /* \"@openzeppelin/contracts/token/ERC20/ERC20.sol\":2453:2460  _symbol */\n      0x04\n        /* \"@openzeppelin/contracts/token/ERC20/ERC20.sol\":2446:2460  return _symbol */\n      dup1\n      sload\n      tag_257\n      swap1\n      tag_103\n      jump\t// in\n    tag_257:\n      dup1\n      0x1f\n      add\n      0x20\n      dup1\n      swap2\n      div\n      mul\n      0x20\n      add\n      mload(0x40)\n      swap1\n      dup2\n      add\n      0x40\n      mstore\n      dup1\n      swap3\n      swap2\n      swap1\n      dup2\n      dup2\n      mstore\n      0x20\n      add\n      dup3\n      dup1\n      sload\n      tag_258\n      swap1\n      tag_103\n      jump\t// in\n    tag_258:\n      dup1\n      iszero\n      tag_259\n      jumpi\n      dup1\n      0x1f\n      lt\n      tag_260\n      jumpi\n      0x0100\n      dup1\n      dup4\n      sload\n      div\n      mul\n      dup4\n      mstore\n      swap2\n      0x20\n      add\n      swap2\n      jump(tag_259)\n    tag_260:\n      dup3\n      add\n      swap2\n      swap1\n      0x00\n      mstore\n      keccak256(0x00, 0x20)\n      swap1\n    tag_261:\n      dup2\n      sload\n      dup2\n      mstore\n      swap1\n      0x01\n      add\n      swap1\n      0x20\n      add\n      dup1\n      dup4\n      gt\n      tag_261\n      jumpi\n      dup3\n      swap1\n      sub\n      0x1f\n      and\n      dup3\n      add\n      swap2\n    tag_259:\n      pop\n      pop\n      pop\n      pop\n      pop\n      swap1\n      pop\n        /* \"@openzeppelin/contracts/token/ERC20/ERC20.sol\":2365:2467  function symbol() public view virtual override returns (string memory) {... */\n      swap1\n      jump\t// out\n        /* \"@openzeppelin/contracts/token/ERC20/ERC20.sol\":6592:7019  function decreaseAllowance(address spender, uint256 subtractedValue) public virtual returns (bool) {... */\n    tag_87:\n        /* \"@openzeppelin/contracts/token/ERC20/ERC20.sol\":6685:6689  bool */\n      0x00\n        /* \"@openzeppelin/contracts/token/ERC20/ERC20.sol\":6701:6714  address owner */\n      dup1\n        /* \"@openzeppelin/contracts/token/ERC20/ERC20.sol\":6717:6729  _msgSender() */\n      tag_263\n        /* \"@openzeppelin/contracts/token/ERC20/ERC20.sol\":6717:6727  _msgSender */\n      tag_110\n        /* \"@openzeppelin/contracts/token/ERC20/ERC20.sol\":6717:6729  _msgSender() */\n      jump\t// in\n    tag_263:\n        /* \"@openzeppelin/contracts/token/ERC20/ERC20.sol\":6701:6729  address owner = _msgSender() */\n      swap1\n      pop\n        /* \"@openzeppelin/contracts/token/ERC20/ERC20.sol\":6739:6763  uint256 currentAllowance */\n      0x00\n        /* \"@openzeppelin/contracts/token/ERC20/ERC20.sol\":6766:6791  allowance(owner, spender) */\n      tag_264\n        /* \"@openzeppelin/contracts/token/ERC20/ERC20.sol\":6776:6781  owner */\n      dup3\n        /* \"@openzeppelin/contracts/token/ERC20/ERC20.sol\":6783:6790  spender */\n      dup7\n        /* \"@openzeppelin/contracts/token/ERC20/ERC20.sol\":6766:6775  allowance */\n      tag_96\n        /* \"@openzeppelin/contracts/token/ERC20/ERC20.sol\":6766:6791  allowance(owner, spender) */\n      jump\t// in\n    tag_264:\n        /* \"@openzeppelin/contracts/token/ERC20/ERC20.sol\":6739:6791  uint256 currentAllowance = allowance(owner, spender) */\n      swap1\n      pop\n        /* \"@openzeppelin/contracts/token/ERC20/ERC20.sol\":6829:6844  subtractedValue */\n      dup4\n        /* \"@openzeppelin/contracts/token/ERC20/ERC20.sol\":6809:6825  currentAllowance */\n      dup2\n        /* \"@openzeppelin/contracts/token/ERC20/ERC20.sol\":6809:6844  currentAllowance >= subtractedValue */\n      lt\n      iszero\n        /* \"@openzeppelin/contracts/token/ERC20/ERC20.sol\":6801:6886  require(currentAllowance >= subtractedValue, \"ERC20: decreased allowance below zero\") */\n      tag_265\n      jumpi\n      mload(0x40)\n      0x08c379a000000000000000000000000000000000000000000000000000000000\n      dup2\n      mstore\n      0x04\n      add\n      tag_266\n      swap1\n      tag_267\n      jump\t// in\n    tag_266:\n      mload(0x40)\n      dup1\n      swap2\n      sub\n      swap1\n      revert\n    tag_265:\n        /* \"@openzeppelin/contracts/token/ERC20/ERC20.sol\":6920:6980  _approve(owner, spender, currentAllowance - subtractedValue) */\n      tag_268\n        /* \"@openzeppelin/contracts/token/ERC20/ERC20.sol\":6929:6934  owner */\n      dup3\n        /* \"@openzeppelin/contracts/token/ERC20/ERC20.sol\":6936:6943  spender */\n      dup7\n        /* \"@openzeppelin/contracts/token/ERC20/ERC20.sol\":6964:6979  subtractedValue */\n      dup7\n        /* \"@openzeppelin/contracts/token/ERC20/ERC20.sol\":6945:6961  currentAllowance */\n      dup5\n        /* \"@openzeppelin/contracts/token/ERC20/ERC20.sol\":6945:6979  currentAllowance - subtractedValue */\n      sub\n        /* \"@openzeppelin/contracts/token/ERC20/ERC20.sol\":6920:6928  _approve */\n      tag_112\n        /* \"@openzeppelin/contracts/token/ERC20/ERC20.sol\":6920:6980  _approve(owner, spender, currentAllowance - subtractedValue) */\n      jump\t// in\n    tag_268:\n        /* \"@openzeppelin/contracts/token/ERC20/ERC20.sol\":7008:7012  true */\n      0x01\n        /* \"@openzeppelin/contracts/token/ERC20/ERC20.sol\":7001:7012  return true */\n      swap3\n      pop\n      pop\n      pop\n        /* \"@openzeppelin/contracts/token/ERC20/ERC20.sol\":6592:7019  function decreaseAllowance(address spender, uint256 subtractedValue) public virtual returns (bool) {... */\n      swap3\n      swap2\n      pop\n      pop\n      jump\t// out\n        /* \"contracts/DegenToken.sol\":1466:1760  function transfer(address recipient, uint256 amount) public override returns (bool) {... */\n    tag_91:\n        /* \"contracts/DegenToken.sol\":1544:1548  bool */\n      0x00\n        /* \"contracts/DegenToken.sol\":1577:1578  0 */\n      dup1\n        /* \"contracts/DegenToken.sol\":1568:1574  amount */\n      dup3\n        /* \"contracts/DegenToken.sol\":1568:1578  amount > 0 */\n      gt\n        /* \"contracts/DegenToken.sol\":1560:1615  require(amount > 0, \"Amount must be greater than zero\") */\n      tag_270\n      jumpi\n      mload(0x40)\n      0x08c379a000000000000000000000000000000000000000000000000000000000\n      dup2\n      mstore\n      0x04\n      add\n      tag_271\n      swap1\n      tag_172\n      jump\t// in\n    tag_271:\n      mload(0x40)\n      dup1\n      swap2\n      sub\n      swap1\n      revert\n    tag_270:\n        /* \"contracts/DegenToken.sol\":1658:1664  amount */\n      dup2\n        /* \"contracts/DegenToken.sol\":1633:1654  balanceOf(msg.sender) */\n      tag_272\n        /* \"contracts/DegenToken.sol\":1643:1653  msg.sender */\n      caller\n        /* \"contracts/DegenToken.sol\":1633:1642  balanceOf */\n      tag_74\n        /* \"contracts/DegenToken.sol\":1633:1654  balanceOf(msg.sender) */\n      jump\t// in\n    tag_272:\n        /* \"contracts/DegenToken.sol\":1633:1664  balanceOf(msg.sender) >= amount */\n      lt\n      iszero\n        /* \"contracts/DegenToken.sol\":1625:1689  require(balanceOf(msg.sender) >= amount, \"Insufficient balance\") */\n      tag_273\n      jumpi\n      mload(0x40)\n      0x08c379a000000000000000000000000000000000000000000000000000000000\n      dup2\n      mstore\n      0x04\n      add\n      tag_274\n      swap1\n      tag_137\n      jump\t// in\n    tag_274:\n      mload(0x40)\n      dup1\n      swap2\n      sub\n      swap1\n      revert\n    tag_273:\n        /* \"contracts/DegenToken.sol\":1699:1732  super.transfer(recipient, amount) */\n      tag_275\n        /* \"contracts/DegenToken.sol\":1714:1723  recipient */\n      dup4\n        /* \"contracts/DegenToken.sol\":1725:1731  amount */\n      dup4\n        /* \"contracts/DegenToken.sol\":1699:1713  super.transfer */\n      tag_276\n        /* \"contracts/DegenToken.sol\":1699:1732  super.transfer(recipient, amount) */\n      jump\t// in\n    tag_275:\n      pop\n        /* \"contracts/DegenToken.sol\":1749:1753  true */\n      0x01\n        /* \"contracts/DegenToken.sol\":1742:1753  return true */\n      swap1\n      pop\n        /* \"contracts/DegenToken.sol\":1466:1760  function transfer(address recipient, uint256 amount) public override returns (bool) {... */\n      swap3\n      swap2\n      pop\n      pop\n      jump\t// out\n        /* \"@openzeppelin/contracts/token/ERC20/ERC20.sol\":3974:4123  function allowance(address owner, address spender) public view virtual override returns (uint256) {... */\n    tag_96:\n        /* \"@openzeppelin/contracts/token/ERC20/ERC20.sol\":4063:4070  uint256 */\n      0x00\n        /* \"@openzeppelin/contracts/token/ERC20/ERC20.sol\":4089:4100  _allowances */\n      0x01\n        /* \"@openzeppelin/contracts/token/ERC20/ERC20.sol\":4089:4107  _allowances[owner] */\n      0x00\n        /* \"@openzeppelin/contracts/token/ERC20/ERC20.sol\":4101:4106  owner */\n      dup5\n        /* \"@openzeppelin/contracts/token/ERC20/ERC20.sol\":4089:4107  _allowances[owner] */\n      0xffffffffffffffffffffffffffffffffffffffff\n      and\n      0xffffffffffffffffffffffffffffffffffffffff\n      and\n      dup2\n      mstore\n      0x20\n      add\n      swap1\n      dup2\n      mstore\n      0x20\n      add\n      0x00\n      keccak256\n        /* \"@openzeppelin/contracts/token/ERC20/ERC20.sol\":4089:4116  _allowances[owner][spender] */\n      0x00\n        /* \"@openzeppelin/contracts/token/ERC20/ERC20.sol\":4108:4115  spender */\n      dup4\n        /* \"@openzeppelin/contracts/token/ERC20/ERC20.sol\":4089:4116  _allowances[owner][spender] */\n      0xffffffffffffffffffffffffffffffffffffffff\n      and\n      0xffffffffffffffffffffffffffffffffffffffff\n      and\n      dup2\n      mstore\n      0x20\n      add\n      swap1\n      dup2\n      mstore\n      0x20\n      add\n      0x00\n      keccak256\n      sload\n        /* \"@openzeppelin/contracts/token/ERC20/ERC20.sol\":4082:4116  return _allowances[owner][spender] */\n      swap1\n      pop\n        /* \"@openzeppelin/contracts/token/ERC20/ERC20.sol\":3974:4123  function allowance(address owner, address spender) public view virtual override returns (uint256) {... */\n      swap3\n      swap2\n      pop\n      pop\n      jump\t// out\n        /* \"@openzeppelin/contracts/access/Ownable.sol\":2081:2279  function transferOwnership(address newOwner) public virtual onlyOwner {... */\n    tag_100:\n        /* \"@openzeppelin/contracts/access/Ownable.sol\":1094:1107  _checkOwner() */\n      tag_279\n        /* \"@openzeppelin/contracts/access/Ownable.sol\":1094:1105  _checkOwner */\n      tag_147\n        /* \"@openzeppelin/contracts/access/Ownable.sol\":1094:1107  _checkOwner() */\n      jump\t// in\n    tag_279:\n        /* \"@openzeppelin/contracts/access/Ownable.sol\":2189:2190  0 */\n      0x00\n        /* \"@openzeppelin/contracts/access/Ownable.sol\":2169:2191  newOwner != address(0) */\n      0xffffffffffffffffffffffffffffffffffffffff\n      and\n        /* \"@openzeppelin/contracts/access/Ownable.sol\":2169:2177  newOwner */\n      dup2\n        /* \"@openzeppelin/contracts/access/Ownable.sol\":2169:2191  newOwner != address(0) */\n      0xffffffffffffffffffffffffffffffffffffffff\n      and\n      sub\n        /* \"@openzeppelin/contracts/access/Ownable.sol\":2161:2234  require(newOwner != address(0), \"Ownable: new owner is the zero address\") */\n      tag_281\n      jumpi\n      mload(0x40)\n      0x08c379a000000000000000000000000000000000000000000000000000000000\n      dup2\n      mstore\n      0x04\n      add\n      tag_282\n      swap1\n      tag_283\n      jump\t// in\n    tag_282:\n      mload(0x40)\n      dup1\n      swap2\n      sub\n      swap1\n      revert\n    tag_281:\n        /* \"@openzeppelin/contracts/access/Ownable.sol\":2244:2272  _transferOwnership(newOwner) */\n      tag_284\n        /* \"@openzeppelin/contracts/access/Ownable.sol\":2263:2271  newOwner */\n      dup2\n        /* \"@openzeppelin/contracts/access/Ownable.sol\":2244:2262  _transferOwnership */\n      tag_254\n        /* \"@openzeppelin/contracts/access/Ownable.sol\":2244:2272  _transferOwnership(newOwner) */\n      jump\t// in\n    tag_284:\n        /* \"@openzeppelin/contracts/access/Ownable.sol\":2081:2279  function transferOwnership(address newOwner) public virtual onlyOwner {... */\n      pop\n      jump\t// out\n        /* \"@openzeppelin/contracts/utils/Context.sol\":640:736  function _msgSender() internal view virtual returns (address) {... */\n    tag_110:\n        /* \"@openzeppelin/contracts/utils/Context.sol\":693:700  address */\n      0x00\n        /* \"@openzeppelin/contracts/utils/Context.sol\":719:729  msg.sender */\n      caller\n        /* \"@openzeppelin/contracts/utils/Context.sol\":712:729  return msg.sender */\n      swap1\n      pop\n        /* \"@openzeppelin/contracts/utils/Context.sol\":640:736  function _msgSender() internal view virtual returns (address) {... */\n      swap1\n      jump\t// out\n        /* \"@openzeppelin/contracts/token/ERC20/ERC20.sol\":10504:10874  function _approve(... */\n    tag_112:\n        /* \"@openzeppelin/contracts/token/ERC20/ERC20.sol\":10652:10653  0 */\n      0x00\n        /* \"@openzeppelin/contracts/token/ERC20/ERC20.sol\":10635:10654  owner != address(0) */\n      0xffffffffffffffffffffffffffffffffffffffff\n      and\n        /* \"@openzeppelin/contracts/token/ERC20/ERC20.sol\":10635:10640  owner */\n      dup4\n        /* \"@openzeppelin/contracts/token/ERC20/ERC20.sol\":10635:10654  owner != address(0) */\n      0xffffffffffffffffffffffffffffffffffffffff\n      and\n      sub\n        /* \"@openzeppelin/contracts/token/ERC20/ERC20.sol\":10627:10695  require(owner != address(0), \"ERC20: approve from the zero address\") */\n      tag_287\n      jumpi\n      mload(0x40)\n      0x08c379a000000000000000000000000000000000000000000000000000000000\n      dup2\n      mstore\n      0x04\n      add\n      tag_288\n      swap1\n      tag_289\n      jump\t// in\n    tag_288:\n      mload(0x40)\n      dup1\n      swap2\n      sub\n      swap1\n      revert\n    tag_287:\n        /* \"@openzeppelin/contracts/token/ERC20/ERC20.sol\":10732:10733  0 */\n      0x00\n        /* \"@openzeppelin/contracts/token/ERC20/ERC20.sol\":10713:10734  spender != address(0) */\n      0xffffffffffffffffffffffffffffffffffffffff\n      and\n        /* \"@openzeppelin/contracts/token/ERC20/ERC20.sol\":10713:10720  spender */\n      dup3\n        /* \"@openzeppelin/contracts/token/ERC20/ERC20.sol\":10713:10734  spender != address(0) */\n      0xffffffffffffffffffffffffffffffffffffffff\n      and\n      sub\n        /* \"@openzeppelin/contracts/token/ERC20/ERC20.sol\":10705:10773  require(spender != address(0), \"ERC20: approve to the zero address\") */\n      tag_290\n      jumpi\n      mload(0x40)\n      0x08c379a000000000000000000000000000000000000000000000000000000000\n      dup2\n      mstore\n      0x04\n      add\n      tag_291\n      swap1\n      tag_292\n      jump\t// in\n    tag_291:\n      mload(0x40)\n      dup1\n      swap2\n      sub\n      swap1\n      revert\n    tag_290:\n        /* \"@openzeppelin/contracts/token/ERC20/ERC20.sol\":10814:10820  amount */\n      dup1\n        /* \"@openzeppelin/contracts/token/ERC20/ERC20.sol\":10784:10795  _allowances */\n      0x01\n        /* \"@openzeppelin/contracts/token/ERC20/ERC20.sol\":10784:10802  _allowances[owner] */\n      0x00\n        /* \"@openzeppelin/contracts/token/ERC20/ERC20.sol\":10796:10801  owner */\n      dup6\n        /* \"@openzeppelin/contracts/token/ERC20/ERC20.sol\":10784:10802  _allowances[owner] */\n      0xffffffffffffffffffffffffffffffffffffffff\n      and\n      0xffffffffffffffffffffffffffffffffffffffff\n      and\n      dup2\n      mstore\n      0x20\n      add\n      swap1\n      dup2\n      mstore\n      0x20\n      add\n      0x00\n      keccak256\n        /* \"@openzeppelin/contracts/token/ERC20/ERC20.sol\":10784:10811  _allowances[owner][spender] */\n      0x00\n        /* \"@openzeppelin/contracts/token/ERC20/ERC20.sol\":10803:10810  spender */\n      dup5\n        /* \"@openzeppelin/contracts/token/ERC20/ERC20.sol\":10784:10811  _allowances[owner][spender] */\n      0xffffffffffffffffffffffffffffffffffffffff\n      and\n      0xffffffffffffffffffffffffffffffffffffffff\n      and\n      dup2\n      mstore\n      0x20\n      add\n      swap1\n      dup2\n      mstore\n      0x20\n      add\n      0x00\n      keccak256\n        /* \"@openzeppelin/contracts/token/ERC20/ERC20.sol\":10784:10820  _allowances[owner][spender] = amount */\n      dup2\n      swap1\n      sstore\n      pop\n        /* \"@openzeppelin/contracts/token/ERC20/ERC20.sol\":10851:10858  spender */\n      dup2\n        /* \"@openzeppelin/contracts/token/ERC20/ERC20.sol\":10835:10867  Approval(owner, spender, amount) */\n      0xffffffffffffffffffffffffffffffffffffffff\n      and\n        /* \"@openzeppelin/contracts/token/ERC20/ERC20.sol\":10844:10849  owner */\n      dup4\n        /* \"@openzeppelin/contracts/token/ERC20/ERC20.sol\":10835:10867  Approval(owner, spender, amount) */\n      0xffffffffffffffffffffffffffffffffffffffff\n      and\n      0x8c5be1e5ebec7d5bd14f71427d1e84f3dd0314c0f7b2291e5b200ac8c7c3b925\n        /* \"@openzeppelin/contracts/token/ERC20/ERC20.sol\":10860:10866  amount */\n      dup4\n        /* \"@openzeppelin/contracts/token/ERC20/ERC20.sol\":10835:10867  Approval(owner, spender, amount) */\n      mload(0x40)\n      tag_293\n      swap2\n      swap1\n      tag_46\n      jump\t// in\n    tag_293:\n      mload(0x40)\n      dup1\n      swap2\n      sub\n      swap1\n      log3\n        /* \"@openzeppelin/contracts/token/ERC20/ERC20.sol\":10504:10874  function _approve(... */\n      pop\n      pop\n      pop\n      jump\t// out\n        /* \"@openzeppelin/contracts/token/ERC20/ERC20.sol\":9422:10081  function _burn(address account, uint256 amount) internal virtual {... */\n    tag_139:\n        /* \"@openzeppelin/contracts/token/ERC20/ERC20.sol\":9524:9525  0 */\n      0x00\n        /* \"@openzeppelin/contracts/token/ERC20/ERC20.sol\":9505:9526  account != address(0) */\n      0xffffffffffffffffffffffffffffffffffffffff\n      and\n        /* \"@openzeppelin/contracts/token/ERC20/ERC20.sol\":9505:9512  account */\n      dup3\n        /* \"@openzeppelin/contracts/token/ERC20/ERC20.sol\":9505:9526  account != address(0) */\n      0xffffffffffffffffffffffffffffffffffffffff\n      and\n      sub\n        /* \"@openzeppelin/contracts/token/ERC20/ERC20.sol\":9497:9564  require(account != address(0), \"ERC20: burn from the zero address\") */\n      tag_295\n      jumpi\n      mload(0x40)\n      0x08c379a000000000000000000000000000000000000000000000000000000000\n      dup2\n      mstore\n      0x04\n      add\n      tag_296\n      swap1\n      tag_297\n      jump\t// in\n    tag_296:\n      mload(0x40)\n      dup1\n      swap2\n      sub\n      swap1\n      revert\n    tag_295:\n        /* \"@openzeppelin/contracts/token/ERC20/ERC20.sol\":9575:9624  _beforeTokenTransfer(account, address(0), amount) */\n      tag_298\n        /* \"@openzeppelin/contracts/token/ERC20/ERC20.sol\":9596:9603  account */\n      dup3\n        /* \"@openzeppelin/contracts/token/ERC20/ERC20.sol\":9613:9614  0 */\n      0x00\n        /* \"@openzeppelin/contracts/token/ERC20/ERC20.sol\":9617:9623  amount */\n      dup4\n        /* \"@openzeppelin/contracts/token/ERC20/ERC20.sol\":9575:9595  _beforeTokenTransfer */\n      tag_299\n        /* \"@openzeppelin/contracts/token/ERC20/ERC20.sol\":9575:9624  _beforeTokenTransfer(account, address(0), amount) */\n      jump\t// in\n    tag_298:\n        /* \"@openzeppelin/contracts/token/ERC20/ERC20.sol\":9635:9657  uint256 accountBalance */\n      0x00\n        /* \"@openzeppelin/contracts/token/ERC20/ERC20.sol\":9660:9669  _balances */\n      dup1\n        /* \"@openzeppelin/contracts/token/ERC20/ERC20.sol\":9660:9678  _balances[account] */\n      0x00\n        /* \"@openzeppelin/contracts/token/ERC20/ERC20.sol\":9670:9677  account */\n      dup5\n        /* \"@openzeppelin/contracts/token/ERC20/ERC20.sol\":9660:9678  _balances[account] */\n      0xffffffffffffffffffffffffffffffffffffffff\n      and\n      0xffffffffffffffffffffffffffffffffffffffff\n      and\n      dup2\n      mstore\n      0x20\n      add\n      swap1\n      dup2\n      mstore\n      0x20\n      add\n      0x00\n      keccak256\n      sload\n        /* \"@openzeppelin/contracts/token/ERC20/ERC20.sol\":9635:9678  uint256 accountBalance = _balances[account] */\n      swap1\n      pop\n        /* \"@openzeppelin/contracts/token/ERC20/ERC20.sol\":9714:9720  amount */\n      dup2\n        /* \"@openzeppelin/contracts/token/ERC20/ERC20.sol\":9696:9710  accountBalance */\n      dup2\n        /* \"@openzeppelin/contracts/token/ERC20/ERC20.sol\":9696:9720  accountBalance >= amount */\n      lt\n      iszero\n        /* \"@openzeppelin/contracts/token/ERC20/ERC20.sol\":9688:9759  require(accountBalance >= amount, \"ERC20: burn amount exceeds balance\") */\n      tag_300\n      jumpi\n      mload(0x40)\n      0x08c379a000000000000000000000000000000000000000000000000000000000\n      dup2\n      mstore\n      0x04\n      add\n      tag_301\n      swap1\n      tag_302\n      jump\t// in\n    tag_301:\n      mload(0x40)\n      dup1\n      swap2\n      sub\n      swap1\n      revert\n    tag_300:\n        /* \"@openzeppelin/contracts/token/ERC20/ERC20.sol\":9831:9837  amount */\n      dup2\n        /* \"@openzeppelin/contracts/token/ERC20/ERC20.sol\":9814:9828  accountBalance */\n      dup2\n        /* \"@openzeppelin/contracts/token/ERC20/ERC20.sol\":9814:9837  accountBalance - amount */\n      sub\n        /* \"@openzeppelin/contracts/token/ERC20/ERC20.sol\":9793:9802  _balances */\n      0x00\n        /* \"@openzeppelin/contracts/token/ERC20/ERC20.sol\":9793:9811  _balances[account] */\n      dup1\n        /* \"@openzeppelin/contracts/token/ERC20/ERC20.sol\":9803:9810  account */\n      dup6\n        /* \"@openzeppelin/contracts/token/ERC20/ERC20.sol\":9793:9811  _balances[account] */\n      0xffffffffffffffffffffffffffffffffffffffff\n      and\n      0xffffffffffffffffffffffffffffffffffffffff\n      and\n      dup2\n      mstore\n      0x20\n      add\n      swap1\n      dup2\n      mstore\n      0x20\n      add\n      0x00\n      keccak256\n        /* \"@openzeppelin/contracts/token/ERC20/ERC20.sol\":9793:9837  _balances[account] = accountBalance - amount */\n      dup2\n      swap1\n      sstore\n      pop\n        /* \"@openzeppelin/contracts/token/ERC20/ERC20.sol\":9946:9952  amount */\n      dup2\n        /* \"@openzeppelin/contracts/token/ERC20/ERC20.sol\":9930:9942  _totalSupply */\n      0x02\n      0x00\n        /* \"@openzeppelin/contracts/token/ERC20/ERC20.sol\":9930:9952  _totalSupply -= amount */\n      dup3\n      dup3\n      sload\n      sub\n      swap3\n      pop\n      pop\n      dup2\n      swap1\n      sstore\n      pop\n        /* \"@openzeppelin/contracts/token/ERC20/ERC20.sol\":10004:10005  0 */\n      0x00\n        /* \"@openzeppelin/contracts/token/ERC20/ERC20.sol\":9978:10015  Transfer(account, address(0), amount) */\n      0xffffffffffffffffffffffffffffffffffffffff\n      and\n        /* \"@openzeppelin/contracts/token/ERC20/ERC20.sol\":9987:9994  account */\n      dup4\n        /* \"@openzeppelin/contracts/token/ERC20/ERC20.sol\":9978:10015  Transfer(account, address(0), amount) */\n      0xffffffffffffffffffffffffffffffffffffffff\n      and\n      0xddf252ad1be2c89b69c2b068fc378daa952ba7f163c4a11628f55a4df523b3ef\n        /* \"@openzeppelin/contracts/token/ERC20/ERC20.sol\":10008:10014  amount */\n      dup5\n        /* \"@openzeppelin/contracts/token/ERC20/ERC20.sol\":9978:10015  Transfer(account, address(0), amount) */\n      mload(0x40)\n      tag_303\n      swap2\n      swap1\n      tag_46\n      jump\t// in\n    tag_303:\n      mload(0x40)\n      dup1\n      swap2\n      sub\n      swap1\n      log3\n        /* \"@openzeppelin/contracts/token/ERC20/ERC20.sol\":10026:10074  _afterTokenTransfer(account, address(0), amount) */\n      tag_304\n        /* \"@openzeppelin/contracts/token/ERC20/ERC20.sol\":10046:10053  account */\n      dup4\n        /* \"@openzeppelin/contracts/token/ERC20/ERC20.sol\":10063:10064  0 */\n      0x00\n        /* \"@openzeppelin/contracts/token/ERC20/ERC20.sol\":10067:10073  amount */\n      dup5\n        /* \"@openzeppelin/contracts/token/ERC20/ERC20.sol\":10026:10045  _afterTokenTransfer */\n      tag_305\n        /* \"@openzeppelin/contracts/token/ERC20/ERC20.sol\":10026:10074  _afterTokenTransfer(account, address(0), amount) */\n      jump\t// in\n    tag_304:\n        /* \"@openzeppelin/contracts/token/ERC20/ERC20.sol\":9487:10081  {... */\n      pop\n        /* \"@openzeppelin/contracts/token/ERC20/ERC20.sol\":9422:10081  function _burn(address account, uint256 amount) internal virtual {... */\n      pop\n      pop\n      jump\t// out\n        /* \"@openzeppelin/contracts/access/Ownable.sol\":1359:1489  function _checkOwner() internal view virtual {... */\n    tag_147:\n        /* \"@openzeppelin/contracts/access/Ownable.sol\":1433:1445  _msgSender() */\n      tag_307\n        /* \"@openzeppelin/contracts/access/Ownable.sol\":1433:1443  _msgSender */\n      tag_110\n        /* \"@openzeppelin/contracts/access/Ownable.sol\":1433:1445  _msgSender() */\n      jump\t// in\n    tag_307:\n        /* \"@openzeppelin/contracts/access/Ownable.sol\":1422:1445  owner() == _msgSender() */\n      0xffffffffffffffffffffffffffffffffffffffff\n      and\n        /* \"@openzeppelin/contracts/access/Ownable.sol\":1422:1429  owner() */\n      tag_308\n        /* \"@openzeppelin/contracts/access/Ownable.sol\":1422:1427  owner */\n      tag_79\n        /* \"@openzeppelin/contracts/access/Ownable.sol\":1422:1429  owner() */\n      jump\t// in\n    tag_308:\n        /* \"@openzeppelin/contracts/access/Ownable.sol\":1422:1445  owner() == _msgSender() */\n      0xffffffffffffffffffffffffffffffffffffffff\n      and\n      eq\n        /* \"@openzeppelin/contracts/access/Ownable.sol\":1414:1482  require(owner() == _msgSender(), \"Ownable: caller is not the owner\") */\n      tag_309\n      jumpi\n      mload(0x40)\n      0x08c379a000000000000000000000000000000000000000000000000000000000\n      dup2\n      mstore\n      0x04\n      add\n      tag_310\n      swap1\n      tag_311\n      jump\t// in\n    tag_310:\n      mload(0x40)\n      dup1\n      swap2\n      sub\n      swap1\n      revert\n    tag_309:\n        /* \"@openzeppelin/contracts/access/Ownable.sol\":1359:1489  function _checkOwner() internal view virtual {... */\n      jump\t// out\n        /* \"@openzeppelin/contracts/token/ERC20/ERC20.sol\":11155:11596  function _spendAllowance(... */\n    tag_157:\n        /* \"@openzeppelin/contracts/token/ERC20/ERC20.sol\":11285:11309  uint256 currentAllowance */\n      0x00\n        /* \"@openzeppelin/contracts/token/ERC20/ERC20.sol\":11312:11337  allowance(owner, spender) */\n      tag_313\n        /* \"@openzeppelin/contracts/token/ERC20/ERC20.sol\":11322:11327  owner */\n      dup5\n        /* \"@openzeppelin/contracts/token/ERC20/ERC20.sol\":11329:11336  spender */\n      dup5\n        /* \"@openzeppelin/contracts/token/ERC20/ERC20.sol\":11312:11321  allowance */\n      tag_96\n        /* \"@openzeppelin/contracts/token/ERC20/ERC20.sol\":11312:11337  allowance(owner, spender) */\n      jump\t// in\n    tag_313:\n        /* \"@openzeppelin/contracts/token/ERC20/ERC20.sol\":11285:11337  uint256 currentAllowance = allowance(owner, spender) */\n      swap1\n      pop\n        /* \"@openzeppelin/contracts/token/ERC20/ERC20.sol\":11371:11388  type(uint256).max */\n      0xffffffffffffffffffffffffffffffffffffffffffffffffffffffffffffffff\n        /* \"@openzeppelin/contracts/token/ERC20/ERC20.sol\":11351:11367  currentAllowance */\n      dup2\n        /* \"@openzeppelin/contracts/token/ERC20/ERC20.sol\":11351:11388  currentAllowance != type(uint256).max */\n      eq\n        /* \"@openzeppelin/contracts/token/ERC20/ERC20.sol\":11347:11590  if (currentAllowance != type(uint256).max) {... */\n      tag_314\n      jumpi\n        /* \"@openzeppelin/contracts/token/ERC20/ERC20.sol\":11432:11438  amount */\n      dup2\n        /* \"@openzeppelin/contracts/token/ERC20/ERC20.sol\":11412:11428  currentAllowance */\n      dup2\n        /* \"@openzeppelin/contracts/token/ERC20/ERC20.sol\":11412:11438  currentAllowance >= amount */\n      lt\n      iszero\n        /* \"@openzeppelin/contracts/token/ERC20/ERC20.sol\":11404:11472  require(currentAllowance >= amount, \"ERC20: insufficient allowance\") */\n      tag_315\n      jumpi\n      mload(0x40)\n      0x08c379a000000000000000000000000000000000000000000000000000000000\n      dup2\n      mstore\n      0x04\n      add\n      tag_316\n      swap1\n      tag_317\n      jump\t// in\n    tag_316:\n      mload(0x40)\n      dup1\n      swap2\n      sub\n      swap1\n      revert\n    tag_315:\n        /* \"@openzeppelin/contracts/token/ERC20/ERC20.sol\":11514:11565  _approve(owner, spender, currentAllowance - amount) */\n      tag_318\n        /* \"@openzeppelin/contracts/token/ERC20/ERC20.sol\":11523:11528  owner */\n      dup5\n        /* \"@openzeppelin/contracts/token/ERC20/ERC20.sol\":11530:11537  spender */\n      dup5\n        /* \"@openzeppelin/contracts/token/ERC20/ERC20.sol\":11558:11564  amount */\n      dup5\n        /* \"@openzeppelin/contracts/token/ERC20/ERC20.sol\":11539:11555  currentAllowance */\n      dup5\n        /* \"@openzeppelin/contracts/token/ERC20/ERC20.sol\":11539:11564  currentAllowance - amount */\n      sub\n        /* \"@openzeppelin/contracts/token/ERC20/ERC20.sol\":11514:11522  _approve */\n      tag_112\n        /* \"@openzeppelin/contracts/token/ERC20/ERC20.sol\":11514:11565  _approve(owner, spender, currentAllowance - amount) */\n      jump\t// in\n    tag_318:\n        /* \"@openzeppelin/contracts/token/ERC20/ERC20.sol\":11347:11590  if (currentAllowance != type(uint256).max) {... */\n    tag_314:\n        /* \"@openzeppelin/contracts/token/ERC20/ERC20.sol\":11275:11596  {... */\n      pop\n        /* \"@openzeppelin/contracts/token/ERC20/ERC20.sol\":11155:11596  function _spendAllowance(... */\n      pop\n      pop\n      pop\n      jump\t// out\n        /* \"@openzeppelin/contracts/token/ERC20/ERC20.sol\":7473:8291  function _transfer(... */\n    tag_159:\n        /* \"@openzeppelin/contracts/token/ERC20/ERC20.sol\":7615:7616  0 */\n      0x00\n        /* \"@openzeppelin/contracts/token/ERC20/ERC20.sol\":7599:7617  from != address(0) */\n      0xffffffffffffffffffffffffffffffffffffffff\n      and\n        /* \"@openzeppelin/contracts/token/ERC20/ERC20.sol\":7599:7603  from */\n      dup4\n        /* \"@openzeppelin/contracts/token/ERC20/ERC20.sol\":7599:7617  from != address(0) */\n      0xffffffffffffffffffffffffffffffffffffffff\n      and\n      sub\n        /* \"@openzeppelin/contracts/token/ERC20/ERC20.sol\":7591:7659  require(from != address(0), \"ERC20: transfer from the zero address\") */\n      tag_320\n      jumpi\n      mload(0x40)\n      0x08c379a000000000000000000000000000000000000000000000000000000000\n      dup2\n      mstore\n      0x04\n      add\n      tag_321\n      swap1\n      tag_322\n      jump\t// in\n    tag_321:\n      mload(0x40)\n      dup1\n      swap2\n      sub\n      swap1\n      revert\n    tag_320:\n        /* \"@openzeppelin/contracts/token/ERC20/ERC20.sol\":7691:7692  0 */\n      0x00\n        /* \"@openzeppelin/contracts/token/ERC20/ERC20.sol\":7677:7693  to != address(0) */\n      0xffffffffffffffffffffffffffffffffffffffff\n      and\n        /* \"@openzeppelin/contracts/token/ERC20/ERC20.sol\":7677:7679  to */\n      dup3\n        /* \"@openzeppelin/contracts/token/ERC20/ERC20.sol\":7677:7693  to != address(0) */\n      0xffffffffffffffffffffffffffffffffffffffff\n      and\n      sub\n        /* \"@openzeppelin/contracts/token/ERC20/ERC20.sol\":7669:7733  require(to != address(0), \"ERC20: transfer to the zero address\") */\n      tag_323\n      jumpi\n      mload(0x40)\n      0x08c379a000000000000000000000000000000000000000000000000000000000\n      dup2\n      mstore\n      0x04\n      add\n      tag_324\n      swap1\n      tag_325\n      jump\t// in\n    tag_324:\n      mload(0x40)\n      dup1\n      swap2\n      sub\n      swap1\n      revert\n    tag_323:\n        /* \"@openzeppelin/contracts/token/ERC20/ERC20.sol\":7744:7782  _beforeTokenTransfer(from, to, amount) */\n      tag_326\n        /* \"@openzeppelin/contracts/token/ERC20/ERC20.sol\":7765:7769  from */\n      dup4\n        /* \"@openzeppelin/contracts/token/ERC20/ERC20.sol\":7771:7773  to */\n      dup4\n        /* \"@openzeppelin/contracts/token/ERC20/ERC20.sol\":7775:7781  amount */\n      dup4\n        /* \"@openzeppelin/contracts/token/ERC20/ERC20.sol\":7744:7764  _beforeTokenTransfer */\n      tag_299\n        /* \"@openzeppelin/contracts/token/ERC20/ERC20.sol\":7744:7782  _beforeTokenTransfer(from, to, amount) */\n      jump\t// in\n    tag_326:\n        /* \"@openzeppelin/contracts/token/ERC20/ERC20.sol\":7793:7812  uint256 fromBalance */\n      0x00\n        /* \"@openzeppelin/contracts/token/ERC20/ERC20.sol\":7815:7824  _balances */\n      dup1\n        /* \"@openzeppelin/contracts/token/ERC20/ERC20.sol\":7815:7830  _balances[from] */\n      0x00\n        /* \"@openzeppelin/contracts/token/ERC20/ERC20.sol\":7825:7829  from */\n      dup6\n        /* \"@openzeppelin/contracts/token/ERC20/ERC20.sol\":7815:7830  _balances[from] */\n      0xffffffffffffffffffffffffffffffffffffffff\n      and\n      0xffffffffffffffffffffffffffffffffffffffff\n      and\n      dup2\n      mstore\n      0x20\n      add\n      swap1\n      dup2\n      mstore\n      0x20\n      add\n      0x00\n      keccak256\n      sload\n        /* \"@openzeppelin/contracts/token/ERC20/ERC20.sol\":7793:7830  uint256 fromBalance = _balances[from] */\n      swap1\n      pop\n        /* \"@openzeppelin/contracts/token/ERC20/ERC20.sol\":7863:7869  amount */\n      dup2\n        /* \"@openzeppelin/contracts/token/ERC20/ERC20.sol\":7848:7859  fromBalance */\n      dup2\n        /* \"@openzeppelin/contracts/token/ERC20/ERC20.sol\":7848:7869  fromBalance >= amount */\n      lt\n      iszero\n        /* \"@openzeppelin/contracts/token/ERC20/ERC20.sol\":7840:7912  require(fromBalance >= amount, \"ERC20: transfer amount exceeds balance\") */\n      tag_327\n      jumpi\n      mload(0x40)\n      0x08c379a000000000000000000000000000000000000000000000000000000000\n      dup2\n      mstore\n      0x04\n      add\n      tag_328\n      swap1\n      tag_329\n      jump\t// in\n    tag_328:\n      mload(0x40)\n      dup1\n      swap2\n      sub\n      swap1\n      revert\n    tag_327:\n        /* \"@openzeppelin/contracts/token/ERC20/ERC20.sol\":7978:7984  amount */\n      dup2\n        /* \"@openzeppelin/contracts/token/ERC20/ERC20.sol\":7964:7975  fromBalance */\n      dup2\n        /* \"@openzeppelin/contracts/token/ERC20/ERC20.sol\":7964:7984  fromBalance - amount */\n      sub\n        /* \"@openzeppelin/contracts/token/ERC20/ERC20.sol\":7946:7955  _balances */\n      0x00\n        /* \"@openzeppelin/contracts/token/ERC20/ERC20.sol\":7946:7961  _balances[from] */\n      dup1\n        /* \"@openzeppelin/contracts/token/ERC20/ERC20.sol\":7956:7960  from */\n      dup7\n        /* \"@openzeppelin/contracts/token/ERC20/ERC20.sol\":7946:7961  _balances[from] */\n      0xffffffffffffffffffffffffffffffffffffffff\n      and\n      0xffffffffffffffffffffffffffffffffffffffff\n      and\n      dup2\n      mstore\n      0x20\n      add\n      swap1\n      dup2\n      mstore\n      0x20\n      add\n      0x00\n      keccak256\n        /* \"@openzeppelin/contracts/token/ERC20/ERC20.sol\":7946:7984  _balances[from] = fromBalance - amount */\n      dup2\n      swap1\n      sstore\n      pop\n        /* \"@openzeppelin/contracts/token/ERC20/ERC20.sol\":8178:8184  amount */\n      dup2\n        /* \"@openzeppelin/contracts/token/ERC20/ERC20.sol\":8161:8170  _balances */\n      0x00\n        /* \"@openzeppelin/contracts/token/ERC20/ERC20.sol\":8161:8174  _balances[to] */\n      dup1\n        /* \"@openzeppelin/contracts/token/ERC20/ERC20.sol\":8171:8173  to */\n      dup6\n        /* \"@openzeppelin/contracts/token/ERC20/ERC20.sol\":8161:8174  _balances[to] */\n      0xffffffffffffffffffffffffffffffffffffffff\n      and\n      0xffffffffffffffffffffffffffffffffffffffff\n      and\n      dup2\n      mstore\n      0x20\n      add\n      swap1\n      dup2\n      mstore\n      0x20\n      add\n      0x00\n      keccak256\n      0x00\n        /* \"@openzeppelin/contracts/token/ERC20/ERC20.sol\":8161:8184  _balances[to] += amount */\n      dup3\n      dup3\n      sload\n      add\n      swap3\n      pop\n      pop\n      dup2\n      swap1\n      sstore\n      pop\n        /* \"@openzeppelin/contracts/token/ERC20/ERC20.sol\":8225:8227  to */\n      dup3\n        /* \"@openzeppelin/contracts/token/ERC20/ERC20.sol\":8210:8236  Transfer(from, to, amount) */\n      0xffffffffffffffffffffffffffffffffffffffff\n      and\n        /* \"@openzeppelin/contracts/token/ERC20/ERC20.sol\":8219:8223  from */\n      dup5\n        /* \"@openzeppelin/contracts/token/ERC20/ERC20.sol\":8210:8236  Transfer(from, to, amount) */\n      0xffffffffffffffffffffffffffffffffffffffff\n      and\n      0xddf252ad1be2c89b69c2b068fc378daa952ba7f163c4a11628f55a4df523b3ef\n        /* \"@openzeppelin/contracts/token/ERC20/ERC20.sol\":8229:8235  amount */\n      dup5\n        /* \"@openzeppelin/contracts/token/ERC20/ERC20.sol\":8210:8236  Transfer(from, to, amount) */\n      mload(0x40)\n      tag_330\n      swap2\n      swap1\n      tag_46\n      jump\t// in\n    tag_330:\n      mload(0x40)\n      dup1\n      swap2\n      sub\n      swap1\n      log3\n        /* \"@openzeppelin/contracts/token/ERC20/ERC20.sol\":8247:8284  _afterTokenTransfer(from, to, amount) */\n      tag_331\n        /* \"@openzeppelin/contracts/token/ERC20/ERC20.sol\":8267:8271  from */\n      dup5\n        /* \"@openzeppelin/contracts/token/ERC20/ERC20.sol\":8273:8275  to */\n      dup5\n        /* \"@openzeppelin/contracts/token/ERC20/ERC20.sol\":8277:8283  amount */\n      dup5\n        /* \"@openzeppelin/contracts/token/ERC20/ERC20.sol\":8247:8266  _afterTokenTransfer */\n      tag_305\n        /* \"@openzeppelin/contracts/token/ERC20/ERC20.sol\":8247:8284  _afterTokenTransfer(from, to, amount) */\n      jump\t// in\n    tag_331:\n        /* \"@openzeppelin/contracts/token/ERC20/ERC20.sol\":7581:8291  {... */\n      pop\n        /* \"@openzeppelin/contracts/token/ERC20/ERC20.sol\":7473:8291  function _transfer(... */\n      pop\n      pop\n      pop\n      jump\t// out\n        /* \"@openzeppelin/contracts/token/ERC20/ERC20.sol\":8567:9102  function _mint(address account, uint256 amount) internal virtual {... */\n    tag_174:\n        /* \"@openzeppelin/contracts/token/ERC20/ERC20.sol\":8669:8670  0 */\n      0x00\n        /* \"@openzeppelin/contracts/token/ERC20/ERC20.sol\":8650:8671  account != address(0) */\n      0xffffffffffffffffffffffffffffffffffffffff\n      and\n        /* \"@openzeppelin/contracts/token/ERC20/ERC20.sol\":8650:8657  account */\n      dup3\n        /* \"@openzeppelin/contracts/token/ERC20/ERC20.sol\":8650:8671  account != address(0) */\n      0xffffffffffffffffffffffffffffffffffffffff\n      and\n      sub\n        /* \"@openzeppelin/contracts/token/ERC20/ERC20.sol\":8642:8707  require(account != address(0), \"ERC20: mint to the zero address\") */\n      tag_333\n      jumpi\n      mload(0x40)\n      0x08c379a000000000000000000000000000000000000000000000000000000000\n      dup2\n      mstore\n      0x04\n      add\n      tag_334\n      swap1\n      tag_335\n      jump\t// in\n    tag_334:\n      mload(0x40)\n      dup1\n      swap2\n      sub\n      swap1\n      revert\n    tag_333:\n        /* \"@openzeppelin/contracts/token/ERC20/ERC20.sol\":8718:8767  _beforeTokenTransfer(address(0), account, amount) */\n      tag_336\n        /* \"@openzeppelin/contracts/token/ERC20/ERC20.sol\":8747:8748  0 */\n      0x00\n        /* \"@openzeppelin/contracts/token/ERC20/ERC20.sol\":8751:8758  account */\n      dup4\n        /* \"@openzeppelin/contracts/token/ERC20/ERC20.sol\":8760:8766  amount */\n      dup4\n        /* \"@openzeppelin/contracts/token/ERC20/ERC20.sol\":8718:8738  _beforeTokenTransfer */\n      tag_299\n        /* \"@openzeppelin/contracts/token/ERC20/ERC20.sol\":8718:8767  _beforeTokenTransfer(address(0), account, amount) */\n      jump\t// in\n    tag_336:\n        /* \"@openzeppelin/contracts/token/ERC20/ERC20.sol\":8794:8800  amount */\n      dup1\n        /* \"@openzeppelin/contracts/token/ERC20/ERC20.sol\":8778:8790  _totalSupply */\n      0x02\n      0x00\n        /* \"@openzeppelin/contracts/token/ERC20/ERC20.sol\":8778:8800  _totalSupply += amount */\n      dup3\n      dup3\n      sload\n      tag_337\n      swap2\n      swap1\n      tag_166\n      jump\t// in\n    tag_337:\n      swap3\n      pop\n      pop\n      dup2\n      swap1\n      sstore\n      pop\n        /* \"@openzeppelin/contracts/token/ERC20/ERC20.sol\":8968:8974  amount */\n      dup1\n        /* \"@openzeppelin/contracts/token/ERC20/ERC20.sol\":8946:8955  _balances */\n      0x00\n        /* \"@openzeppelin/contracts/token/ERC20/ERC20.sol\":8946:8964  _balances[account] */\n      dup1\n        /* \"@openzeppelin/contracts/token/ERC20/ERC20.sol\":8956:8963  account */\n      dup5\n        /* \"@openzeppelin/contracts/token/ERC20/ERC20.sol\":8946:8964  _balances[account] */\n      0xffffffffffffffffffffffffffffffffffffffff\n      and\n      0xffffffffffffffffffffffffffffffffffffffff\n      and\n      dup2\n      mstore\n      0x20\n      add\n      swap1\n      dup2\n      mstore\n      0x20\n      add\n      0x00\n      keccak256\n      0x00\n        /* \"@openzeppelin/contracts/token/ERC20/ERC20.sol\":8946:8974  _balances[account] += amount */\n      dup3\n      dup3\n      sload\n      add\n      swap3\n      pop\n      pop\n      dup2\n      swap1\n      sstore\n      pop\n        /* \"@openzeppelin/contracts/token/ERC20/ERC20.sol\":9020:9027  account */\n      dup2\n        /* \"@openzeppelin/contracts/token/ERC20/ERC20.sol\":8999:9036  Transfer(address(0), account, amount) */\n      0xffffffffffffffffffffffffffffffffffffffff\n      and\n        /* \"@openzeppelin/contracts/token/ERC20/ERC20.sol\":9016:9017  0 */\n      0x00\n        /* \"@openzeppelin/contracts/token/ERC20/ERC20.sol\":8999:9036  Transfer(address(0), account, amount) */\n      0xffffffffffffffffffffffffffffffffffffffff\n      and\n      0xddf252ad1be2c89b69c2b068fc378daa952ba7f163c4a11628f55a4df523b3ef\n        /* \"@openzeppelin/contracts/token/ERC20/ERC20.sol\":9029:9035  amount */\n      dup4\n        /* \"@openzeppelin/contracts/token/ERC20/ERC20.sol\":8999:9036  Transfer(address(0), account, amount) */\n      mload(0x40)\n      tag_338\n      swap2\n      swap1\n      tag_46\n      jump\t// in\n    tag_338:\n      mload(0x40)\n      dup1\n      swap2\n      sub\n      swap1\n      log3\n        /* \"@openzeppelin/contracts/token/ERC20/ERC20.sol\":9047:9095  _afterTokenTransfer(address(0), account, amount) */\n      tag_339\n        /* \"@openzeppelin/contracts/token/ERC20/ERC20.sol\":9075:9076  0 */\n      0x00\n        /* \"@openzeppelin/contracts/token/ERC20/ERC20.sol\":9079:9086  account */\n      dup4\n        /* \"@openzeppelin/contracts/token/ERC20/ERC20.sol\":9088:9094  amount */\n      dup4\n        /* \"@openzeppelin/contracts/token/ERC20/ERC20.sol\":9047:9066  _afterTokenTransfer */\n      tag_305\n        /* \"@openzeppelin/contracts/token/ERC20/ERC20.sol\":9047:9095  _afterTokenTransfer(address(0), account, amount) */\n      jump\t// in\n    tag_339:\n        /* \"@openzeppelin/contracts/token/ERC20/ERC20.sol\":8567:9102  function _mint(address account, uint256 amount) internal virtual {... */\n      pop\n      pop\n      jump\t// out\n        /* \"@openzeppelin/contracts/access/Ownable.sol\":2433:2620  function _transferOwnership(address newOwner) internal virtual {... */\n    tag_254:\n        /* \"@openzeppelin/contracts/access/Ownable.sol\":2506:2522  address oldOwner */\n      0x00\n        /* \"@openzeppelin/contracts/access/Ownable.sol\":2525:2531  _owner */\n      0x05\n      0x00\n      swap1\n      sload\n      swap1\n      0x0100\n      exp\n      swap1\n      div\n      0xffffffffffffffffffffffffffffffffffffffff\n      and\n        /* \"@openzeppelin/contracts/access/Ownable.sol\":2506:2531  address oldOwner = _owner */\n      swap1\n      pop\n        /* \"@openzeppelin/contracts/access/Ownable.sol\":2550:2558  newOwner */\n      dup2\n        /* \"@openzeppelin/contracts/access/Ownable.sol\":2541:2547  _owner */\n      0x05\n      0x00\n        /* \"@openzeppelin/contracts/access/Ownable.sol\":2541:2558  _owner = newOwner */\n      0x0100\n      exp\n      dup2\n      sload\n      dup2\n      0xffffffffffffffffffffffffffffffffffffffff\n      mul\n      not\n      and\n      swap1\n      dup4\n      0xffffffffffffffffffffffffffffffffffffffff\n      and\n      mul\n      or\n      swap1\n      sstore\n      pop\n        /* \"@openzeppelin/contracts/access/Ownable.sol\":2604:2612  newOwner */\n      dup2\n        /* \"@openzeppelin/contracts/access/Ownable.sol\":2573:2613  OwnershipTransferred(oldOwner, newOwner) */\n      0xffffffffffffffffffffffffffffffffffffffff\n      and\n        /* \"@openzeppelin/contracts/access/Ownable.sol\":2594:2602  oldOwner */\n      dup2\n        /* \"@openzeppelin/contracts/access/Ownable.sol\":2573:2613  OwnershipTransferred(oldOwner, newOwner) */\n      0xffffffffffffffffffffffffffffffffffffffff\n      and\n      0x8be0079c531659141344cd1fd0a4f28419497f9722a3daafe3b4186f6b6457e0\n      mload(0x40)\n      mload(0x40)\n      dup1\n      swap2\n      sub\n      swap1\n      log3\n        /* \"@openzeppelin/contracts/access/Ownable.sol\":2496:2620  {... */\n      pop\n        /* \"@openzeppelin/contracts/access/Ownable.sol\":2433:2620  function _transferOwnership(address newOwner) internal virtual {... */\n      pop\n      jump\t// out\n        /* \"@openzeppelin/contracts/token/ERC20/ERC20.sol\":3727:3916  function transfer(address to, uint256 amount) public virtual override returns (bool) {... */\n    tag_276:\n        /* \"@openzeppelin/contracts/token/ERC20/ERC20.sol\":3806:3810  bool */\n      0x00\n        /* \"@openzeppelin/contracts/token/ERC20/ERC20.sol\":3822:3835  address owner */\n      dup1\n        /* \"@openzeppelin/contracts/token/ERC20/ERC20.sol\":3838:3850  _msgSender() */\n      tag_342\n        /* \"@openzeppelin/contracts/token/ERC20/ERC20.sol\":3838:3848  _msgSender */\n      tag_110\n        /* \"@openzeppelin/contracts/token/ERC20/ERC20.sol\":3838:3850  _msgSender() */\n      jump\t// in\n    tag_342:\n        /* \"@openzeppelin/contracts/token/ERC20/ERC20.sol\":3822:3850  address owner = _msgSender() */\n      swap1\n      pop\n        /* \"@openzeppelin/contracts/token/ERC20/ERC20.sol\":3860:3888  _transfer(owner, to, amount) */\n      tag_343\n        /* \"@openzeppelin/contracts/token/ERC20/ERC20.sol\":3870:3875  owner */\n      dup2\n        /* \"@openzeppelin/contracts/token/ERC20/ERC20.sol\":3877:3879  to */\n      dup6\n        /* \"@openzeppelin/contracts/token/ERC20/ERC20.sol\":3881:3887  amount */\n      dup6\n        /* \"@openzeppelin/contracts/token/ERC20/ERC20.sol\":3860:3869  _transfer */\n      tag_159\n        /* \"@openzeppelin/contracts/token/ERC20/ERC20.sol\":3860:3888  _transfer(owner, to, amount) */\n      jump\t// in\n    tag_343:\n        /* \"@openzeppelin/contracts/token/ERC20/ERC20.sol\":3905:3909  true */\n      0x01\n        /* \"@openzeppelin/contracts/token/ERC20/ERC20.sol\":3898:3909  return true */\n      swap2\n      pop\n      pop\n        /* \"@openzeppelin/contracts/token/ERC20/ERC20.sol\":3727:3916  function transfer(address to, uint256 amount) public virtual override returns (bool) {... */\n      swap3\n      swap2\n      pop\n      pop\n      jump\t// out\n        /* \"@openzeppelin/contracts/token/ERC20/ERC20.sol\":12180:12301  function _beforeTokenTransfer(... */\n    tag_299:\n      pop\n      pop\n      pop\n      jump\t// out\n        /* \"@openzeppelin/contracts/token/ERC20/ERC20.sol\":12889:13009  function _afterTokenTransfer(... */\n    tag_305:\n      pop\n      pop\n      pop\n      jump\t// out\n    tag_190:\n      mload(0x40)\n      dup1\n      0x80\n      add\n      0x40\n      mstore\n      dup1\n      0x60\n      dup2\n      mstore\n      0x20\n      add\n      0x60\n      dup2\n      mstore\n      0x20\n      add\n      0x00\n      dup2\n      mstore\n      0x20\n      add\n      0x60\n      dup2\n      mstore\n      pop\n      swap1\n      jump\t// out\n        /* \"#utility.yul\":7:106   */\n    tag_346:\n        /* \"#utility.yul\":59:65   */\n      0x00\n        /* \"#utility.yul\":93:98   */\n      dup2\n        /* \"#utility.yul\":87:99   */\n      mload\n        /* \"#utility.yul\":77:99   */\n      swap1\n      pop\n        /* \"#utility.yul\":7:106   */\n      swap2\n      swap1\n      pop\n      jump\t// out\n        /* \"#utility.yul\":112:281   */\n    tag_347:\n        /* \"#utility.yul\":196:207   */\n      0x00\n        /* \"#utility.yul\":230:236   */\n      dup3\n        /* \"#utility.yul\":225:228   */\n      dup3\n        /* \"#utility.yul\":218:237   */\n      mstore\n        /* \"#utility.yul\":270:274   */\n      0x20\n        /* \"#utility.yul\":265:268   */\n      dup3\n        /* \"#utility.yul\":261:275   */\n      add\n        /* \"#utility.yul\":246:275   */\n      swap1\n      pop\n        /* \"#utility.yul\":112:281   */\n      swap3\n      swap2\n      pop\n      pop\n      jump\t// out\n        /* \"#utility.yul\":287:533   */\n    tag_348:\n        /* \"#utility.yul\":368:369   */\n      0x00\n        /* \"#utility.yul\":378:491   */\n    tag_444:\n        /* \"#utility.yul\":392:398   */\n      dup4\n        /* \"#utility.yul\":389:390   */\n      dup2\n        /* \"#utility.yul\":386:399   */\n      lt\n        /* \"#utility.yul\":378:491   */\n      iszero\n      tag_446\n      jumpi\n        /* \"#utility.yul\":477:478   */\n      dup1\n        /* \"#utility.yul\":472:475   */\n      dup3\n        /* \"#utility.yul\":468:479   */\n      add\n        /* \"#utility.yul\":462:480   */\n      mload\n        /* \"#utility.yul\":458:459   */\n      dup2\n        /* \"#utility.yul\":453:456   */\n      dup5\n        /* \"#utility.yul\":449:460   */\n      add\n        /* \"#utility.yul\":442:481   */\n      mstore\n        /* \"#utility.yul\":414:416   */\n      0x20\n        /* \"#utility.yul\":411:412   */\n      dup2\n        /* \"#utility.yul\":407:417   */\n      add\n        /* \"#utility.yul\":402:417   */\n      swap1\n      pop\n        /* \"#utility.yul\":378:491   */\n      jump(tag_444)\n    tag_446:\n        /* \"#utility.yul\":525:526   */\n      0x00\n        /* \"#utility.yul\":516:522   */\n      dup5\n        /* \"#utility.yul\":511:514   */\n      dup5\n        /* \"#utility.yul\":507:523   */\n      add\n        /* \"#utility.yul\":500:527   */\n      mstore\n        /* \"#utility.yul\":349:533   */\n      pop\n        /* \"#utility.yul\":287:533   */\n      pop\n      pop\n      pop\n      jump\t// out\n        /* \"#utility.yul\":539:641   */\n    tag_349:\n        /* \"#utility.yul\":580:586   */\n      0x00\n        /* \"#utility.yul\":631:633   */\n      0x1f\n        /* \"#utility.yul\":627:634   */\n      not\n        /* \"#utility.yul\":622:624   */\n      0x1f\n        /* \"#utility.yul\":615:620   */\n      dup4\n        /* \"#utility.yul\":611:625   */\n      add\n        /* \"#utility.yul\":607:635   */\n      and\n        /* \"#utility.yul\":597:635   */\n      swap1\n      pop\n        /* \"#utility.yul\":539:641   */\n      swap2\n      swap1\n      pop\n      jump\t// out\n        /* \"#utility.yul\":647:1024   */\n    tag_350:\n        /* \"#utility.yul\":735:738   */\n      0x00\n        /* \"#utility.yul\":763:802   */\n      tag_449\n        /* \"#utility.yul\":796:801   */\n      dup3\n        /* \"#utility.yul\":763:802   */\n      tag_346\n      jump\t// in\n    tag_449:\n        /* \"#utility.yul\":818:889   */\n      tag_450\n        /* \"#utility.yul\":882:888   */\n      dup2\n        /* \"#utility.yul\":877:880   */\n      dup6\n        /* \"#utility.yul\":818:889   */\n      tag_347\n      jump\t// in\n    tag_450:\n        /* \"#utility.yul\":811:889   */\n      swap4\n      pop\n        /* \"#utility.yul\":898:963   */\n      tag_451\n        /* \"#utility.yul\":956:962   */\n      dup2\n        /* \"#utility.yul\":951:954   */\n      dup6\n        /* \"#utility.yul\":944:948   */\n      0x20\n        /* \"#utility.yul\":937:942   */\n      dup7\n        /* \"#utility.yul\":933:949   */\n      add\n        /* \"#utility.yul\":898:963   */\n      tag_348\n      jump\t// in\n    tag_451:\n        /* \"#utility.yul\":988:1017   */\n      tag_452\n        /* \"#utility.yul\":1010:1016   */\n      dup2\n        /* \"#utility.yul\":988:1017   */\n      tag_349\n      jump\t// in\n    tag_452:\n        /* \"#utility.yul\":983:986   */\n      dup5\n        /* \"#utility.yul\":979:1018   */\n      add\n        /* \"#utility.yul\":972:1018   */\n      swap2\n      pop\n        /* \"#utility.yul\":739:1024   */\n      pop\n        /* \"#utility.yul\":647:1024   */\n      swap3\n      swap2\n      pop\n      pop\n      jump\t// out\n        /* \"#utility.yul\":1030:1343   */\n    tag_28:\n        /* \"#utility.yul\":1143:1147   */\n      0x00\n        /* \"#utility.yul\":1181:1183   */\n      0x20\n        /* \"#utility.yul\":1170:1179   */\n      dup3\n        /* \"#utility.yul\":1166:1184   */\n      add\n        /* \"#utility.yul\":1158:1184   */\n      swap1\n      pop\n        /* \"#utility.yul\":1230:1239   */\n      dup2\n        /* \"#utility.yul\":1224:1228   */\n      dup2\n        /* \"#utility.yul\":1220:1240   */\n      sub\n        /* \"#utility.yul\":1216:1217   */\n      0x00\n        /* \"#utility.yul\":1205:1214   */\n      dup4\n        /* \"#utility.yul\":1201:1218   */\n      add\n        /* \"#utility.yul\":1194:1241   */\n      mstore\n        /* \"#utility.yul\":1258:1336   */\n      tag_454\n        /* \"#utility.yul\":1331:1335   */\n      dup2\n        /* \"#utility.yul\":1322:1328   */\n      dup5\n        /* \"#utility.yul\":1258:1336   */\n      tag_350\n      jump\t// in\n    tag_454:\n        /* \"#utility.yul\":1250:1336   */\n      swap1\n      pop\n        /* \"#utility.yul\":1030:1343   */\n      swap3\n      swap2\n      pop\n      pop\n      jump\t// out\n        /* \"#utility.yul\":1349:1424   */\n    tag_351:\n        /* \"#utility.yul\":1382:1388   */\n      0x00\n        /* \"#utility.yul\":1415:1417   */\n      0x40\n        /* \"#utility.yul\":1409:1418   */\n      mload\n        /* \"#utility.yul\":1399:1418   */\n      swap1\n      pop\n        /* \"#utility.yul\":1349:1424   */\n      swap1\n      jump\t// out\n        /* \"#utility.yul\":1430:1547   */\n    tag_352:\n        /* \"#utility.yul\":1539:1540   */\n      0x00\n        /* \"#utility.yul\":1536:1537   */\n      dup1\n        /* \"#utility.yul\":1529:1541   */\n      revert\n        /* \"#utility.yul\":1553:1670   */\n    tag_353:\n        /* \"#utility.yul\":1662:1663   */\n      0x00\n        /* \"#utility.yul\":1659:1660   */\n      dup1\n        /* \"#utility.yul\":1652:1664   */\n      revert\n        /* \"#utility.yul\":1676:1802   */\n    tag_354:\n        /* \"#utility.yul\":1713:1720   */\n      0x00\n        /* \"#utility.yul\":1753:1795   */\n      0xffffffffffffffffffffffffffffffffffffffff\n        /* \"#utility.yul\":1746:1751   */\n      dup3\n        /* \"#utility.yul\":1742:1796   */\n      and\n        /* \"#utility.yul\":1731:1796   */\n      swap1\n      pop\n        /* \"#utility.yul\":1676:1802   */\n      swap2\n      swap1\n      pop\n      jump\t// out\n        /* \"#utility.yul\":1808:1904   */\n    tag_355:\n        /* \"#utility.yul\":1845:1852   */\n      0x00\n        /* \"#utility.yul\":1874:1898   */\n      tag_460\n        /* \"#utility.yul\":1892:1897   */\n      dup3\n        /* \"#utility.yul\":1874:1898   */\n      tag_354\n      jump\t// in\n    tag_460:\n        /* \"#utility.yul\":1863:1898   */\n      swap1\n      pop\n        /* \"#utility.yul\":1808:1904   */\n      swap2\n      swap1\n      pop\n      jump\t// out\n        /* \"#utility.yul\":1910:2032   */\n    tag_356:\n        /* \"#utility.yul\":1983:2007   */\n      tag_462\n        /* \"#utility.yul\":2001:2006   */\n      dup2\n        /* \"#utility.yul\":1983:2007   */\n      tag_355\n      jump\t// in\n    tag_462:\n        /* \"#utility.yul\":1976:1981   */\n      dup2\n        /* \"#utility.yul\":1973:2008   */\n      eq\n        /* \"#utility.yul\":1963:2026   */\n      tag_463\n      jumpi\n        /* \"#utility.yul\":2022:2023   */\n      0x00\n        /* \"#utility.yul\":2019:2020   */\n      dup1\n        /* \"#utility.yul\":2012:2024   */\n      revert\n        /* \"#utility.yul\":1963:2026   */\n    tag_463:\n        /* \"#utility.yul\":1910:2032   */\n      pop\n      jump\t// out\n        /* \"#utility.yul\":2038:2177   */\n    tag_357:\n        /* \"#utility.yul\":2084:2089   */\n      0x00\n        /* \"#utility.yul\":2122:2128   */\n      dup2\n        /* \"#utility.yul\":2109:2129   */\n      calldataload\n        /* \"#utility.yul\":2100:2129   */\n      swap1\n      pop\n        /* \"#utility.yul\":2138:2171   */\n      tag_465\n        /* \"#utility.yul\":2165:2170   */\n      dup2\n        /* \"#utility.yul\":2138:2171   */\n      tag_356\n      jump\t// in\n    tag_465:\n        /* \"#utility.yul\":2038:2177   */\n      swap3\n      swap2\n      pop\n      pop\n      jump\t// out\n        /* \"#utility.yul\":2183:2260   */\n    tag_358:\n        /* \"#utility.yul\":2220:2227   */\n      0x00\n        /* \"#utility.yul\":2249:2254   */\n      dup2\n        /* \"#utility.yul\":2238:2254   */\n      swap1\n      pop\n        /* \"#utility.yul\":2183:2260   */\n      swap2\n      swap1\n      pop\n      jump\t// out\n        /* \"#utility.yul\":2266:2388   */\n    tag_359:\n        /* \"#utility.yul\":2339:2363   */\n      tag_468\n        /* \"#utility.yul\":2357:2362   */\n      dup2\n        /* \"#utility.yul\":2339:2363   */\n      tag_358\n      jump\t// in\n    tag_468:\n        /* \"#utility.yul\":2332:2337   */\n      dup2\n        /* \"#utility.yul\":2329:2364   */\n      eq\n        /* \"#utility.yul\":2319:2382   */\n      tag_469\n      jumpi\n        /* \"#utility.yul\":2378:2379   */\n      0x00\n        /* \"#utility.yul\":2375:2376   */\n      dup1\n        /* \"#utility.yul\":2368:2380   */\n      revert\n        /* \"#utility.yul\":2319:2382   */\n    tag_469:\n        /* \"#utility.yul\":2266:2388   */\n      pop\n      jump\t// out\n        /* \"#utility.yul\":2394:2533   */\n    tag_360:\n        /* \"#utility.yul\":2440:2445   */\n      0x00\n        /* \"#utility.yul\":2478:2484   */\n      dup2\n        /* \"#utility.yul\":2465:2485   */\n      calldataload\n        /* \"#utility.yul\":2456:2485   */\n      swap1\n      pop\n        /* \"#utility.yul\":2494:2527   */\n      tag_471\n        /* \"#utility.yul\":2521:2526   */\n      dup2\n        /* \"#utility.yul\":2494:2527   */\n      tag_359\n      jump\t// in\n    tag_471:\n        /* \"#utility.yul\":2394:2533   */\n      swap3\n      swap2\n      pop\n      pop\n      jump\t// out\n        /* \"#utility.yul\":2539:3013   */\n    tag_31:\n        /* \"#utility.yul\":2607:2613   */\n      0x00\n        /* \"#utility.yul\":2615:2621   */\n      dup1\n        /* \"#utility.yul\":2664:2666   */\n      0x40\n        /* \"#utility.yul\":2652:2661   */\n      dup4\n        /* \"#utility.yul\":2643:2650   */\n      dup6\n        /* \"#utility.yul\":2639:2662   */\n      sub\n        /* \"#utility.yul\":2635:2667   */\n      slt\n        /* \"#utility.yul\":2632:2751   */\n      iszero\n      tag_473\n      jumpi\n        /* \"#utility.yul\":2670:2749   */\n      tag_474\n      tag_352\n      jump\t// in\n    tag_474:\n        /* \"#utility.yul\":2632:2751   */\n    tag_473:\n        /* \"#utility.yul\":2790:2791   */\n      0x00\n        /* \"#utility.yul\":2815:2868   */\n      tag_475\n        /* \"#utility.yul\":2860:2867   */\n      dup6\n        /* \"#utility.yul\":2851:2857   */\n      dup3\n        /* \"#utility.yul\":2840:2849   */\n      dup7\n        /* \"#utility.yul\":2836:2858   */\n      add\n        /* \"#utility.yul\":2815:2868   */\n      tag_357\n      jump\t// in\n    tag_475:\n        /* \"#utility.yul\":2805:2868   */\n      swap3\n      pop\n        /* \"#utility.yul\":2761:2878   */\n      pop\n        /* \"#utility.yul\":2917:2919   */\n      0x20\n        /* \"#utility.yul\":2943:2996   */\n      tag_476\n        /* \"#utility.yul\":2988:2995   */\n      dup6\n        /* \"#utility.yul\":2979:2985   */\n      dup3\n        /* \"#utility.yul\":2968:2977   */\n      dup7\n        /* \"#utility.yul\":2964:2986   */\n      add\n        /* \"#utility.yul\":2943:2996   */\n      tag_360\n      jump\t// in\n    tag_476:\n        /* \"#utility.yul\":2933:2996   */\n      swap2\n      pop\n        /* \"#utility.yul\":2888:3006   */\n      pop\n        /* \"#utility.yul\":2539:3013   */\n      swap3\n      pop\n      swap3\n      swap1\n      pop\n      jump\t// out\n        /* \"#utility.yul\":3019:3109   */\n    tag_361:\n        /* \"#utility.yul\":3053:3060   */\n      0x00\n        /* \"#utility.yul\":3096:3101   */\n      dup2\n        /* \"#utility.yul\":3089:3102   */\n      iszero\n        /* \"#utility.yul\":3082:3103   */\n      iszero\n        /* \"#utility.yul\":3071:3103   */\n      swap1\n      pop\n        /* \"#utility.yul\":3019:3109   */\n      swap2\n      swap1\n      pop\n      jump\t// out\n        /* \"#utility.yul\":3115:3224   */\n    tag_362:\n        /* \"#utility.yul\":3196:3217   */\n      tag_479\n        /* \"#utility.yul\":3211:3216   */\n      dup2\n        /* \"#utility.yul\":3196:3217   */\n      tag_361\n      jump\t// in\n    tag_479:\n        /* \"#utility.yul\":3191:3194   */\n      dup3\n        /* \"#utility.yul\":3184:3218   */\n      mstore\n        /* \"#utility.yul\":3115:3224   */\n      pop\n      pop\n      jump\t// out\n        /* \"#utility.yul\":3230:3440   */\n    tag_34:\n        /* \"#utility.yul\":3317:3321   */\n      0x00\n        /* \"#utility.yul\":3355:3357   */\n      0x20\n        /* \"#utility.yul\":3344:3353   */\n      dup3\n        /* \"#utility.yul\":3340:3358   */\n      add\n        /* \"#utility.yul\":3332:3358   */\n      swap1\n      pop\n        /* \"#utility.yul\":3368:3433   */\n      tag_481\n        /* \"#utility.yul\":3430:3431   */\n      0x00\n        /* \"#utility.yul\":3419:3428   */\n      dup4\n        /* \"#utility.yul\":3415:3432   */\n      add\n        /* \"#utility.yul\":3406:3412   */\n      dup5\n        /* \"#utility.yul\":3368:3433   */\n      tag_362\n      jump\t// in\n    tag_481:\n        /* \"#utility.yul\":3230:3440   */\n      swap3\n      swap2\n      pop\n      pop\n      jump\t// out\n        /* \"#utility.yul\":3446:3563   */\n    tag_363:\n        /* \"#utility.yul\":3555:3556   */\n      0x00\n        /* \"#utility.yul\":3552:3553   */\n      dup1\n        /* \"#utility.yul\":3545:3557   */\n      revert\n        /* \"#utility.yul\":3569:3686   */\n    tag_364:\n        /* \"#utility.yul\":3678:3679   */\n      0x00\n        /* \"#utility.yul\":3675:3676   */\n      dup1\n        /* \"#utility.yul\":3668:3680   */\n      revert\n        /* \"#utility.yul\":3692:3872   */\n    tag_186:\n        /* \"#utility.yul\":3740:3817   */\n      0x4e487b7100000000000000000000000000000000000000000000000000000000\n        /* \"#utility.yul\":3737:3738   */\n      0x00\n        /* \"#utility.yul\":3730:3818   */\n      mstore\n        /* \"#utility.yul\":3837:3841   */\n      0x41\n        /* \"#utility.yul\":3834:3835   */\n      0x04\n        /* \"#utility.yul\":3827:3842   */\n      mstore\n        /* \"#utility.yul\":3861:3865   */\n      0x24\n        /* \"#utility.yul\":3858:3859   */\n      0x00\n        /* \"#utility.yul\":3851:3866   */\n      revert\n        /* \"#utility.yul\":3878:4159   */\n    tag_365:\n        /* \"#utility.yul\":3961:3988   */\n      tag_486\n        /* \"#utility.yul\":3983:3987   */\n      dup3\n        /* \"#utility.yul\":3961:3988   */\n      tag_349\n      jump\t// in\n    tag_486:\n        /* \"#utility.yul\":3953:3959   */\n      dup2\n        /* \"#utility.yul\":3949:3989   */\n      add\n        /* \"#utility.yul\":4091:4097   */\n      dup2\n        /* \"#utility.yul\":4079:4089   */\n      dup2\n        /* \"#utility.yul\":4076:4098   */\n      lt\n        /* \"#utility.yul\":4055:4073   */\n      0xffffffffffffffff\n        /* \"#utility.yul\":4043:4053   */\n      dup3\n        /* \"#utility.yul\":4040:4074   */\n      gt\n        /* \"#utility.yul\":4037:4099   */\n      or\n        /* \"#utility.yul\":4034:4122   */\n      iszero\n      tag_487\n      jumpi\n        /* \"#utility.yul\":4102:4120   */\n      tag_488\n      tag_186\n      jump\t// in\n    tag_488:\n        /* \"#utility.yul\":4034:4122   */\n    tag_487:\n        /* \"#utility.yul\":4142:4152   */\n      dup1\n        /* \"#utility.yul\":4138:4140   */\n      0x40\n        /* \"#utility.yul\":4131:4153   */\n      mstore\n        /* \"#utility.yul\":3921:4159   */\n      pop\n        /* \"#utility.yul\":3878:4159   */\n      pop\n      pop\n      jump\t// out\n        /* \"#utility.yul\":4165:4294   */\n    tag_366:\n        /* \"#utility.yul\":4199:4205   */\n      0x00\n        /* \"#utility.yul\":4226:4246   */\n      tag_490\n      tag_351\n      jump\t// in\n    tag_490:\n        /* \"#utility.yul\":4216:4246   */\n      swap1\n      pop\n        /* \"#utility.yul\":4255:4288   */\n      tag_491\n        /* \"#utility.yul\":4283:4287   */\n      dup3\n        /* \"#utility.yul\":4275:4281   */\n      dup3\n        /* \"#utility.yul\":4255:4288   */\n      tag_365\n      jump\t// in\n    tag_491:\n        /* \"#utility.yul\":4165:4294   */\n      swap2\n      swap1\n      pop\n      jump\t// out\n        /* \"#utility.yul\":4300:4608   */\n    tag_367:\n        /* \"#utility.yul\":4362:4366   */\n      0x00\n        /* \"#utility.yul\":4452:4470   */\n      0xffffffffffffffff\n        /* \"#utility.yul\":4444:4450   */\n      dup3\n        /* \"#utility.yul\":4441:4471   */\n      gt\n        /* \"#utility.yul\":4438:4494   */\n      iszero\n      tag_493\n      jumpi\n        /* \"#utility.yul\":4474:4492   */\n      tag_494\n      tag_186\n      jump\t// in\n    tag_494:\n        /* \"#utility.yul\":4438:4494   */\n    tag_493:\n        /* \"#utility.yul\":4512:4541   */\n      tag_495\n        /* \"#utility.yul\":4534:4540   */\n      dup3\n        /* \"#utility.yul\":4512:4541   */\n      tag_349\n      jump\t// in\n    tag_495:\n        /* \"#utility.yul\":4504:4541   */\n      swap1\n      pop\n        /* \"#utility.yul\":4596:4600   */\n      0x20\n        /* \"#utility.yul\":4590:4594   */\n      dup2\n        /* \"#utility.yul\":4586:4601   */\n      add\n        /* \"#utility.yul\":4578:4601   */\n      swap1\n      pop\n        /* \"#utility.yul\":4300:4608   */\n      swap2\n      swap1\n      pop\n      jump\t// out\n        /* \"#utility.yul\":4614:4760   */\n    tag_368:\n        /* \"#utility.yul\":4711:4717   */\n      dup3\n        /* \"#utility.yul\":4706:4709   */\n      dup2\n        /* \"#utility.yul\":4701:4704   */\n      dup4\n        /* \"#utility.yul\":4688:4718   */\n      calldatacopy\n        /* \"#utility.yul\":4752:4753   */\n      0x00\n        /* \"#utility.yul\":4743:4749   */\n      dup4\n        /* \"#utility.yul\":4738:4741   */\n      dup4\n        /* \"#utility.yul\":4734:4750   */\n      add\n        /* \"#utility.yul\":4727:4754   */\n      mstore\n        /* \"#utility.yul\":4614:4760   */\n      pop\n      pop\n      pop\n      jump\t// out\n        /* \"#utility.yul\":4766:5191   */\n    tag_369:\n        /* \"#utility.yul\":4844:4849   */\n      0x00\n        /* \"#utility.yul\":4869:4935   */\n      tag_498\n        /* \"#utility.yul\":4885:4934   */\n      tag_499\n        /* \"#utility.yul\":4927:4933   */\n      dup5\n        /* \"#utility.yul\":4885:4934   */\n      tag_367\n      jump\t// in\n    tag_499:\n        /* \"#utility.yul\":4869:4935   */\n      tag_366\n      jump\t// in\n    tag_498:\n        /* \"#utility.yul\":4860:4935   */\n      swap1\n      pop\n        /* \"#utility.yul\":4958:4964   */\n      dup3\n        /* \"#utility.yul\":4951:4956   */\n      dup2\n        /* \"#utility.yul\":4944:4965   */\n      mstore\n        /* \"#utility.yul\":4996:5000   */\n      0x20\n        /* \"#utility.yul\":4989:4994   */\n      dup2\n        /* \"#utility.yul\":4985:5001   */\n      add\n        /* \"#utility.yul\":5034:5037   */\n      dup5\n        /* \"#utility.yul\":5025:5031   */\n      dup5\n        /* \"#utility.yul\":5020:5023   */\n      dup5\n        /* \"#utility.yul\":5016:5032   */\n      add\n        /* \"#utility.yul\":5013:5038   */\n      gt\n        /* \"#utility.yul\":5010:5122   */\n      iszero\n      tag_500\n      jumpi\n        /* \"#utility.yul\":5041:5120   */\n      tag_501\n      tag_364\n      jump\t// in\n    tag_501:\n        /* \"#utility.yul\":5010:5122   */\n    tag_500:\n        /* \"#utility.yul\":5131:5185   */\n      tag_502\n        /* \"#utility.yul\":5178:5184   */\n      dup5\n        /* \"#utility.yul\":5173:5176   */\n      dup3\n        /* \"#utility.yul\":5168:5171   */\n      dup6\n        /* \"#utility.yul\":5131:5185   */\n      tag_368\n      jump\t// in\n    tag_502:\n        /* \"#utility.yul\":4850:5191   */\n      pop\n        /* \"#utility.yul\":4766:5191   */\n      swap4\n      swap3\n      pop\n      pop\n      pop\n      jump\t// out\n        /* \"#utility.yul\":5211:5551   */\n    tag_370:\n        /* \"#utility.yul\":5267:5272   */\n      0x00\n        /* \"#utility.yul\":5316:5319   */\n      dup3\n        /* \"#utility.yul\":5309:5313   */\n      0x1f\n        /* \"#utility.yul\":5301:5307   */\n      dup4\n        /* \"#utility.yul\":5297:5314   */\n      add\n        /* \"#utility.yul\":5293:5320   */\n      slt\n        /* \"#utility.yul\":5283:5405   */\n      tag_504\n      jumpi\n        /* \"#utility.yul\":5324:5403   */\n      tag_505\n      tag_363\n      jump\t// in\n    tag_505:\n        /* \"#utility.yul\":5283:5405   */\n    tag_504:\n        /* \"#utility.yul\":5441:5447   */\n      dup2\n        /* \"#utility.yul\":5428:5448   */\n      calldataload\n        /* \"#utility.yul\":5466:5545   */\n      tag_506\n        /* \"#utility.yul\":5541:5544   */\n      dup5\n        /* \"#utility.yul\":5533:5539   */\n      dup3\n        /* \"#utility.yul\":5526:5530   */\n      0x20\n        /* \"#utility.yul\":5518:5524   */\n      dup7\n        /* \"#utility.yul\":5514:5531   */\n      add\n        /* \"#utility.yul\":5466:5545   */\n      tag_369\n      jump\t// in\n    tag_506:\n        /* \"#utility.yul\":5457:5545   */\n      swap2\n      pop\n        /* \"#utility.yul\":5273:5551   */\n      pop\n        /* \"#utility.yul\":5211:5551   */\n      swap3\n      swap2\n      pop\n      pop\n      jump\t// out\n        /* \"#utility.yul\":5557:6066   */\n    tag_37:\n        /* \"#utility.yul\":5626:5632   */\n      0x00\n        /* \"#utility.yul\":5675:5677   */\n      0x20\n        /* \"#utility.yul\":5663:5672   */\n      dup3\n        /* \"#utility.yul\":5654:5661   */\n      dup5\n        /* \"#utility.yul\":5650:5673   */\n      sub\n        /* \"#utility.yul\":5646:5678   */\n      slt\n        /* \"#utility.yul\":5643:5762   */\n      iszero\n      tag_508\n      jumpi\n        /* \"#utility.yul\":5681:5760   */\n      tag_509\n      tag_352\n      jump\t// in\n    tag_509:\n        /* \"#utility.yul\":5643:5762   */\n    tag_508:\n        /* \"#utility.yul\":5829:5830   */\n      0x00\n        /* \"#utility.yul\":5818:5827   */\n      dup3\n        /* \"#utility.yul\":5814:5831   */\n      add\n        /* \"#utility.yul\":5801:5832   */\n      calldataload\n        /* \"#utility.yul\":5859:5877   */\n      0xffffffffffffffff\n        /* \"#utility.yul\":5851:5857   */\n      dup2\n        /* \"#utility.yul\":5848:5878   */\n      gt\n        /* \"#utility.yul\":5845:5962   */\n      iszero\n      tag_510\n      jumpi\n        /* \"#utility.yul\":5881:5960   */\n      tag_511\n      tag_353\n      jump\t// in\n    tag_511:\n        /* \"#utility.yul\":5845:5962   */\n    tag_510:\n        /* \"#utility.yul\":5986:6049   */\n      tag_512\n        /* \"#utility.yul\":6041:6048   */\n      dup5\n        /* \"#utility.yul\":6032:6038   */\n      dup3\n        /* \"#utility.yul\":6021:6030   */\n      dup6\n        /* \"#utility.yul\":6017:6039   */\n      add\n        /* \"#utility.yul\":5986:6049   */\n      tag_370\n      jump\t// in\n    tag_512:\n        /* \"#utility.yul\":5976:6049   */\n      swap2\n      pop\n        /* \"#utility.yul\":5772:6059   */\n      pop\n        /* \"#utility.yul\":5557:6066   */\n      swap3\n      swap2\n      pop\n      pop\n      jump\t// out\n        /* \"#utility.yul\":6072:7377   */\n    tag_41:\n        /* \"#utility.yul\":6188:6194   */\n      0x00\n        /* \"#utility.yul\":6196:6202   */\n      dup1\n        /* \"#utility.yul\":6204:6210   */\n      0x00\n        /* \"#utility.yul\":6212:6218   */\n      dup1\n        /* \"#utility.yul\":6261:6264   */\n      0x80\n        /* \"#utility.yul\":6249:6258   */\n      dup6\n        /* \"#utility.yul\":6240:6247   */\n      dup8\n        /* \"#utility.yul\":6236:6259   */\n      sub\n        /* \"#utility.yul\":6232:6265   */\n      slt\n        /* \"#utility.yul\":6229:6349   */\n      iszero\n      tag_514\n      jumpi\n        /* \"#utility.yul\":6268:6347   */\n      tag_515\n      tag_352\n      jump\t// in\n    tag_515:\n        /* \"#utility.yul\":6229:6349   */\n    tag_514:\n        /* \"#utility.yul\":6416:6417   */\n      0x00\n        /* \"#utility.yul\":6405:6414   */\n      dup6\n        /* \"#utility.yul\":6401:6418   */\n      add\n        /* \"#utility.yul\":6388:6419   */\n      calldataload\n        /* \"#utility.yul\":6446:6464   */\n      0xffffffffffffffff\n        /* \"#utility.yul\":6438:6444   */\n      dup2\n        /* \"#utility.yul\":6435:6465   */\n      gt\n        /* \"#utility.yul\":6432:6549   */\n      iszero\n      tag_516\n      jumpi\n        /* \"#utility.yul\":6468:6547   */\n      tag_517\n      tag_353\n      jump\t// in\n    tag_517:\n        /* \"#utility.yul\":6432:6549   */\n    tag_516:\n        /* \"#utility.yul\":6573:6636   */\n      tag_518\n        /* \"#utility.yul\":6628:6635   */\n      dup8\n        /* \"#utility.yul\":6619:6625   */\n      dup3\n        /* \"#utility.yul\":6608:6617   */\n      dup9\n        /* \"#utility.yul\":6604:6626   */\n      add\n        /* \"#utility.yul\":6573:6636   */\n      tag_370\n      jump\t// in\n    tag_518:\n        /* \"#utility.yul\":6563:6636   */\n      swap5\n      pop\n        /* \"#utility.yul\":6359:6646   */\n      pop\n        /* \"#utility.yul\":6713:6715   */\n      0x20\n        /* \"#utility.yul\":6702:6711   */\n      dup6\n        /* \"#utility.yul\":6698:6716   */\n      add\n        /* \"#utility.yul\":6685:6717   */\n      calldataload\n        /* \"#utility.yul\":6744:6762   */\n      0xffffffffffffffff\n        /* \"#utility.yul\":6736:6742   */\n      dup2\n        /* \"#utility.yul\":6733:6763   */\n      gt\n        /* \"#utility.yul\":6730:6847   */\n      iszero\n      tag_519\n      jumpi\n        /* \"#utility.yul\":6766:6845   */\n      tag_520\n      tag_353\n      jump\t// in\n    tag_520:\n        /* \"#utility.yul\":6730:6847   */\n    tag_519:\n        /* \"#utility.yul\":6871:6934   */\n      tag_521\n        /* \"#utility.yul\":6926:6933   */\n      dup8\n        /* \"#utility.yul\":6917:6923   */\n      dup3\n        /* \"#utility.yul\":6906:6915   */\n      dup9\n        /* \"#utility.yul\":6902:6924   */\n      add\n        /* \"#utility.yul\":6871:6934   */\n      tag_370\n      jump\t// in\n    tag_521:\n        /* \"#utility.yul\":6861:6934   */\n      swap4\n      pop\n        /* \"#utility.yul\":6656:6944   */\n      pop\n        /* \"#utility.yul\":6983:6985   */\n      0x40\n        /* \"#utility.yul\":7009:7062   */\n      tag_522\n        /* \"#utility.yul\":7054:7061   */\n      dup8\n        /* \"#utility.yul\":7045:7051   */\n      dup3\n        /* \"#utility.yul\":7034:7043   */\n      dup9\n        /* \"#utility.yul\":7030:7052   */\n      add\n        /* \"#utility.yul\":7009:7062   */\n      tag_360\n      jump\t// in\n    tag_522:\n        /* \"#utility.yul\":6999:7062   */\n      swap3\n      pop\n        /* \"#utility.yul\":6954:7072   */\n      pop\n        /* \"#utility.yul\":7139:7141   */\n      0x60\n        /* \"#utility.yul\":7128:7137   */\n      dup6\n        /* \"#utility.yul\":7124:7142   */\n      add\n        /* \"#utility.yul\":7111:7143   */\n      calldataload\n        /* \"#utility.yul\":7170:7188   */\n      0xffffffffffffffff\n        /* \"#utility.yul\":7162:7168   */\n      dup2\n        /* \"#utility.yul\":7159:7189   */\n      gt\n        /* \"#utility.yul\":7156:7273   */\n      iszero\n      tag_523\n      jumpi\n        /* \"#utility.yul\":7192:7271   */\n      tag_524\n      tag_353\n      jump\t// in\n    tag_524:\n        /* \"#utility.yul\":7156:7273   */\n    tag_523:\n        /* \"#utility.yul\":7297:7360   */\n      tag_525\n        /* \"#utility.yul\":7352:7359   */\n      dup8\n        /* \"#utility.yul\":7343:7349   */\n      dup3\n        /* \"#utility.yul\":7332:7341   */\n      dup9\n        /* \"#utility.yul\":7328:7350   */\n      add\n        /* \"#utility.yul\":7297:7360   */\n      tag_370\n      jump\t// in\n    tag_525:\n        /* \"#utility.yul\":7287:7360   */\n      swap2\n      pop\n        /* \"#utility.yul\":7082:7370   */\n      pop\n        /* \"#utility.yul\":6072:7377   */\n      swap3\n      swap6\n      swap2\n      swap5\n      pop\n      swap3\n      pop\n      jump\t// out\n        /* \"#utility.yul\":7383:7501   */\n    tag_371:\n        /* \"#utility.yul\":7470:7494   */\n      tag_527\n        /* \"#utility.yul\":7488:7493   */\n      dup2\n        /* \"#utility.yul\":7470:7494   */\n      tag_358\n      jump\t// in\n    tag_527:\n        /* \"#utility.yul\":7465:7468   */\n      dup3\n        /* \"#utility.yul\":7458:7495   */\n      mstore\n        /* \"#utility.yul\":7383:7501   */\n      pop\n      pop\n      jump\t// out\n        /* \"#utility.yul\":7507:7729   */\n    tag_46:\n        /* \"#utility.yul\":7600:7604   */\n      0x00\n        /* \"#utility.yul\":7638:7640   */\n      0x20\n        /* \"#utility.yul\":7627:7636   */\n      dup3\n        /* \"#utility.yul\":7623:7641   */\n      add\n        /* \"#utility.yul\":7615:7641   */\n      swap1\n      pop\n        /* \"#utility.yul\":7651:7722   */\n      tag_529\n        /* \"#utility.yul\":7719:7720   */\n      0x00\n        /* \"#utility.yul\":7708:7717   */\n      dup4\n        /* \"#utility.yul\":7704:7721   */\n      add\n        /* \"#utility.yul\":7695:7701   */\n      dup5\n        /* \"#utility.yul\":7651:7722   */\n      tag_371\n      jump\t// in\n    tag_529:\n        /* \"#utility.yul\":7507:7729   */\n      swap3\n      swap2\n      pop\n      pop\n      jump\t// out\n        /* \"#utility.yul\":7735:8354   */\n    tag_49:\n        /* \"#utility.yul\":7812:7818   */\n      0x00\n        /* \"#utility.yul\":7820:7826   */\n      dup1\n        /* \"#utility.yul\":7828:7834   */\n      0x00\n        /* \"#utility.yul\":7877:7879   */\n      0x60\n        /* \"#utility.yul\":7865:7874   */\n      dup5\n        /* \"#utility.yul\":7856:7863   */\n      dup7\n        /* \"#utility.yul\":7852:7875   */\n      sub\n        /* \"#utility.yul\":7848:7880   */\n      slt\n        /* \"#utility.yul\":7845:7964   */\n      iszero\n      tag_531\n      jumpi\n        /* \"#utility.yul\":7883:7962   */\n      tag_532\n      tag_352\n      jump\t// in\n    tag_532:\n        /* \"#utility.yul\":7845:7964   */\n    tag_531:\n        /* \"#utility.yul\":8003:8004   */\n      0x00\n        /* \"#utility.yul\":8028:8081   */\n      tag_533\n        /* \"#utility.yul\":8073:8080   */\n      dup7\n        /* \"#utility.yul\":8064:8070   */\n      dup3\n        /* \"#utility.yul\":8053:8062   */\n      dup8\n        /* \"#utility.yul\":8049:8071   */\n      add\n        /* \"#utility.yul\":8028:8081   */\n      tag_357\n      jump\t// in\n    tag_533:\n        /* \"#utility.yul\":8018:8081   */\n      swap4\n      pop\n        /* \"#utility.yul\":7974:8091   */\n      pop\n        /* \"#utility.yul\":8130:8132   */\n      0x20\n        /* \"#utility.yul\":8156:8209   */\n      tag_534\n        /* \"#utility.yul\":8201:8208   */\n      dup7\n        /* \"#utility.yul\":8192:8198   */\n      dup3\n        /* \"#utility.yul\":8181:8190   */\n      dup8\n        /* \"#utility.yul\":8177:8199   */\n      add\n        /* \"#utility.yul\":8156:8209   */\n      tag_357\n      jump\t// in\n    tag_534:\n        /* \"#utility.yul\":8146:8209   */\n      swap3\n      pop\n        /* \"#utility.yul\":8101:8219   */\n      pop\n        /* \"#utility.yul\":8258:8260   */\n      0x40\n        /* \"#utility.yul\":8284:8337   */\n      tag_535\n        /* \"#utility.yul\":8329:8336   */\n      dup7\n        /* \"#utility.yul\":8320:8326   */\n      dup3\n        /* \"#utility.yul\":8309:8318   */\n      dup8\n        /* \"#utility.yul\":8305:8327   */\n      add\n        /* \"#utility.yul\":8284:8337   */\n      tag_360\n      jump\t// in\n    tag_535:\n        /* \"#utility.yul\":8274:8337   */\n      swap2\n      pop\n        /* \"#utility.yul\":8229:8347   */\n      pop\n        /* \"#utility.yul\":7735:8354   */\n      swap3\n      pop\n      swap3\n      pop\n      swap3\n      jump\t// out\n        /* \"#utility.yul\":8360:8446   */\n    tag_372:\n        /* \"#utility.yul\":8395:8402   */\n      0x00\n        /* \"#utility.yul\":8435:8439   */\n      0xff\n        /* \"#utility.yul\":8428:8433   */\n      dup3\n        /* \"#utility.yul\":8424:8440   */\n      and\n        /* \"#utility.yul\":8413:8440   */\n      swap1\n      pop\n        /* \"#utility.yul\":8360:8446   */\n      swap2\n      swap1\n      pop\n      jump\t// out\n        /* \"#utility.yul\":8452:8564   */\n    tag_373:\n        /* \"#utility.yul\":8535:8557   */\n      tag_538\n        /* \"#utility.yul\":8551:8556   */\n      dup2\n        /* \"#utility.yul\":8535:8557   */\n      tag_372\n      jump\t// in\n    tag_538:\n        /* \"#utility.yul\":8530:8533   */\n      dup3\n        /* \"#utility.yul\":8523:8558   */\n      mstore\n        /* \"#utility.yul\":8452:8564   */\n      pop\n      pop\n      jump\t// out\n        /* \"#utility.yul\":8570:8784   */\n    tag_55:\n        /* \"#utility.yul\":8659:8663   */\n      0x00\n        /* \"#utility.yul\":8697:8699   */\n      0x20\n        /* \"#utility.yul\":8686:8695   */\n      dup3\n        /* \"#utility.yul\":8682:8700   */\n      add\n        /* \"#utility.yul\":8674:8700   */\n      swap1\n      pop\n        /* \"#utility.yul\":8710:8777   */\n      tag_540\n        /* \"#utility.yul\":8774:8775   */\n      0x00\n        /* \"#utility.yul\":8763:8772   */\n      dup4\n        /* \"#utility.yul\":8759:8776   */\n      add\n        /* \"#utility.yul\":8750:8756   */\n      dup5\n        /* \"#utility.yul\":8710:8777   */\n      tag_373\n      jump\t// in\n    tag_540:\n        /* \"#utility.yul\":8570:8784   */\n      swap3\n      swap2\n      pop\n      pop\n      jump\t// out\n        /* \"#utility.yul\":8790:9119   */\n    tag_65:\n        /* \"#utility.yul\":8849:8855   */\n      0x00\n        /* \"#utility.yul\":8898:8900   */\n      0x20\n        /* \"#utility.yul\":8886:8895   */\n      dup3\n        /* \"#utility.yul\":8877:8884   */\n      dup5\n        /* \"#utility.yul\":8873:8896   */\n      sub\n        /* \"#utility.yul\":8869:8901   */\n      slt\n        /* \"#utility.yul\":8866:8985   */\n      iszero\n      tag_542\n      jumpi\n        /* \"#utility.yul\":8904:8983   */\n      tag_543\n      tag_352\n      jump\t// in\n    tag_543:\n        /* \"#utility.yul\":8866:8985   */\n    tag_542:\n        /* \"#utility.yul\":9024:9025   */\n      0x00\n        /* \"#utility.yul\":9049:9102   */\n      tag_544\n        /* \"#utility.yul\":9094:9101   */\n      dup5\n        /* \"#utility.yul\":9085:9091   */\n      dup3\n        /* \"#utility.yul\":9074:9083   */\n      dup6\n        /* \"#utility.yul\":9070:9092   */\n      add\n        /* \"#utility.yul\":9049:9102   */\n      tag_360\n      jump\t// in\n    tag_544:\n        /* \"#utility.yul\":9039:9102   */\n      swap2\n      pop\n        /* \"#utility.yul\":8995:9112   */\n      pop\n        /* \"#utility.yul\":8790:9119   */\n      swap3\n      swap2\n      pop\n      pop\n      jump\t// out\n        /* \"#utility.yul\":9125:9260   */\n    tag_374:\n        /* \"#utility.yul\":9213:9219   */\n      0x00\n        /* \"#utility.yul\":9247:9252   */\n      dup2\n        /* \"#utility.yul\":9241:9253   */\n      mload\n        /* \"#utility.yul\":9231:9253   */\n      swap1\n      pop\n        /* \"#utility.yul\":9125:9260   */\n      swap2\n      swap1\n      pop\n      jump\t// out\n        /* \"#utility.yul\":9266:9471   */\n    tag_375:\n        /* \"#utility.yul\":9386:9397   */\n      0x00\n        /* \"#utility.yul\":9420:9426   */\n      dup3\n        /* \"#utility.yul\":9415:9418   */\n      dup3\n        /* \"#utility.yul\":9408:9427   */\n      mstore\n        /* \"#utility.yul\":9460:9464   */\n      0x20\n        /* \"#utility.yul\":9455:9458   */\n      dup3\n        /* \"#utility.yul\":9451:9465   */\n      add\n        /* \"#utility.yul\":9436:9465   */\n      swap1\n      pop\n        /* \"#utility.yul\":9266:9471   */\n      swap3\n      swap2\n      pop\n      pop\n      jump\t// out\n        /* \"#utility.yul\":9477:9630   */\n    tag_376:\n        /* \"#utility.yul\":9565:9569   */\n      0x00\n        /* \"#utility.yul\":9588:9591   */\n      dup2\n        /* \"#utility.yul\":9580:9591   */\n      swap1\n      pop\n        /* \"#utility.yul\":9618:9622   */\n      0x20\n        /* \"#utility.yul\":9613:9616   */\n      dup3\n        /* \"#utility.yul\":9609:9623   */\n      add\n        /* \"#utility.yul\":9601:9623   */\n      swap1\n      pop\n        /* \"#utility.yul\":9477:9630   */\n      swap2\n      swap1\n      pop\n      jump\t// out\n        /* \"#utility.yul\":9636:9795   */\n    tag_377:\n        /* \"#utility.yul\":9710:9721   */\n      0x00\n        /* \"#utility.yul\":9744:9750   */\n      dup3\n        /* \"#utility.yul\":9739:9742   */\n      dup3\n        /* \"#utility.yul\":9732:9751   */\n      mstore\n        /* \"#utility.yul\":9784:9788   */\n      0x20\n        /* \"#utility.yul\":9779:9782   */\n      dup3\n        /* \"#utility.yul\":9775:9789   */\n      add\n        /* \"#utility.yul\":9760:9789   */\n      swap1\n      pop\n        /* \"#utility.yul\":9636:9795   */\n      swap3\n      swap2\n      pop\n      pop\n      jump\t// out\n        /* \"#utility.yul\":9801:10158   */\n    tag_378:\n        /* \"#utility.yul\":9879:9882   */\n      0x00\n        /* \"#utility.yul\":9907:9946   */\n      tag_550\n        /* \"#utility.yul\":9940:9945   */\n      dup3\n        /* \"#utility.yul\":9907:9946   */\n      tag_346\n      jump\t// in\n    tag_550:\n        /* \"#utility.yul\":9962:10023   */\n      tag_551\n        /* \"#utility.yul\":10016:10022   */\n      dup2\n        /* \"#utility.yul\":10011:10014   */\n      dup6\n        /* \"#utility.yul\":9962:10023   */\n      tag_377\n      jump\t// in\n    tag_551:\n        /* \"#utility.yul\":9955:10023   */\n      swap4\n      pop\n        /* \"#utility.yul\":10032:10097   */\n      tag_552\n        /* \"#utility.yul\":10090:10096   */\n      dup2\n        /* \"#utility.yul\":10085:10088   */\n      dup6\n        /* \"#utility.yul\":10078:10082   */\n      0x20\n        /* \"#utility.yul\":10071:10076   */\n      dup7\n        /* \"#utility.yul\":10067:10083   */\n      add\n        /* \"#utility.yul\":10032:10097   */\n      tag_348\n      jump\t// in\n    tag_552:\n        /* \"#utility.yul\":10122:10151   */\n      tag_553\n        /* \"#utility.yul\":10144:10150   */\n      dup2\n        /* \"#utility.yul\":10122:10151   */\n      tag_349\n      jump\t// in\n    tag_553:\n        /* \"#utility.yul\":10117:10120   */\n      dup5\n        /* \"#utility.yul\":10113:10152   */\n      add\n        /* \"#utility.yul\":10106:10152   */\n      swap2\n      pop\n        /* \"#utility.yul\":9883:10158   */\n      pop\n        /* \"#utility.yul\":9801:10158   */\n      swap3\n      swap2\n      pop\n      pop\n      jump\t// out\n        /* \"#utility.yul\":10164:10272   */\n    tag_379:\n        /* \"#utility.yul\":10241:10265   */\n      tag_555\n        /* \"#utility.yul\":10259:10264   */\n      dup2\n        /* \"#utility.yul\":10241:10265   */\n      tag_358\n      jump\t// in\n    tag_555:\n        /* \"#utility.yul\":10236:10239   */\n      dup3\n        /* \"#utility.yul\":10229:10266   */\n      mstore\n        /* \"#utility.yul\":10164:10272   */\n      pop\n      pop\n      jump\t// out\n        /* \"#utility.yul\":10334:11418   */\n    tag_380:\n        /* \"#utility.yul\":10435:10438   */\n      0x00\n        /* \"#utility.yul\":10471:10475   */\n      0x80\n        /* \"#utility.yul\":10466:10469   */\n      dup4\n        /* \"#utility.yul\":10462:10476   */\n      add\n        /* \"#utility.yul\":10556:10560   */\n      0x00\n        /* \"#utility.yul\":10549:10554   */\n      dup4\n        /* \"#utility.yul\":10545:10561   */\n      add\n        /* \"#utility.yul\":10539:10562   */\n      mload\n        /* \"#utility.yul\":10609:10612   */\n      dup5\n        /* \"#utility.yul\":10603:10607   */\n      dup3\n        /* \"#utility.yul\":10599:10613   */\n      sub\n        /* \"#utility.yul\":10592:10596   */\n      0x00\n        /* \"#utility.yul\":10587:10590   */\n      dup7\n        /* \"#utility.yul\":10583:10597   */\n      add\n        /* \"#utility.yul\":10576:10614   */\n      mstore\n        /* \"#utility.yul\":10635:10708   */\n      tag_557\n        /* \"#utility.yul\":10703:10707   */\n      dup3\n        /* \"#utility.yul\":10689:10701   */\n      dup3\n        /* \"#utility.yul\":10635:10708   */\n      tag_378\n      jump\t// in\n    tag_557:\n        /* \"#utility.yul\":10627:10708   */\n      swap2\n      pop\n        /* \"#utility.yul\":10486:10719   */\n      pop\n        /* \"#utility.yul\":10801:10805   */\n      0x20\n        /* \"#utility.yul\":10794:10799   */\n      dup4\n        /* \"#utility.yul\":10790:10806   */\n      add\n        /* \"#utility.yul\":10784:10807   */\n      mload\n        /* \"#utility.yul\":10854:10857   */\n      dup5\n        /* \"#utility.yul\":10848:10852   */\n      dup3\n        /* \"#utility.yul\":10844:10858   */\n      sub\n        /* \"#utility.yul\":10837:10841   */\n      0x20\n        /* \"#utility.yul\":10832:10835   */\n      dup7\n        /* \"#utility.yul\":10828:10842   */\n      add\n        /* \"#utility.yul\":10821:10859   */\n      mstore\n        /* \"#utility.yul\":10880:10953   */\n      tag_558\n        /* \"#utility.yul\":10948:10952   */\n      dup3\n        /* \"#utility.yul\":10934:10946   */\n      dup3\n        /* \"#utility.yul\":10880:10953   */\n      tag_378\n      jump\t// in\n    tag_558:\n        /* \"#utility.yul\":10872:10953   */\n      swap2\n      pop\n        /* \"#utility.yul\":10729:10964   */\n      pop\n        /* \"#utility.yul\":11047:11051   */\n      0x40\n        /* \"#utility.yul\":11040:11045   */\n      dup4\n        /* \"#utility.yul\":11036:11052   */\n      add\n        /* \"#utility.yul\":11030:11053   */\n      mload\n        /* \"#utility.yul\":11066:11129   */\n      tag_559\n        /* \"#utility.yul\":11123:11127   */\n      0x40\n        /* \"#utility.yul\":11118:11121   */\n      dup7\n        /* \"#utility.yul\":11114:11128   */\n      add\n        /* \"#utility.yul\":11100:11112   */\n      dup3\n        /* \"#utility.yul\":11066:11129   */\n      tag_379\n      jump\t// in\n    tag_559:\n        /* \"#utility.yul\":10974:11139   */\n      pop\n        /* \"#utility.yul\":11228:11232   */\n      0x60\n        /* \"#utility.yul\":11221:11226   */\n      dup4\n        /* \"#utility.yul\":11217:11233   */\n      add\n        /* \"#utility.yul\":11211:11234   */\n      mload\n        /* \"#utility.yul\":11281:11284   */\n      dup5\n        /* \"#utility.yul\":11275:11279   */\n      dup3\n        /* \"#utility.yul\":11271:11285   */\n      sub\n        /* \"#utility.yul\":11264:11268   */\n      0x60\n        /* \"#utility.yul\":11259:11262   */\n      dup7\n        /* \"#utility.yul\":11255:11269   */\n      add\n        /* \"#utility.yul\":11248:11286   */\n      mstore\n        /* \"#utility.yul\":11307:11380   */\n      tag_560\n        /* \"#utility.yul\":11375:11379   */\n      dup3\n        /* \"#utility.yul\":11361:11373   */\n      dup3\n        /* \"#utility.yul\":11307:11380   */\n      tag_378\n      jump\t// in\n    tag_560:\n        /* \"#utility.yul\":11299:11380   */\n      swap2\n      pop\n        /* \"#utility.yul\":11149:11391   */\n      pop\n        /* \"#utility.yul\":11408:11412   */\n      dup1\n        /* \"#utility.yul\":11401:11412   */\n      swap2\n      pop\n        /* \"#utility.yul\":10440:11418   */\n      pop\n        /* \"#utility.yul\":10334:11418   */\n      swap3\n      swap2\n      pop\n      pop\n      jump\t// out\n        /* \"#utility.yul\":11424:11664   */\n    tag_381:\n        /* \"#utility.yul\":11535:11545   */\n      0x00\n        /* \"#utility.yul\":11570:11658   */\n      tag_562\n        /* \"#utility.yul\":11654:11657   */\n      dup4\n        /* \"#utility.yul\":11646:11652   */\n      dup4\n        /* \"#utility.yul\":11570:11658   */\n      tag_380\n      jump\t// in\n    tag_562:\n        /* \"#utility.yul\":11556:11658   */\n      swap1\n      pop\n        /* \"#utility.yul\":11424:11664   */\n      swap3\n      swap2\n      pop\n      pop\n      jump\t// out\n        /* \"#utility.yul\":11670:11804   */\n    tag_382:\n        /* \"#utility.yul\":11761:11765   */\n      0x00\n        /* \"#utility.yul\":11793:11797   */\n      0x20\n        /* \"#utility.yul\":11788:11791   */\n      dup3\n        /* \"#utility.yul\":11784:11798   */\n      add\n        /* \"#utility.yul\":11776:11798   */\n      swap1\n      pop\n        /* \"#utility.yul\":11670:11804   */\n      swap2\n      swap1\n      pop\n      jump\t// out\n        /* \"#utility.yul\":11870:12949   */\n    tag_383:\n        /* \"#utility.yul\":12031:12034   */\n      0x00\n        /* \"#utility.yul\":12060:12135   */\n      tag_565\n        /* \"#utility.yul\":12129:12134   */\n      dup3\n        /* \"#utility.yul\":12060:12135   */\n      tag_374\n      jump\t// in\n    tag_565:\n        /* \"#utility.yul\":12151:12258   */\n      tag_566\n        /* \"#utility.yul\":12251:12257   */\n      dup2\n        /* \"#utility.yul\":12246:12249   */\n      dup6\n        /* \"#utility.yul\":12151:12258   */\n      tag_375\n      jump\t// in\n    tag_566:\n        /* \"#utility.yul\":12144:12258   */\n      swap4\n      pop\n        /* \"#utility.yul\":12284:12287   */\n      dup4\n        /* \"#utility.yul\":12329:12333   */\n      0x20\n        /* \"#utility.yul\":12321:12327   */\n      dup3\n        /* \"#utility.yul\":12317:12334   */\n      mul\n        /* \"#utility.yul\":12312:12315   */\n      dup6\n        /* \"#utility.yul\":12308:12335   */\n      add\n        /* \"#utility.yul\":12359:12436   */\n      tag_567\n        /* \"#utility.yul\":12430:12435   */\n      dup6\n        /* \"#utility.yul\":12359:12436   */\n      tag_376\n      jump\t// in\n    tag_567:\n        /* \"#utility.yul\":12459:12466   */\n      dup1\n        /* \"#utility.yul\":12490:12491   */\n      0x00\n        /* \"#utility.yul\":12475:12904   */\n    tag_568:\n        /* \"#utility.yul\":12500:12506   */\n      dup6\n        /* \"#utility.yul\":12497:12498   */\n      dup2\n        /* \"#utility.yul\":12494:12507   */\n      lt\n        /* \"#utility.yul\":12475:12904   */\n      iszero\n      tag_570\n      jumpi\n        /* \"#utility.yul\":12571:12580   */\n      dup5\n        /* \"#utility.yul\":12565:12569   */\n      dup5\n        /* \"#utility.yul\":12561:12581   */\n      sub\n        /* \"#utility.yul\":12556:12559   */\n      dup10\n        /* \"#utility.yul\":12549:12582   */\n      mstore\n        /* \"#utility.yul\":12622:12628   */\n      dup2\n        /* \"#utility.yul\":12616:12629   */\n      mload\n        /* \"#utility.yul\":12650:12756   */\n      tag_571\n        /* \"#utility.yul\":12751:12755   */\n      dup6\n        /* \"#utility.yul\":12736:12749   */\n      dup3\n        /* \"#utility.yul\":12650:12756   */\n      tag_381\n      jump\t// in\n    tag_571:\n        /* \"#utility.yul\":12642:12756   */\n      swap5\n      pop\n        /* \"#utility.yul\":12779:12860   */\n      tag_572\n        /* \"#utility.yul\":12853:12859   */\n      dup4\n        /* \"#utility.yul\":12779:12860   */\n      tag_382\n      jump\t// in\n    tag_572:\n        /* \"#utility.yul\":12769:12860   */\n      swap3\n      pop\n        /* \"#utility.yul\":12889:12893   */\n      0x20\n        /* \"#utility.yul\":12884:12887   */\n      dup11\n        /* \"#utility.yul\":12880:12894   */\n      add\n        /* \"#utility.yul\":12873:12894   */\n      swap10\n      pop\n        /* \"#utility.yul\":12535:12904   */\n      pop\n        /* \"#utility.yul\":12522:12523   */\n      0x01\n        /* \"#utility.yul\":12519:12520   */\n      dup2\n        /* \"#utility.yul\":12515:12524   */\n      add\n        /* \"#utility.yul\":12510:12524   */\n      swap1\n      pop\n        /* \"#utility.yul\":12475:12904   */\n      jump(tag_568)\n    tag_570:\n        /* \"#utility.yul\":12479:12493   */\n      pop\n        /* \"#utility.yul\":12920:12924   */\n      dup3\n        /* \"#utility.yul\":12913:12924   */\n      swap8\n      pop\n        /* \"#utility.yul\":12940:12943   */\n      dup8\n        /* \"#utility.yul\":12933:12943   */\n      swap6\n      pop\n        /* \"#utility.yul\":12036:12949   */\n      pop\n      pop\n      pop\n      pop\n      pop\n        /* \"#utility.yul\":11870:12949   */\n      swap3\n      swap2\n      pop\n      pop\n      jump\t// out\n        /* \"#utility.yul\":12955:13412   */\n    tag_70:\n        /* \"#utility.yul\":13140:13144   */\n      0x00\n        /* \"#utility.yul\":13178:13180   */\n      0x20\n        /* \"#utility.yul\":13167:13176   */\n      dup3\n        /* \"#utility.yul\":13163:13181   */\n      add\n        /* \"#utility.yul\":13155:13181   */\n      swap1\n      pop\n        /* \"#utility.yul\":13227:13236   */\n      dup2\n        /* \"#utility.yul\":13221:13225   */\n      dup2\n        /* \"#utility.yul\":13217:13237   */\n      sub\n        /* \"#utility.yul\":13213:13214   */\n      0x00\n        /* \"#utility.yul\":13202:13211   */\n      dup4\n        /* \"#utility.yul\":13198:13215   */\n      add\n        /* \"#utility.yul\":13191:13238   */\n      mstore\n        /* \"#utility.yul\":13255:13405   */\n      tag_574\n        /* \"#utility.yul\":13400:13404   */\n      dup2\n        /* \"#utility.yul\":13391:13397   */\n      dup5\n        /* \"#utility.yul\":13255:13405   */\n      tag_383\n      jump\t// in\n    tag_574:\n        /* \"#utility.yul\":13247:13405   */\n      swap1\n      pop\n        /* \"#utility.yul\":12955:13412   */\n      swap3\n      swap2\n      pop\n      pop\n      jump\t// out\n        /* \"#utility.yul\":13418:13747   */\n    tag_73:\n        /* \"#utility.yul\":13477:13483   */\n      0x00\n        /* \"#utility.yul\":13526:13528   */\n      0x20\n        /* \"#utility.yul\":13514:13523   */\n      dup3\n        /* \"#utility.yul\":13505:13512   */\n      dup5\n        /* \"#utility.yul\":13501:13524   */\n      sub\n        /* \"#utility.yul\":13497:13529   */\n      slt\n        /* \"#utility.yul\":13494:13613   */\n      iszero\n      tag_576\n      jumpi\n        /* \"#utility.yul\":13532:13611   */\n      tag_577\n      tag_352\n      jump\t// in\n    tag_577:\n        /* \"#utility.yul\":13494:13613   */\n    tag_576:\n        /* \"#utility.yul\":13652:13653   */\n      0x00\n        /* \"#utility.yul\":13677:13730   */\n      tag_578\n        /* \"#utility.yul\":13722:13729   */\n      dup5\n        /* \"#utility.yul\":13713:13719   */\n      dup3\n        /* \"#utility.yul\":13702:13711   */\n      dup6\n        /* \"#utility.yul\":13698:13720   */\n      add\n        /* \"#utility.yul\":13677:13730   */\n      tag_357\n      jump\t// in\n    tag_578:\n        /* \"#utility.yul\":13667:13730   */\n      swap2\n      pop\n        /* \"#utility.yul\":13623:13740   */\n      pop\n        /* \"#utility.yul\":13418:13747   */\n      swap3\n      swap2\n      pop\n      pop\n      jump\t// out\n        /* \"#utility.yul\":13753:13871   */\n    tag_384:\n        /* \"#utility.yul\":13840:13864   */\n      tag_580\n        /* \"#utility.yul\":13858:13863   */\n      dup2\n        /* \"#utility.yul\":13840:13864   */\n      tag_355\n      jump\t// in\n    tag_580:\n        /* \"#utility.yul\":13835:13838   */\n      dup3\n        /* \"#utility.yul\":13828:13865   */\n      mstore\n        /* \"#utility.yul\":13753:13871   */\n      pop\n      pop\n      jump\t// out\n        /* \"#utility.yul\":13877:14099   */\n    tag_81:\n        /* \"#utility.yul\":13970:13974   */\n      0x00\n        /* \"#utility.yul\":14008:14010   */\n      0x20\n        /* \"#utility.yul\":13997:14006   */\n      dup3\n        /* \"#utility.yul\":13993:14011   */\n      add\n        /* \"#utility.yul\":13985:14011   */\n      swap1\n      pop\n        /* \"#utility.yul\":14021:14092   */\n      tag_582\n        /* \"#utility.yul\":14089:14090   */\n      0x00\n        /* \"#utility.yul\":14078:14087   */\n      dup4\n        /* \"#utility.yul\":14074:14091   */\n      add\n        /* \"#utility.yul\":14065:14071   */\n      dup5\n        /* \"#utility.yul\":14021:14092   */\n      tag_384\n      jump\t// in\n    tag_582:\n        /* \"#utility.yul\":13877:14099   */\n      swap3\n      swap2\n      pop\n      pop\n      jump\t// out\n        /* \"#utility.yul\":14105:14579   */\n    tag_95:\n        /* \"#utility.yul\":14173:14179   */\n      0x00\n        /* \"#utility.yul\":14181:14187   */\n      dup1\n        /* \"#utility.yul\":14230:14232   */\n      0x40\n        /* \"#utility.yul\":14218:14227   */\n      dup4\n        /* \"#utility.yul\":14209:14216   */\n      dup6\n        /* \"#utility.yul\":14205:14228   */\n      sub\n        /* \"#utility.yul\":14201:14233   */\n      slt\n        /* \"#utility.yul\":14198:14317   */\n      iszero\n      tag_584\n      jumpi\n        /* \"#utility.yul\":14236:14315   */\n      tag_585\n      tag_352\n      jump\t// in\n    tag_585:\n        /* \"#utility.yul\":14198:14317   */\n    tag_584:\n        /* \"#utility.yul\":14356:14357   */\n      0x00\n        /* \"#utility.yul\":14381:14434   */\n      tag_586\n        /* \"#utility.yul\":14426:14433   */\n      dup6\n        /* \"#utility.yul\":14417:14423   */\n      dup3\n        /* \"#utility.yul\":14406:14415   */\n      dup7\n        /* \"#utility.yul\":14402:14424   */\n      add\n        /* \"#utility.yul\":14381:14434   */\n      tag_357\n      jump\t// in\n    tag_586:\n        /* \"#utility.yul\":14371:14434   */\n      swap3\n      pop\n        /* \"#utility.yul\":14327:14444   */\n      pop\n        /* \"#utility.yul\":14483:14485   */\n      0x20\n        /* \"#utility.yul\":14509:14562   */\n      tag_587\n        /* \"#utility.yul\":14554:14561   */\n      dup6\n        /* \"#utility.yul\":14545:14551   */\n      dup3\n        /* \"#utility.yul\":14534:14543   */\n      dup7\n        /* \"#utility.yul\":14530:14552   */\n      add\n        /* \"#utility.yul\":14509:14562   */\n      tag_357\n      jump\t// in\n    tag_587:\n        /* \"#utility.yul\":14499:14562   */\n      swap2\n      pop\n        /* \"#utility.yul\":14454:14572   */\n      pop\n        /* \"#utility.yul\":14105:14579   */\n      swap3\n      pop\n      swap3\n      swap1\n      pop\n      jump\t// out\n        /* \"#utility.yul\":14585:14765   */\n    tag_385:\n        /* \"#utility.yul\":14633:14710   */\n      0x4e487b7100000000000000000000000000000000000000000000000000000000\n        /* \"#utility.yul\":14630:14631   */\n      0x00\n        /* \"#utility.yul\":14623:14711   */\n      mstore\n        /* \"#utility.yul\":14730:14734   */\n      0x22\n        /* \"#utility.yul\":14727:14728   */\n      0x04\n        /* \"#utility.yul\":14720:14735   */\n      mstore\n        /* \"#utility.yul\":14754:14758   */\n      0x24\n        /* \"#utility.yul\":14751:14752   */\n      0x00\n        /* \"#utility.yul\":14744:14759   */\n      revert\n        /* \"#utility.yul\":14771:15091   */\n    tag_103:\n        /* \"#utility.yul\":14815:14821   */\n      0x00\n        /* \"#utility.yul\":14852:14853   */\n      0x02\n        /* \"#utility.yul\":14846:14850   */\n      dup3\n        /* \"#utility.yul\":14842:14854   */\n      div\n        /* \"#utility.yul\":14832:14854   */\n      swap1\n      pop\n        /* \"#utility.yul\":14899:14900   */\n      0x01\n        /* \"#utility.yul\":14893:14897   */\n      dup3\n        /* \"#utility.yul\":14889:14901   */\n      and\n        /* \"#utility.yul\":14920:14938   */\n      dup1\n        /* \"#utility.yul\":14910:14991   */\n      tag_590\n      jumpi\n        /* \"#utility.yul\":14976:14980   */\n      0x7f\n        /* \"#utility.yul\":14968:14974   */\n      dup3\n        /* \"#utility.yul\":14964:14981   */\n      and\n        /* \"#utility.yul\":14954:14981   */\n      swap2\n      pop\n        /* \"#utility.yul\":14910:14991   */\n    tag_590:\n        /* \"#utility.yul\":15038:15040   */\n      0x20\n        /* \"#utility.yul\":15030:15036   */\n      dup3\n        /* \"#utility.yul\":15027:15041   */\n      lt\n        /* \"#utility.yul\":15007:15025   */\n      dup2\n        /* \"#utility.yul\":15004:15042   */\n      sub\n        /* \"#utility.yul\":15001:15085   */\n      tag_591\n      jumpi\n        /* \"#utility.yul\":15057:15075   */\n      tag_592\n      tag_385\n      jump\t// in\n    tag_592:\n        /* \"#utility.yul\":15001:15085   */\n    tag_591:\n        /* \"#utility.yul\":14822:15091   */\n      pop\n        /* \"#utility.yul\":14771:15091   */\n      swap2\n      swap1\n      pop\n      jump\t// out\n        /* \"#utility.yul\":15097:15245   */\n    tag_386:\n        /* \"#utility.yul\":15199:15210   */\n      0x00\n        /* \"#utility.yul\":15236:15239   */\n      dup2\n        /* \"#utility.yul\":15221:15239   */\n      swap1\n      pop\n        /* \"#utility.yul\":15097:15245   */\n      swap3\n      swap2\n      pop\n      pop\n      jump\t// out\n        /* \"#utility.yul\":15251:15641   */\n    tag_387:\n        /* \"#utility.yul\":15357:15360   */\n      0x00\n        /* \"#utility.yul\":15385:15424   */\n      tag_595\n        /* \"#utility.yul\":15418:15423   */\n      dup3\n        /* \"#utility.yul\":15385:15424   */\n      tag_346\n      jump\t// in\n    tag_595:\n        /* \"#utility.yul\":15440:15529   */\n      tag_596\n        /* \"#utility.yul\":15522:15528   */\n      dup2\n        /* \"#utility.yul\":15517:15520   */\n      dup6\n        /* \"#utility.yul\":15440:15529   */\n      tag_386\n      jump\t// in\n    tag_596:\n        /* \"#utility.yul\":15433:15529   */\n      swap4\n      pop\n        /* \"#utility.yul\":15538:15603   */\n      tag_597\n        /* \"#utility.yul\":15596:15602   */\n      dup2\n        /* \"#utility.yul\":15591:15594   */\n      dup6\n        /* \"#utility.yul\":15584:15588   */\n      0x20\n        /* \"#utility.yul\":15577:15582   */\n      dup7\n        /* \"#utility.yul\":15573:15589   */\n      add\n        /* \"#utility.yul\":15538:15603   */\n      tag_348\n      jump\t// in\n    tag_597:\n        /* \"#utility.yul\":15628:15634   */\n      dup1\n        /* \"#utility.yul\":15623:15626   */\n      dup5\n        /* \"#utility.yul\":15619:15635   */\n      add\n        /* \"#utility.yul\":15612:15635   */\n      swap2\n      pop\n        /* \"#utility.yul\":15361:15641   */\n      pop\n        /* \"#utility.yul\":15251:15641   */\n      swap3\n      swap2\n      pop\n      pop\n      jump\t// out\n        /* \"#utility.yul\":15647:15922   */\n    tag_115:\n        /* \"#utility.yul\":15779:15782   */\n      0x00\n        /* \"#utility.yul\":15801:15896   */\n      tag_599\n        /* \"#utility.yul\":15892:15895   */\n      dup3\n        /* \"#utility.yul\":15883:15889   */\n      dup5\n        /* \"#utility.yul\":15801:15896   */\n      tag_387\n      jump\t// in\n    tag_599:\n        /* \"#utility.yul\":15794:15896   */\n      swap2\n      pop\n        /* \"#utility.yul\":15913:15916   */\n      dup2\n        /* \"#utility.yul\":15906:15916   */\n      swap1\n      pop\n        /* \"#utility.yul\":15647:15922   */\n      swap3\n      swap2\n      pop\n      pop\n      jump\t// out\n        /* \"#utility.yul\":15928:16097   */\n    tag_388:\n        /* \"#utility.yul\":16068:16089   */\n      0x4974656d20646f6573206e6f7420657869737400000000000000000000000000\n        /* \"#utility.yul\":16064:16065   */\n      0x00\n        /* \"#utility.yul\":16056:16062   */\n      dup3\n        /* \"#utility.yul\":16052:16066   */\n      add\n        /* \"#utility.yul\":16045:16090   */\n      mstore\n        /* \"#utility.yul\":15928:16097   */\n      pop\n      jump\t// out\n        /* \"#utility.yul\":16103:16469   */\n    tag_389:\n        /* \"#utility.yul\":16245:16248   */\n      0x00\n        /* \"#utility.yul\":16266:16333   */\n      tag_602\n        /* \"#utility.yul\":16330:16332   */\n      0x13\n        /* \"#utility.yul\":16325:16328   */\n      dup4\n        /* \"#utility.yul\":16266:16333   */\n      tag_347\n      jump\t// in\n    tag_602:\n        /* \"#utility.yul\":16259:16333   */\n      swap2\n      pop\n        /* \"#utility.yul\":16342:16435   */\n      tag_603\n        /* \"#utility.yul\":16431:16434   */\n      dup3\n        /* \"#utility.yul\":16342:16435   */\n      tag_388\n      jump\t// in\n    tag_603:\n        /* \"#utility.yul\":16460:16462   */\n      0x20\n        /* \"#utility.yul\":16455:16458   */\n      dup3\n        /* \"#utility.yul\":16451:16463   */\n      add\n        /* \"#utility.yul\":16444:16463   */\n      swap1\n      pop\n        /* \"#utility.yul\":16103:16469   */\n      swap2\n      swap1\n      pop\n      jump\t// out\n        /* \"#utility.yul\":16475:16894   */\n    tag_133:\n        /* \"#utility.yul\":16641:16645   */\n      0x00\n        /* \"#utility.yul\":16679:16681   */\n      0x20\n        /* \"#utility.yul\":16668:16677   */\n      dup3\n        /* \"#utility.yul\":16664:16682   */\n      add\n        /* \"#utility.yul\":16656:16682   */\n      swap1\n      pop\n        /* \"#utility.yul\":16728:16737   */\n      dup2\n        /* \"#utility.yul\":16722:16726   */\n      dup2\n        /* \"#utility.yul\":16718:16738   */\n      sub\n        /* \"#utility.yul\":16714:16715   */\n      0x00\n        /* \"#utility.yul\":16703:16712   */\n      dup4\n        /* \"#utility.yul\":16699:16716   */\n      add\n        /* \"#utility.yul\":16692:16739   */\n      mstore\n        /* \"#utility.yul\":16756:16887   */\n      tag_605\n        /* \"#utility.yul\":16882:16886   */\n      dup2\n        /* \"#utility.yul\":16756:16887   */\n      tag_389\n      jump\t// in\n    tag_605:\n        /* \"#utility.yul\":16748:16887   */\n      swap1\n      pop\n        /* \"#utility.yul\":16475:16894   */\n      swap2\n      swap1\n      pop\n      jump\t// out\n        /* \"#utility.yul\":16900:17070   */\n    tag_390:\n        /* \"#utility.yul\":17040:17062   */\n      0x496e73756666696369656e742062616c616e6365000000000000000000000000\n        /* \"#utility.yul\":17036:17037   */\n      0x00\n        /* \"#utility.yul\":17028:17034   */\n      dup3\n        /* \"#utility.yul\":17024:17038   */\n      add\n        /* \"#utility.yul\":17017:17063   */\n      mstore\n        /* \"#utility.yul\":16900:17070   */\n      pop\n      jump\t// out\n        /* \"#utility.yul\":17076:17442   */\n    tag_391:\n        /* \"#utility.yul\":17218:17221   */\n      0x00\n        /* \"#utility.yul\":17239:17306   */\n      tag_608\n        /* \"#utility.yul\":17303:17305   */\n      0x14\n        /* \"#utility.yul\":17298:17301   */\n      dup4\n        /* \"#utility.yul\":17239:17306   */\n      tag_347\n      jump\t// in\n    tag_608:\n        /* \"#utility.yul\":17232:17306   */\n      swap2\n      pop\n        /* \"#utility.yul\":17315:17408   */\n      tag_609\n        /* \"#utility.yul\":17404:17407   */\n      dup3\n        /* \"#utility.yul\":17315:17408   */\n      tag_390\n      jump\t// in\n    tag_609:\n        /* \"#utility.yul\":17433:17435   */\n      0x20\n        /* \"#utility.yul\":17428:17431   */\n      dup3\n        /* \"#utility.yul\":17424:17436   */\n      add\n        /* \"#utility.yul\":17417:17436   */\n      swap1\n      pop\n        /* \"#utility.yul\":17076:17442   */\n      swap2\n      swap1\n      pop\n      jump\t// out\n        /* \"#utility.yul\":17448:17867   */\n    tag_137:\n        /* \"#utility.yul\":17614:17618   */\n      0x00\n        /* \"#utility.yul\":17652:17654   */\n      0x20\n        /* \"#utility.yul\":17641:17650   */\n      dup3\n        /* \"#utility.yul\":17637:17655   */\n      add\n        /* \"#utility.yul\":17629:17655   */\n      swap1\n      pop\n        /* \"#utility.yul\":17701:17710   */\n      dup2\n        /* \"#utility.yul\":17695:17699   */\n      dup2\n        /* \"#utility.yul\":17691:17711   */\n      sub\n        /* \"#utility.yul\":17687:17688   */\n      0x00\n        /* \"#utility.yul\":17676:17685   */\n      dup4\n        /* \"#utility.yul\":17672:17689   */\n      add\n        /* \"#utility.yul\":17665:17712   */\n      mstore\n        /* \"#utility.yul\":17729:17860   */\n      tag_611\n        /* \"#utility.yul\":17855:17859   */\n      dup2\n        /* \"#utility.yul\":17729:17860   */\n      tag_391\n      jump\t// in\n    tag_611:\n        /* \"#utility.yul\":17721:17860   */\n      swap1\n      pop\n        /* \"#utility.yul\":17448:17867   */\n      swap2\n      swap1\n      pop\n      jump\t// out\n        /* \"#utility.yul\":17873:18014   */\n    tag_392:\n        /* \"#utility.yul\":17922:17926   */\n      0x00\n        /* \"#utility.yul\":17945:17948   */\n      dup2\n        /* \"#utility.yul\":17937:17948   */\n      swap1\n      pop\n        /* \"#utility.yul\":17968:17971   */\n      dup2\n        /* \"#utility.yul\":17965:17966   */\n      0x00\n        /* \"#utility.yul\":17958:17972   */\n      mstore\n        /* \"#utility.yul\":18002:18006   */\n      0x20\n        /* \"#utility.yul\":17999:18000   */\n      0x00\n        /* \"#utility.yul\":17989:18007   */\n      keccak256\n        /* \"#utility.yul\":17981:18007   */\n      swap1\n      pop\n        /* \"#utility.yul\":17873:18014   */\n      swap2\n      swap1\n      pop\n      jump\t// out\n        /* \"#utility.yul\":18020:18113   */\n    tag_393:\n        /* \"#utility.yul\":18057:18063   */\n      0x00\n        /* \"#utility.yul\":18104:18106   */\n      0x20\n        /* \"#utility.yul\":18099:18101   */\n      0x1f\n        /* \"#utility.yul\":18092:18097   */\n      dup4\n        /* \"#utility.yul\":18088:18102   */\n      add\n        /* \"#utility.yul\":18084:18107   */\n      div\n        /* \"#utility.yul\":18074:18107   */\n      swap1\n      pop\n        /* \"#utility.yul\":18020:18113   */\n      swap2\n      swap1\n      pop\n      jump\t// out\n        /* \"#utility.yul\":18119:18226   */\n    tag_394:\n        /* \"#utility.yul\":18163:18171   */\n      0x00\n        /* \"#utility.yul\":18213:18218   */\n      dup3\n        /* \"#utility.yul\":18207:18211   */\n      dup3\n        /* \"#utility.yul\":18203:18219   */\n      shl\n        /* \"#utility.yul\":18182:18219   */\n      swap1\n      pop\n        /* \"#utility.yul\":18119:18226   */\n      swap3\n      swap2\n      pop\n      pop\n      jump\t// out\n        /* \"#utility.yul\":18232:18625   */\n    tag_395:\n        /* \"#utility.yul\":18301:18307   */\n      0x00\n        /* \"#utility.yul\":18351:18352   */\n      0x08\n        /* \"#utility.yul\":18339:18349   */\n      dup4\n        /* \"#utility.yul\":18335:18353   */\n      mul\n        /* \"#utility.yul\":18374:18471   */\n      tag_616\n        /* \"#utility.yul\":18404:18470   */\n      0xffffffffffffffffffffffffffffffffffffffffffffffffffffffffffffffff\n        /* \"#utility.yul\":18393:18402   */\n      dup3\n        /* \"#utility.yul\":18374:18471   */\n      tag_394\n      jump\t// in\n    tag_616:\n        /* \"#utility.yul\":18492:18531   */\n      tag_617\n        /* \"#utility.yul\":18522:18530   */\n      dup7\n        /* \"#utility.yul\":18511:18520   */\n      dup4\n        /* \"#utility.yul\":18492:18531   */\n      tag_394\n      jump\t// in\n    tag_617:\n        /* \"#utility.yul\":18480:18531   */\n      swap6\n      pop\n        /* \"#utility.yul\":18564:18568   */\n      dup1\n        /* \"#utility.yul\":18560:18569   */\n      not\n        /* \"#utility.yul\":18553:18558   */\n      dup5\n        /* \"#utility.yul\":18549:18570   */\n      and\n        /* \"#utility.yul\":18540:18570   */\n      swap4\n      pop\n        /* \"#utility.yul\":18613:18617   */\n      dup1\n        /* \"#utility.yul\":18603:18611   */\n      dup7\n        /* \"#utility.yul\":18599:18618   */\n      and\n        /* \"#utility.yul\":18592:18597   */\n      dup5\n        /* \"#utility.yul\":18589:18619   */\n      or\n        /* \"#utility.yul\":18579:18619   */\n      swap3\n      pop\n        /* \"#utility.yul\":18308:18625   */\n      pop\n      pop\n        /* \"#utility.yul\":18232:18625   */\n      swap4\n      swap3\n      pop\n      pop\n      pop\n      jump\t// out\n        /* \"#utility.yul\":18631:18691   */\n    tag_396:\n        /* \"#utility.yul\":18659:18662   */\n      0x00\n        /* \"#utility.yul\":18680:18685   */\n      dup2\n        /* \"#utility.yul\":18673:18685   */\n      swap1\n      pop\n        /* \"#utility.yul\":18631:18691   */\n      swap2\n      swap1\n      pop\n      jump\t// out\n        /* \"#utility.yul\":18697:18839   */\n    tag_397:\n        /* \"#utility.yul\":18747:18756   */\n      0x00\n        /* \"#utility.yul\":18780:18833   */\n      tag_620\n        /* \"#utility.yul\":18798:18832   */\n      tag_621\n        /* \"#utility.yul\":18807:18831   */\n      tag_622\n        /* \"#utility.yul\":18825:18830   */\n      dup5\n        /* \"#utility.yul\":18807:18831   */\n      tag_358\n      jump\t// in\n    tag_622:\n        /* \"#utility.yul\":18798:18832   */\n      tag_396\n      jump\t// in\n    tag_621:\n        /* \"#utility.yul\":18780:18833   */\n      tag_358\n      jump\t// in\n    tag_620:\n        /* \"#utility.yul\":18767:18833   */\n      swap1\n      pop\n        /* \"#utility.yul\":18697:18839   */\n      swap2\n      swap1\n      pop\n      jump\t// out\n        /* \"#utility.yul\":18845:18920   */\n    tag_398:\n        /* \"#utility.yul\":18888:18891   */\n      0x00\n        /* \"#utility.yul\":18909:18914   */\n      dup2\n        /* \"#utility.yul\":18902:18914   */\n      swap1\n      pop\n        /* \"#utility.yul\":18845:18920   */\n      swap2\n      swap1\n      pop\n      jump\t// out\n        /* \"#utility.yul\":18926:19195   */\n    tag_399:\n        /* \"#utility.yul\":19036:19075   */\n      tag_625\n        /* \"#utility.yul\":19067:19074   */\n      dup4\n        /* \"#utility.yul\":19036:19075   */\n      tag_397\n      jump\t// in\n    tag_625:\n        /* \"#utility.yul\":19097:19188   */\n      tag_626\n        /* \"#utility.yul\":19146:19187   */\n      tag_627\n        /* \"#utility.yul\":19170:19186   */\n      dup3\n        /* \"#utility.yul\":19146:19187   */\n      tag_398\n      jump\t// in\n    tag_627:\n        /* \"#utility.yul\":19138:19144   */\n      dup5\n        /* \"#utility.yul\":19131:19135   */\n      dup5\n        /* \"#utility.yul\":19125:19136   */\n      sload\n        /* \"#utility.yul\":19097:19188   */\n      tag_395\n      jump\t// in\n    tag_626:\n        /* \"#utility.yul\":19091:19095   */\n      dup3\n        /* \"#utility.yul\":19084:19189   */\n      sstore\n        /* \"#utility.yul\":19002:19195   */\n      pop\n        /* \"#utility.yul\":18926:19195   */\n      pop\n      pop\n      pop\n      jump\t// out\n        /* \"#utility.yul\":19201:19274   */\n    tag_400:\n        /* \"#utility.yul\":19246:19249   */\n      0x00\n        /* \"#utility.yul\":19201:19274   */\n      swap1\n      jump\t// out\n        /* \"#utility.yul\":19280:19469   */\n    tag_401:\n        /* \"#utility.yul\":19357:19389   */\n      tag_630\n      tag_400\n      jump\t// in\n    tag_630:\n        /* \"#utility.yul\":19398:19463   */\n      tag_631\n        /* \"#utility.yul\":19456:19462   */\n      dup2\n        /* \"#utility.yul\":19448:19454   */\n      dup5\n        /* \"#utility.yul\":19442:19446   */\n      dup5\n        /* \"#utility.yul\":19398:19463   */\n      tag_399\n      jump\t// in\n    tag_631:\n        /* \"#utility.yul\":19333:19469   */\n      pop\n        /* \"#utility.yul\":19280:19469   */\n      pop\n      pop\n      jump\t// out\n        /* \"#utility.yul\":19475:19661   */\n    tag_402:\n        /* \"#utility.yul\":19535:19655   */\n    tag_633:\n        /* \"#utility.yul\":19552:19555   */\n      dup2\n        /* \"#utility.yul\":19545:19550   */\n      dup2\n        /* \"#utility.yul\":19542:19556   */\n      lt\n        /* \"#utility.yul\":19535:19655   */\n      iszero\n      tag_635\n      jumpi\n        /* \"#utility.yul\":19606:19645   */\n      tag_636\n        /* \"#utility.yul\":19643:19644   */\n      0x00\n        /* \"#utility.yul\":19636:19641   */\n      dup3\n        /* \"#utility.yul\":19606:19645   */\n      tag_401\n      jump\t// in\n    tag_636:\n        /* \"#utility.yul\":19579:19580   */\n      0x01\n        /* \"#utility.yul\":19572:19577   */\n      dup2\n        /* \"#utility.yul\":19568:19581   */\n      add\n        /* \"#utility.yul\":19559:19581   */\n      swap1\n      pop\n        /* \"#utility.yul\":19535:19655   */\n      jump(tag_633)\n    tag_635:\n        /* \"#utility.yul\":19475:19661   */\n      pop\n      pop\n      jump\t// out\n        /* \"#utility.yul\":19667:20210   */\n    tag_403:\n        /* \"#utility.yul\":19768:19770   */\n      0x1f\n        /* \"#utility.yul\":19763:19766   */\n      dup3\n        /* \"#utility.yul\":19760:19771   */\n      gt\n        /* \"#utility.yul\":19757:20203   */\n      iszero\n      tag_638\n      jumpi\n        /* \"#utility.yul\":19802:19840   */\n      tag_639\n        /* \"#utility.yul\":19834:19839   */\n      dup2\n        /* \"#utility.yul\":19802:19840   */\n      tag_392\n      jump\t// in\n    tag_639:\n        /* \"#utility.yul\":19886:19915   */\n      tag_640\n        /* \"#utility.yul\":19904:19914   */\n      dup5\n        /* \"#utility.yul\":19886:19915   */\n      tag_393\n      jump\t// in\n    tag_640:\n        /* \"#utility.yul\":19876:19884   */\n      dup2\n        /* \"#utility.yul\":19872:19916   */\n      add\n        /* \"#utility.yul\":20069:20071   */\n      0x20\n        /* \"#utility.yul\":20057:20067   */\n      dup6\n        /* \"#utility.yul\":20054:20072   */\n      lt\n        /* \"#utility.yul\":20051:20100   */\n      iszero\n      tag_641\n      jumpi\n        /* \"#utility.yul\":20090:20098   */\n      dup2\n        /* \"#utility.yul\":20075:20098   */\n      swap1\n      pop\n        /* \"#utility.yul\":20051:20100   */\n    tag_641:\n        /* \"#utility.yul\":20113:20193   */\n      tag_642\n        /* \"#utility.yul\":20169:20191   */\n      tag_643\n        /* \"#utility.yul\":20187:20190   */\n      dup6\n        /* \"#utility.yul\":20169:20191   */\n      tag_393\n      jump\t// in\n    tag_643:\n        /* \"#utility.yul\":20159:20167   */\n      dup4\n        /* \"#utility.yul\":20155:20192   */\n      add\n        /* \"#utility.yul\":20142:20153   */\n      dup3\n        /* \"#utility.yul\":20113:20193   */\n      tag_402\n      jump\t// in\n    tag_642:\n        /* \"#utility.yul\":19772:20203   */\n      pop\n      pop\n        /* \"#utility.yul\":19757:20203   */\n    tag_638:\n        /* \"#utility.yul\":19667:20210   */\n      pop\n      pop\n      pop\n      jump\t// out\n        /* \"#utility.yul\":20216:20333   */\n    tag_404:\n        /* \"#utility.yul\":20270:20278   */\n      0x00\n        /* \"#utility.yul\":20320:20325   */\n      dup3\n        /* \"#utility.yul\":20314:20318   */\n      dup3\n        /* \"#utility.yul\":20310:20326   */\n      shr\n        /* \"#utility.yul\":20289:20326   */\n      swap1\n      pop\n        /* \"#utility.yul\":20216:20333   */\n      swap3\n      swap2\n      pop\n      pop\n      jump\t// out\n        /* \"#utility.yul\":20339:20508   */\n    tag_405:\n        /* \"#utility.yul\":20383:20389   */\n      0x00\n        /* \"#utility.yul\":20416:20467   */\n      tag_646\n        /* \"#utility.yul\":20464:20465   */\n      0x00\n        /* \"#utility.yul\":20460:20466   */\n      not\n        /* \"#utility.yul\":20452:20457   */\n      dup5\n        /* \"#utility.yul\":20449:20450   */\n      0x08\n        /* \"#utility.yul\":20445:20458   */\n      mul\n        /* \"#utility.yul\":20416:20467   */\n      tag_404\n      jump\t// in\n    tag_646:\n        /* \"#utility.yul\":20412:20468   */\n      not\n        /* \"#utility.yul\":20497:20501   */\n      dup1\n        /* \"#utility.yul\":20491:20495   */\n      dup4\n        /* \"#utility.yul\":20487:20502   */\n      and\n        /* \"#utility.yul\":20477:20502   */\n      swap2\n      pop\n        /* \"#utility.yul\":20390:20508   */\n      pop\n        /* \"#utility.yul\":20339:20508   */\n      swap3\n      swap2\n      pop\n      pop\n      jump\t// out\n        /* \"#utility.yul\":20513:20808   */\n    tag_406:\n        /* \"#utility.yul\":20589:20593   */\n      0x00\n        /* \"#utility.yul\":20735:20764   */\n      tag_648\n        /* \"#utility.yul\":20760:20763   */\n      dup4\n        /* \"#utility.yul\":20754:20758   */\n      dup4\n        /* \"#utility.yul\":20735:20764   */\n      tag_405\n      jump\t// in\n    tag_648:\n        /* \"#utility.yul\":20727:20764   */\n      swap2\n      pop\n        /* \"#utility.yul\":20797:20800   */\n      dup3\n        /* \"#utility.yul\":20794:20795   */\n      0x02\n        /* \"#utility.yul\":20790:20801   */\n      mul\n        /* \"#utility.yul\":20784:20788   */\n      dup3\n        /* \"#utility.yul\":20781:20802   */\n      or\n        /* \"#utility.yul\":20773:20802   */\n      swap1\n      pop\n        /* \"#utility.yul\":20513:20808   */\n      swap3\n      swap2\n      pop\n      pop\n      jump\t// out\n        /* \"#utility.yul\":20813:22208   */\n    tag_142:\n        /* \"#utility.yul\":20930:20967   */\n      tag_650\n        /* \"#utility.yul\":20963:20966   */\n      dup3\n        /* \"#utility.yul\":20930:20967   */\n      tag_346\n      jump\t// in\n    tag_650:\n        /* \"#utility.yul\":21032:21050   */\n      0xffffffffffffffff\n        /* \"#utility.yul\":21024:21030   */\n      dup2\n        /* \"#utility.yul\":21021:21051   */\n      gt\n        /* \"#utility.yul\":21018:21074   */\n      iszero\n      tag_651\n      jumpi\n        /* \"#utility.yul\":21054:21072   */\n      tag_652\n      tag_186\n      jump\t// in\n    tag_652:\n        /* \"#utility.yul\":21018:21074   */\n    tag_651:\n        /* \"#utility.yul\":21098:21136   */\n      tag_653\n        /* \"#utility.yul\":21130:21134   */\n      dup3\n        /* \"#utility.yul\":21124:21135   */\n      sload\n        /* \"#utility.yul\":21098:21136   */\n      tag_103\n      jump\t// in\n    tag_653:\n        /* \"#utility.yul\":21183:21250   */\n      tag_654\n        /* \"#utility.yul\":21243:21249   */\n      dup3\n        /* \"#utility.yul\":21235:21241   */\n      dup3\n        /* \"#utility.yul\":21229:21233   */\n      dup6\n        /* \"#utility.yul\":21183:21250   */\n      tag_403\n      jump\t// in\n    tag_654:\n        /* \"#utility.yul\":21277:21278   */\n      0x00\n        /* \"#utility.yul\":21301:21305   */\n      0x20\n        /* \"#utility.yul\":21288:21305   */\n      swap1\n      pop\n        /* \"#utility.yul\":21333:21335   */\n      0x1f\n        /* \"#utility.yul\":21325:21331   */\n      dup4\n        /* \"#utility.yul\":21322:21336   */\n      gt\n        /* \"#utility.yul\":21350:21351   */\n      0x01\n        /* \"#utility.yul\":21345:21963   */\n      dup2\n      eq\n      tag_656\n      jumpi\n        /* \"#utility.yul\":22007:22008   */\n      0x00\n        /* \"#utility.yul\":22024:22030   */\n      dup5\n        /* \"#utility.yul\":22021:22098   */\n      iszero\n      tag_657\n      jumpi\n        /* \"#utility.yul\":22073:22082   */\n      dup3\n        /* \"#utility.yul\":22068:22071   */\n      dup8\n        /* \"#utility.yul\":22064:22083   */\n      add\n        /* \"#utility.yul\":22058:22084   */\n      mload\n        /* \"#utility.yul\":22049:22084   */\n      swap1\n      pop\n        /* \"#utility.yul\":22021:22098   */\n    tag_657:\n        /* \"#utility.yul\":22124:22191   */\n      tag_658\n        /* \"#utility.yul\":22184:22190   */\n      dup6\n        /* \"#utility.yul\":22177:22182   */\n      dup3\n        /* \"#utility.yul\":22124:22191   */\n      tag_406\n      jump\t// in\n    tag_658:\n        /* \"#utility.yul\":22118:22122   */\n      dup7\n        /* \"#utility.yul\":22111:22192   */\n      sstore\n        /* \"#utility.yul\":21980:22202   */\n      pop\n        /* \"#utility.yul\":21315:22202   */\n      jump(tag_655)\n        /* \"#utility.yul\":21345:21963   */\n    tag_656:\n        /* \"#utility.yul\":21397:21401   */\n      0x1f\n        /* \"#utility.yul\":21393:21402   */\n      not\n        /* \"#utility.yul\":21385:21391   */\n      dup5\n        /* \"#utility.yul\":21381:21403   */\n      and\n        /* \"#utility.yul\":21431:21468   */\n      tag_659\n        /* \"#utility.yul\":21463:21467   */\n      dup7\n        /* \"#utility.yul\":21431:21468   */\n      tag_392\n      jump\t// in\n    tag_659:\n        /* \"#utility.yul\":21490:21491   */\n      0x00\n        /* \"#utility.yul\":21504:21712   */\n    tag_660:\n        /* \"#utility.yul\":21518:21525   */\n      dup3\n        /* \"#utility.yul\":21515:21516   */\n      dup2\n        /* \"#utility.yul\":21512:21526   */\n      lt\n        /* \"#utility.yul\":21504:21712   */\n      iszero\n      tag_662\n      jumpi\n        /* \"#utility.yul\":21597:21606   */\n      dup5\n        /* \"#utility.yul\":21592:21595   */\n      dup10\n        /* \"#utility.yul\":21588:21607   */\n      add\n        /* \"#utility.yul\":21582:21608   */\n      mload\n        /* \"#utility.yul\":21574:21580   */\n      dup3\n        /* \"#utility.yul\":21567:21609   */\n      sstore\n        /* \"#utility.yul\":21648:21649   */\n      0x01\n        /* \"#utility.yul\":21640:21646   */\n      dup3\n        /* \"#utility.yul\":21636:21650   */\n      add\n        /* \"#utility.yul\":21626:21650   */\n      swap2\n      pop\n        /* \"#utility.yul\":21695:21697   */\n      0x20\n        /* \"#utility.yul\":21684:21693   */\n      dup6\n        /* \"#utility.yul\":21680:21698   */\n      add\n        /* \"#utility.yul\":21667:21698   */\n      swap5\n      pop\n        /* \"#utility.yul\":21541:21545   */\n      0x20\n        /* \"#utility.yul\":21538:21539   */\n      dup2\n        /* \"#utility.yul\":21534:21546   */\n      add\n        /* \"#utility.yul\":21529:21546   */\n      swap1\n      pop\n        /* \"#utility.yul\":21504:21712   */\n      jump(tag_660)\n    tag_662:\n        /* \"#utility.yul\":21740:21746   */\n      dup7\n        /* \"#utility.yul\":21731:21738   */\n      dup4\n        /* \"#utility.yul\":21728:21747   */\n      lt\n        /* \"#utility.yul\":21725:21904   */\n      iszero\n      tag_663\n      jumpi\n        /* \"#utility.yul\":21798:21807   */\n      dup5\n        /* \"#utility.yul\":21793:21796   */\n      dup10\n        /* \"#utility.yul\":21789:21808   */\n      add\n        /* \"#utility.yul\":21783:21809   */\n      mload\n        /* \"#utility.yul\":21841:21889   */\n      tag_664\n        /* \"#utility.yul\":21883:21887   */\n      0x1f\n        /* \"#utility.yul\":21875:21881   */\n      dup10\n        /* \"#utility.yul\":21871:21888   */\n      and\n        /* \"#utility.yul\":21860:21869   */\n      dup3\n        /* \"#utility.yul\":21841:21889   */\n      tag_405\n      jump\t// in\n    tag_664:\n        /* \"#utility.yul\":21833:21839   */\n      dup4\n        /* \"#utility.yul\":21826:21890   */\n      sstore\n        /* \"#utility.yul\":21748:21904   */\n      pop\n        /* \"#utility.yul\":21725:21904   */\n    tag_663:\n        /* \"#utility.yul\":21950:21951   */\n      0x01\n        /* \"#utility.yul\":21946:21947   */\n      0x02\n        /* \"#utility.yul\":21938:21944   */\n      dup9\n        /* \"#utility.yul\":21934:21948   */\n      mul\n        /* \"#utility.yul\":21930:21952   */\n      add\n        /* \"#utility.yul\":21924:21928   */\n      dup9\n        /* \"#utility.yul\":21917:21953   */\n      sstore\n        /* \"#utility.yul\":21352:21963   */\n      pop\n      pop\n      pop\n        /* \"#utility.yul\":21315:22202   */\n    tag_655:\n      pop\n        /* \"#utility.yul\":20905:22208   */\n      pop\n      pop\n      pop\n        /* \"#utility.yul\":20813:22208   */\n      pop\n      pop\n      jump\t// out\n        /* \"#utility.yul\":22214:22838   */\n    tag_144:\n        /* \"#utility.yul\":22403:22407   */\n      0x00\n        /* \"#utility.yul\":22441:22443   */\n      0x60\n        /* \"#utility.yul\":22430:22439   */\n      dup3\n        /* \"#utility.yul\":22426:22444   */\n      add\n        /* \"#utility.yul\":22418:22444   */\n      swap1\n      pop\n        /* \"#utility.yul\":22490:22499   */\n      dup2\n        /* \"#utility.yul\":22484:22488   */\n      dup2\n        /* \"#utility.yul\":22480:22500   */\n      sub\n        /* \"#utility.yul\":22476:22477   */\n      0x00\n        /* \"#utility.yul\":22465:22474   */\n      dup4\n        /* \"#utility.yul\":22461:22478   */\n      add\n        /* \"#utility.yul\":22454:22501   */\n      mstore\n        /* \"#utility.yul\":22518:22596   */\n      tag_666\n        /* \"#utility.yul\":22591:22595   */\n      dup2\n        /* \"#utility.yul\":22582:22588   */\n      dup7\n        /* \"#utility.yul\":22518:22596   */\n      tag_350\n      jump\t// in\n    tag_666:\n        /* \"#utility.yul\":22510:22596   */\n      swap1\n      pop\n        /* \"#utility.yul\":22643:22652   */\n      dup2\n        /* \"#utility.yul\":22637:22641   */\n      dup2\n        /* \"#utility.yul\":22633:22653   */\n      sub\n        /* \"#utility.yul\":22628:22630   */\n      0x20\n        /* \"#utility.yul\":22617:22626   */\n      dup4\n        /* \"#utility.yul\":22613:22631   */\n      add\n        /* \"#utility.yul\":22606:22654   */\n      mstore\n        /* \"#utility.yul\":22671:22749   */\n      tag_667\n        /* \"#utility.yul\":22744:22748   */\n      dup2\n        /* \"#utility.yul\":22735:22741   */\n      dup6\n        /* \"#utility.yul\":22671:22749   */\n      tag_350\n      jump\t// in\n    tag_667:\n        /* \"#utility.yul\":22663:22749   */\n      swap1\n      pop\n        /* \"#utility.yul\":22759:22831   */\n      tag_668\n        /* \"#utility.yul\":22827:22829   */\n      0x40\n        /* \"#utility.yul\":22816:22825   */\n      dup4\n        /* \"#utility.yul\":22812:22830   */\n      add\n        /* \"#utility.yul\":22803:22809   */\n      dup5\n        /* \"#utility.yul\":22759:22831   */\n      tag_371\n      jump\t// in\n    tag_668:\n        /* \"#utility.yul\":22214:22838   */\n      swap5\n      swap4\n      pop\n      pop\n      pop\n      pop\n      jump\t// out\n        /* \"#utility.yul\":22844:23024   */\n    tag_407:\n        /* \"#utility.yul\":22892:22969   */\n      0x4e487b7100000000000000000000000000000000000000000000000000000000\n        /* \"#utility.yul\":22889:22890   */\n      0x00\n        /* \"#utility.yul\":22882:22970   */\n      mstore\n        /* \"#utility.yul\":22989:22993   */\n      0x11\n        /* \"#utility.yul\":22986:22987   */\n      0x04\n        /* \"#utility.yul\":22979:22994   */\n      mstore\n        /* \"#utility.yul\":23013:23017   */\n      0x24\n        /* \"#utility.yul\":23010:23011   */\n      0x00\n        /* \"#utility.yul\":23003:23018   */\n      revert\n        /* \"#utility.yul\":23030:23221   */\n    tag_166:\n        /* \"#utility.yul\":23070:23073   */\n      0x00\n        /* \"#utility.yul\":23089:23109   */\n      tag_671\n        /* \"#utility.yul\":23107:23108   */\n      dup3\n        /* \"#utility.yul\":23089:23109   */\n      tag_358\n      jump\t// in\n    tag_671:\n        /* \"#utility.yul\":23084:23109   */\n      swap2\n      pop\n        /* \"#utility.yul\":23123:23143   */\n      tag_672\n        /* \"#utility.yul\":23141:23142   */\n      dup4\n        /* \"#utility.yul\":23123:23143   */\n      tag_358\n      jump\t// in\n    tag_672:\n        /* \"#utility.yul\":23118:23143   */\n      swap3\n      pop\n        /* \"#utility.yul\":23166:23167   */\n      dup3\n        /* \"#utility.yul\":23163:23164   */\n      dup3\n        /* \"#utility.yul\":23159:23168   */\n      add\n        /* \"#utility.yul\":23152:23168   */\n      swap1\n      pop\n        /* \"#utility.yul\":23187:23190   */\n      dup1\n        /* \"#utility.yul\":23184:23185   */\n      dup3\n        /* \"#utility.yul\":23181:23191   */\n      gt\n        /* \"#utility.yul\":23178:23214   */\n      iszero\n      tag_673\n      jumpi\n        /* \"#utility.yul\":23194:23212   */\n      tag_674\n      tag_407\n      jump\t// in\n    tag_674:\n        /* \"#utility.yul\":23178:23214   */\n    tag_673:\n        /* \"#utility.yul\":23030:23221   */\n      swap3\n      swap2\n      pop\n      pop\n      jump\t// out\n        /* \"#utility.yul\":23227:23409   */\n    tag_408:\n        /* \"#utility.yul\":23367:23401   */\n      0x416d6f756e74206d7573742062652067726561746572207468616e207a65726f\n        /* \"#utility.yul\":23363:23364   */\n      0x00\n        /* \"#utility.yul\":23355:23361   */\n      dup3\n        /* \"#utility.yul\":23351:23365   */\n      add\n        /* \"#utility.yul\":23344:23402   */\n      mstore\n        /* \"#utility.yul\":23227:23409   */\n      pop\n      jump\t// out\n        /* \"#utility.yul\":23415:23781   */\n    tag_409:\n        /* \"#utility.yul\":23557:23560   */\n      0x00\n        /* \"#utility.yul\":23578:23645   */\n      tag_677\n        /* \"#utility.yul\":23642:23644   */\n      0x20\n        /* \"#utility.yul\":23637:23640   */\n      dup4\n        /* \"#utility.yul\":23578:23645   */\n      tag_347\n      jump\t// in\n    tag_677:\n        /* \"#utility.yul\":23571:23645   */\n      swap2\n      pop\n        /* \"#utility.yul\":23654:23747   */\n      tag_678\n        /* \"#utility.yul\":23743:23746   */\n      dup3\n        /* \"#utility.yul\":23654:23747   */\n      tag_408\n      jump\t// in\n    tag_678:\n        /* \"#utility.yul\":23772:23774   */\n      0x20\n        /* \"#utility.yul\":23767:23770   */\n      dup3\n        /* \"#utility.yul\":23763:23775   */\n      add\n        /* \"#utility.yul\":23756:23775   */\n      swap1\n      pop\n        /* \"#utility.yul\":23415:23781   */\n      swap2\n      swap1\n      pop\n      jump\t// out\n        /* \"#utility.yul\":23787:24206   */\n    tag_172:\n        /* \"#utility.yul\":23953:23957   */\n      0x00\n        /* \"#utility.yul\":23991:23993   */\n      0x20\n        /* \"#utility.yul\":23980:23989   */\n      dup3\n        /* \"#utility.yul\":23976:23994   */\n      add\n        /* \"#utility.yul\":23968:23994   */\n      swap1\n      pop\n        /* \"#utility.yul\":24040:24049   */\n      dup2\n        /* \"#utility.yul\":24034:24038   */\n      dup2\n        /* \"#utility.yul\":24030:24050   */\n      sub\n        /* \"#utility.yul\":24026:24027   */\n      0x00\n        /* \"#utility.yul\":24015:24024   */\n      dup4\n        /* \"#utility.yul\":24011:24028   */\n      add\n        /* \"#utility.yul\":24004:24051   */\n      mstore\n        /* \"#utility.yul\":24068:24199   */\n      tag_680\n        /* \"#utility.yul\":24194:24198   */\n      dup2\n        /* \"#utility.yul\":24068:24199   */\n      tag_409\n      jump\t// in\n    tag_680:\n        /* \"#utility.yul\":24060:24199   */\n      swap1\n      pop\n        /* \"#utility.yul\":23787:24206   */\n      swap2\n      swap1\n      pop\n      jump\t// out\n        /* \"#utility.yul\":24212:24372   */\n    tag_410:\n        /* \"#utility.yul\":24352:24364   */\n      0x676f6c642d73776f726400000000000000000000000000000000000000000000\n        /* \"#utility.yul\":24348:24349   */\n      0x00\n        /* \"#utility.yul\":24340:24346   */\n      dup3\n        /* \"#utility.yul\":24336:24350   */\n      add\n        /* \"#utility.yul\":24329:24365   */\n      mstore\n        /* \"#utility.yul\":24212:24372   */\n      pop\n      jump\t// out\n        /* \"#utility.yul\":24378:24780   */\n    tag_411:\n        /* \"#utility.yul\":24538:24541   */\n      0x00\n        /* \"#utility.yul\":24559:24644   */\n      tag_683\n        /* \"#utility.yul\":24641:24643   */\n      0x0a\n        /* \"#utility.yul\":24636:24639   */\n      dup4\n        /* \"#utility.yul\":24559:24644   */\n      tag_386\n      jump\t// in\n    tag_683:\n        /* \"#utility.yul\":24552:24644   */\n      swap2\n      pop\n        /* \"#utility.yul\":24653:24746   */\n      tag_684\n        /* \"#utility.yul\":24742:24745   */\n      dup3\n        /* \"#utility.yul\":24653:24746   */\n      tag_410\n      jump\t// in\n    tag_684:\n        /* \"#utility.yul\":24771:24773   */\n      0x0a\n        /* \"#utility.yul\":24766:24769   */\n      dup3\n        /* \"#utility.yul\":24762:24774   */\n      add\n        /* \"#utility.yul\":24755:24774   */\n      swap1\n      pop\n        /* \"#utility.yul\":24378:24780   */\n      swap2\n      swap1\n      pop\n      jump\t// out\n        /* \"#utility.yul\":24786:25167   */\n    tag_192:\n        /* \"#utility.yul\":24971:24974   */\n      0x00\n        /* \"#utility.yul\":24993:25141   */\n      tag_686\n        /* \"#utility.yul\":25137:25140   */\n      dup3\n        /* \"#utility.yul\":24993:25141   */\n      tag_411\n      jump\t// in\n    tag_686:\n        /* \"#utility.yul\":24986:25141   */\n      swap2\n      pop\n        /* \"#utility.yul\":25158:25161   */\n      dup2\n        /* \"#utility.yul\":25151:25161   */\n      swap1\n      pop\n        /* \"#utility.yul\":24786:25167   */\n      swap2\n      swap1\n      pop\n      jump\t// out\n        /* \"#utility.yul\":25173:25353   */\n    tag_210:\n        /* \"#utility.yul\":25221:25298   */\n      0x4e487b7100000000000000000000000000000000000000000000000000000000\n        /* \"#utility.yul\":25218:25219   */\n      0x00\n        /* \"#utility.yul\":25211:25299   */\n      mstore\n        /* \"#utility.yul\":25318:25322   */\n      0x32\n        /* \"#utility.yul\":25315:25316   */\n      0x04\n        /* \"#utility.yul\":25308:25323   */\n      mstore\n        /* \"#utility.yul\":25342:25346   */\n      0x24\n        /* \"#utility.yul\":25339:25340   */\n      0x00\n        /* \"#utility.yul\":25332:25347   */\n      revert\n        /* \"#utility.yul\":25359:25522   */\n    tag_412:\n        /* \"#utility.yul\":25499:25514   */\n      0x73696c7665722d736869656c6400000000000000000000000000000000000000\n        /* \"#utility.yul\":25495:25496   */\n      0x00\n        /* \"#utility.yul\":25487:25493   */\n      dup3\n        /* \"#utility.yul\":25483:25497   */\n      add\n        /* \"#utility.yul\":25476:25515   */\n      mstore\n        /* \"#utility.yul\":25359:25522   */\n      pop\n      jump\t// out\n        /* \"#utility.yul\":25528:25930   */\n    tag_413:\n        /* \"#utility.yul\":25688:25691   */\n      0x00\n        /* \"#utility.yul\":25709:25794   */\n      tag_690\n        /* \"#utility.yul\":25791:25793   */\n      0x0d\n        /* \"#utility.yul\":25786:25789   */\n      dup4\n        /* \"#utility.yul\":25709:25794   */\n      tag_386\n      jump\t// in\n    tag_690:\n        /* \"#utility.yul\":25702:25794   */\n      swap2\n      pop\n        /* \"#utility.yul\":25803:25896   */\n      tag_691\n        /* \"#utility.yul\":25892:25895   */\n      dup3\n        /* \"#utility.yul\":25803:25896   */\n      tag_412\n      jump\t// in\n    tag_691:\n        /* \"#utility.yul\":25921:25923   */\n      0x0d\n        /* \"#utility.yul\":25916:25919   */\n      dup3\n        /* \"#utility.yul\":25912:25924   */\n      add\n        /* \"#utility.yul\":25905:25924   */\n      swap1\n      pop\n        /* \"#utility.yul\":25528:25930   */\n      swap2\n      swap1\n      pop\n      jump\t// out\n        /* \"#utility.yul\":25936:26317   */\n    tag_212:\n        /* \"#utility.yul\":26121:26124   */\n      0x00\n        /* \"#utility.yul\":26143:26291   */\n      tag_693\n        /* \"#utility.yul\":26287:26290   */\n      dup3\n        /* \"#utility.yul\":26143:26291   */\n      tag_413\n      jump\t// in\n    tag_693:\n        /* \"#utility.yul\":26136:26291   */\n      swap2\n      pop\n        /* \"#utility.yul\":26308:26311   */\n      dup2\n        /* \"#utility.yul\":26301:26311   */\n      swap1\n      pop\n        /* \"#utility.yul\":25936:26317   */\n      swap2\n      swap1\n      pop\n      jump\t// out\n        /* \"#utility.yul\":26323:26487   */\n    tag_414:\n        /* \"#utility.yul\":26463:26479   */\n      0x6865616c696e672d706f74696f6e000000000000000000000000000000000000\n        /* \"#utility.yul\":26459:26460   */\n      0x00\n        /* \"#utility.yul\":26451:26457   */\n      dup3\n        /* \"#utility.yul\":26447:26461   */\n      add\n        /* \"#utility.yul\":26440:26480   */\n      mstore\n        /* \"#utility.yul\":26323:26487   */\n      pop\n      jump\t// out\n        /* \"#utility.yul\":26493:26895   */\n    tag_415:\n        /* \"#utility.yul\":26653:26656   */\n      0x00\n        /* \"#utility.yul\":26674:26759   */\n      tag_696\n        /* \"#utility.yul\":26756:26758   */\n      0x0e\n        /* \"#utility.yul\":26751:26754   */\n      dup4\n        /* \"#utility.yul\":26674:26759   */\n      tag_386\n      jump\t// in\n    tag_696:\n        /* \"#utility.yul\":26667:26759   */\n      swap2\n      pop\n        /* \"#utility.yul\":26768:26861   */\n      tag_697\n        /* \"#utility.yul\":26857:26860   */\n      dup3\n        /* \"#utility.yul\":26768:26861   */\n      tag_414\n      jump\t// in\n    tag_697:\n        /* \"#utility.yul\":26886:26888   */\n      0x0e\n        /* \"#utility.yul\":26881:26884   */\n      dup3\n        /* \"#utility.yul\":26877:26889   */\n      add\n        /* \"#utility.yul\":26870:26889   */\n      swap1\n      pop\n        /* \"#utility.yul\":26493:26895   */\n      swap2\n      swap1\n      pop\n      jump\t// out\n        /* \"#utility.yul\":26901:27282   */\n    tag_231:\n        /* \"#utility.yul\":27086:27089   */\n      0x00\n        /* \"#utility.yul\":27108:27256   */\n      tag_699\n        /* \"#utility.yul\":27252:27255   */\n      dup3\n        /* \"#utility.yul\":27108:27256   */\n      tag_415\n      jump\t// in\n    tag_699:\n        /* \"#utility.yul\":27101:27256   */\n      swap2\n      pop\n        /* \"#utility.yul\":27273:27276   */\n      dup2\n        /* \"#utility.yul\":27266:27276   */\n      swap1\n      pop\n        /* \"#utility.yul\":26901:27282   */\n      swap2\n      swap1\n      pop\n      jump\t// out\n        /* \"#utility.yul\":27288:27512   */\n    tag_416:\n        /* \"#utility.yul\":27428:27462   */\n      0x45524332303a2064656372656173656420616c6c6f77616e63652062656c6f77\n        /* \"#utility.yul\":27424:27425   */\n      0x00\n        /* \"#utility.yul\":27416:27422   */\n      dup3\n        /* \"#utility.yul\":27412:27426   */\n      add\n        /* \"#utility.yul\":27405:27463   */\n      mstore\n        /* \"#utility.yul\":27497:27504   */\n      0x207a65726f000000000000000000000000000000000000000000000000000000\n        /* \"#utility.yul\":27492:27494   */\n      0x20\n        /* \"#utility.yul\":27484:27490   */\n      dup3\n        /* \"#utility.yul\":27480:27495   */\n      add\n        /* \"#utility.yul\":27473:27505   */\n      mstore\n        /* \"#utility.yul\":27288:27512   */\n      pop\n      jump\t// out\n        /* \"#utility.yul\":27518:27884   */\n    tag_417:\n        /* \"#utility.yul\":27660:27663   */\n      0x00\n        /* \"#utility.yul\":27681:27748   */\n      tag_702\n        /* \"#utility.yul\":27745:27747   */\n      0x25\n        /* \"#utility.yul\":27740:27743   */\n      dup4\n        /* \"#utility.yul\":27681:27748   */\n      tag_347\n      jump\t// in\n    tag_702:\n        /* \"#utility.yul\":27674:27748   */\n      swap2\n      pop\n        /* \"#utility.yul\":27757:27850   */\n      tag_703\n        /* \"#utility.yul\":27846:27849   */\n      dup3\n        /* \"#utility.yul\":27757:27850   */\n      tag_416\n      jump\t// in\n    tag_703:\n        /* \"#utility.yul\":27875:27877   */\n      0x40\n        /* \"#utility.yul\":27870:27873   */\n      dup3\n        /* \"#utility.yul\":27866:27878   */\n      add\n        /* \"#utility.yul\":27859:27878   */\n      swap1\n      pop\n        /* \"#utility.yul\":27518:27884   */\n      swap2\n      swap1\n      pop\n      jump\t// out\n        /* \"#utility.yul\":27890:28309   */\n    tag_267:\n        /* \"#utility.yul\":28056:28060   */\n      0x00\n        /* \"#utility.yul\":28094:28096   */\n      0x20\n        /* \"#utility.yul\":28083:28092   */\n      dup3\n        /* \"#utility.yul\":28079:28097   */\n      add\n        /* \"#utility.yul\":28071:28097   */\n      swap1\n      pop\n        /* \"#utility.yul\":28143:28152   */\n      dup2\n        /* \"#utility.yul\":28137:28141   */\n      dup2\n        /* \"#utility.yul\":28133:28153   */\n      sub\n        /* \"#utility.yul\":28129:28130   */\n      0x00\n        /* \"#utility.yul\":28118:28127   */\n      dup4\n        /* \"#utility.yul\":28114:28131   */\n      add\n        /* \"#utility.yul\":28107:28154   */\n      mstore\n        /* \"#utility.yul\":28171:28302   */\n      tag_705\n        /* \"#utility.yul\":28297:28301   */\n      dup2\n        /* \"#utility.yul\":28171:28302   */\n      tag_417\n      jump\t// in\n    tag_705:\n        /* \"#utility.yul\":28163:28302   */\n      swap1\n      pop\n        /* \"#utility.yul\":27890:28309   */\n      swap2\n      swap1\n      pop\n      jump\t// out\n        /* \"#utility.yul\":28315:28540   */\n    tag_418:\n        /* \"#utility.yul\":28455:28489   */\n      0x4f776e61626c653a206e6577206f776e657220697320746865207a65726f2061\n        /* \"#utility.yul\":28451:28452   */\n      0x00\n        /* \"#utility.yul\":28443:28449   */\n      dup3\n        /* \"#utility.yul\":28439:28453   */\n      add\n        /* \"#utility.yul\":28432:28490   */\n      mstore\n        /* \"#utility.yul\":28524:28532   */\n      0x6464726573730000000000000000000000000000000000000000000000000000\n        /* \"#utility.yul\":28519:28521   */\n      0x20\n        /* \"#utility.yul\":28511:28517   */\n      dup3\n        /* \"#utility.yul\":28507:28522   */\n      add\n        /* \"#utility.yul\":28500:28533   */\n      mstore\n        /* \"#utility.yul\":28315:28540   */\n      pop\n      jump\t// out\n        /* \"#utility.yul\":28546:28912   */\n    tag_419:\n        /* \"#utility.yul\":28688:28691   */\n      0x00\n        /* \"#utility.yul\":28709:28776   */\n      tag_708\n        /* \"#utility.yul\":28773:28775   */\n      0x26\n        /* \"#utility.yul\":28768:28771   */\n      dup4\n        /* \"#utility.yul\":28709:28776   */\n      tag_347\n      jump\t// in\n    tag_708:\n        /* \"#utility.yul\":28702:28776   */\n      swap2\n      pop\n        /* \"#utility.yul\":28785:28878   */\n      tag_709\n        /* \"#utility.yul\":28874:28877   */\n      dup3\n        /* \"#utility.yul\":28785:28878   */\n      tag_418\n      jump\t// in\n    tag_709:\n        /* \"#utility.yul\":28903:28905   */\n      0x40\n        /* \"#utility.yul\":28898:28901   */\n      dup3\n        /* \"#utility.yul\":28894:28906   */\n      add\n        /* \"#utility.yul\":28887:28906   */\n      swap1\n      pop\n        /* \"#utility.yul\":28546:28912   */\n      swap2\n      swap1\n      pop\n      jump\t// out\n        /* \"#utility.yul\":28918:29337   */\n    tag_283:\n        /* \"#utility.yul\":29084:29088   */\n      0x00\n        /* \"#utility.yul\":29122:29124   */\n      0x20\n        /* \"#utility.yul\":29111:29120   */\n      dup3\n        /* \"#utility.yul\":29107:29125   */\n      add\n        /* \"#utility.yul\":29099:29125   */\n      swap1\n      pop\n        /* \"#utility.yul\":29171:29180   */\n      dup2\n        /* \"#utility.yul\":29165:29169   */\n      dup2\n        /* \"#utility.yul\":29161:29181   */\n      sub\n        /* \"#utility.yul\":29157:29158   */\n      0x00\n        /* \"#utility.yul\":29146:29155   */\n      dup4\n        /* \"#utility.yul\":29142:29159   */\n      add\n        /* \"#utility.yul\":29135:29182   */\n      mstore\n        /* \"#utility.yul\":29199:29330   */\n      tag_711\n        /* \"#utility.yul\":29325:29329   */\n      dup2\n        /* \"#utility.yul\":29199:29330   */\n      tag_419\n      jump\t// in\n    tag_711:\n        /* \"#utility.yul\":29191:29330   */\n      swap1\n      pop\n        /* \"#utility.yul\":28918:29337   */\n      swap2\n      swap1\n      pop\n      jump\t// out\n        /* \"#utility.yul\":29343:29566   */\n    tag_420:\n        /* \"#utility.yul\":29483:29517   */\n      0x45524332303a20617070726f76652066726f6d20746865207a65726f20616464\n        /* \"#utility.yul\":29479:29480   */\n      0x00\n        /* \"#utility.yul\":29471:29477   */\n      dup3\n        /* \"#utility.yul\":29467:29481   */\n      add\n        /* \"#utility.yul\":29460:29518   */\n      mstore\n        /* \"#utility.yul\":29552:29558   */\n      0x7265737300000000000000000000000000000000000000000000000000000000\n        /* \"#utility.yul\":29547:29549   */\n      0x20\n        /* \"#utility.yul\":29539:29545   */\n      dup3\n        /* \"#utility.yul\":29535:29550   */\n      add\n        /* \"#utility.yul\":29528:29559   */\n      mstore\n        /* \"#utility.yul\":29343:29566   */\n      pop\n      jump\t// out\n        /* \"#utility.yul\":29572:29938   */\n    tag_421:\n        /* \"#utility.yul\":29714:29717   */\n      0x00\n        /* \"#utility.yul\":29735:29802   */\n      tag_714\n        /* \"#utility.yul\":29799:29801   */\n      0x24\n        /* \"#utility.yul\":29794:29797   */\n      dup4\n        /* \"#utility.yul\":29735:29802   */\n      tag_347\n      jump\t// in\n    tag_714:\n        /* \"#utility.yul\":29728:29802   */\n      swap2\n      pop\n        /* \"#utility.yul\":29811:29904   */\n      tag_715\n        /* \"#utility.yul\":29900:29903   */\n      dup3\n        /* \"#utility.yul\":29811:29904   */\n      tag_420\n      jump\t// in\n    tag_715:\n        /* \"#utility.yul\":29929:29931   */\n      0x40\n        /* \"#utility.yul\":29924:29927   */\n      dup3\n        /* \"#utility.yul\":29920:29932   */\n      add\n        /* \"#utility.yul\":29913:29932   */\n      swap1\n      pop\n        /* \"#utility.yul\":29572:29938   */\n      swap2\n      swap1\n      pop\n      jump\t// out\n        /* \"#utility.yul\":29944:30363   */\n    tag_289:\n        /* \"#utility.yul\":30110:30114   */\n      0x00\n        /* \"#utility.yul\":30148:30150   */\n      0x20\n        /* \"#utility.yul\":30137:30146   */\n      dup3\n        /* \"#utility.yul\":30133:30151   */\n      add\n        /* \"#utility.yul\":30125:30151   */\n      swap1\n      pop\n        /* \"#utility.yul\":30197:30206   */\n      dup2\n        /* \"#utility.yul\":30191:30195   */\n      dup2\n        /* \"#utility.yul\":30187:30207   */\n      sub\n        /* \"#utility.yul\":30183:30184   */\n      0x00\n        /* \"#utility.yul\":30172:30181   */\n      dup4\n        /* \"#utility.yul\":30168:30185   */\n      add\n        /* \"#utility.yul\":30161:30208   */\n      mstore\n        /* \"#utility.yul\":30225:30356   */\n      tag_717\n        /* \"#utility.yul\":30351:30355   */\n      dup2\n        /* \"#utility.yul\":30225:30356   */\n      tag_421\n      jump\t// in\n    tag_717:\n        /* \"#utility.yul\":30217:30356   */\n      swap1\n      pop\n        /* \"#utility.yul\":29944:30363   */\n      swap2\n      swap1\n      pop\n      jump\t// out\n        /* \"#utility.yul\":30369:30590   */\n    tag_422:\n        /* \"#utility.yul\":30509:30543   */\n      0x45524332303a20617070726f766520746f20746865207a65726f206164647265\n        /* \"#utility.yul\":30505:30506   */\n      0x00\n        /* \"#utility.yul\":30497:30503   */\n      dup3\n        /* \"#utility.yul\":30493:30507   */\n      add\n        /* \"#utility.yul\":30486:30544   */\n      mstore\n        /* \"#utility.yul\":30578:30582   */\n      0x7373000000000000000000000000000000000000000000000000000000000000\n        /* \"#utility.yul\":30573:30575   */\n      0x20\n        /* \"#utility.yul\":30565:30571   */\n      dup3\n        /* \"#utility.yul\":30561:30576   */\n      add\n        /* \"#utility.yul\":30554:30583   */\n      mstore\n        /* \"#utility.yul\":30369:30590   */\n      pop\n      jump\t// out\n        /* \"#utility.yul\":30596:30962   */\n    tag_423:\n        /* \"#utility.yul\":30738:30741   */\n      0x00\n        /* \"#utility.yul\":30759:30826   */\n      tag_720\n        /* \"#utility.yul\":30823:30825   */\n      0x22\n        /* \"#utility.yul\":30818:30821   */\n      dup4\n        /* \"#utility.yul\":30759:30826   */\n      tag_347\n      jump\t// in\n    tag_720:\n        /* \"#utility.yul\":30752:30826   */\n      swap2\n      pop\n        /* \"#utility.yul\":30835:30928   */\n      tag_721\n        /* \"#utility.yul\":30924:30927   */\n      dup3\n        /* \"#utility.yul\":30835:30928   */\n      tag_422\n      jump\t// in\n    tag_721:\n        /* \"#utility.yul\":30953:30955   */\n      0x40\n        /* \"#utility.yul\":30948:30951   */\n      dup3\n        /* \"#utility.yul\":30944:30956   */\n      add\n        /* \"#utility.yul\":30937:30956   */\n      swap1\n      pop\n        /* \"#utility.yul\":30596:30962   */\n      swap2\n      swap1\n      pop\n      jump\t// out\n        /* \"#utility.yul\":30968:31387   */\n    tag_292:\n        /* \"#utility.yul\":31134:31138   */\n      0x00\n        /* \"#utility.yul\":31172:31174   */\n      0x20\n        /* \"#utility.yul\":31161:31170   */\n      dup3\n        /* \"#utility.yul\":31157:31175   */\n      add\n        /* \"#utility.yul\":31149:31175   */\n      swap1\n      pop\n        /* \"#utility.yul\":31221:31230   */\n      dup2\n        /* \"#utility.yul\":31215:31219   */\n      dup2\n        /* \"#utility.yul\":31211:31231   */\n      sub\n        /* \"#utility.yul\":31207:31208   */\n      0x00\n        /* \"#utility.yul\":31196:31205   */\n      dup4\n        /* \"#utility.yul\":31192:31209   */\n      add\n        /* \"#utility.yul\":31185:31232   */\n      mstore\n        /* \"#utility.yul\":31249:31380   */\n      tag_723\n        /* \"#utility.yul\":31375:31379   */\n      dup2\n        /* \"#utility.yul\":31249:31380   */\n      tag_423\n      jump\t// in\n    tag_723:\n        /* \"#utility.yul\":31241:31380   */\n      swap1\n      pop\n        /* \"#utility.yul\":30968:31387   */\n      swap2\n      swap1\n      pop\n      jump\t// out\n        /* \"#utility.yul\":31393:31613   */\n    tag_424:\n        /* \"#utility.yul\":31533:31567   */\n      0x45524332303a206275726e2066726f6d20746865207a65726f20616464726573\n        /* \"#utility.yul\":31529:31530   */\n      0x00\n        /* \"#utility.yul\":31521:31527   */\n      dup3\n        /* \"#utility.yul\":31517:31531   */\n      add\n        /* \"#utility.yul\":31510:31568   */\n      mstore\n        /* \"#utility.yul\":31602:31605   */\n      0x7300000000000000000000000000000000000000000000000000000000000000\n        /* \"#utility.yul\":31597:31599   */\n      0x20\n        /* \"#utility.yul\":31589:31595   */\n      dup3\n        /* \"#utility.yul\":31585:31600   */\n      add\n        /* \"#utility.yul\":31578:31606   */\n      mstore\n        /* \"#utility.yul\":31393:31613   */\n      pop\n      jump\t// out\n        /* \"#utility.yul\":31619:31985   */\n    tag_425:\n        /* \"#utility.yul\":31761:31764   */\n      0x00\n        /* \"#utility.yul\":31782:31849   */\n      tag_726\n        /* \"#utility.yul\":31846:31848   */\n      0x21\n        /* \"#utility.yul\":31841:31844   */\n      dup4\n        /* \"#utility.yul\":31782:31849   */\n      tag_347\n      jump\t// in\n    tag_726:\n        /* \"#utility.yul\":31775:31849   */\n      swap2\n      pop\n        /* \"#utility.yul\":31858:31951   */\n      tag_727\n        /* \"#utility.yul\":31947:31950   */\n      dup3\n        /* \"#utility.yul\":31858:31951   */\n      tag_424\n      jump\t// in\n    tag_727:\n        /* \"#utility.yul\":31976:31978   */\n      0x40\n        /* \"#utility.yul\":31971:31974   */\n      dup3\n        /* \"#utility.yul\":31967:31979   */\n      add\n        /* \"#utility.yul\":31960:31979   */\n      swap1\n      pop\n        /* \"#utility.yul\":31619:31985   */\n      swap2\n      swap1\n      pop\n      jump\t// out\n        /* \"#utility.yul\":31991:32410   */\n    tag_297:\n        /* \"#utility.yul\":32157:32161   */\n      0x00\n        /* \"#utility.yul\":32195:32197   */\n      0x20\n        /* \"#utility.yul\":32184:32193   */\n      dup3\n        /* \"#utility.yul\":32180:32198   */\n      add\n        /* \"#utility.yul\":32172:32198   */\n      swap1\n      pop\n        /* \"#utility.yul\":32244:32253   */\n      dup2\n        /* \"#utility.yul\":32238:32242   */\n      dup2\n        /* \"#utility.yul\":32234:32254   */\n      sub\n        /* \"#utility.yul\":32230:32231   */\n      0x00\n        /* \"#utility.yul\":32219:32228   */\n      dup4\n        /* \"#utility.yul\":32215:32232   */\n      add\n        /* \"#utility.yul\":32208:32255   */\n      mstore\n        /* \"#utility.yul\":32272:32403   */\n      tag_729\n        /* \"#utility.yul\":32398:32402   */\n      dup2\n        /* \"#utility.yul\":32272:32403   */\n      tag_425\n      jump\t// in\n    tag_729:\n        /* \"#utility.yul\":32264:32403   */\n      swap1\n      pop\n        /* \"#utility.yul\":31991:32410   */\n      swap2\n      swap1\n      pop\n      jump\t// out\n        /* \"#utility.yul\":32416:32637   */\n    tag_426:\n        /* \"#utility.yul\":32556:32590   */\n      0x45524332303a206275726e20616d6f756e7420657863656564732062616c616e\n        /* \"#utility.yul\":32552:32553   */\n      0x00\n        /* \"#utility.yul\":32544:32550   */\n      dup3\n        /* \"#utility.yul\":32540:32554   */\n      add\n        /* \"#utility.yul\":32533:32591   */\n      mstore\n        /* \"#utility.yul\":32625:32629   */\n      0x6365000000000000000000000000000000000000000000000000000000000000\n        /* \"#utility.yul\":32620:32622   */\n      0x20\n        /* \"#utility.yul\":32612:32618   */\n      dup3\n        /* \"#utility.yul\":32608:32623   */\n      add\n        /* \"#utility.yul\":32601:32630   */\n      mstore\n        /* \"#utility.yul\":32416:32637   */\n      pop\n      jump\t// out\n        /* \"#utility.yul\":32643:33009   */\n    tag_427:\n        /* \"#utility.yul\":32785:32788   */\n      0x00\n        /* \"#utility.yul\":32806:32873   */\n      tag_732\n        /* \"#utility.yul\":32870:32872   */\n      0x22\n        /* \"#utility.yul\":32865:32868   */\n      dup4\n        /* \"#utility.yul\":32806:32873   */\n      tag_347\n      jump\t// in\n    tag_732:\n        /* \"#utility.yul\":32799:32873   */\n      swap2\n      pop\n        /* \"#utility.yul\":32882:32975   */\n      tag_733\n        /* \"#utility.yul\":32971:32974   */\n      dup3\n        /* \"#utility.yul\":32882:32975   */\n      tag_426\n      jump\t// in\n    tag_733:\n        /* \"#utility.yul\":33000:33002   */\n      0x40\n        /* \"#utility.yul\":32995:32998   */\n      dup3\n        /* \"#utility.yul\":32991:33003   */\n      add\n        /* \"#utility.yul\":32984:33003   */\n      swap1\n      pop\n        /* \"#utility.yul\":32643:33009   */\n      swap2\n      swap1\n      pop\n      jump\t// out\n        /* \"#utility.yul\":33015:33434   */\n    tag_302:\n        /* \"#utility.yul\":33181:33185   */\n      0x00\n        /* \"#utility.yul\":33219:33221   */\n      0x20\n        /* \"#utility.yul\":33208:33217   */\n      dup3\n        /* \"#utility.yul\":33204:33222   */\n      add\n        /* \"#utility.yul\":33196:33222   */\n      swap1\n      pop\n        /* \"#utility.yul\":33268:33277   */\n      dup2\n        /* \"#utility.yul\":33262:33266   */\n      dup2\n        /* \"#utility.yul\":33258:33278   */\n      sub\n        /* \"#utility.yul\":33254:33255   */\n      0x00\n        /* \"#utility.yul\":33243:33252   */\n      dup4\n        /* \"#utility.yul\":33239:33256   */\n      add\n        /* \"#utility.yul\":33232:33279   */\n      mstore\n        /* \"#utility.yul\":33296:33427   */\n      tag_735\n        /* \"#utility.yul\":33422:33426   */\n      dup2\n        /* \"#utility.yul\":33296:33427   */\n      tag_427\n      jump\t// in\n    tag_735:\n        /* \"#utility.yul\":33288:33427   */\n      swap1\n      pop\n        /* \"#utility.yul\":33015:33434   */\n      swap2\n      swap1\n      pop\n      jump\t// out\n        /* \"#utility.yul\":33440:33622   */\n    tag_428:\n        /* \"#utility.yul\":33580:33614   */\n      0x4f776e61626c653a2063616c6c6572206973206e6f7420746865206f776e6572\n        /* \"#utility.yul\":33576:33577   */\n      0x00\n        /* \"#utility.yul\":33568:33574   */\n      dup3\n        /* \"#utility.yul\":33564:33578   */\n      add\n        /* \"#utility.yul\":33557:33615   */\n      mstore\n        /* \"#utility.yul\":33440:33622   */\n      pop\n      jump\t// out\n        /* \"#utility.yul\":33628:33994   */\n    tag_429:\n        /* \"#utility.yul\":33770:33773   */\n      0x00\n        /* \"#utility.yul\":33791:33858   */\n      tag_738\n        /* \"#utility.yul\":33855:33857   */\n      0x20\n        /* \"#utility.yul\":33850:33853   */\n      dup4\n        /* \"#utility.yul\":33791:33858   */\n      tag_347\n      jump\t// in\n    tag_738:\n        /* \"#utility.yul\":33784:33858   */\n      swap2\n      pop\n        /* \"#utility.yul\":33867:33960   */\n      tag_739\n        /* \"#utility.yul\":33956:33959   */\n      dup3\n        /* \"#utility.yul\":33867:33960   */\n      tag_428\n      jump\t// in\n    tag_739:\n        /* \"#utility.yul\":33985:33987   */\n      0x20\n        /* \"#utility.yul\":33980:33983   */\n      dup3\n        /* \"#utility.yul\":33976:33988   */\n      add\n        /* \"#utility.yul\":33969:33988   */\n      swap1\n      pop\n        /* \"#utility.yul\":33628:33994   */\n      swap2\n      swap1\n      pop\n      jump\t// out\n        /* \"#utility.yul\":34000:34419   */\n    tag_311:\n        /* \"#utility.yul\":34166:34170   */\n      0x00\n        /* \"#utility.yul\":34204:34206   */\n      0x20\n        /* \"#utility.yul\":34193:34202   */\n      dup3\n        /* \"#utility.yul\":34189:34207   */\n      add\n        /* \"#utility.yul\":34181:34207   */\n      swap1\n      pop\n        /* \"#utility.yul\":34253:34262   */\n      dup2\n        /* \"#utility.yul\":34247:34251   */\n      dup2\n        /* \"#utility.yul\":34243:34263   */\n      sub\n        /* \"#utility.yul\":34239:34240   */\n      0x00\n        /* \"#utility.yul\":34228:34237   */\n      dup4\n        /* \"#utility.yul\":34224:34241   */\n      add\n        /* \"#utility.yul\":34217:34264   */\n      mstore\n        /* \"#utility.yul\":34281:34412   */\n      tag_741\n        /* \"#utility.yul\":34407:34411   */\n      dup2\n        /* \"#utility.yul\":34281:34412   */\n      tag_429\n      jump\t// in\n    tag_741:\n        /* \"#utility.yul\":34273:34412   */\n      swap1\n      pop\n        /* \"#utility.yul\":34000:34419   */\n      swap2\n      swap1\n      pop\n      jump\t// out\n        /* \"#utility.yul\":34425:34604   */\n    tag_430:\n        /* \"#utility.yul\":34565:34596   */\n      0x45524332303a20696e73756666696369656e7420616c6c6f77616e6365000000\n        /* \"#utility.yul\":34561:34562   */\n      0x00\n        /* \"#utility.yul\":34553:34559   */\n      dup3\n        /* \"#utility.yul\":34549:34563   */\n      add\n        /* \"#utility.yul\":34542:34597   */\n      mstore\n        /* \"#utility.yul\":34425:34604   */\n      pop\n      jump\t// out\n        /* \"#utility.yul\":34610:34976   */\n    tag_431:\n        /* \"#utility.yul\":34752:34755   */\n      0x00\n        /* \"#utility.yul\":34773:34840   */\n      tag_744\n        /* \"#utility.yul\":34837:34839   */\n      0x1d\n        /* \"#utility.yul\":34832:34835   */\n      dup4\n        /* \"#utility.yul\":34773:34840   */\n      tag_347\n      jump\t// in\n    tag_744:\n        /* \"#utility.yul\":34766:34840   */\n      swap2\n      pop\n        /* \"#utility.yul\":34849:34942   */\n      tag_745\n        /* \"#utility.yul\":34938:34941   */\n      dup3\n        /* \"#utility.yul\":34849:34942   */\n      tag_430\n      jump\t// in\n    tag_745:\n        /* \"#utility.yul\":34967:34969   */\n      0x20\n        /* \"#utility.yul\":34962:34965   */\n      dup3\n        /* \"#utility.yul\":34958:34970   */\n      add\n        /* \"#utility.yul\":34951:34970   */\n      swap1\n      pop\n        /* \"#utility.yul\":34610:34976   */\n      swap2\n      swap1\n      pop\n      jump\t// out\n        /* \"#utility.yul\":34982:35401   */\n    tag_317:\n        /* \"#utility.yul\":35148:35152   */\n      0x00\n        /* \"#utility.yul\":35186:35188   */\n      0x20\n        /* \"#utility.yul\":35175:35184   */\n      dup3\n        /* \"#utility.yul\":35171:35189   */\n      add\n        /* \"#utility.yul\":35163:35189   */\n      swap1\n      pop\n        /* \"#utility.yul\":35235:35244   */\n      dup2\n        /* \"#utility.yul\":35229:35233   */\n      dup2\n        /* \"#utility.yul\":35225:35245   */\n      sub\n        /* \"#utility.yul\":35221:35222   */\n      0x00\n        /* \"#utility.yul\":35210:35219   */\n      dup4\n        /* \"#utility.yul\":35206:35223   */\n      add\n        /* \"#utility.yul\":35199:35246   */\n      mstore\n        /* \"#utility.yul\":35263:35394   */\n      tag_747\n        /* \"#utility.yul\":35389:35393   */\n      dup2\n        /* \"#utility.yul\":35263:35394   */\n      tag_431\n      jump\t// in\n    tag_747:\n        /* \"#utility.yul\":35255:35394   */\n      swap1\n      pop\n        /* \"#utility.yul\":34982:35401   */\n      swap2\n      swap1\n      pop\n      jump\t// out\n        /* \"#utility.yul\":35407:35631   */\n    tag_432:\n        /* \"#utility.yul\":35547:35581   */\n      0x45524332303a207472616e736665722066726f6d20746865207a65726f206164\n        /* \"#utility.yul\":35543:35544   */\n      0x00\n        /* \"#utility.yul\":35535:35541   */\n      dup3\n        /* \"#utility.yul\":35531:35545   */\n      add\n        /* \"#utility.yul\":35524:35582   */\n      mstore\n        /* \"#utility.yul\":35616:35623   */\n      0x6472657373000000000000000000000000000000000000000000000000000000\n        /* \"#utility.yul\":35611:35613   */\n      0x20\n        /* \"#utility.yul\":35603:35609   */\n      dup3\n        /* \"#utility.yul\":35599:35614   */\n      add\n        /* \"#utility.yul\":35592:35624   */\n      mstore\n        /* \"#utility.yul\":35407:35631   */\n      pop\n      jump\t// out\n        /* \"#utility.yul\":35637:36003   */\n    tag_433:\n        /* \"#utility.yul\":35779:35782   */\n      0x00\n        /* \"#utility.yul\":35800:35867   */\n      tag_750\n        /* \"#utility.yul\":35864:35866   */\n      0x25\n        /* \"#utility.yul\":35859:35862   */\n      dup4\n        /* \"#utility.yul\":35800:35867   */\n      tag_347\n      jump\t// in\n    tag_750:\n        /* \"#utility.yul\":35793:35867   */\n      swap2\n      pop\n        /* \"#utility.yul\":35876:35969   */\n      tag_751\n        /* \"#utility.yul\":35965:35968   */\n      dup3\n        /* \"#utility.yul\":35876:35969   */\n      tag_432\n      jump\t// in\n    tag_751:\n        /* \"#utility.yul\":35994:35996   */\n      0x40\n        /* \"#utility.yul\":35989:35992   */\n      dup3\n        /* \"#utility.yul\":35985:35997   */\n      add\n        /* \"#utility.yul\":35978:35997   */\n      swap1\n      pop\n        /* \"#utility.yul\":35637:36003   */\n      swap2\n      swap1\n      pop\n      jump\t// out\n        /* \"#utility.yul\":36009:36428   */\n    tag_322:\n        /* \"#utility.yul\":36175:36179   */\n      0x00\n        /* \"#utility.yul\":36213:36215   */\n      0x20\n        /* \"#utility.yul\":36202:36211   */\n      dup3\n        /* \"#utility.yul\":36198:36216   */\n      add\n        /* \"#utility.yul\":36190:36216   */\n      swap1\n      pop\n        /* \"#utility.yul\":36262:36271   */\n      dup2\n        /* \"#utility.yul\":36256:36260   */\n      dup2\n        /* \"#utility.yul\":36252:36272   */\n      sub\n        /* \"#utility.yul\":36248:36249   */\n      0x00\n        /* \"#utility.yul\":36237:36246   */\n      dup4\n        /* \"#utility.yul\":36233:36250   */\n      add\n        /* \"#utility.yul\":36226:36273   */\n      mstore\n        /* \"#utility.yul\":36290:36421   */\n      tag_753\n        /* \"#utility.yul\":36416:36420   */\n      dup2\n        /* \"#utility.yul\":36290:36421   */\n      tag_433\n      jump\t// in\n    tag_753:\n        /* \"#utility.yul\":36282:36421   */\n      swap1\n      pop\n        /* \"#utility.yul\":36009:36428   */\n      swap2\n      swap1\n      pop\n      jump\t// out\n        /* \"#utility.yul\":36434:36656   */\n    tag_434:\n        /* \"#utility.yul\":36574:36608   */\n      0x45524332303a207472616e7366657220746f20746865207a65726f2061646472\n        /* \"#utility.yul\":36570:36571   */\n      0x00\n        /* \"#utility.yul\":36562:36568   */\n      dup3\n        /* \"#utility.yul\":36558:36572   */\n      add\n        /* \"#utility.yul\":36551:36609   */\n      mstore\n        /* \"#utility.yul\":36643:36648   */\n      0x6573730000000000000000000000000000000000000000000000000000000000\n        /* \"#utility.yul\":36638:36640   */\n      0x20\n        /* \"#utility.yul\":36630:36636   */\n      dup3\n        /* \"#utility.yul\":36626:36641   */\n      add\n        /* \"#utility.yul\":36619:36649   */\n      mstore\n        /* \"#utility.yul\":36434:36656   */\n      pop\n      jump\t// out\n        /* \"#utility.yul\":36662:37028   */\n    tag_435:\n        /* \"#utility.yul\":36804:36807   */\n      0x00\n        /* \"#utility.yul\":36825:36892   */\n      tag_756\n        /* \"#utility.yul\":36889:36891   */\n      0x23\n        /* \"#utility.yul\":36884:36887   */\n      dup4\n        /* \"#utility.yul\":36825:36892   */\n      tag_347\n      jump\t// in\n    tag_756:\n        /* \"#utility.yul\":36818:36892   */\n      swap2\n      pop\n        /* \"#utility.yul\":36901:36994   */\n      tag_757\n        /* \"#utility.yul\":36990:36993   */\n      dup3\n        /* \"#utility.yul\":36901:36994   */\n      tag_434\n      jump\t// in\n    tag_757:\n        /* \"#utility.yul\":37019:37021   */\n      0x40\n        /* \"#utility.yul\":37014:37017   */\n      dup3\n        /* \"#utility.yul\":37010:37022   */\n      add\n        /* \"#utility.yul\":37003:37022   */\n      swap1\n      pop\n        /* \"#utility.yul\":36662:37028   */\n      swap2\n      swap1\n      pop\n      jump\t// out\n        /* \"#utility.yul\":37034:37453   */\n    tag_325:\n        /* \"#utility.yul\":37200:37204   */\n      0x00\n        /* \"#utility.yul\":37238:37240   */\n      0x20\n        /* \"#utility.yul\":37227:37236   */\n      dup3\n        /* \"#utility.yul\":37223:37241   */\n      add\n        /* \"#utility.yul\":37215:37241   */\n      swap1\n      pop\n        /* \"#utility.yul\":37287:37296   */\n      dup2\n        /* \"#utility.yul\":37281:37285   */\n      dup2\n        /* \"#utility.yul\":37277:37297   */\n      sub\n        /* \"#utility.yul\":37273:37274   */\n      0x00\n        /* \"#utility.yul\":37262:37271   */\n      dup4\n        /* \"#utility.yul\":37258:37275   */\n      add\n        /* \"#utility.yul\":37251:37298   */\n      mstore\n        /* \"#utility.yul\":37315:37446   */\n      tag_759\n        /* \"#utility.yul\":37441:37445   */\n      dup2\n        /* \"#utility.yul\":37315:37446   */\n      tag_435\n      jump\t// in\n    tag_759:\n        /* \"#utility.yul\":37307:37446   */\n      swap1\n      pop\n        /* \"#utility.yul\":37034:37453   */\n      swap2\n      swap1\n      pop\n      jump\t// out\n        /* \"#utility.yul\":37459:37684   */\n    tag_436:\n        /* \"#utility.yul\":37599:37633   */\n      0x45524332303a207472616e7366657220616d6f756e7420657863656564732062\n        /* \"#utility.yul\":37595:37596   */\n      0x00\n        /* \"#utility.yul\":37587:37593   */\n      dup3\n        /* \"#utility.yul\":37583:37597   */\n      add\n        /* \"#utility.yul\":37576:37634   */\n      mstore\n        /* \"#utility.yul\":37668:37676   */\n      0x616c616e63650000000000000000000000000000000000000000000000000000\n        /* \"#utility.yul\":37663:37665   */\n      0x20\n        /* \"#utility.yul\":37655:37661   */\n      dup3\n        /* \"#utility.yul\":37651:37666   */\n      add\n        /* \"#utility.yul\":37644:37677   */\n      mstore\n        /* \"#utility.yul\":37459:37684   */\n      pop\n      jump\t// out\n        /* \"#utility.yul\":37690:38056   */\n    tag_437:\n        /* \"#utility.yul\":37832:37835   */\n      0x00\n        /* \"#utility.yul\":37853:37920   */\n      tag_762\n        /* \"#utility.yul\":37917:37919   */\n      0x26\n        /* \"#utility.yul\":37912:37915   */\n      dup4\n        /* \"#utility.yul\":37853:37920   */\n      tag_347\n      jump\t// in\n    tag_762:\n        /* \"#utility.yul\":37846:37920   */\n      swap2\n      pop\n        /* \"#utility.yul\":37929:38022   */\n      tag_763\n        /* \"#utility.yul\":38018:38021   */\n      dup3\n        /* \"#utility.yul\":37929:38022   */\n      tag_436\n      jump\t// in\n    tag_763:\n        /* \"#utility.yul\":38047:38049   */\n      0x40\n        /* \"#utility.yul\":38042:38045   */\n      dup3\n        /* \"#utility.yul\":38038:38050   */\n      add\n        /* \"#utility.yul\":38031:38050   */\n      swap1\n      pop\n        /* \"#utility.yul\":37690:38056   */\n      swap2\n      swap1\n      pop\n      jump\t// out\n        /* \"#utility.yul\":38062:38481   */\n    tag_329:\n        /* \"#utility.yul\":38228:38232   */\n      0x00\n        /* \"#utility.yul\":38266:38268   */\n      0x20\n        /* \"#utility.yul\":38255:38264   */\n      dup3\n        /* \"#utility.yul\":38251:38269   */\n      add\n        /* \"#utility.yul\":38243:38269   */\n      swap1\n      pop\n        /* \"#utility.yul\":38315:38324   */\n      dup2\n        /* \"#utility.yul\":38309:38313   */\n      dup2\n        /* \"#utility.yul\":38305:38325   */\n      sub\n        /* \"#utility.yul\":38301:38302   */\n      0x00\n        /* \"#utility.yul\":38290:38299   */\n      dup4\n        /* \"#utility.yul\":38286:38303   */\n      add\n        /* \"#utility.yul\":38279:38326   */\n      mstore\n        /* \"#utility.yul\":38343:38474   */\n      tag_765\n        /* \"#utility.yul\":38469:38473   */\n      dup2\n        /* \"#utility.yul\":38343:38474   */\n      tag_437\n      jump\t// in\n    tag_765:\n        /* \"#utility.yul\":38335:38474   */\n      swap1\n      pop\n        /* \"#utility.yul\":38062:38481   */\n      swap2\n      swap1\n      pop\n      jump\t// out\n        /* \"#utility.yul\":38487:38668   */\n    tag_438:\n        /* \"#utility.yul\":38627:38660   */\n      0x45524332303a206d696e7420746f20746865207a65726f206164647265737300\n        /* \"#utility.yul\":38623:38624   */\n      0x00\n        /* \"#utility.yul\":38615:38621   */\n      dup3\n        /* \"#utility.yul\":38611:38625   */\n      add\n        /* \"#utility.yul\":38604:38661   */\n      mstore\n        /* \"#utility.yul\":38487:38668   */\n      pop\n      jump\t// out\n        /* \"#utility.yul\":38674:39040   */\n    tag_439:\n        /* \"#utility.yul\":38816:38819   */\n      0x00\n        /* \"#utility.yul\":38837:38904   */\n      tag_768\n        /* \"#utility.yul\":38901:38903   */\n      0x1f\n        /* \"#utility.yul\":38896:38899   */\n      dup4\n        /* \"#utility.yul\":38837:38904   */\n      tag_347\n      jump\t// in\n    tag_768:\n        /* \"#utility.yul\":38830:38904   */\n      swap2\n      pop\n        /* \"#utility.yul\":38913:39006   */\n      tag_769\n        /* \"#utility.yul\":39002:39005   */\n      dup3\n        /* \"#utility.yul\":38913:39006   */\n      tag_438\n      jump\t// in\n    tag_769:\n        /* \"#utility.yul\":39031:39033   */\n      0x20\n        /* \"#utility.yul\":39026:39029   */\n      dup3\n        /* \"#utility.yul\":39022:39034   */\n      add\n        /* \"#utility.yul\":39015:39034   */\n      swap1\n      pop\n        /* \"#utility.yul\":38674:39040   */\n      swap2\n      swap1\n      pop\n      jump\t// out\n        /* \"#utility.yul\":39046:39465   */\n    tag_335:\n        /* \"#utility.yul\":39212:39216   */\n      0x00\n        /* \"#utility.yul\":39250:39252   */\n      0x20\n        /* \"#utility.yul\":39239:39248   */\n      dup3\n        /* \"#utility.yul\":39235:39253   */\n      add\n        /* \"#utility.yul\":39227:39253   */\n      swap1\n      pop\n        /* \"#utility.yul\":39299:39308   */\n      dup2\n        /* \"#utility.yul\":39293:39297   */\n      dup2\n        /* \"#utility.yul\":39289:39309   */\n      sub\n        /* \"#utility.yul\":39285:39286   */\n      0x00\n        /* \"#utility.yul\":39274:39283   */\n      dup4\n        /* \"#utility.yul\":39270:39287   */\n      add\n        /* \"#utility.yul\":39263:39310   */\n      mstore\n        /* \"#utility.yul\":39327:39458   */\n      tag_771\n        /* \"#utility.yul\":39453:39457   */\n      dup2\n        /* \"#utility.yul\":39327:39458   */\n      tag_439\n      jump\t// in\n    tag_771:\n        /* \"#utility.yul\":39319:39458   */\n      swap1\n      pop\n        /* \"#utility.yul\":39046:39465   */\n      swap2\n      swap1\n      pop\n      jump\t// out\n\n    auxdata: 0xa264697066735822122092873865f3a12e8106bc0b22476cd84c6edd7442e206505a9ee98d2f2b88bc2564736f6c63430008120033\n}\n",
				"bytecode": {
					"linkReferences": {},
					"object": "60806040523480156200001157600080fd5b506040518060400160405280600581526020017f446567656e0000000000000000000000000000000000000000000000000000008152506040518060400160405280600381526020017f44474e000000000000000000000000000000000000000000000000000000000081525081600390816200008f919062000797565b508060049081620000a1919062000797565b505050620000c4620000b8620002e860201b60201c565b620002f060201b60201c565b620001796040518060400160405280600a81526020017f676f6c642d73776f7264000000000000000000000000000000000000000000008152506040518060400160405280600a81526020017f476f6c642053776f7264000000000000000000000000000000000000000000008152506101f46040518060400160405280602081526020017f41206d69676874792073776f726420666f726765642066726f6d20676f6c642e815250620003b660201b60201c565b6200022e6040518060400160405280600d81526020017f73696c7665722d736869656c64000000000000000000000000000000000000008152506040518060400160405280600d81526020017f53696c76657220536869656c640000000000000000000000000000000000000081525061012c6040518060400160405280601f81526020017f412073747572647920736869656c64206d616465206f662073696c7665722e00815250620003b660201b60201c565b620002e26040518060400160405280600e81526020017f6865616c696e672d706f74696f6e0000000000000000000000000000000000008152506040518060400160405280600e81526020017f4865616c696e6720506f74696f6e00000000000000000000000000000000000081525060646040518060400160405280601a81526020017f526573746f726573203530206865616c746820706f696e74732e000000000000815250620003b660201b60201c565b62000988565b600033905090565b6000600560009054906101000a900473ffffffffffffffffffffffffffffffffffffffff16905081600560006101000a81548173ffffffffffffffffffffffffffffffffffffffff021916908373ffffffffffffffffffffffffffffffffffffffff1602179055508173ffffffffffffffffffffffffffffffffffffffff168173ffffffffffffffffffffffffffffffffffffffff167f8be0079c531659141344cd1fd0a4f28419497f9722a3daafe3b4186f6b6457e060405160405180910390a35050565b620003c66200046260201b60201c565b604051806080016040528085815260200184815260200183815260200182815250600685604051620003f99190620008ec565b908152602001604051809103902060008201518160000190816200041e919062000797565b50602082015181600101908162000436919062000797565b5060408201518160020155606082015181600301908162000458919062000797565b5090505050505050565b62000472620002e860201b60201c565b73ffffffffffffffffffffffffffffffffffffffff1662000498620004f360201b60201c565b73ffffffffffffffffffffffffffffffffffffffff1614620004f1576040517f08c379a0000000000000000000000000000000000000000000000000000000008152600401620004e89062000966565b60405180910390fd5b565b6000600560009054906101000a900473ffffffffffffffffffffffffffffffffffffffff16905090565b600081519050919050565b7f4e487b7100000000000000000000000000000000000000000000000000000000600052604160045260246000fd5b7f4e487b7100000000000000000000000000000000000000000000000000000000600052602260045260246000fd5b600060028204905060018216806200059f57607f821691505b602082108103620005b557620005b462000557565b5b50919050565b60008190508160005260206000209050919050565b60006020601f8301049050919050565b600082821b905092915050565b6000600883026200061f7fffffffffffffffffffffffffffffffffffffffffffffffffffffffffffffffff82620005e0565b6200062b8683620005e0565b95508019841693508086168417925050509392505050565b6000819050919050565b6000819050919050565b600062000678620006726200066c8462000643565b6200064d565b62000643565b9050919050565b6000819050919050565b620006948362000657565b620006ac620006a3826200067f565b848454620005ed565b825550505050565b600090565b620006c3620006b4565b620006d081848462000689565b505050565b5b81811015620006f857620006ec600082620006b9565b600181019050620006d6565b5050565b601f82111562000747576200071181620005bb565b6200071c84620005d0565b810160208510156200072c578190505b620007446200073b85620005d0565b830182620006d5565b50505b505050565b600082821c905092915050565b60006200076c600019846008026200074c565b1980831691505092915050565b600062000787838362000759565b9150826002028217905092915050565b620007a2826200051d565b67ffffffffffffffff811115620007be57620007bd62000528565b5b620007ca825462000586565b620007d7828285620006fc565b600060209050601f8311600181146200080f5760008415620007fa578287015190505b62000806858262000779565b86555062000876565b601f1984166200081f86620005bb565b60005b82811015620008495784890151825560018201915060208501945060208101905062000822565b8683101562000869578489015162000865601f89168262000759565b8355505b6001600288020188555050505b505050505050565b600081905092915050565b60005b83811015620008a95780820151818401526020810190506200088c565b60008484015250505050565b6000620008c2826200051d565b620008ce81856200087e565b9350620008e081856020860162000889565b80840191505092915050565b6000620008fa8284620008b5565b915081905092915050565b600082825260208201905092915050565b7f4f776e61626c653a2063616c6c6572206973206e6f7420746865206f776e6572600082015250565b60006200094e60208362000905565b91506200095b8262000916565b602082019050919050565b6000602082019050818103600083015262000981816200093f565b9050919050565b6131b280620009986000396000f3fe608060405234801561001057600080fd5b50600436106101215760003560e01c806342966c68116100ad57806395d89b411161007157806395d89b41146102f6578063a457c2d714610314578063a9059cbb14610344578063dd62ed3e14610374578063f2fde38b146103a457610121565b806342966c681461026457806365e175401461028057806370a082311461029e578063715018a6146102ce5780638da5cb5b146102d857610121565b806318160ddd116100f457806318160ddd146101ac57806323b872dd146101ca578063313ce567146101fa578063395093511461021857806340c10f191461024857610121565b806306fdde0314610126578063095ea7b3146101445780631222c25a1461017457806313df81d614610190575b600080fd5b61012e6103c0565b60405161013b9190611e08565b60405180910390f35b61015e60048036038101906101599190611ed2565b610452565b60405161016b9190611f2d565b60405180910390f35b61018e6004803603810190610189919061207d565b610475565b005b6101aa60048036038101906101a591906120c6565b6107db565b005b6101b4610877565b6040516101c19190612190565b60405180910390f35b6101e460048036038101906101df91906121ab565b610881565b6040516101f19190611f2d565b60405180910390f35b6102026108b0565b60405161020f919061221a565b60405180910390f35b610232600480360381019061022d9190611ed2565b6108b9565b60405161023f9190611f2d565b60405180910390f35b610262600480360381019061025d9190611ed2565b6108f0565b005b61027e60048036038101906102799190612235565b610949565b005b610288610a32565b60405161029591906123ee565b60405180910390f35b6102b860048036038101906102b39190612410565b6110ac565b6040516102c59190612190565b60405180910390f35b6102d66110f4565b005b6102e0611108565b6040516102ed919061244c565b60405180910390f35b6102fe611132565b60405161030b9190611e08565b60405180910390f35b61032e60048036038101906103299190611ed2565b6111c4565b60405161033b9190611f2d565b60405180910390f35b61035e60048036038101906103599190611ed2565b61123b565b60405161036b9190611f2d565b60405180910390f35b61038e60048036038101906103899190612467565b6112df565b60405161039b9190612190565b60405180910390f35b6103be60048036038101906103b99190612410565b611366565b005b6060600380546103cf906124d6565b80601f01602080910402602001604051908101604052809291908181526020018280546103fb906124d6565b80156104485780601f1061041d57610100808354040283529160200191610448565b820191906000526020600020905b81548152906001019060200180831161042b57829003601f168201915b5050505050905090565b60008061045d6113e9565b905061046a8185856113f1565b600191505092915050565b60006006826040516104879190612543565b90815260200160405180910390206040518060800160405290816000820180546104b0906124d6565b80601f01602080910402602001604051908101604052809291908181526020018280546104dc906124d6565b80156105295780601f106104fe57610100808354040283529160200191610529565b820191906000526020600020905b81548152906001019060200180831161050c57829003601f168201915b50505050508152602001600182018054610542906124d6565b80601f016020809104026020016040519081016040528092919081815260200182805461056e906124d6565b80156105bb5780601f10610590576101008083540402835291602001916105bb565b820191906000526020600020905b81548152906001019060200180831161059e57829003601f168201915b50505050508152602001600282015481526020016003820180546105de906124d6565b80601f016020809104026020016040519081016040528092919081815260200182805461060a906124d6565b80156106575780601f1061062c57610100808354040283529160200191610657565b820191906000526020600020905b81548152906001019060200180831161063a57829003601f168201915b50505050508152505090506000816000015151116106aa576040517f08c379a00000000000000000000000000000000000000000000000000000000081526004016106a1906125a6565b60405180910390fd5b80604001516106b8336110ac565b10156106f9576040517f08c379a00000000000000000000000000000000000000000000000000000000081526004016106f090612612565b60405180910390fd5b6107073382604001516115ba565b600760003373ffffffffffffffffffffffffffffffffffffffff1673ffffffffffffffffffffffffffffffffffffffff1681526020019081526020016000208290806001815401808255809150506001900390600052602060002001600090919091909150908161077891906127de565b503373ffffffffffffffffffffffffffffffffffffffff167feae102626b1948901686254c9254dbea782595b232309c4e8af998581393149a8260000151836020015184604001516040516107cf939291906128b0565b60405180910390a25050565b6107e3611787565b6040518060800160405280858152602001848152602001838152602001828152506006856040516108149190612543565b9081526020016040518091039020600082015181600001908161083791906127de565b50602082015181600101908161084d91906127de565b5060408201518160020155606082015181600301908161086d91906127de565b5090505050505050565b6000600254905090565b60008061088c6113e9565b9050610899858285611805565b6108a4858585611891565b60019150509392505050565b60006012905090565b6000806108c46113e9565b90506108e58185856108d685896112df565b6108e09190612924565b6113f1565b600191505092915050565b6108f8611787565b6000811161093b576040517f08c379a0000000000000000000000000000000000000000000000000000000008152600401610932906129a4565b60405180910390fd5b6109458282611b07565b5050565b6000811161098c576040517f08c379a0000000000000000000000000000000000000000000000000000000008152600401610983906129a4565b60405180910390fd5b80610996336110ac565b10156109d7576040517f08c379a00000000000000000000000000000000000000000000000000000000081526004016109ce90612612565b60405180910390fd5b6109e133826115ba565b3373ffffffffffffffffffffffffffffffffffffffff167ffd38818f5291bf0bb3a2a48aadc06ba8757865d1dabd804585338aab3009dcb682604051610a279190612190565b60405180910390a250565b606060006003905060008167ffffffffffffffff811115610a5657610a55611f52565b5b604051908082528060200260200182016040528015610a8f57816020015b610a7c611d50565b815260200190600190039081610a745790505b5090506006604051610aa090612a10565b9081526020016040518091039020604051806080016040529081600082018054610ac9906124d6565b80601f0160208091040260200160405190810160405280929190818152602001828054610af5906124d6565b8015610b425780601f10610b1757610100808354040283529160200191610b42565b820191906000526020600020905b815481529060010190602001808311610b2557829003601f168201915b50505050508152602001600182018054610b5b906124d6565b80601f0160208091040260200160405190810160405280929190818152602001828054610b87906124d6565b8015610bd45780601f10610ba957610100808354040283529160200191610bd4565b820191906000526020600020905b815481529060010190602001808311610bb757829003601f168201915b5050505050815260200160028201548152602001600382018054610bf7906124d6565b80601f0160208091040260200160405190810160405280929190818152602001828054610c23906124d6565b8015610c705780601f10610c4557610100808354040283529160200191610c70565b820191906000526020600020905b815481529060010190602001808311610c5357829003601f168201915b50505050508152505081600081518110610c8d57610c8c612a25565b5b60200260200101819052506006604051610ca690612aa0565b9081526020016040518091039020604051806080016040529081600082018054610ccf906124d6565b80601f0160208091040260200160405190810160405280929190818152602001828054610cfb906124d6565b8015610d485780601f10610d1d57610100808354040283529160200191610d48565b820191906000526020600020905b815481529060010190602001808311610d2b57829003601f168201915b50505050508152602001600182018054610d61906124d6565b80601f0160208091040260200160405190810160405280929190818152602001828054610d8d906124d6565b8015610dda5780601f10610daf57610100808354040283529160200191610dda565b820191906000526020600020905b815481529060010190602001808311610dbd57829003601f168201915b5050505050815260200160028201548152602001600382018054610dfd906124d6565b80601f0160208091040260200160405190810160405280929190818152602001828054610e29906124d6565b8015610e765780601f10610e4b57610100808354040283529160200191610e76565b820191906000526020600020905b815481529060010190602001808311610e5957829003601f168201915b50505050508152505081600181518110610e9357610e92612a25565b5b60200260200101819052506006604051610eac90612b01565b9081526020016040518091039020604051806080016040529081600082018054610ed5906124d6565b80601f0160208091040260200160405190810160405280929190818152602001828054610f01906124d6565b8015610f4e5780601f10610f2357610100808354040283529160200191610f4e565b820191906000526020600020905b815481529060010190602001808311610f3157829003601f168201915b50505050508152602001600182018054610f67906124d6565b80601f0160208091040260200160405190810160405280929190818152602001828054610f93906124d6565b8015610fe05780601f10610fb557610100808354040283529160200191610fe0565b820191906000526020600020905b815481529060010190602001808311610fc357829003601f168201915b5050505050815260200160028201548152602001600382018054611003906124d6565b80601f016020809104026020016040519081016040528092919081815260200182805461102f906124d6565b801561107c5780601f106110515761010080835404028352916020019161107c565b820191906000526020600020905b81548152906001019060200180831161105f57829003601f168201915b5050505050815250508160028151811061109957611098612a25565b5b6020026020010181905250809250505090565b60008060008373ffffffffffffffffffffffffffffffffffffffff1673ffffffffffffffffffffffffffffffffffffffff168152602001908152602001600020549050919050565b6110fc611787565b6111066000611c5d565b565b6000600560009054906101000a900473ffffffffffffffffffffffffffffffffffffffff16905090565b606060048054611141906124d6565b80601f016020809104026020016040519081016040528092919081815260200182805461116d906124d6565b80156111ba5780601f1061118f576101008083540402835291602001916111ba565b820191906000526020600020905b81548152906001019060200180831161119d57829003601f168201915b5050505050905090565b6000806111cf6113e9565b905060006111dd82866112df565b905083811015611222576040517f08c379a000000000000000000000000000000000000000000000000000000000815260040161121990612b88565b60405180910390fd5b61122f82868684036113f1565b60019250505092915050565b600080821161127f576040517f08c379a0000000000000000000000000000000000000000000000000000000008152600401611276906129a4565b60405180910390fd5b81611289336110ac565b10156112ca576040517f08c379a00000000000000000000000000000000000000000000000000000000081526004016112c190612612565b60405180910390fd5b6112d48383611d23565b506001905092915050565b6000600160008473ffffffffffffffffffffffffffffffffffffffff1673ffffffffffffffffffffffffffffffffffffffff16815260200190815260200160002060008373ffffffffffffffffffffffffffffffffffffffff1673ffffffffffffffffffffffffffffffffffffffff16815260200190815260200160002054905092915050565b61136e611787565b600073ffffffffffffffffffffffffffffffffffffffff168173ffffffffffffffffffffffffffffffffffffffff16036113dd576040517f08c379a00000000000000000000000000000000000000000000000000000000081526004016113d490612c1a565b60405180910390fd5b6113e681611c5d565b50565b600033905090565b600073ffffffffffffffffffffffffffffffffffffffff168373ffffffffffffffffffffffffffffffffffffffff1603611460576040517f08c379a000000000000000000000000000000000000000000000000000000000815260040161145790612cac565b60405180910390fd5b600073ffffffffffffffffffffffffffffffffffffffff168273ffffffffffffffffffffffffffffffffffffffff16036114cf576040517f08c379a00000000000000000000000000000000000000000000000000000000081526004016114c690612d3e565b60405180910390fd5b80600160008573ffffffffffffffffffffffffffffffffffffffff1673ffffffffffffffffffffffffffffffffffffffff16815260200190815260200160002060008473ffffffffffffffffffffffffffffffffffffffff1673ffffffffffffffffffffffffffffffffffffffff168152602001908152602001600020819055508173ffffffffffffffffffffffffffffffffffffffff168373ffffffffffffffffffffffffffffffffffffffff167f8c5be1e5ebec7d5bd14f71427d1e84f3dd0314c0f7b2291e5b200ac8c7c3b925836040516115ad9190612190565b60405180910390a3505050565b600073ffffffffffffffffffffffffffffffffffffffff168273ffffffffffffffffffffffffffffffffffffffff1603611629576040517f08c379a000000000000000000000000000000000000000000000000000000000815260040161162090612dd0565b60405180910390fd5b61163582600083611d46565b60008060008473ffffffffffffffffffffffffffffffffffffffff1673ffffffffffffffffffffffffffffffffffffffff168152602001908152602001600020549050818110156116bb576040517f08c379a00000000000000000000000000000000000000000000000000000000081526004016116b290612e62565b60405180910390fd5b8181036000808573ffffffffffffffffffffffffffffffffffffffff1673ffffffffffffffffffffffffffffffffffffffff1681526020019081526020016000208190555081600260008282540392505081905550600073ffffffffffffffffffffffffffffffffffffffff168373ffffffffffffffffffffffffffffffffffffffff167fddf252ad1be2c89b69c2b068fc378daa952ba7f163c4a11628f55a4df523b3ef8460405161176e9190612190565b60405180910390a361178283600084611d4b565b505050565b61178f6113e9565b73ffffffffffffffffffffffffffffffffffffffff166117ad611108565b73ffffffffffffffffffffffffffffffffffffffff1614611803576040517f08c379a00000000000000000000000000000000000000000000000000000000081526004016117fa90612ece565b60405180910390fd5b565b600061181184846112df565b90507fffffffffffffffffffffffffffffffffffffffffffffffffffffffffffffffff811461188b578181101561187d576040517f08c379a000000000000000000000000000000000000000000000000000000000815260040161187490612f3a565b60405180910390fd5b61188a84848484036113f1565b5b50505050565b600073ffffffffffffffffffffffffffffffffffffffff168373ffffffffffffffffffffffffffffffffffffffff1603611900576040517f08c379a00000000000000000000000000000000000000000000000000000000081526004016118f790612fcc565b60405180910390fd5b600073ffffffffffffffffffffffffffffffffffffffff168273ffffffffffffffffffffffffffffffffffffffff160361196f576040517f08c379a00000000000000000000000000000000000000000000000000000000081526004016119669061305e565b60405180910390fd5b61197a838383611d46565b60008060008573ffffffffffffffffffffffffffffffffffffffff1673ffffffffffffffffffffffffffffffffffffffff16815260200190815260200160002054905081811015611a00576040517f08c379a00000000000000000000000000000000000000000000000000000000081526004016119f7906130f0565b60405180910390fd5b8181036000808673ffffffffffffffffffffffffffffffffffffffff1673ffffffffffffffffffffffffffffffffffffffff16815260200190815260200160002081905550816000808573ffffffffffffffffffffffffffffffffffffffff1673ffffffffffffffffffffffffffffffffffffffff168152602001908152602001600020600082825401925050819055508273ffffffffffffffffffffffffffffffffffffffff168473ffffffffffffffffffffffffffffffffffffffff167fddf252ad1be2c89b69c2b068fc378daa952ba7f163c4a11628f55a4df523b3ef84604051611aee9190612190565b60405180910390a3611b01848484611d4b565b50505050565b600073ffffffffffffffffffffffffffffffffffffffff168273ffffffffffffffffffffffffffffffffffffffff1603611b76576040517f08c379a0000000000000000000000000000000000000000000000000000000008152600401611b6d9061315c565b60405180910390fd5b611b8260008383611d46565b8060026000828254611b949190612924565b92505081905550806000808473ffffffffffffffffffffffffffffffffffffffff1673ffffffffffffffffffffffffffffffffffffffff168152602001908152602001600020600082825401925050819055508173ffffffffffffffffffffffffffffffffffffffff16600073ffffffffffffffffffffffffffffffffffffffff167fddf252ad1be2c89b69c2b068fc378daa952ba7f163c4a11628f55a4df523b3ef83604051611c459190612190565b60405180910390a3611c5960008383611d4b565b5050565b6000600560009054906101000a900473ffffffffffffffffffffffffffffffffffffffff16905081600560006101000a81548173ffffffffffffffffffffffffffffffffffffffff021916908373ffffffffffffffffffffffffffffffffffffffff1602179055508173ffffffffffffffffffffffffffffffffffffffff168173ffffffffffffffffffffffffffffffffffffffff167f8be0079c531659141344cd1fd0a4f28419497f9722a3daafe3b4186f6b6457e060405160405180910390a35050565b600080611d2e6113e9565b9050611d3b818585611891565b600191505092915050565b505050565b505050565b6040518060800160405280606081526020016060815260200160008152602001606081525090565b600081519050919050565b600082825260208201905092915050565b60005b83811015611db2578082015181840152602081019050611d97565b60008484015250505050565b6000601f19601f8301169050919050565b6000611dda82611d78565b611de48185611d83565b9350611df4818560208601611d94565b611dfd81611dbe565b840191505092915050565b60006020820190508181036000830152611e228184611dcf565b905092915050565b6000604051905090565b600080fd5b600080fd5b600073ffffffffffffffffffffffffffffffffffffffff82169050919050565b6000611e6982611e3e565b9050919050565b611e7981611e5e565b8114611e8457600080fd5b50565b600081359050611e9681611e70565b92915050565b6000819050919050565b611eaf81611e9c565b8114611eba57600080fd5b50565b600081359050611ecc81611ea6565b92915050565b60008060408385031215611ee957611ee8611e34565b5b6000611ef785828601611e87565b9250506020611f0885828601611ebd565b9150509250929050565b60008115159050919050565b611f2781611f12565b82525050565b6000602082019050611f426000830184611f1e565b92915050565b600080fd5b600080fd5b7f4e487b7100000000000000000000000000000000000000000000000000000000600052604160045260246000fd5b611f8a82611dbe565b810181811067ffffffffffffffff82111715611fa957611fa8611f52565b5b80604052505050565b6000611fbc611e2a565b9050611fc88282611f81565b919050565b600067ffffffffffffffff821115611fe857611fe7611f52565b5b611ff182611dbe565b9050602081019050919050565b82818337600083830152505050565b600061202061201b84611fcd565b611fb2565b90508281526020810184848401111561203c5761203b611f4d565b5b612047848285611ffe565b509392505050565b600082601f83011261206457612063611f48565b5b813561207484826020860161200d565b91505092915050565b60006020828403121561209357612092611e34565b5b600082013567ffffffffffffffff8111156120b1576120b0611e39565b5b6120bd8482850161204f565b91505092915050565b600080600080608085870312156120e0576120df611e34565b5b600085013567ffffffffffffffff8111156120fe576120fd611e39565b5b61210a8782880161204f565b945050602085013567ffffffffffffffff81111561212b5761212a611e39565b5b6121378782880161204f565b935050604061214887828801611ebd565b925050606085013567ffffffffffffffff81111561216957612168611e39565b5b6121758782880161204f565b91505092959194509250565b61218a81611e9c565b82525050565b60006020820190506121a56000830184612181565b92915050565b6000806000606084860312156121c4576121c3611e34565b5b60006121d286828701611e87565b93505060206121e386828701611e87565b92505060406121f486828701611ebd565b9150509250925092565b600060ff82169050919050565b612214816121fe565b82525050565b600060208201905061222f600083018461220b565b92915050565b60006020828403121561224b5761224a611e34565b5b600061225984828501611ebd565b91505092915050565b600081519050919050565b600082825260208201905092915050565b6000819050602082019050919050565b600082825260208201905092915050565b60006122aa82611d78565b6122b4818561228e565b93506122c4818560208601611d94565b6122cd81611dbe565b840191505092915050565b6122e181611e9c565b82525050565b60006080830160008301518482036000860152612304828261229f565b9150506020830151848203602086015261231e828261229f565b915050604083015161233360408601826122d8565b506060830151848203606086015261234b828261229f565b9150508091505092915050565b600061236483836122e7565b905092915050565b6000602082019050919050565b600061238482612262565b61238e818561226d565b9350836020820285016123a08561227e565b8060005b858110156123dc57848403895281516123bd8582612358565b94506123c88361236c565b925060208a019950506001810190506123a4565b50829750879550505050505092915050565b600060208201905081810360008301526124088184612379565b905092915050565b60006020828403121561242657612425611e34565b5b600061243484828501611e87565b91505092915050565b61244681611e5e565b82525050565b6000602082019050612461600083018461243d565b92915050565b6000806040838503121561247e5761247d611e34565b5b600061248c85828601611e87565b925050602061249d85828601611e87565b9150509250929050565b7f4e487b7100000000000000000000000000000000000000000000000000000000600052602260045260246000fd5b600060028204905060018216806124ee57607f821691505b602082108103612501576125006124a7565b5b50919050565b600081905092915050565b600061251d82611d78565b6125278185612507565b9350612537818560208601611d94565b80840191505092915050565b600061254f8284612512565b915081905092915050565b7f4974656d20646f6573206e6f7420657869737400000000000000000000000000600082015250565b6000612590601383611d83565b915061259b8261255a565b602082019050919050565b600060208201905081810360008301526125bf81612583565b9050919050565b7f496e73756666696369656e742062616c616e6365000000000000000000000000600082015250565b60006125fc601483611d83565b9150612607826125c6565b602082019050919050565b6000602082019050818103600083015261262b816125ef565b9050919050565b60008190508160005260206000209050919050565b60006020601f8301049050919050565b600082821b905092915050565b6000600883026126947fffffffffffffffffffffffffffffffffffffffffffffffffffffffffffffffff82612657565b61269e8683612657565b95508019841693508086168417925050509392505050565b6000819050919050565b60006126db6126d66126d184611e9c565b6126b6565b611e9c565b9050919050565b6000819050919050565b6126f5836126c0565b612709612701826126e2565b848454612664565b825550505050565b600090565b61271e612711565b6127298184846126ec565b505050565b5b8181101561274d57612742600082612716565b60018101905061272f565b5050565b601f8211156127925761276381612632565b61276c84612647565b8101602085101561277b578190505b61278f61278785612647565b83018261272e565b50505b505050565b600082821c905092915050565b60006127b560001984600802612797565b1980831691505092915050565b60006127ce83836127a4565b9150826002028217905092915050565b6127e782611d78565b67ffffffffffffffff811115612800576127ff611f52565b5b61280a82546124d6565b612815828285612751565b600060209050601f8311600181146128485760008415612836578287015190505b61284085826127c2565b8655506128a8565b601f19841661285686612632565b60005b8281101561287e57848901518255600182019150602085019450602081019050612859565b8683101561289b5784890151612897601f8916826127a4565b8355505b6001600288020188555050505b505050505050565b600060608201905081810360008301526128ca8186611dcf565b905081810360208301526128de8185611dcf565b90506128ed6040830184612181565b949350505050565b7f4e487b7100000000000000000000000000000000000000000000000000000000600052601160045260246000fd5b600061292f82611e9c565b915061293a83611e9c565b9250828201905080821115612952576129516128f5565b5b92915050565b7f416d6f756e74206d7573742062652067726561746572207468616e207a65726f600082015250565b600061298e602083611d83565b915061299982612958565b602082019050919050565b600060208201905081810360008301526129bd81612981565b9050919050565b7f676f6c642d73776f726400000000000000000000000000000000000000000000600082015250565b60006129fa600a83612507565b9150612a05826129c4565b600a82019050919050565b6000612a1b826129ed565b9150819050919050565b7f4e487b7100000000000000000000000000000000000000000000000000000000600052603260045260246000fd5b7f73696c7665722d736869656c6400000000000000000000000000000000000000600082015250565b6000612a8a600d83612507565b9150612a9582612a54565b600d82019050919050565b6000612aab82612a7d565b9150819050919050565b7f6865616c696e672d706f74696f6e000000000000000000000000000000000000600082015250565b6000612aeb600e83612507565b9150612af682612ab5565b600e82019050919050565b6000612b0c82612ade565b9150819050919050565b7f45524332303a2064656372656173656420616c6c6f77616e63652062656c6f7760008201527f207a65726f000000000000000000000000000000000000000000000000000000602082015250565b6000612b72602583611d83565b9150612b7d82612b16565b604082019050919050565b60006020820190508181036000830152612ba181612b65565b9050919050565b7f4f776e61626c653a206e6577206f776e657220697320746865207a65726f206160008201527f6464726573730000000000000000000000000000000000000000000000000000602082015250565b6000612c04602683611d83565b9150612c0f82612ba8565b604082019050919050565b60006020820190508181036000830152612c3381612bf7565b9050919050565b7f45524332303a20617070726f76652066726f6d20746865207a65726f2061646460008201527f7265737300000000000000000000000000000000000000000000000000000000602082015250565b6000612c96602483611d83565b9150612ca182612c3a565b604082019050919050565b60006020820190508181036000830152612cc581612c89565b9050919050565b7f45524332303a20617070726f766520746f20746865207a65726f20616464726560008201527f7373000000000000000000000000000000000000000000000000000000000000602082015250565b6000612d28602283611d83565b9150612d3382612ccc565b604082019050919050565b60006020820190508181036000830152612d5781612d1b565b9050919050565b7f45524332303a206275726e2066726f6d20746865207a65726f2061646472657360008201527f7300000000000000000000000000000000000000000000000000000000000000602082015250565b6000612dba602183611d83565b9150612dc582612d5e565b604082019050919050565b60006020820190508181036000830152612de981612dad565b9050919050565b7f45524332303a206275726e20616d6f756e7420657863656564732062616c616e60008201527f6365000000000000000000000000000000000000000000000000000000000000602082015250565b6000612e4c602283611d83565b9150612e5782612df0565b604082019050919050565b60006020820190508181036000830152612e7b81612e3f565b9050919050565b7f4f776e61626c653a2063616c6c6572206973206e6f7420746865206f776e6572600082015250565b6000612eb8602083611d83565b9150612ec382612e82565b602082019050919050565b60006020820190508181036000830152612ee781612eab565b9050919050565b7f45524332303a20696e73756666696369656e7420616c6c6f77616e6365000000600082015250565b6000612f24601d83611d83565b9150612f2f82612eee565b602082019050919050565b60006020820190508181036000830152612f5381612f17565b9050919050565b7f45524332303a207472616e736665722066726f6d20746865207a65726f20616460008201527f6472657373000000000000000000000000000000000000000000000000000000602082015250565b6000612fb6602583611d83565b9150612fc182612f5a565b604082019050919050565b60006020820190508181036000830152612fe581612fa9565b9050919050565b7f45524332303a207472616e7366657220746f20746865207a65726f206164647260008201527f6573730000000000000000000000000000000000000000000000000000000000602082015250565b6000613048602383611d83565b915061305382612fec565b604082019050919050565b600060208201905081810360008301526130778161303b565b9050919050565b7f45524332303a207472616e7366657220616d6f756e742065786365656473206260008201527f616c616e63650000000000000000000000000000000000000000000000000000602082015250565b60006130da602683611d83565b91506130e58261307e565b604082019050919050565b60006020820190508181036000830152613109816130cd565b9050919050565b7f45524332303a206d696e7420746f20746865207a65726f206164647265737300600082015250565b6000613146601f83611d83565b915061315182613110565b602082019050919050565b6000602082019050818103600083015261317581613139565b905091905056fea264697066735822122092873865f3a12e8106bc0b22476cd84c6edd7442e206505a9ee98d2f2b88bc2564736f6c63430008120033",
					"opcodes": "PUSH1 0x80 PUSH1 0x40 MSTORE CALLVALUE DUP1 ISZERO PUSH3 0x11 JUMPI PUSH1 0x0 DUP1 REVERT JUMPDEST POP PUSH1 0x40 MLOAD DUP1 PUSH1 0x40 ADD PUSH1 0x40 MSTORE DUP1 PUSH1 0x5 DUP2 MSTORE PUSH1 0x20 ADD PUSH32 0x446567656E000000000000000000000000000000000000000000000000000000 DUP2 MSTORE POP PUSH1 0x40 MLOAD DUP1 PUSH1 0x40 ADD PUSH1 0x40 MSTORE DUP1 PUSH1 0x3 DUP2 MSTORE PUSH1 0x20 ADD PUSH32 0x44474E0000000000000000000000000000000000000000000000000000000000 DUP2 MSTORE POP DUP2 PUSH1 0x3 SWAP1 DUP2 PUSH3 0x8F SWAP2 SWAP1 PUSH3 0x797 JUMP JUMPDEST POP DUP1 PUSH1 0x4 SWAP1 DUP2 PUSH3 0xA1 SWAP2 SWAP1 PUSH3 0x797 JUMP JUMPDEST POP POP POP PUSH3 0xC4 PUSH3 0xB8 PUSH3 0x2E8 PUSH1 0x20 SHL PUSH1 0x20 SHR JUMP JUMPDEST PUSH3 0x2F0 PUSH1 0x20 SHL PUSH1 0x20 SHR JUMP JUMPDEST PUSH3 0x179 PUSH1 0x40 MLOAD DUP1 PUSH1 0x40 ADD PUSH1 0x40 MSTORE DUP1 PUSH1 0xA DUP2 MSTORE PUSH1 0x20 ADD PUSH32 0x676F6C642D73776F726400000000000000000000000000000000000000000000 DUP2 MSTORE POP PUSH1 0x40 MLOAD DUP1 PUSH1 0x40 ADD PUSH1 0x40 MSTORE DUP1 PUSH1 0xA DUP2 MSTORE PUSH1 0x20 ADD PUSH32 0x476F6C642053776F726400000000000000000000000000000000000000000000 DUP2 MSTORE POP PUSH2 0x1F4 PUSH1 0x40 MLOAD DUP1 PUSH1 0x40 ADD PUSH1 0x40 MSTORE DUP1 PUSH1 0x20 DUP2 MSTORE PUSH1 0x20 ADD PUSH32 0x41206D69676874792073776F726420666F726765642066726F6D20676F6C642E DUP2 MSTORE POP PUSH3 0x3B6 PUSH1 0x20 SHL PUSH1 0x20 SHR JUMP JUMPDEST PUSH3 0x22E PUSH1 0x40 MLOAD DUP1 PUSH1 0x40 ADD PUSH1 0x40 MSTORE DUP1 PUSH1 0xD DUP2 MSTORE PUSH1 0x20 ADD PUSH32 0x73696C7665722D736869656C6400000000000000000000000000000000000000 DUP2 MSTORE POP PUSH1 0x40 MLOAD DUP1 PUSH1 0x40 ADD PUSH1 0x40 MSTORE DUP1 PUSH1 0xD DUP2 MSTORE PUSH1 0x20 ADD PUSH32 0x53696C76657220536869656C6400000000000000000000000000000000000000 DUP2 MSTORE POP PUSH2 0x12C PUSH1 0x40 MLOAD DUP1 PUSH1 0x40 ADD PUSH1 0x40 MSTORE DUP1 PUSH1 0x1F DUP2 MSTORE PUSH1 0x20 ADD PUSH32 0x412073747572647920736869656C64206D616465206F662073696C7665722E00 DUP2 MSTORE POP PUSH3 0x3B6 PUSH1 0x20 SHL PUSH1 0x20 SHR JUMP JUMPDEST PUSH3 0x2E2 PUSH1 0x40 MLOAD DUP1 PUSH1 0x40 ADD PUSH1 0x40 MSTORE DUP1 PUSH1 0xE DUP2 MSTORE PUSH1 0x20 ADD PUSH32 0x6865616C696E672D706F74696F6E000000000000000000000000000000000000 DUP2 MSTORE POP PUSH1 0x40 MLOAD DUP1 PUSH1 0x40 ADD PUSH1 0x40 MSTORE DUP1 PUSH1 0xE DUP2 MSTORE PUSH1 0x20 ADD PUSH32 0x4865616C696E6720506F74696F6E000000000000000000000000000000000000 DUP2 MSTORE POP PUSH1 0x64 PUSH1 0x40 MLOAD DUP1 PUSH1 0x40 ADD PUSH1 0x40 MSTORE DUP1 PUSH1 0x1A DUP2 MSTORE PUSH1 0x20 ADD PUSH32 0x526573746F726573203530206865616C746820706F696E74732E000000000000 DUP2 MSTORE POP PUSH3 0x3B6 PUSH1 0x20 SHL PUSH1 0x20 SHR JUMP JUMPDEST PUSH3 0x988 JUMP JUMPDEST PUSH1 0x0 CALLER SWAP1 POP SWAP1 JUMP JUMPDEST PUSH1 0x0 PUSH1 0x5 PUSH1 0x0 SWAP1 SLOAD SWAP1 PUSH2 0x100 EXP SWAP1 DIV PUSH20 0xFFFFFFFFFFFFFFFFFFFFFFFFFFFFFFFFFFFFFFFF AND SWAP1 POP DUP2 PUSH1 0x5 PUSH1 0x0 PUSH2 0x100 EXP DUP2 SLOAD DUP2 PUSH20 0xFFFFFFFFFFFFFFFFFFFFFFFFFFFFFFFFFFFFFFFF MUL NOT AND SWAP1 DUP4 PUSH20 0xFFFFFFFFFFFFFFFFFFFFFFFFFFFFFFFFFFFFFFFF AND MUL OR SWAP1 SSTORE POP DUP2 PUSH20 0xFFFFFFFFFFFFFFFFFFFFFFFFFFFFFFFFFFFFFFFF AND DUP2 PUSH20 0xFFFFFFFFFFFFFFFFFFFFFFFFFFFFFFFFFFFFFFFF AND PUSH32 0x8BE0079C531659141344CD1FD0A4F28419497F9722A3DAAFE3B4186F6B6457E0 PUSH1 0x40 MLOAD PUSH1 0x40 MLOAD DUP1 SWAP2 SUB SWAP1 LOG3 POP POP JUMP JUMPDEST PUSH3 0x3C6 PUSH3 0x462 PUSH1 0x20 SHL PUSH1 0x20 SHR JUMP JUMPDEST PUSH1 0x40 MLOAD DUP1 PUSH1 0x80 ADD PUSH1 0x40 MSTORE DUP1 DUP6 DUP2 MSTORE PUSH1 0x20 ADD DUP5 DUP2 MSTORE PUSH1 0x20 ADD DUP4 DUP2 MSTORE PUSH1 0x20 ADD DUP3 DUP2 MSTORE POP PUSH1 0x6 DUP6 PUSH1 0x40 MLOAD PUSH3 0x3F9 SWAP2 SWAP1 PUSH3 0x8EC JUMP JUMPDEST SWAP1 DUP2 MSTORE PUSH1 0x20 ADD PUSH1 0x40 MLOAD DUP1 SWAP2 SUB SWAP1 KECCAK256 PUSH1 0x0 DUP3 ADD MLOAD DUP2 PUSH1 0x0 ADD SWAP1 DUP2 PUSH3 0x41E SWAP2 SWAP1 PUSH3 0x797 JUMP JUMPDEST POP PUSH1 0x20 DUP3 ADD MLOAD DUP2 PUSH1 0x1 ADD SWAP1 DUP2 PUSH3 0x436 SWAP2 SWAP1 PUSH3 0x797 JUMP JUMPDEST POP PUSH1 0x40 DUP3 ADD MLOAD DUP2 PUSH1 0x2 ADD SSTORE PUSH1 0x60 DUP3 ADD MLOAD DUP2 PUSH1 0x3 ADD SWAP1 DUP2 PUSH3 0x458 SWAP2 SWAP1 PUSH3 0x797 JUMP JUMPDEST POP SWAP1 POP POP POP POP POP POP JUMP JUMPDEST PUSH3 0x472 PUSH3 0x2E8 PUSH1 0x20 SHL PUSH1 0x20 SHR JUMP JUMPDEST PUSH20 0xFFFFFFFFFFFFFFFFFFFFFFFFFFFFFFFFFFFFFFFF AND PUSH3 0x498 PUSH3 0x4F3 PUSH1 0x20 SHL PUSH1 0x20 SHR JUMP JUMPDEST PUSH20 0xFFFFFFFFFFFFFFFFFFFFFFFFFFFFFFFFFFFFFFFF AND EQ PUSH3 0x4F1 JUMPI PUSH1 0x40 MLOAD PUSH32 0x8C379A000000000000000000000000000000000000000000000000000000000 DUP2 MSTORE PUSH1 0x4 ADD PUSH3 0x4E8 SWAP1 PUSH3 0x966 JUMP JUMPDEST PUSH1 0x40 MLOAD DUP1 SWAP2 SUB SWAP1 REVERT JUMPDEST JUMP JUMPDEST PUSH1 0x0 PUSH1 0x5 PUSH1 0x0 SWAP1 SLOAD SWAP1 PUSH2 0x100 EXP SWAP1 DIV PUSH20 0xFFFFFFFFFFFFFFFFFFFFFFFFFFFFFFFFFFFFFFFF AND SWAP1 POP SWAP1 JUMP JUMPDEST PUSH1 0x0 DUP2 MLOAD SWAP1 POP SWAP2 SWAP1 POP JUMP JUMPDEST PUSH32 0x4E487B7100000000000000000000000000000000000000000000000000000000 PUSH1 0x0 MSTORE PUSH1 0x41 PUSH1 0x4 MSTORE PUSH1 0x24 PUSH1 0x0 REVERT JUMPDEST PUSH32 0x4E487B7100000000000000000000000000000000000000000000000000000000 PUSH1 0x0 MSTORE PUSH1 0x22 PUSH1 0x4 MSTORE PUSH1 0x24 PUSH1 0x0 REVERT JUMPDEST PUSH1 0x0 PUSH1 0x2 DUP3 DIV SWAP1 POP PUSH1 0x1 DUP3 AND DUP1 PUSH3 0x59F JUMPI PUSH1 0x7F DUP3 AND SWAP2 POP JUMPDEST PUSH1 0x20 DUP3 LT DUP2 SUB PUSH3 0x5B5 JUMPI PUSH3 0x5B4 PUSH3 0x557 JUMP JUMPDEST JUMPDEST POP SWAP2 SWAP1 POP JUMP JUMPDEST PUSH1 0x0 DUP2 SWAP1 POP DUP2 PUSH1 0x0 MSTORE PUSH1 0x20 PUSH1 0x0 KECCAK256 SWAP1 POP SWAP2 SWAP1 POP JUMP JUMPDEST PUSH1 0x0 PUSH1 0x20 PUSH1 0x1F DUP4 ADD DIV SWAP1 POP SWAP2 SWAP1 POP JUMP JUMPDEST PUSH1 0x0 DUP3 DUP3 SHL SWAP1 POP SWAP3 SWAP2 POP POP JUMP JUMPDEST PUSH1 0x0 PUSH1 0x8 DUP4 MUL PUSH3 0x61F PUSH32 0xFFFFFFFFFFFFFFFFFFFFFFFFFFFFFFFFFFFFFFFFFFFFFFFFFFFFFFFFFFFFFFFF DUP3 PUSH3 0x5E0 JUMP JUMPDEST PUSH3 0x62B DUP7 DUP4 PUSH3 0x5E0 JUMP JUMPDEST SWAP6 POP DUP1 NOT DUP5 AND SWAP4 POP DUP1 DUP7 AND DUP5 OR SWAP3 POP POP POP SWAP4 SWAP3 POP POP POP JUMP JUMPDEST PUSH1 0x0 DUP2 SWAP1 POP SWAP2 SWAP1 POP JUMP JUMPDEST PUSH1 0x0 DUP2 SWAP1 POP SWAP2 SWAP1 POP JUMP JUMPDEST PUSH1 0x0 PUSH3 0x678 PUSH3 0x672 PUSH3 0x66C DUP5 PUSH3 0x643 JUMP JUMPDEST PUSH3 0x64D JUMP JUMPDEST PUSH3 0x643 JUMP JUMPDEST SWAP1 POP SWAP2 SWAP1 POP JUMP JUMPDEST PUSH1 0x0 DUP2 SWAP1 POP SWAP2 SWAP1 POP JUMP JUMPDEST PUSH3 0x694 DUP4 PUSH3 0x657 JUMP JUMPDEST PUSH3 0x6AC PUSH3 0x6A3 DUP3 PUSH3 0x67F JUMP JUMPDEST DUP5 DUP5 SLOAD PUSH3 0x5ED JUMP JUMPDEST DUP3 SSTORE POP POP POP POP JUMP JUMPDEST PUSH1 0x0 SWAP1 JUMP JUMPDEST PUSH3 0x6C3 PUSH3 0x6B4 JUMP JUMPDEST PUSH3 0x6D0 DUP2 DUP5 DUP5 PUSH3 0x689 JUMP JUMPDEST POP POP POP JUMP JUMPDEST JUMPDEST DUP2 DUP2 LT ISZERO PUSH3 0x6F8 JUMPI PUSH3 0x6EC PUSH1 0x0 DUP3 PUSH3 0x6B9 JUMP JUMPDEST PUSH1 0x1 DUP2 ADD SWAP1 POP PUSH3 0x6D6 JUMP JUMPDEST POP POP JUMP JUMPDEST PUSH1 0x1F DUP3 GT ISZERO PUSH3 0x747 JUMPI PUSH3 0x711 DUP2 PUSH3 0x5BB JUMP JUMPDEST PUSH3 0x71C DUP5 PUSH3 0x5D0 JUMP JUMPDEST DUP2 ADD PUSH1 0x20 DUP6 LT ISZERO PUSH3 0x72C JUMPI DUP2 SWAP1 POP JUMPDEST PUSH3 0x744 PUSH3 0x73B DUP6 PUSH3 0x5D0 JUMP JUMPDEST DUP4 ADD DUP3 PUSH3 0x6D5 JUMP JUMPDEST POP POP JUMPDEST POP POP POP JUMP JUMPDEST PUSH1 0x0 DUP3 DUP3 SHR SWAP1 POP SWAP3 SWAP2 POP POP JUMP JUMPDEST PUSH1 0x0 PUSH3 0x76C PUSH1 0x0 NOT DUP5 PUSH1 0x8 MUL PUSH3 0x74C JUMP JUMPDEST NOT DUP1 DUP4 AND SWAP2 POP POP SWAP3 SWAP2 POP POP JUMP JUMPDEST PUSH1 0x0 PUSH3 0x787 DUP4 DUP4 PUSH3 0x759 JUMP JUMPDEST SWAP2 POP DUP3 PUSH1 0x2 MUL DUP3 OR SWAP1 POP SWAP3 SWAP2 POP POP JUMP JUMPDEST PUSH3 0x7A2 DUP3 PUSH3 0x51D JUMP JUMPDEST PUSH8 0xFFFFFFFFFFFFFFFF DUP2 GT ISZERO PUSH3 0x7BE JUMPI PUSH3 0x7BD PUSH3 0x528 JUMP JUMPDEST JUMPDEST PUSH3 0x7CA DUP3 SLOAD PUSH3 0x586 JUMP JUMPDEST PUSH3 0x7D7 DUP3 DUP3 DUP6 PUSH3 0x6FC JUMP JUMPDEST PUSH1 0x0 PUSH1 0x20 SWAP1 POP PUSH1 0x1F DUP4 GT PUSH1 0x1 DUP2 EQ PUSH3 0x80F JUMPI PUSH1 0x0 DUP5 ISZERO PUSH3 0x7FA JUMPI DUP3 DUP8 ADD MLOAD SWAP1 POP JUMPDEST PUSH3 0x806 DUP6 DUP3 PUSH3 0x779 JUMP JUMPDEST DUP7 SSTORE POP PUSH3 0x876 JUMP JUMPDEST PUSH1 0x1F NOT DUP5 AND PUSH3 0x81F DUP7 PUSH3 0x5BB JUMP JUMPDEST PUSH1 0x0 JUMPDEST DUP3 DUP2 LT ISZERO PUSH3 0x849 JUMPI DUP5 DUP10 ADD MLOAD DUP3 SSTORE PUSH1 0x1 DUP3 ADD SWAP2 POP PUSH1 0x20 DUP6 ADD SWAP5 POP PUSH1 0x20 DUP2 ADD SWAP1 POP PUSH3 0x822 JUMP JUMPDEST DUP7 DUP4 LT ISZERO PUSH3 0x869 JUMPI DUP5 DUP10 ADD MLOAD PUSH3 0x865 PUSH1 0x1F DUP10 AND DUP3 PUSH3 0x759 JUMP JUMPDEST DUP4 SSTORE POP JUMPDEST PUSH1 0x1 PUSH1 0x2 DUP9 MUL ADD DUP9 SSTORE POP POP POP JUMPDEST POP POP POP POP POP POP JUMP JUMPDEST PUSH1 0x0 DUP2 SWAP1 POP SWAP3 SWAP2 POP POP JUMP JUMPDEST PUSH1 0x0 JUMPDEST DUP4 DUP2 LT ISZERO PUSH3 0x8A9 JUMPI DUP1 DUP3 ADD MLOAD DUP2 DUP5 ADD MSTORE PUSH1 0x20 DUP2 ADD SWAP1 POP PUSH3 0x88C JUMP JUMPDEST PUSH1 0x0 DUP5 DUP5 ADD MSTORE POP POP POP POP JUMP JUMPDEST PUSH1 0x0 PUSH3 0x8C2 DUP3 PUSH3 0x51D JUMP JUMPDEST PUSH3 0x8CE DUP2 DUP6 PUSH3 0x87E JUMP JUMPDEST SWAP4 POP PUSH3 0x8E0 DUP2 DUP6 PUSH1 0x20 DUP7 ADD PUSH3 0x889 JUMP JUMPDEST DUP1 DUP5 ADD SWAP2 POP POP SWAP3 SWAP2 POP POP JUMP JUMPDEST PUSH1 0x0 PUSH3 0x8FA DUP3 DUP5 PUSH3 0x8B5 JUMP JUMPDEST SWAP2 POP DUP2 SWAP1 POP SWAP3 SWAP2 POP POP JUMP JUMPDEST PUSH1 0x0 DUP3 DUP3 MSTORE PUSH1 0x20 DUP3 ADD SWAP1 POP SWAP3 SWAP2 POP POP JUMP JUMPDEST PUSH32 0x4F776E61626C653A2063616C6C6572206973206E6F7420746865206F776E6572 PUSH1 0x0 DUP3 ADD MSTORE POP JUMP JUMPDEST PUSH1 0x0 PUSH3 0x94E PUSH1 0x20 DUP4 PUSH3 0x905 JUMP JUMPDEST SWAP2 POP PUSH3 0x95B DUP3 PUSH3 0x916 JUMP JUMPDEST PUSH1 0x20 DUP3 ADD SWAP1 POP SWAP2 SWAP1 POP JUMP JUMPDEST PUSH1 0x0 PUSH1 0x20 DUP3 ADD SWAP1 POP DUP2 DUP2 SUB PUSH1 0x0 DUP4 ADD MSTORE PUSH3 0x981 DUP2 PUSH3 0x93F JUMP JUMPDEST SWAP1 POP SWAP2 SWAP1 POP JUMP JUMPDEST PUSH2 0x31B2 DUP1 PUSH3 0x998 PUSH1 0x0 CODECOPY PUSH1 0x0 RETURN INVALID PUSH1 0x80 PUSH1 0x40 MSTORE CALLVALUE DUP1 ISZERO PUSH2 0x10 JUMPI PUSH1 0x0 DUP1 REVERT JUMPDEST POP PUSH1 0x4 CALLDATASIZE LT PUSH2 0x121 JUMPI PUSH1 0x0 CALLDATALOAD PUSH1 0xE0 SHR DUP1 PUSH4 0x42966C68 GT PUSH2 0xAD JUMPI DUP1 PUSH4 0x95D89B41 GT PUSH2 0x71 JUMPI DUP1 PUSH4 0x95D89B41 EQ PUSH2 0x2F6 JUMPI DUP1 PUSH4 0xA457C2D7 EQ PUSH2 0x314 JUMPI DUP1 PUSH4 0xA9059CBB EQ PUSH2 0x344 JUMPI DUP1 PUSH4 0xDD62ED3E EQ PUSH2 0x374 JUMPI DUP1 PUSH4 0xF2FDE38B EQ PUSH2 0x3A4 JUMPI PUSH2 0x121 JUMP JUMPDEST DUP1 PUSH4 0x42966C68 EQ PUSH2 0x264 JUMPI DUP1 PUSH4 0x65E17540 EQ PUSH2 0x280 JUMPI DUP1 PUSH4 0x70A08231 EQ PUSH2 0x29E JUMPI DUP1 PUSH4 0x715018A6 EQ PUSH2 0x2CE JUMPI DUP1 PUSH4 0x8DA5CB5B EQ PUSH2 0x2D8 JUMPI PUSH2 0x121 JUMP JUMPDEST DUP1 PUSH4 0x18160DDD GT PUSH2 0xF4 JUMPI DUP1 PUSH4 0x18160DDD EQ PUSH2 0x1AC JUMPI DUP1 PUSH4 0x23B872DD EQ PUSH2 0x1CA JUMPI DUP1 PUSH4 0x313CE567 EQ PUSH2 0x1FA JUMPI DUP1 PUSH4 0x39509351 EQ PUSH2 0x218 JUMPI DUP1 PUSH4 0x40C10F19 EQ PUSH2 0x248 JUMPI PUSH2 0x121 JUMP JUMPDEST DUP1 PUSH4 0x6FDDE03 EQ PUSH2 0x126 JUMPI DUP1 PUSH4 0x95EA7B3 EQ PUSH2 0x144 JUMPI DUP1 PUSH4 0x1222C25A EQ PUSH2 0x174 JUMPI DUP1 PUSH4 0x13DF81D6 EQ PUSH2 0x190 JUMPI JUMPDEST PUSH1 0x0 DUP1 REVERT JUMPDEST PUSH2 0x12E PUSH2 0x3C0 JUMP JUMPDEST PUSH1 0x40 MLOAD PUSH2 0x13B SWAP2 SWAP1 PUSH2 0x1E08 JUMP JUMPDEST PUSH1 0x40 MLOAD DUP1 SWAP2 SUB SWAP1 RETURN JUMPDEST PUSH2 0x15E PUSH1 0x4 DUP1 CALLDATASIZE SUB DUP2 ADD SWAP1 PUSH2 0x159 SWAP2 SWAP1 PUSH2 0x1ED2 JUMP JUMPDEST PUSH2 0x452 JUMP JUMPDEST PUSH1 0x40 MLOAD PUSH2 0x16B SWAP2 SWAP1 PUSH2 0x1F2D JUMP JUMPDEST PUSH1 0x40 MLOAD DUP1 SWAP2 SUB SWAP1 RETURN JUMPDEST PUSH2 0x18E PUSH1 0x4 DUP1 CALLDATASIZE SUB DUP2 ADD SWAP1 PUSH2 0x189 SWAP2 SWAP1 PUSH2 0x207D JUMP JUMPDEST PUSH2 0x475 JUMP JUMPDEST STOP JUMPDEST PUSH2 0x1AA PUSH1 0x4 DUP1 CALLDATASIZE SUB DUP2 ADD SWAP1 PUSH2 0x1A5 SWAP2 SWAP1 PUSH2 0x20C6 JUMP JUMPDEST PUSH2 0x7DB JUMP JUMPDEST STOP JUMPDEST PUSH2 0x1B4 PUSH2 0x877 JUMP JUMPDEST PUSH1 0x40 MLOAD PUSH2 0x1C1 SWAP2 SWAP1 PUSH2 0x2190 JUMP JUMPDEST PUSH1 0x40 MLOAD DUP1 SWAP2 SUB SWAP1 RETURN JUMPDEST PUSH2 0x1E4 PUSH1 0x4 DUP1 CALLDATASIZE SUB DUP2 ADD SWAP1 PUSH2 0x1DF SWAP2 SWAP1 PUSH2 0x21AB JUMP JUMPDEST PUSH2 0x881 JUMP JUMPDEST PUSH1 0x40 MLOAD PUSH2 0x1F1 SWAP2 SWAP1 PUSH2 0x1F2D JUMP JUMPDEST PUSH1 0x40 MLOAD DUP1 SWAP2 SUB SWAP1 RETURN JUMPDEST PUSH2 0x202 PUSH2 0x8B0 JUMP JUMPDEST PUSH1 0x40 MLOAD PUSH2 0x20F SWAP2 SWAP1 PUSH2 0x221A JUMP JUMPDEST PUSH1 0x40 MLOAD DUP1 SWAP2 SUB SWAP1 RETURN JUMPDEST PUSH2 0x232 PUSH1 0x4 DUP1 CALLDATASIZE SUB DUP2 ADD SWAP1 PUSH2 0x22D SWAP2 SWAP1 PUSH2 0x1ED2 JUMP JUMPDEST PUSH2 0x8B9 JUMP JUMPDEST PUSH1 0x40 MLOAD PUSH2 0x23F SWAP2 SWAP1 PUSH2 0x1F2D JUMP JUMPDEST PUSH1 0x40 MLOAD DUP1 SWAP2 SUB SWAP1 RETURN JUMPDEST PUSH2 0x262 PUSH1 0x4 DUP1 CALLDATASIZE SUB DUP2 ADD SWAP1 PUSH2 0x25D SWAP2 SWAP1 PUSH2 0x1ED2 JUMP JUMPDEST PUSH2 0x8F0 JUMP JUMPDEST STOP JUMPDEST PUSH2 0x27E PUSH1 0x4 DUP1 CALLDATASIZE SUB DUP2 ADD SWAP1 PUSH2 0x279 SWAP2 SWAP1 PUSH2 0x2235 JUMP JUMPDEST PUSH2 0x949 JUMP JUMPDEST STOP JUMPDEST PUSH2 0x288 PUSH2 0xA32 JUMP JUMPDEST PUSH1 0x40 MLOAD PUSH2 0x295 SWAP2 SWAP1 PUSH2 0x23EE JUMP JUMPDEST PUSH1 0x40 MLOAD DUP1 SWAP2 SUB SWAP1 RETURN JUMPDEST PUSH2 0x2B8 PUSH1 0x4 DUP1 CALLDATASIZE SUB DUP2 ADD SWAP1 PUSH2 0x2B3 SWAP2 SWAP1 PUSH2 0x2410 JUMP JUMPDEST PUSH2 0x10AC JUMP JUMPDEST PUSH1 0x40 MLOAD PUSH2 0x2C5 SWAP2 SWAP1 PUSH2 0x2190 JUMP JUMPDEST PUSH1 0x40 MLOAD DUP1 SWAP2 SUB SWAP1 RETURN JUMPDEST PUSH2 0x2D6 PUSH2 0x10F4 JUMP JUMPDEST STOP JUMPDEST PUSH2 0x2E0 PUSH2 0x1108 JUMP JUMPDEST PUSH1 0x40 MLOAD PUSH2 0x2ED SWAP2 SWAP1 PUSH2 0x244C JUMP JUMPDEST PUSH1 0x40 MLOAD DUP1 SWAP2 SUB SWAP1 RETURN JUMPDEST PUSH2 0x2FE PUSH2 0x1132 JUMP JUMPDEST PUSH1 0x40 MLOAD PUSH2 0x30B SWAP2 SWAP1 PUSH2 0x1E08 JUMP JUMPDEST PUSH1 0x40 MLOAD DUP1 SWAP2 SUB SWAP1 RETURN JUMPDEST PUSH2 0x32E PUSH1 0x4 DUP1 CALLDATASIZE SUB DUP2 ADD SWAP1 PUSH2 0x329 SWAP2 SWAP1 PUSH2 0x1ED2 JUMP JUMPDEST PUSH2 0x11C4 JUMP JUMPDEST PUSH1 0x40 MLOAD PUSH2 0x33B SWAP2 SWAP1 PUSH2 0x1F2D JUMP JUMPDEST PUSH1 0x40 MLOAD DUP1 SWAP2 SUB SWAP1 RETURN JUMPDEST PUSH2 0x35E PUSH1 0x4 DUP1 CALLDATASIZE SUB DUP2 ADD SWAP1 PUSH2 0x359 SWAP2 SWAP1 PUSH2 0x1ED2 JUMP JUMPDEST PUSH2 0x123B JUMP JUMPDEST PUSH1 0x40 MLOAD PUSH2 0x36B SWAP2 SWAP1 PUSH2 0x1F2D JUMP JUMPDEST PUSH1 0x40 MLOAD DUP1 SWAP2 SUB SWAP1 RETURN JUMPDEST PUSH2 0x38E PUSH1 0x4 DUP1 CALLDATASIZE SUB DUP2 ADD SWAP1 PUSH2 0x389 SWAP2 SWAP1 PUSH2 0x2467 JUMP JUMPDEST PUSH2 0x12DF JUMP JUMPDEST PUSH1 0x40 MLOAD PUSH2 0x39B SWAP2 SWAP1 PUSH2 0x2190 JUMP JUMPDEST PUSH1 0x40 MLOAD DUP1 SWAP2 SUB SWAP1 RETURN JUMPDEST PUSH2 0x3BE PUSH1 0x4 DUP1 CALLDATASIZE SUB DUP2 ADD SWAP1 PUSH2 0x3B9 SWAP2 SWAP1 PUSH2 0x2410 JUMP JUMPDEST PUSH2 0x1366 JUMP JUMPDEST STOP JUMPDEST PUSH1 0x60 PUSH1 0x3 DUP1 SLOAD PUSH2 0x3CF SWAP1 PUSH2 0x24D6 JUMP JUMPDEST DUP1 PUSH1 0x1F ADD PUSH1 0x20 DUP1 SWAP2 DIV MUL PUSH1 0x20 ADD PUSH1 0x40 MLOAD SWAP1 DUP2 ADD PUSH1 0x40 MSTORE DUP1 SWAP3 SWAP2 SWAP1 DUP2 DUP2 MSTORE PUSH1 0x20 ADD DUP3 DUP1 SLOAD PUSH2 0x3FB SWAP1 PUSH2 0x24D6 JUMP JUMPDEST DUP1 ISZERO PUSH2 0x448 JUMPI DUP1 PUSH1 0x1F LT PUSH2 0x41D JUMPI PUSH2 0x100 DUP1 DUP4 SLOAD DIV MUL DUP4 MSTORE SWAP2 PUSH1 0x20 ADD SWAP2 PUSH2 0x448 JUMP JUMPDEST DUP3 ADD SWAP2 SWAP1 PUSH1 0x0 MSTORE PUSH1 0x20 PUSH1 0x0 KECCAK256 SWAP1 JUMPDEST DUP2 SLOAD DUP2 MSTORE SWAP1 PUSH1 0x1 ADD SWAP1 PUSH1 0x20 ADD DUP1 DUP4 GT PUSH2 0x42B JUMPI DUP3 SWAP1 SUB PUSH1 0x1F AND DUP3 ADD SWAP2 JUMPDEST POP POP POP POP POP SWAP1 POP SWAP1 JUMP JUMPDEST PUSH1 0x0 DUP1 PUSH2 0x45D PUSH2 0x13E9 JUMP JUMPDEST SWAP1 POP PUSH2 0x46A DUP2 DUP6 DUP6 PUSH2 0x13F1 JUMP JUMPDEST PUSH1 0x1 SWAP2 POP POP SWAP3 SWAP2 POP POP JUMP JUMPDEST PUSH1 0x0 PUSH1 0x6 DUP3 PUSH1 0x40 MLOAD PUSH2 0x487 SWAP2 SWAP1 PUSH2 0x2543 JUMP JUMPDEST SWAP1 DUP2 MSTORE PUSH1 0x20 ADD PUSH1 0x40 MLOAD DUP1 SWAP2 SUB SWAP1 KECCAK256 PUSH1 0x40 MLOAD DUP1 PUSH1 0x80 ADD PUSH1 0x40 MSTORE SWAP1 DUP2 PUSH1 0x0 DUP3 ADD DUP1 SLOAD PUSH2 0x4B0 SWAP1 PUSH2 0x24D6 JUMP JUMPDEST DUP1 PUSH1 0x1F ADD PUSH1 0x20 DUP1 SWAP2 DIV MUL PUSH1 0x20 ADD PUSH1 0x40 MLOAD SWAP1 DUP2 ADD PUSH1 0x40 MSTORE DUP1 SWAP3 SWAP2 SWAP1 DUP2 DUP2 MSTORE PUSH1 0x20 ADD DUP3 DUP1 SLOAD PUSH2 0x4DC SWAP1 PUSH2 0x24D6 JUMP JUMPDEST DUP1 ISZERO PUSH2 0x529 JUMPI DUP1 PUSH1 0x1F LT PUSH2 0x4FE JUMPI PUSH2 0x100 DUP1 DUP4 SLOAD DIV MUL DUP4 MSTORE SWAP2 PUSH1 0x20 ADD SWAP2 PUSH2 0x529 JUMP JUMPDEST DUP3 ADD SWAP2 SWAP1 PUSH1 0x0 MSTORE PUSH1 0x20 PUSH1 0x0 KECCAK256 SWAP1 JUMPDEST DUP2 SLOAD DUP2 MSTORE SWAP1 PUSH1 0x1 ADD SWAP1 PUSH1 0x20 ADD DUP1 DUP4 GT PUSH2 0x50C JUMPI DUP3 SWAP1 SUB PUSH1 0x1F AND DUP3 ADD SWAP2 JUMPDEST POP POP POP POP POP DUP2 MSTORE PUSH1 0x20 ADD PUSH1 0x1 DUP3 ADD DUP1 SLOAD PUSH2 0x542 SWAP1 PUSH2 0x24D6 JUMP JUMPDEST DUP1 PUSH1 0x1F ADD PUSH1 0x20 DUP1 SWAP2 DIV MUL PUSH1 0x20 ADD PUSH1 0x40 MLOAD SWAP1 DUP2 ADD PUSH1 0x40 MSTORE DUP1 SWAP3 SWAP2 SWAP1 DUP2 DUP2 MSTORE PUSH1 0x20 ADD DUP3 DUP1 SLOAD PUSH2 0x56E SWAP1 PUSH2 0x24D6 JUMP JUMPDEST DUP1 ISZERO PUSH2 0x5BB JUMPI DUP1 PUSH1 0x1F LT PUSH2 0x590 JUMPI PUSH2 0x100 DUP1 DUP4 SLOAD DIV MUL DUP4 MSTORE SWAP2 PUSH1 0x20 ADD SWAP2 PUSH2 0x5BB JUMP JUMPDEST DUP3 ADD SWAP2 SWAP1 PUSH1 0x0 MSTORE PUSH1 0x20 PUSH1 0x0 KECCAK256 SWAP1 JUMPDEST DUP2 SLOAD DUP2 MSTORE SWAP1 PUSH1 0x1 ADD SWAP1 PUSH1 0x20 ADD DUP1 DUP4 GT PUSH2 0x59E JUMPI DUP3 SWAP1 SUB PUSH1 0x1F AND DUP3 ADD SWAP2 JUMPDEST POP POP POP POP POP DUP2 MSTORE PUSH1 0x20 ADD PUSH1 0x2 DUP3 ADD SLOAD DUP2 MSTORE PUSH1 0x20 ADD PUSH1 0x3 DUP3 ADD DUP1 SLOAD PUSH2 0x5DE SWAP1 PUSH2 0x24D6 JUMP JUMPDEST DUP1 PUSH1 0x1F ADD PUSH1 0x20 DUP1 SWAP2 DIV MUL PUSH1 0x20 ADD PUSH1 0x40 MLOAD SWAP1 DUP2 ADD PUSH1 0x40 MSTORE DUP1 SWAP3 SWAP2 SWAP1 DUP2 DUP2 MSTORE PUSH1 0x20 ADD DUP3 DUP1 SLOAD PUSH2 0x60A SWAP1 PUSH2 0x24D6 JUMP JUMPDEST DUP1 ISZERO PUSH2 0x657 JUMPI DUP1 PUSH1 0x1F LT PUSH2 0x62C JUMPI PUSH2 0x100 DUP1 DUP4 SLOAD DIV MUL DUP4 MSTORE SWAP2 PUSH1 0x20 ADD SWAP2 PUSH2 0x657 JUMP JUMPDEST DUP3 ADD SWAP2 SWAP1 PUSH1 0x0 MSTORE PUSH1 0x20 PUSH1 0x0 KECCAK256 SWAP1 JUMPDEST DUP2 SLOAD DUP2 MSTORE SWAP1 PUSH1 0x1 ADD SWAP1 PUSH1 0x20 ADD DUP1 DUP4 GT PUSH2 0x63A JUMPI DUP3 SWAP1 SUB PUSH1 0x1F AND DUP3 ADD SWAP2 JUMPDEST POP POP POP POP POP DUP2 MSTORE POP POP SWAP1 POP PUSH1 0x0 DUP2 PUSH1 0x0 ADD MLOAD MLOAD GT PUSH2 0x6AA JUMPI PUSH1 0x40 MLOAD PUSH32 0x8C379A000000000000000000000000000000000000000000000000000000000 DUP2 MSTORE PUSH1 0x4 ADD PUSH2 0x6A1 SWAP1 PUSH2 0x25A6 JUMP JUMPDEST PUSH1 0x40 MLOAD DUP1 SWAP2 SUB SWAP1 REVERT JUMPDEST DUP1 PUSH1 0x40 ADD MLOAD PUSH2 0x6B8 CALLER PUSH2 0x10AC JUMP JUMPDEST LT ISZERO PUSH2 0x6F9 JUMPI PUSH1 0x40 MLOAD PUSH32 0x8C379A000000000000000000000000000000000000000000000000000000000 DUP2 MSTORE PUSH1 0x4 ADD PUSH2 0x6F0 SWAP1 PUSH2 0x2612 JUMP JUMPDEST PUSH1 0x40 MLOAD DUP1 SWAP2 SUB SWAP1 REVERT JUMPDEST PUSH2 0x707 CALLER DUP3 PUSH1 0x40 ADD MLOAD PUSH2 0x15BA JUMP JUMPDEST PUSH1 0x7 PUSH1 0x0 CALLER PUSH20 0xFFFFFFFFFFFFFFFFFFFFFFFFFFFFFFFFFFFFFFFF AND PUSH20 0xFFFFFFFFFFFFFFFFFFFFFFFFFFFFFFFFFFFFFFFF AND DUP2 MSTORE PUSH1 0x20 ADD SWAP1 DUP2 MSTORE PUSH1 0x20 ADD PUSH1 0x0 KECCAK256 DUP3 SWAP1 DUP1 PUSH1 0x1 DUP2 SLOAD ADD DUP1 DUP3 SSTORE DUP1 SWAP2 POP POP PUSH1 0x1 SWAP1 SUB SWAP1 PUSH1 0x0 MSTORE PUSH1 0x20 PUSH1 0x0 KECCAK256 ADD PUSH1 0x0 SWAP1 SWAP2 SWAP1 SWAP2 SWAP1 SWAP2 POP SWAP1 DUP2 PUSH2 0x778 SWAP2 SWAP1 PUSH2 0x27DE JUMP JUMPDEST POP CALLER PUSH20 0xFFFFFFFFFFFFFFFFFFFFFFFFFFFFFFFFFFFFFFFF AND PUSH32 0xEAE102626B1948901686254C9254DBEA782595B232309C4E8AF998581393149A DUP3 PUSH1 0x0 ADD MLOAD DUP4 PUSH1 0x20 ADD MLOAD DUP5 PUSH1 0x40 ADD MLOAD PUSH1 0x40 MLOAD PUSH2 0x7CF SWAP4 SWAP3 SWAP2 SWAP1 PUSH2 0x28B0 JUMP JUMPDEST PUSH1 0x40 MLOAD DUP1 SWAP2 SUB SWAP1 LOG2 POP POP JUMP JUMPDEST PUSH2 0x7E3 PUSH2 0x1787 JUMP JUMPDEST PUSH1 0x40 MLOAD DUP1 PUSH1 0x80 ADD PUSH1 0x40 MSTORE DUP1 DUP6 DUP2 MSTORE PUSH1 0x20 ADD DUP5 DUP2 MSTORE PUSH1 0x20 ADD DUP4 DUP2 MSTORE PUSH1 0x20 ADD DUP3 DUP2 MSTORE POP PUSH1 0x6 DUP6 PUSH1 0x40 MLOAD PUSH2 0x814 SWAP2 SWAP1 PUSH2 0x2543 JUMP JUMPDEST SWAP1 DUP2 MSTORE PUSH1 0x20 ADD PUSH1 0x40 MLOAD DUP1 SWAP2 SUB SWAP1 KECCAK256 PUSH1 0x0 DUP3 ADD MLOAD DUP2 PUSH1 0x0 ADD SWAP1 DUP2 PUSH2 0x837 SWAP2 SWAP1 PUSH2 0x27DE JUMP JUMPDEST POP PUSH1 0x20 DUP3 ADD MLOAD DUP2 PUSH1 0x1 ADD SWAP1 DUP2 PUSH2 0x84D SWAP2 SWAP1 PUSH2 0x27DE JUMP JUMPDEST POP PUSH1 0x40 DUP3 ADD MLOAD DUP2 PUSH1 0x2 ADD SSTORE PUSH1 0x60 DUP3 ADD MLOAD DUP2 PUSH1 0x3 ADD SWAP1 DUP2 PUSH2 0x86D SWAP2 SWAP1 PUSH2 0x27DE JUMP JUMPDEST POP SWAP1 POP POP POP POP POP POP JUMP JUMPDEST PUSH1 0x0 PUSH1 0x2 SLOAD SWAP1 POP SWAP1 JUMP JUMPDEST PUSH1 0x0 DUP1 PUSH2 0x88C PUSH2 0x13E9 JUMP JUMPDEST SWAP1 POP PUSH2 0x899 DUP6 DUP3 DUP6 PUSH2 0x1805 JUMP JUMPDEST PUSH2 0x8A4 DUP6 DUP6 DUP6 PUSH2 0x1891 JUMP JUMPDEST PUSH1 0x1 SWAP2 POP POP SWAP4 SWAP3 POP POP POP JUMP JUMPDEST PUSH1 0x0 PUSH1 0x12 SWAP1 POP SWAP1 JUMP JUMPDEST PUSH1 0x0 DUP1 PUSH2 0x8C4 PUSH2 0x13E9 JUMP JUMPDEST SWAP1 POP PUSH2 0x8E5 DUP2 DUP6 DUP6 PUSH2 0x8D6 DUP6 DUP10 PUSH2 0x12DF JUMP JUMPDEST PUSH2 0x8E0 SWAP2 SWAP1 PUSH2 0x2924 JUMP JUMPDEST PUSH2 0x13F1 JUMP JUMPDEST PUSH1 0x1 SWAP2 POP POP SWAP3 SWAP2 POP POP JUMP JUMPDEST PUSH2 0x8F8 PUSH2 0x1787 JUMP JUMPDEST PUSH1 0x0 DUP2 GT PUSH2 0x93B JUMPI PUSH1 0x40 MLOAD PUSH32 0x8C379A000000000000000000000000000000000000000000000000000000000 DUP2 MSTORE PUSH1 0x4 ADD PUSH2 0x932 SWAP1 PUSH2 0x29A4 JUMP JUMPDEST PUSH1 0x40 MLOAD DUP1 SWAP2 SUB SWAP1 REVERT JUMPDEST PUSH2 0x945 DUP3 DUP3 PUSH2 0x1B07 JUMP JUMPDEST POP POP JUMP JUMPDEST PUSH1 0x0 DUP2 GT PUSH2 0x98C JUMPI PUSH1 0x40 MLOAD PUSH32 0x8C379A000000000000000000000000000000000000000000000000000000000 DUP2 MSTORE PUSH1 0x4 ADD PUSH2 0x983 SWAP1 PUSH2 0x29A4 JUMP JUMPDEST PUSH1 0x40 MLOAD DUP1 SWAP2 SUB SWAP1 REVERT JUMPDEST DUP1 PUSH2 0x996 CALLER PUSH2 0x10AC JUMP JUMPDEST LT ISZERO PUSH2 0x9D7 JUMPI PUSH1 0x40 MLOAD PUSH32 0x8C379A000000000000000000000000000000000000000000000000000000000 DUP2 MSTORE PUSH1 0x4 ADD PUSH2 0x9CE SWAP1 PUSH2 0x2612 JUMP JUMPDEST PUSH1 0x40 MLOAD DUP1 SWAP2 SUB SWAP1 REVERT JUMPDEST PUSH2 0x9E1 CALLER DUP3 PUSH2 0x15BA JUMP JUMPDEST CALLER PUSH20 0xFFFFFFFFFFFFFFFFFFFFFFFFFFFFFFFFFFFFFFFF AND PUSH32 0xFD38818F5291BF0BB3A2A48AADC06BA8757865D1DABD804585338AAB3009DCB6 DUP3 PUSH1 0x40 MLOAD PUSH2 0xA27 SWAP2 SWAP1 PUSH2 0x2190 JUMP JUMPDEST PUSH1 0x40 MLOAD DUP1 SWAP2 SUB SWAP1 LOG2 POP JUMP JUMPDEST PUSH1 0x60 PUSH1 0x0 PUSH1 0x3 SWAP1 POP PUSH1 0x0 DUP2 PUSH8 0xFFFFFFFFFFFFFFFF DUP2 GT ISZERO PUSH2 0xA56 JUMPI PUSH2 0xA55 PUSH2 0x1F52 JUMP JUMPDEST JUMPDEST PUSH1 0x40 MLOAD SWAP1 DUP1 DUP3 MSTORE DUP1 PUSH1 0x20 MUL PUSH1 0x20 ADD DUP3 ADD PUSH1 0x40 MSTORE DUP1 ISZERO PUSH2 0xA8F JUMPI DUP2 PUSH1 0x20 ADD JUMPDEST PUSH2 0xA7C PUSH2 0x1D50 JUMP JUMPDEST DUP2 MSTORE PUSH1 0x20 ADD SWAP1 PUSH1 0x1 SWAP1 SUB SWAP1 DUP2 PUSH2 0xA74 JUMPI SWAP1 POP JUMPDEST POP SWAP1 POP PUSH1 0x6 PUSH1 0x40 MLOAD PUSH2 0xAA0 SWAP1 PUSH2 0x2A10 JUMP JUMPDEST SWAP1 DUP2 MSTORE PUSH1 0x20 ADD PUSH1 0x40 MLOAD DUP1 SWAP2 SUB SWAP1 KECCAK256 PUSH1 0x40 MLOAD DUP1 PUSH1 0x80 ADD PUSH1 0x40 MSTORE SWAP1 DUP2 PUSH1 0x0 DUP3 ADD DUP1 SLOAD PUSH2 0xAC9 SWAP1 PUSH2 0x24D6 JUMP JUMPDEST DUP1 PUSH1 0x1F ADD PUSH1 0x20 DUP1 SWAP2 DIV MUL PUSH1 0x20 ADD PUSH1 0x40 MLOAD SWAP1 DUP2 ADD PUSH1 0x40 MSTORE DUP1 SWAP3 SWAP2 SWAP1 DUP2 DUP2 MSTORE PUSH1 0x20 ADD DUP3 DUP1 SLOAD PUSH2 0xAF5 SWAP1 PUSH2 0x24D6 JUMP JUMPDEST DUP1 ISZERO PUSH2 0xB42 JUMPI DUP1 PUSH1 0x1F LT PUSH2 0xB17 JUMPI PUSH2 0x100 DUP1 DUP4 SLOAD DIV MUL DUP4 MSTORE SWAP2 PUSH1 0x20 ADD SWAP2 PUSH2 0xB42 JUMP JUMPDEST DUP3 ADD SWAP2 SWAP1 PUSH1 0x0 MSTORE PUSH1 0x20 PUSH1 0x0 KECCAK256 SWAP1 JUMPDEST DUP2 SLOAD DUP2 MSTORE SWAP1 PUSH1 0x1 ADD SWAP1 PUSH1 0x20 ADD DUP1 DUP4 GT PUSH2 0xB25 JUMPI DUP3 SWAP1 SUB PUSH1 0x1F AND DUP3 ADD SWAP2 JUMPDEST POP POP POP POP POP DUP2 MSTORE PUSH1 0x20 ADD PUSH1 0x1 DUP3 ADD DUP1 SLOAD PUSH2 0xB5B SWAP1 PUSH2 0x24D6 JUMP JUMPDEST DUP1 PUSH1 0x1F ADD PUSH1 0x20 DUP1 SWAP2 DIV MUL PUSH1 0x20 ADD PUSH1 0x40 MLOAD SWAP1 DUP2 ADD PUSH1 0x40 MSTORE DUP1 SWAP3 SWAP2 SWAP1 DUP2 DUP2 MSTORE PUSH1 0x20 ADD DUP3 DUP1 SLOAD PUSH2 0xB87 SWAP1 PUSH2 0x24D6 JUMP JUMPDEST DUP1 ISZERO PUSH2 0xBD4 JUMPI DUP1 PUSH1 0x1F LT PUSH2 0xBA9 JUMPI PUSH2 0x100 DUP1 DUP4 SLOAD DIV MUL DUP4 MSTORE SWAP2 PUSH1 0x20 ADD SWAP2 PUSH2 0xBD4 JUMP JUMPDEST DUP3 ADD SWAP2 SWAP1 PUSH1 0x0 MSTORE PUSH1 0x20 PUSH1 0x0 KECCAK256 SWAP1 JUMPDEST DUP2 SLOAD DUP2 MSTORE SWAP1 PUSH1 0x1 ADD SWAP1 PUSH1 0x20 ADD DUP1 DUP4 GT PUSH2 0xBB7 JUMPI DUP3 SWAP1 SUB PUSH1 0x1F AND DUP3 ADD SWAP2 JUMPDEST POP POP POP POP POP DUP2 MSTORE PUSH1 0x20 ADD PUSH1 0x2 DUP3 ADD SLOAD DUP2 MSTORE PUSH1 0x20 ADD PUSH1 0x3 DUP3 ADD DUP1 SLOAD PUSH2 0xBF7 SWAP1 PUSH2 0x24D6 JUMP JUMPDEST DUP1 PUSH1 0x1F ADD PUSH1 0x20 DUP1 SWAP2 DIV MUL PUSH1 0x20 ADD PUSH1 0x40 MLOAD SWAP1 DUP2 ADD PUSH1 0x40 MSTORE DUP1 SWAP3 SWAP2 SWAP1 DUP2 DUP2 MSTORE PUSH1 0x20 ADD DUP3 DUP1 SLOAD PUSH2 0xC23 SWAP1 PUSH2 0x24D6 JUMP JUMPDEST DUP1 ISZERO PUSH2 0xC70 JUMPI DUP1 PUSH1 0x1F LT PUSH2 0xC45 JUMPI PUSH2 0x100 DUP1 DUP4 SLOAD DIV MUL DUP4 MSTORE SWAP2 PUSH1 0x20 ADD SWAP2 PUSH2 0xC70 JUMP JUMPDEST DUP3 ADD SWAP2 SWAP1 PUSH1 0x0 MSTORE PUSH1 0x20 PUSH1 0x0 KECCAK256 SWAP1 JUMPDEST DUP2 SLOAD DUP2 MSTORE SWAP1 PUSH1 0x1 ADD SWAP1 PUSH1 0x20 ADD DUP1 DUP4 GT PUSH2 0xC53 JUMPI DUP3 SWAP1 SUB PUSH1 0x1F AND DUP3 ADD SWAP2 JUMPDEST POP POP POP POP POP DUP2 MSTORE POP POP DUP2 PUSH1 0x0 DUP2 MLOAD DUP2 LT PUSH2 0xC8D JUMPI PUSH2 0xC8C PUSH2 0x2A25 JUMP JUMPDEST JUMPDEST PUSH1 0x20 MUL PUSH1 0x20 ADD ADD DUP2 SWAP1 MSTORE POP PUSH1 0x6 PUSH1 0x40 MLOAD PUSH2 0xCA6 SWAP1 PUSH2 0x2AA0 JUMP JUMPDEST SWAP1 DUP2 MSTORE PUSH1 0x20 ADD PUSH1 0x40 MLOAD DUP1 SWAP2 SUB SWAP1 KECCAK256 PUSH1 0x40 MLOAD DUP1 PUSH1 0x80 ADD PUSH1 0x40 MSTORE SWAP1 DUP2 PUSH1 0x0 DUP3 ADD DUP1 SLOAD PUSH2 0xCCF SWAP1 PUSH2 0x24D6 JUMP JUMPDEST DUP1 PUSH1 0x1F ADD PUSH1 0x20 DUP1 SWAP2 DIV MUL PUSH1 0x20 ADD PUSH1 0x40 MLOAD SWAP1 DUP2 ADD PUSH1 0x40 MSTORE DUP1 SWAP3 SWAP2 SWAP1 DUP2 DUP2 MSTORE PUSH1 0x20 ADD DUP3 DUP1 SLOAD PUSH2 0xCFB SWAP1 PUSH2 0x24D6 JUMP JUMPDEST DUP1 ISZERO PUSH2 0xD48 JUMPI DUP1 PUSH1 0x1F LT PUSH2 0xD1D JUMPI PUSH2 0x100 DUP1 DUP4 SLOAD DIV MUL DUP4 MSTORE SWAP2 PUSH1 0x20 ADD SWAP2 PUSH2 0xD48 JUMP JUMPDEST DUP3 ADD SWAP2 SWAP1 PUSH1 0x0 MSTORE PUSH1 0x20 PUSH1 0x0 KECCAK256 SWAP1 JUMPDEST DUP2 SLOAD DUP2 MSTORE SWAP1 PUSH1 0x1 ADD SWAP1 PUSH1 0x20 ADD DUP1 DUP4 GT PUSH2 0xD2B JUMPI DUP3 SWAP1 SUB PUSH1 0x1F AND DUP3 ADD SWAP2 JUMPDEST POP POP POP POP POP DUP2 MSTORE PUSH1 0x20 ADD PUSH1 0x1 DUP3 ADD DUP1 SLOAD PUSH2 0xD61 SWAP1 PUSH2 0x24D6 JUMP JUMPDEST DUP1 PUSH1 0x1F ADD PUSH1 0x20 DUP1 SWAP2 DIV MUL PUSH1 0x20 ADD PUSH1 0x40 MLOAD SWAP1 DUP2 ADD PUSH1 0x40 MSTORE DUP1 SWAP3 SWAP2 SWAP1 DUP2 DUP2 MSTORE PUSH1 0x20 ADD DUP3 DUP1 SLOAD PUSH2 0xD8D SWAP1 PUSH2 0x24D6 JUMP JUMPDEST DUP1 ISZERO PUSH2 0xDDA JUMPI DUP1 PUSH1 0x1F LT PUSH2 0xDAF JUMPI PUSH2 0x100 DUP1 DUP4 SLOAD DIV MUL DUP4 MSTORE SWAP2 PUSH1 0x20 ADD SWAP2 PUSH2 0xDDA JUMP JUMPDEST DUP3 ADD SWAP2 SWAP1 PUSH1 0x0 MSTORE PUSH1 0x20 PUSH1 0x0 KECCAK256 SWAP1 JUMPDEST DUP2 SLOAD DUP2 MSTORE SWAP1 PUSH1 0x1 ADD SWAP1 PUSH1 0x20 ADD DUP1 DUP4 GT PUSH2 0xDBD JUMPI DUP3 SWAP1 SUB PUSH1 0x1F AND DUP3 ADD SWAP2 JUMPDEST POP POP POP POP POP DUP2 MSTORE PUSH1 0x20 ADD PUSH1 0x2 DUP3 ADD SLOAD DUP2 MSTORE PUSH1 0x20 ADD PUSH1 0x3 DUP3 ADD DUP1 SLOAD PUSH2 0xDFD SWAP1 PUSH2 0x24D6 JUMP JUMPDEST DUP1 PUSH1 0x1F ADD PUSH1 0x20 DUP1 SWAP2 DIV MUL PUSH1 0x20 ADD PUSH1 0x40 MLOAD SWAP1 DUP2 ADD PUSH1 0x40 MSTORE DUP1 SWAP3 SWAP2 SWAP1 DUP2 DUP2 MSTORE PUSH1 0x20 ADD DUP3 DUP1 SLOAD PUSH2 0xE29 SWAP1 PUSH2 0x24D6 JUMP JUMPDEST DUP1 ISZERO PUSH2 0xE76 JUMPI DUP1 PUSH1 0x1F LT PUSH2 0xE4B JUMPI PUSH2 0x100 DUP1 DUP4 SLOAD DIV MUL DUP4 MSTORE SWAP2 PUSH1 0x20 ADD SWAP2 PUSH2 0xE76 JUMP JUMPDEST DUP3 ADD SWAP2 SWAP1 PUSH1 0x0 MSTORE PUSH1 0x20 PUSH1 0x0 KECCAK256 SWAP1 JUMPDEST DUP2 SLOAD DUP2 MSTORE SWAP1 PUSH1 0x1 ADD SWAP1 PUSH1 0x20 ADD DUP1 DUP4 GT PUSH2 0xE59 JUMPI DUP3 SWAP1 SUB PUSH1 0x1F AND DUP3 ADD SWAP2 JUMPDEST POP POP POP POP POP DUP2 MSTORE POP POP DUP2 PUSH1 0x1 DUP2 MLOAD DUP2 LT PUSH2 0xE93 JUMPI PUSH2 0xE92 PUSH2 0x2A25 JUMP JUMPDEST JUMPDEST PUSH1 0x20 MUL PUSH1 0x20 ADD ADD DUP2 SWAP1 MSTORE POP PUSH1 0x6 PUSH1 0x40 MLOAD PUSH2 0xEAC SWAP1 PUSH2 0x2B01 JUMP JUMPDEST SWAP1 DUP2 MSTORE PUSH1 0x20 ADD PUSH1 0x40 MLOAD DUP1 SWAP2 SUB SWAP1 KECCAK256 PUSH1 0x40 MLOAD DUP1 PUSH1 0x80 ADD PUSH1 0x40 MSTORE SWAP1 DUP2 PUSH1 0x0 DUP3 ADD DUP1 SLOAD PUSH2 0xED5 SWAP1 PUSH2 0x24D6 JUMP JUMPDEST DUP1 PUSH1 0x1F ADD PUSH1 0x20 DUP1 SWAP2 DIV MUL PUSH1 0x20 ADD PUSH1 0x40 MLOAD SWAP1 DUP2 ADD PUSH1 0x40 MSTORE DUP1 SWAP3 SWAP2 SWAP1 DUP2 DUP2 MSTORE PUSH1 0x20 ADD DUP3 DUP1 SLOAD PUSH2 0xF01 SWAP1 PUSH2 0x24D6 JUMP JUMPDEST DUP1 ISZERO PUSH2 0xF4E JUMPI DUP1 PUSH1 0x1F LT PUSH2 0xF23 JUMPI PUSH2 0x100 DUP1 DUP4 SLOAD DIV MUL DUP4 MSTORE SWAP2 PUSH1 0x20 ADD SWAP2 PUSH2 0xF4E JUMP JUMPDEST DUP3 ADD SWAP2 SWAP1 PUSH1 0x0 MSTORE PUSH1 0x20 PUSH1 0x0 KECCAK256 SWAP1 JUMPDEST DUP2 SLOAD DUP2 MSTORE SWAP1 PUSH1 0x1 ADD SWAP1 PUSH1 0x20 ADD DUP1 DUP4 GT PUSH2 0xF31 JUMPI DUP3 SWAP1 SUB PUSH1 0x1F AND DUP3 ADD SWAP2 JUMPDEST POP POP POP POP POP DUP2 MSTORE PUSH1 0x20 ADD PUSH1 0x1 DUP3 ADD DUP1 SLOAD PUSH2 0xF67 SWAP1 PUSH2 0x24D6 JUMP JUMPDEST DUP1 PUSH1 0x1F ADD PUSH1 0x20 DUP1 SWAP2 DIV MUL PUSH1 0x20 ADD PUSH1 0x40 MLOAD SWAP1 DUP2 ADD PUSH1 0x40 MSTORE DUP1 SWAP3 SWAP2 SWAP1 DUP2 DUP2 MSTORE PUSH1 0x20 ADD DUP3 DUP1 SLOAD PUSH2 0xF93 SWAP1 PUSH2 0x24D6 JUMP JUMPDEST DUP1 ISZERO PUSH2 0xFE0 JUMPI DUP1 PUSH1 0x1F LT PUSH2 0xFB5 JUMPI PUSH2 0x100 DUP1 DUP4 SLOAD DIV MUL DUP4 MSTORE SWAP2 PUSH1 0x20 ADD SWAP2 PUSH2 0xFE0 JUMP JUMPDEST DUP3 ADD SWAP2 SWAP1 PUSH1 0x0 MSTORE PUSH1 0x20 PUSH1 0x0 KECCAK256 SWAP1 JUMPDEST DUP2 SLOAD DUP2 MSTORE SWAP1 PUSH1 0x1 ADD SWAP1 PUSH1 0x20 ADD DUP1 DUP4 GT PUSH2 0xFC3 JUMPI DUP3 SWAP1 SUB PUSH1 0x1F AND DUP3 ADD SWAP2 JUMPDEST POP POP POP POP POP DUP2 MSTORE PUSH1 0x20 ADD PUSH1 0x2 DUP3 ADD SLOAD DUP2 MSTORE PUSH1 0x20 ADD PUSH1 0x3 DUP3 ADD DUP1 SLOAD PUSH2 0x1003 SWAP1 PUSH2 0x24D6 JUMP JUMPDEST DUP1 PUSH1 0x1F ADD PUSH1 0x20 DUP1 SWAP2 DIV MUL PUSH1 0x20 ADD PUSH1 0x40 MLOAD SWAP1 DUP2 ADD PUSH1 0x40 MSTORE DUP1 SWAP3 SWAP2 SWAP1 DUP2 DUP2 MSTORE PUSH1 0x20 ADD DUP3 DUP1 SLOAD PUSH2 0x102F SWAP1 PUSH2 0x24D6 JUMP JUMPDEST DUP1 ISZERO PUSH2 0x107C JUMPI DUP1 PUSH1 0x1F LT PUSH2 0x1051 JUMPI PUSH2 0x100 DUP1 DUP4 SLOAD DIV MUL DUP4 MSTORE SWAP2 PUSH1 0x20 ADD SWAP2 PUSH2 0x107C JUMP JUMPDEST DUP3 ADD SWAP2 SWAP1 PUSH1 0x0 MSTORE PUSH1 0x20 PUSH1 0x0 KECCAK256 SWAP1 JUMPDEST DUP2 SLOAD DUP2 MSTORE SWAP1 PUSH1 0x1 ADD SWAP1 PUSH1 0x20 ADD DUP1 DUP4 GT PUSH2 0x105F JUMPI DUP3 SWAP1 SUB PUSH1 0x1F AND DUP3 ADD SWAP2 JUMPDEST POP POP POP POP POP DUP2 MSTORE POP POP DUP2 PUSH1 0x2 DUP2 MLOAD DUP2 LT PUSH2 0x1099 JUMPI PUSH2 0x1098 PUSH2 0x2A25 JUMP JUMPDEST JUMPDEST PUSH1 0x20 MUL PUSH1 0x20 ADD ADD DUP2 SWAP1 MSTORE POP DUP1 SWAP3 POP POP POP SWAP1 JUMP JUMPDEST PUSH1 0x0 DUP1 PUSH1 0x0 DUP4 PUSH20 0xFFFFFFFFFFFFFFFFFFFFFFFFFFFFFFFFFFFFFFFF AND PUSH20 0xFFFFFFFFFFFFFFFFFFFFFFFFFFFFFFFFFFFFFFFF AND DUP2 MSTORE PUSH1 0x20 ADD SWAP1 DUP2 MSTORE PUSH1 0x20 ADD PUSH1 0x0 KECCAK256 SLOAD SWAP1 POP SWAP2 SWAP1 POP JUMP JUMPDEST PUSH2 0x10FC PUSH2 0x1787 JUMP JUMPDEST PUSH2 0x1106 PUSH1 0x0 PUSH2 0x1C5D JUMP JUMPDEST JUMP JUMPDEST PUSH1 0x0 PUSH1 0x5 PUSH1 0x0 SWAP1 SLOAD SWAP1 PUSH2 0x100 EXP SWAP1 DIV PUSH20 0xFFFFFFFFFFFFFFFFFFFFFFFFFFFFFFFFFFFFFFFF AND SWAP1 POP SWAP1 JUMP JUMPDEST PUSH1 0x60 PUSH1 0x4 DUP1 SLOAD PUSH2 0x1141 SWAP1 PUSH2 0x24D6 JUMP JUMPDEST DUP1 PUSH1 0x1F ADD PUSH1 0x20 DUP1 SWAP2 DIV MUL PUSH1 0x20 ADD PUSH1 0x40 MLOAD SWAP1 DUP2 ADD PUSH1 0x40 MSTORE DUP1 SWAP3 SWAP2 SWAP1 DUP2 DUP2 MSTORE PUSH1 0x20 ADD DUP3 DUP1 SLOAD PUSH2 0x116D SWAP1 PUSH2 0x24D6 JUMP JUMPDEST DUP1 ISZERO PUSH2 0x11BA JUMPI DUP1 PUSH1 0x1F LT PUSH2 0x118F JUMPI PUSH2 0x100 DUP1 DUP4 SLOAD DIV MUL DUP4 MSTORE SWAP2 PUSH1 0x20 ADD SWAP2 PUSH2 0x11BA JUMP JUMPDEST DUP3 ADD SWAP2 SWAP1 PUSH1 0x0 MSTORE PUSH1 0x20 PUSH1 0x0 KECCAK256 SWAP1 JUMPDEST DUP2 SLOAD DUP2 MSTORE SWAP1 PUSH1 0x1 ADD SWAP1 PUSH1 0x20 ADD DUP1 DUP4 GT PUSH2 0x119D JUMPI DUP3 SWAP1 SUB PUSH1 0x1F AND DUP3 ADD SWAP2 JUMPDEST POP POP POP POP POP SWAP1 POP SWAP1 JUMP JUMPDEST PUSH1 0x0 DUP1 PUSH2 0x11CF PUSH2 0x13E9 JUMP JUMPDEST SWAP1 POP PUSH1 0x0 PUSH2 0x11DD DUP3 DUP7 PUSH2 0x12DF JUMP JUMPDEST SWAP1 POP DUP4 DUP2 LT ISZERO PUSH2 0x1222 JUMPI PUSH1 0x40 MLOAD PUSH32 0x8C379A000000000000000000000000000000000000000000000000000000000 DUP2 MSTORE PUSH1 0x4 ADD PUSH2 0x1219 SWAP1 PUSH2 0x2B88 JUMP JUMPDEST PUSH1 0x40 MLOAD DUP1 SWAP2 SUB SWAP1 REVERT JUMPDEST PUSH2 0x122F DUP3 DUP7 DUP7 DUP5 SUB PUSH2 0x13F1 JUMP JUMPDEST PUSH1 0x1 SWAP3 POP POP POP SWAP3 SWAP2 POP POP JUMP JUMPDEST PUSH1 0x0 DUP1 DUP3 GT PUSH2 0x127F JUMPI PUSH1 0x40 MLOAD PUSH32 0x8C379A000000000000000000000000000000000000000000000000000000000 DUP2 MSTORE PUSH1 0x4 ADD PUSH2 0x1276 SWAP1 PUSH2 0x29A4 JUMP JUMPDEST PUSH1 0x40 MLOAD DUP1 SWAP2 SUB SWAP1 REVERT JUMPDEST DUP2 PUSH2 0x1289 CALLER PUSH2 0x10AC JUMP JUMPDEST LT ISZERO PUSH2 0x12CA JUMPI PUSH1 0x40 MLOAD PUSH32 0x8C379A000000000000000000000000000000000000000000000000000000000 DUP2 MSTORE PUSH1 0x4 ADD PUSH2 0x12C1 SWAP1 PUSH2 0x2612 JUMP JUMPDEST PUSH1 0x40 MLOAD DUP1 SWAP2 SUB SWAP1 REVERT JUMPDEST PUSH2 0x12D4 DUP4 DUP4 PUSH2 0x1D23 JUMP JUMPDEST POP PUSH1 0x1 SWAP1 POP SWAP3 SWAP2 POP POP JUMP JUMPDEST PUSH1 0x0 PUSH1 0x1 PUSH1 0x0 DUP5 PUSH20 0xFFFFFFFFFFFFFFFFFFFFFFFFFFFFFFFFFFFFFFFF AND PUSH20 0xFFFFFFFFFFFFFFFFFFFFFFFFFFFFFFFFFFFFFFFF AND DUP2 MSTORE PUSH1 0x20 ADD SWAP1 DUP2 MSTORE PUSH1 0x20 ADD PUSH1 0x0 KECCAK256 PUSH1 0x0 DUP4 PUSH20 0xFFFFFFFFFFFFFFFFFFFFFFFFFFFFFFFFFFFFFFFF AND PUSH20 0xFFFFFFFFFFFFFFFFFFFFFFFFFFFFFFFFFFFFFFFF AND DUP2 MSTORE PUSH1 0x20 ADD SWAP1 DUP2 MSTORE PUSH1 0x20 ADD PUSH1 0x0 KECCAK256 SLOAD SWAP1 POP SWAP3 SWAP2 POP POP JUMP JUMPDEST PUSH2 0x136E PUSH2 0x1787 JUMP JUMPDEST PUSH1 0x0 PUSH20 0xFFFFFFFFFFFFFFFFFFFFFFFFFFFFFFFFFFFFFFFF AND DUP2 PUSH20 0xFFFFFFFFFFFFFFFFFFFFFFFFFFFFFFFFFFFFFFFF AND SUB PUSH2 0x13DD JUMPI PUSH1 0x40 MLOAD PUSH32 0x8C379A000000000000000000000000000000000000000000000000000000000 DUP2 MSTORE PUSH1 0x4 ADD PUSH2 0x13D4 SWAP1 PUSH2 0x2C1A JUMP JUMPDEST PUSH1 0x40 MLOAD DUP1 SWAP2 SUB SWAP1 REVERT JUMPDEST PUSH2 0x13E6 DUP2 PUSH2 0x1C5D JUMP JUMPDEST POP JUMP JUMPDEST PUSH1 0x0 CALLER SWAP1 POP SWAP1 JUMP JUMPDEST PUSH1 0x0 PUSH20 0xFFFFFFFFFFFFFFFFFFFFFFFFFFFFFFFFFFFFFFFF AND DUP4 PUSH20 0xFFFFFFFFFFFFFFFFFFFFFFFFFFFFFFFFFFFFFFFF AND SUB PUSH2 0x1460 JUMPI PUSH1 0x40 MLOAD PUSH32 0x8C379A000000000000000000000000000000000000000000000000000000000 DUP2 MSTORE PUSH1 0x4 ADD PUSH2 0x1457 SWAP1 PUSH2 0x2CAC JUMP JUMPDEST PUSH1 0x40 MLOAD DUP1 SWAP2 SUB SWAP1 REVERT JUMPDEST PUSH1 0x0 PUSH20 0xFFFFFFFFFFFFFFFFFFFFFFFFFFFFFFFFFFFFFFFF AND DUP3 PUSH20 0xFFFFFFFFFFFFFFFFFFFFFFFFFFFFFFFFFFFFFFFF AND SUB PUSH2 0x14CF JUMPI PUSH1 0x40 MLOAD PUSH32 0x8C379A000000000000000000000000000000000000000000000000000000000 DUP2 MSTORE PUSH1 0x4 ADD PUSH2 0x14C6 SWAP1 PUSH2 0x2D3E JUMP JUMPDEST PUSH1 0x40 MLOAD DUP1 SWAP2 SUB SWAP1 REVERT JUMPDEST DUP1 PUSH1 0x1 PUSH1 0x0 DUP6 PUSH20 0xFFFFFFFFFFFFFFFFFFFFFFFFFFFFFFFFFFFFFFFF AND PUSH20 0xFFFFFFFFFFFFFFFFFFFFFFFFFFFFFFFFFFFFFFFF AND DUP2 MSTORE PUSH1 0x20 ADD SWAP1 DUP2 MSTORE PUSH1 0x20 ADD PUSH1 0x0 KECCAK256 PUSH1 0x0 DUP5 PUSH20 0xFFFFFFFFFFFFFFFFFFFFFFFFFFFFFFFFFFFFFFFF AND PUSH20 0xFFFFFFFFFFFFFFFFFFFFFFFFFFFFFFFFFFFFFFFF AND DUP2 MSTORE PUSH1 0x20 ADD SWAP1 DUP2 MSTORE PUSH1 0x20 ADD PUSH1 0x0 KECCAK256 DUP2 SWAP1 SSTORE POP DUP2 PUSH20 0xFFFFFFFFFFFFFFFFFFFFFFFFFFFFFFFFFFFFFFFF AND DUP4 PUSH20 0xFFFFFFFFFFFFFFFFFFFFFFFFFFFFFFFFFFFFFFFF AND PUSH32 0x8C5BE1E5EBEC7D5BD14F71427D1E84F3DD0314C0F7B2291E5B200AC8C7C3B925 DUP4 PUSH1 0x40 MLOAD PUSH2 0x15AD SWAP2 SWAP1 PUSH2 0x2190 JUMP JUMPDEST PUSH1 0x40 MLOAD DUP1 SWAP2 SUB SWAP1 LOG3 POP POP POP JUMP JUMPDEST PUSH1 0x0 PUSH20 0xFFFFFFFFFFFFFFFFFFFFFFFFFFFFFFFFFFFFFFFF AND DUP3 PUSH20 0xFFFFFFFFFFFFFFFFFFFFFFFFFFFFFFFFFFFFFFFF AND SUB PUSH2 0x1629 JUMPI PUSH1 0x40 MLOAD PUSH32 0x8C379A000000000000000000000000000000000000000000000000000000000 DUP2 MSTORE PUSH1 0x4 ADD PUSH2 0x1620 SWAP1 PUSH2 0x2DD0 JUMP JUMPDEST PUSH1 0x40 MLOAD DUP1 SWAP2 SUB SWAP1 REVERT JUMPDEST PUSH2 0x1635 DUP3 PUSH1 0x0 DUP4 PUSH2 0x1D46 JUMP JUMPDEST PUSH1 0x0 DUP1 PUSH1 0x0 DUP5 PUSH20 0xFFFFFFFFFFFFFFFFFFFFFFFFFFFFFFFFFFFFFFFF AND PUSH20 0xFFFFFFFFFFFFFFFFFFFFFFFFFFFFFFFFFFFFFFFF AND DUP2 MSTORE PUSH1 0x20 ADD SWAP1 DUP2 MSTORE PUSH1 0x20 ADD PUSH1 0x0 KECCAK256 SLOAD SWAP1 POP DUP2 DUP2 LT ISZERO PUSH2 0x16BB JUMPI PUSH1 0x40 MLOAD PUSH32 0x8C379A000000000000000000000000000000000000000000000000000000000 DUP2 MSTORE PUSH1 0x4 ADD PUSH2 0x16B2 SWAP1 PUSH2 0x2E62 JUMP JUMPDEST PUSH1 0x40 MLOAD DUP1 SWAP2 SUB SWAP1 REVERT JUMPDEST DUP2 DUP2 SUB PUSH1 0x0 DUP1 DUP6 PUSH20 0xFFFFFFFFFFFFFFFFFFFFFFFFFFFFFFFFFFFFFFFF AND PUSH20 0xFFFFFFFFFFFFFFFFFFFFFFFFFFFFFFFFFFFFFFFF AND DUP2 MSTORE PUSH1 0x20 ADD SWAP1 DUP2 MSTORE PUSH1 0x20 ADD PUSH1 0x0 KECCAK256 DUP2 SWAP1 SSTORE POP DUP2 PUSH1 0x2 PUSH1 0x0 DUP3 DUP3 SLOAD SUB SWAP3 POP POP DUP2 SWAP1 SSTORE POP PUSH1 0x0 PUSH20 0xFFFFFFFFFFFFFFFFFFFFFFFFFFFFFFFFFFFFFFFF AND DUP4 PUSH20 0xFFFFFFFFFFFFFFFFFFFFFFFFFFFFFFFFFFFFFFFF AND PUSH32 0xDDF252AD1BE2C89B69C2B068FC378DAA952BA7F163C4A11628F55A4DF523B3EF DUP5 PUSH1 0x40 MLOAD PUSH2 0x176E SWAP2 SWAP1 PUSH2 0x2190 JUMP JUMPDEST PUSH1 0x40 MLOAD DUP1 SWAP2 SUB SWAP1 LOG3 PUSH2 0x1782 DUP4 PUSH1 0x0 DUP5 PUSH2 0x1D4B JUMP JUMPDEST POP POP POP JUMP JUMPDEST PUSH2 0x178F PUSH2 0x13E9 JUMP JUMPDEST PUSH20 0xFFFFFFFFFFFFFFFFFFFFFFFFFFFFFFFFFFFFFFFF AND PUSH2 0x17AD PUSH2 0x1108 JUMP JUMPDEST PUSH20 0xFFFFFFFFFFFFFFFFFFFFFFFFFFFFFFFFFFFFFFFF AND EQ PUSH2 0x1803 JUMPI PUSH1 0x40 MLOAD PUSH32 0x8C379A000000000000000000000000000000000000000000000000000000000 DUP2 MSTORE PUSH1 0x4 ADD PUSH2 0x17FA SWAP1 PUSH2 0x2ECE JUMP JUMPDEST PUSH1 0x40 MLOAD DUP1 SWAP2 SUB SWAP1 REVERT JUMPDEST JUMP JUMPDEST PUSH1 0x0 PUSH2 0x1811 DUP5 DUP5 PUSH2 0x12DF JUMP JUMPDEST SWAP1 POP PUSH32 0xFFFFFFFFFFFFFFFFFFFFFFFFFFFFFFFFFFFFFFFFFFFFFFFFFFFFFFFFFFFFFFFF DUP2 EQ PUSH2 0x188B JUMPI DUP2 DUP2 LT ISZERO PUSH2 0x187D JUMPI PUSH1 0x40 MLOAD PUSH32 0x8C379A000000000000000000000000000000000000000000000000000000000 DUP2 MSTORE PUSH1 0x4 ADD PUSH2 0x1874 SWAP1 PUSH2 0x2F3A JUMP JUMPDEST PUSH1 0x40 MLOAD DUP1 SWAP2 SUB SWAP1 REVERT JUMPDEST PUSH2 0x188A DUP5 DUP5 DUP5 DUP5 SUB PUSH2 0x13F1 JUMP JUMPDEST JUMPDEST POP POP POP POP JUMP JUMPDEST PUSH1 0x0 PUSH20 0xFFFFFFFFFFFFFFFFFFFFFFFFFFFFFFFFFFFFFFFF AND DUP4 PUSH20 0xFFFFFFFFFFFFFFFFFFFFFFFFFFFFFFFFFFFFFFFF AND SUB PUSH2 0x1900 JUMPI PUSH1 0x40 MLOAD PUSH32 0x8C379A000000000000000000000000000000000000000000000000000000000 DUP2 MSTORE PUSH1 0x4 ADD PUSH2 0x18F7 SWAP1 PUSH2 0x2FCC JUMP JUMPDEST PUSH1 0x40 MLOAD DUP1 SWAP2 SUB SWAP1 REVERT JUMPDEST PUSH1 0x0 PUSH20 0xFFFFFFFFFFFFFFFFFFFFFFFFFFFFFFFFFFFFFFFF AND DUP3 PUSH20 0xFFFFFFFFFFFFFFFFFFFFFFFFFFFFFFFFFFFFFFFF AND SUB PUSH2 0x196F JUMPI PUSH1 0x40 MLOAD PUSH32 0x8C379A000000000000000000000000000000000000000000000000000000000 DUP2 MSTORE PUSH1 0x4 ADD PUSH2 0x1966 SWAP1 PUSH2 0x305E JUMP JUMPDEST PUSH1 0x40 MLOAD DUP1 SWAP2 SUB SWAP1 REVERT JUMPDEST PUSH2 0x197A DUP4 DUP4 DUP4 PUSH2 0x1D46 JUMP JUMPDEST PUSH1 0x0 DUP1 PUSH1 0x0 DUP6 PUSH20 0xFFFFFFFFFFFFFFFFFFFFFFFFFFFFFFFFFFFFFFFF AND PUSH20 0xFFFFFFFFFFFFFFFFFFFFFFFFFFFFFFFFFFFFFFFF AND DUP2 MSTORE PUSH1 0x20 ADD SWAP1 DUP2 MSTORE PUSH1 0x20 ADD PUSH1 0x0 KECCAK256 SLOAD SWAP1 POP DUP2 DUP2 LT ISZERO PUSH2 0x1A00 JUMPI PUSH1 0x40 MLOAD PUSH32 0x8C379A000000000000000000000000000000000000000000000000000000000 DUP2 MSTORE PUSH1 0x4 ADD PUSH2 0x19F7 SWAP1 PUSH2 0x30F0 JUMP JUMPDEST PUSH1 0x40 MLOAD DUP1 SWAP2 SUB SWAP1 REVERT JUMPDEST DUP2 DUP2 SUB PUSH1 0x0 DUP1 DUP7 PUSH20 0xFFFFFFFFFFFFFFFFFFFFFFFFFFFFFFFFFFFFFFFF AND PUSH20 0xFFFFFFFFFFFFFFFFFFFFFFFFFFFFFFFFFFFFFFFF AND DUP2 MSTORE PUSH1 0x20 ADD SWAP1 DUP2 MSTORE PUSH1 0x20 ADD PUSH1 0x0 KECCAK256 DUP2 SWAP1 SSTORE POP DUP2 PUSH1 0x0 DUP1 DUP6 PUSH20 0xFFFFFFFFFFFFFFFFFFFFFFFFFFFFFFFFFFFFFFFF AND PUSH20 0xFFFFFFFFFFFFFFFFFFFFFFFFFFFFFFFFFFFFFFFF AND DUP2 MSTORE PUSH1 0x20 ADD SWAP1 DUP2 MSTORE PUSH1 0x20 ADD PUSH1 0x0 KECCAK256 PUSH1 0x0 DUP3 DUP3 SLOAD ADD SWAP3 POP POP DUP2 SWAP1 SSTORE POP DUP3 PUSH20 0xFFFFFFFFFFFFFFFFFFFFFFFFFFFFFFFFFFFFFFFF AND DUP5 PUSH20 0xFFFFFFFFFFFFFFFFFFFFFFFFFFFFFFFFFFFFFFFF AND PUSH32 0xDDF252AD1BE2C89B69C2B068FC378DAA952BA7F163C4A11628F55A4DF523B3EF DUP5 PUSH1 0x40 MLOAD PUSH2 0x1AEE SWAP2 SWAP1 PUSH2 0x2190 JUMP JUMPDEST PUSH1 0x40 MLOAD DUP1 SWAP2 SUB SWAP1 LOG3 PUSH2 0x1B01 DUP5 DUP5 DUP5 PUSH2 0x1D4B JUMP JUMPDEST POP POP POP POP JUMP JUMPDEST PUSH1 0x0 PUSH20 0xFFFFFFFFFFFFFFFFFFFFFFFFFFFFFFFFFFFFFFFF AND DUP3 PUSH20 0xFFFFFFFFFFFFFFFFFFFFFFFFFFFFFFFFFFFFFFFF AND SUB PUSH2 0x1B76 JUMPI PUSH1 0x40 MLOAD PUSH32 0x8C379A000000000000000000000000000000000000000000000000000000000 DUP2 MSTORE PUSH1 0x4 ADD PUSH2 0x1B6D SWAP1 PUSH2 0x315C JUMP JUMPDEST PUSH1 0x40 MLOAD DUP1 SWAP2 SUB SWAP1 REVERT JUMPDEST PUSH2 0x1B82 PUSH1 0x0 DUP4 DUP4 PUSH2 0x1D46 JUMP JUMPDEST DUP1 PUSH1 0x2 PUSH1 0x0 DUP3 DUP3 SLOAD PUSH2 0x1B94 SWAP2 SWAP1 PUSH2 0x2924 JUMP JUMPDEST SWAP3 POP POP DUP2 SWAP1 SSTORE POP DUP1 PUSH1 0x0 DUP1 DUP5 PUSH20 0xFFFFFFFFFFFFFFFFFFFFFFFFFFFFFFFFFFFFFFFF AND PUSH20 0xFFFFFFFFFFFFFFFFFFFFFFFFFFFFFFFFFFFFFFFF AND DUP2 MSTORE PUSH1 0x20 ADD SWAP1 DUP2 MSTORE PUSH1 0x20 ADD PUSH1 0x0 KECCAK256 PUSH1 0x0 DUP3 DUP3 SLOAD ADD SWAP3 POP POP DUP2 SWAP1 SSTORE POP DUP2 PUSH20 0xFFFFFFFFFFFFFFFFFFFFFFFFFFFFFFFFFFFFFFFF AND PUSH1 0x0 PUSH20 0xFFFFFFFFFFFFFFFFFFFFFFFFFFFFFFFFFFFFFFFF AND PUSH32 0xDDF252AD1BE2C89B69C2B068FC378DAA952BA7F163C4A11628F55A4DF523B3EF DUP4 PUSH1 0x40 MLOAD PUSH2 0x1C45 SWAP2 SWAP1 PUSH2 0x2190 JUMP JUMPDEST PUSH1 0x40 MLOAD DUP1 SWAP2 SUB SWAP1 LOG3 PUSH2 0x1C59 PUSH1 0x0 DUP4 DUP4 PUSH2 0x1D4B JUMP JUMPDEST POP POP JUMP JUMPDEST PUSH1 0x0 PUSH1 0x5 PUSH1 0x0 SWAP1 SLOAD SWAP1 PUSH2 0x100 EXP SWAP1 DIV PUSH20 0xFFFFFFFFFFFFFFFFFFFFFFFFFFFFFFFFFFFFFFFF AND SWAP1 POP DUP2 PUSH1 0x5 PUSH1 0x0 PUSH2 0x100 EXP DUP2 SLOAD DUP2 PUSH20 0xFFFFFFFFFFFFFFFFFFFFFFFFFFFFFFFFFFFFFFFF MUL NOT AND SWAP1 DUP4 PUSH20 0xFFFFFFFFFFFFFFFFFFFFFFFFFFFFFFFFFFFFFFFF AND MUL OR SWAP1 SSTORE POP DUP2 PUSH20 0xFFFFFFFFFFFFFFFFFFFFFFFFFFFFFFFFFFFFFFFF AND DUP2 PUSH20 0xFFFFFFFFFFFFFFFFFFFFFFFFFFFFFFFFFFFFFFFF AND PUSH32 0x8BE0079C531659141344CD1FD0A4F28419497F9722A3DAAFE3B4186F6B6457E0 PUSH1 0x40 MLOAD PUSH1 0x40 MLOAD DUP1 SWAP2 SUB SWAP1 LOG3 POP POP JUMP JUMPDEST PUSH1 0x0 DUP1 PUSH2 0x1D2E PUSH2 0x13E9 JUMP JUMPDEST SWAP1 POP PUSH2 0x1D3B DUP2 DUP6 DUP6 PUSH2 0x1891 JUMP JUMPDEST PUSH1 0x1 SWAP2 POP POP SWAP3 SWAP2 POP POP JUMP JUMPDEST POP POP POP JUMP JUMPDEST POP POP POP JUMP JUMPDEST PUSH1 0x40 MLOAD DUP1 PUSH1 0x80 ADD PUSH1 0x40 MSTORE DUP1 PUSH1 0x60 DUP2 MSTORE PUSH1 0x20 ADD PUSH1 0x60 DUP2 MSTORE PUSH1 0x20 ADD PUSH1 0x0 DUP2 MSTORE PUSH1 0x20 ADD PUSH1 0x60 DUP2 MSTORE POP SWAP1 JUMP JUMPDEST PUSH1 0x0 DUP2 MLOAD SWAP1 POP SWAP2 SWAP1 POP JUMP JUMPDEST PUSH1 0x0 DUP3 DUP3 MSTORE PUSH1 0x20 DUP3 ADD SWAP1 POP SWAP3 SWAP2 POP POP JUMP JUMPDEST PUSH1 0x0 JUMPDEST DUP4 DUP2 LT ISZERO PUSH2 0x1DB2 JUMPI DUP1 DUP3 ADD MLOAD DUP2 DUP5 ADD MSTORE PUSH1 0x20 DUP2 ADD SWAP1 POP PUSH2 0x1D97 JUMP JUMPDEST PUSH1 0x0 DUP5 DUP5 ADD MSTORE POP POP POP POP JUMP JUMPDEST PUSH1 0x0 PUSH1 0x1F NOT PUSH1 0x1F DUP4 ADD AND SWAP1 POP SWAP2 SWAP1 POP JUMP JUMPDEST PUSH1 0x0 PUSH2 0x1DDA DUP3 PUSH2 0x1D78 JUMP JUMPDEST PUSH2 0x1DE4 DUP2 DUP6 PUSH2 0x1D83 JUMP JUMPDEST SWAP4 POP PUSH2 0x1DF4 DUP2 DUP6 PUSH1 0x20 DUP7 ADD PUSH2 0x1D94 JUMP JUMPDEST PUSH2 0x1DFD DUP2 PUSH2 0x1DBE JUMP JUMPDEST DUP5 ADD SWAP2 POP POP SWAP3 SWAP2 POP POP JUMP JUMPDEST PUSH1 0x0 PUSH1 0x20 DUP3 ADD SWAP1 POP DUP2 DUP2 SUB PUSH1 0x0 DUP4 ADD MSTORE PUSH2 0x1E22 DUP2 DUP5 PUSH2 0x1DCF JUMP JUMPDEST SWAP1 POP SWAP3 SWAP2 POP POP JUMP JUMPDEST PUSH1 0x0 PUSH1 0x40 MLOAD SWAP1 POP SWAP1 JUMP JUMPDEST PUSH1 0x0 DUP1 REVERT JUMPDEST PUSH1 0x0 DUP1 REVERT JUMPDEST PUSH1 0x0 PUSH20 0xFFFFFFFFFFFFFFFFFFFFFFFFFFFFFFFFFFFFFFFF DUP3 AND SWAP1 POP SWAP2 SWAP1 POP JUMP JUMPDEST PUSH1 0x0 PUSH2 0x1E69 DUP3 PUSH2 0x1E3E JUMP JUMPDEST SWAP1 POP SWAP2 SWAP1 POP JUMP JUMPDEST PUSH2 0x1E79 DUP2 PUSH2 0x1E5E JUMP JUMPDEST DUP2 EQ PUSH2 0x1E84 JUMPI PUSH1 0x0 DUP1 REVERT JUMPDEST POP JUMP JUMPDEST PUSH1 0x0 DUP2 CALLDATALOAD SWAP1 POP PUSH2 0x1E96 DUP2 PUSH2 0x1E70 JUMP JUMPDEST SWAP3 SWAP2 POP POP JUMP JUMPDEST PUSH1 0x0 DUP2 SWAP1 POP SWAP2 SWAP1 POP JUMP JUMPDEST PUSH2 0x1EAF DUP2 PUSH2 0x1E9C JUMP JUMPDEST DUP2 EQ PUSH2 0x1EBA JUMPI PUSH1 0x0 DUP1 REVERT JUMPDEST POP JUMP JUMPDEST PUSH1 0x0 DUP2 CALLDATALOAD SWAP1 POP PUSH2 0x1ECC DUP2 PUSH2 0x1EA6 JUMP JUMPDEST SWAP3 SWAP2 POP POP JUMP JUMPDEST PUSH1 0x0 DUP1 PUSH1 0x40 DUP4 DUP6 SUB SLT ISZERO PUSH2 0x1EE9 JUMPI PUSH2 0x1EE8 PUSH2 0x1E34 JUMP JUMPDEST JUMPDEST PUSH1 0x0 PUSH2 0x1EF7 DUP6 DUP3 DUP7 ADD PUSH2 0x1E87 JUMP JUMPDEST SWAP3 POP POP PUSH1 0x20 PUSH2 0x1F08 DUP6 DUP3 DUP7 ADD PUSH2 0x1EBD JUMP JUMPDEST SWAP2 POP POP SWAP3 POP SWAP3 SWAP1 POP JUMP JUMPDEST PUSH1 0x0 DUP2 ISZERO ISZERO SWAP1 POP SWAP2 SWAP1 POP JUMP JUMPDEST PUSH2 0x1F27 DUP2 PUSH2 0x1F12 JUMP JUMPDEST DUP3 MSTORE POP POP JUMP JUMPDEST PUSH1 0x0 PUSH1 0x20 DUP3 ADD SWAP1 POP PUSH2 0x1F42 PUSH1 0x0 DUP4 ADD DUP5 PUSH2 0x1F1E JUMP JUMPDEST SWAP3 SWAP2 POP POP JUMP JUMPDEST PUSH1 0x0 DUP1 REVERT JUMPDEST PUSH1 0x0 DUP1 REVERT JUMPDEST PUSH32 0x4E487B7100000000000000000000000000000000000000000000000000000000 PUSH1 0x0 MSTORE PUSH1 0x41 PUSH1 0x4 MSTORE PUSH1 0x24 PUSH1 0x0 REVERT JUMPDEST PUSH2 0x1F8A DUP3 PUSH2 0x1DBE JUMP JUMPDEST DUP2 ADD DUP2 DUP2 LT PUSH8 0xFFFFFFFFFFFFFFFF DUP3 GT OR ISZERO PUSH2 0x1FA9 JUMPI PUSH2 0x1FA8 PUSH2 0x1F52 JUMP JUMPDEST JUMPDEST DUP1 PUSH1 0x40 MSTORE POP POP POP JUMP JUMPDEST PUSH1 0x0 PUSH2 0x1FBC PUSH2 0x1E2A JUMP JUMPDEST SWAP1 POP PUSH2 0x1FC8 DUP3 DUP3 PUSH2 0x1F81 JUMP JUMPDEST SWAP2 SWAP1 POP JUMP JUMPDEST PUSH1 0x0 PUSH8 0xFFFFFFFFFFFFFFFF DUP3 GT ISZERO PUSH2 0x1FE8 JUMPI PUSH2 0x1FE7 PUSH2 0x1F52 JUMP JUMPDEST JUMPDEST PUSH2 0x1FF1 DUP3 PUSH2 0x1DBE JUMP JUMPDEST SWAP1 POP PUSH1 0x20 DUP2 ADD SWAP1 POP SWAP2 SWAP1 POP JUMP JUMPDEST DUP3 DUP2 DUP4 CALLDATACOPY PUSH1 0x0 DUP4 DUP4 ADD MSTORE POP POP POP JUMP JUMPDEST PUSH1 0x0 PUSH2 0x2020 PUSH2 0x201B DUP5 PUSH2 0x1FCD JUMP JUMPDEST PUSH2 0x1FB2 JUMP JUMPDEST SWAP1 POP DUP3 DUP2 MSTORE PUSH1 0x20 DUP2 ADD DUP5 DUP5 DUP5 ADD GT ISZERO PUSH2 0x203C JUMPI PUSH2 0x203B PUSH2 0x1F4D JUMP JUMPDEST JUMPDEST PUSH2 0x2047 DUP5 DUP3 DUP6 PUSH2 0x1FFE JUMP JUMPDEST POP SWAP4 SWAP3 POP POP POP JUMP JUMPDEST PUSH1 0x0 DUP3 PUSH1 0x1F DUP4 ADD SLT PUSH2 0x2064 JUMPI PUSH2 0x2063 PUSH2 0x1F48 JUMP JUMPDEST JUMPDEST DUP2 CALLDATALOAD PUSH2 0x2074 DUP5 DUP3 PUSH1 0x20 DUP7 ADD PUSH2 0x200D JUMP JUMPDEST SWAP2 POP POP SWAP3 SWAP2 POP POP JUMP JUMPDEST PUSH1 0x0 PUSH1 0x20 DUP3 DUP5 SUB SLT ISZERO PUSH2 0x2093 JUMPI PUSH2 0x2092 PUSH2 0x1E34 JUMP JUMPDEST JUMPDEST PUSH1 0x0 DUP3 ADD CALLDATALOAD PUSH8 0xFFFFFFFFFFFFFFFF DUP2 GT ISZERO PUSH2 0x20B1 JUMPI PUSH2 0x20B0 PUSH2 0x1E39 JUMP JUMPDEST JUMPDEST PUSH2 0x20BD DUP5 DUP3 DUP6 ADD PUSH2 0x204F JUMP JUMPDEST SWAP2 POP POP SWAP3 SWAP2 POP POP JUMP JUMPDEST PUSH1 0x0 DUP1 PUSH1 0x0 DUP1 PUSH1 0x80 DUP6 DUP8 SUB SLT ISZERO PUSH2 0x20E0 JUMPI PUSH2 0x20DF PUSH2 0x1E34 JUMP JUMPDEST JUMPDEST PUSH1 0x0 DUP6 ADD CALLDATALOAD PUSH8 0xFFFFFFFFFFFFFFFF DUP2 GT ISZERO PUSH2 0x20FE JUMPI PUSH2 0x20FD PUSH2 0x1E39 JUMP JUMPDEST JUMPDEST PUSH2 0x210A DUP8 DUP3 DUP9 ADD PUSH2 0x204F JUMP JUMPDEST SWAP5 POP POP PUSH1 0x20 DUP6 ADD CALLDATALOAD PUSH8 0xFFFFFFFFFFFFFFFF DUP2 GT ISZERO PUSH2 0x212B JUMPI PUSH2 0x212A PUSH2 0x1E39 JUMP JUMPDEST JUMPDEST PUSH2 0x2137 DUP8 DUP3 DUP9 ADD PUSH2 0x204F JUMP JUMPDEST SWAP4 POP POP PUSH1 0x40 PUSH2 0x2148 DUP8 DUP3 DUP9 ADD PUSH2 0x1EBD JUMP JUMPDEST SWAP3 POP POP PUSH1 0x60 DUP6 ADD CALLDATALOAD PUSH8 0xFFFFFFFFFFFFFFFF DUP2 GT ISZERO PUSH2 0x2169 JUMPI PUSH2 0x2168 PUSH2 0x1E39 JUMP JUMPDEST JUMPDEST PUSH2 0x2175 DUP8 DUP3 DUP9 ADD PUSH2 0x204F JUMP JUMPDEST SWAP2 POP POP SWAP3 SWAP6 SWAP2 SWAP5 POP SWAP3 POP JUMP JUMPDEST PUSH2 0x218A DUP2 PUSH2 0x1E9C JUMP JUMPDEST DUP3 MSTORE POP POP JUMP JUMPDEST PUSH1 0x0 PUSH1 0x20 DUP3 ADD SWAP1 POP PUSH2 0x21A5 PUSH1 0x0 DUP4 ADD DUP5 PUSH2 0x2181 JUMP JUMPDEST SWAP3 SWAP2 POP POP JUMP JUMPDEST PUSH1 0x0 DUP1 PUSH1 0x0 PUSH1 0x60 DUP5 DUP7 SUB SLT ISZERO PUSH2 0x21C4 JUMPI PUSH2 0x21C3 PUSH2 0x1E34 JUMP JUMPDEST JUMPDEST PUSH1 0x0 PUSH2 0x21D2 DUP7 DUP3 DUP8 ADD PUSH2 0x1E87 JUMP JUMPDEST SWAP4 POP POP PUSH1 0x20 PUSH2 0x21E3 DUP7 DUP3 DUP8 ADD PUSH2 0x1E87 JUMP JUMPDEST SWAP3 POP POP PUSH1 0x40 PUSH2 0x21F4 DUP7 DUP3 DUP8 ADD PUSH2 0x1EBD JUMP JUMPDEST SWAP2 POP POP SWAP3 POP SWAP3 POP SWAP3 JUMP JUMPDEST PUSH1 0x0 PUSH1 0xFF DUP3 AND SWAP1 POP SWAP2 SWAP1 POP JUMP JUMPDEST PUSH2 0x2214 DUP2 PUSH2 0x21FE JUMP JUMPDEST DUP3 MSTORE POP POP JUMP JUMPDEST PUSH1 0x0 PUSH1 0x20 DUP3 ADD SWAP1 POP PUSH2 0x222F PUSH1 0x0 DUP4 ADD DUP5 PUSH2 0x220B JUMP JUMPDEST SWAP3 SWAP2 POP POP JUMP JUMPDEST PUSH1 0x0 PUSH1 0x20 DUP3 DUP5 SUB SLT ISZERO PUSH2 0x224B JUMPI PUSH2 0x224A PUSH2 0x1E34 JUMP JUMPDEST JUMPDEST PUSH1 0x0 PUSH2 0x2259 DUP5 DUP3 DUP6 ADD PUSH2 0x1EBD JUMP JUMPDEST SWAP2 POP POP SWAP3 SWAP2 POP POP JUMP JUMPDEST PUSH1 0x0 DUP2 MLOAD SWAP1 POP SWAP2 SWAP1 POP JUMP JUMPDEST PUSH1 0x0 DUP3 DUP3 MSTORE PUSH1 0x20 DUP3 ADD SWAP1 POP SWAP3 SWAP2 POP POP JUMP JUMPDEST PUSH1 0x0 DUP2 SWAP1 POP PUSH1 0x20 DUP3 ADD SWAP1 POP SWAP2 SWAP1 POP JUMP JUMPDEST PUSH1 0x0 DUP3 DUP3 MSTORE PUSH1 0x20 DUP3 ADD SWAP1 POP SWAP3 SWAP2 POP POP JUMP JUMPDEST PUSH1 0x0 PUSH2 0x22AA DUP3 PUSH2 0x1D78 JUMP JUMPDEST PUSH2 0x22B4 DUP2 DUP6 PUSH2 0x228E JUMP JUMPDEST SWAP4 POP PUSH2 0x22C4 DUP2 DUP6 PUSH1 0x20 DUP7 ADD PUSH2 0x1D94 JUMP JUMPDEST PUSH2 0x22CD DUP2 PUSH2 0x1DBE JUMP JUMPDEST DUP5 ADD SWAP2 POP POP SWAP3 SWAP2 POP POP JUMP JUMPDEST PUSH2 0x22E1 DUP2 PUSH2 0x1E9C JUMP JUMPDEST DUP3 MSTORE POP POP JUMP JUMPDEST PUSH1 0x0 PUSH1 0x80 DUP4 ADD PUSH1 0x0 DUP4 ADD MLOAD DUP5 DUP3 SUB PUSH1 0x0 DUP7 ADD MSTORE PUSH2 0x2304 DUP3 DUP3 PUSH2 0x229F JUMP JUMPDEST SWAP2 POP POP PUSH1 0x20 DUP4 ADD MLOAD DUP5 DUP3 SUB PUSH1 0x20 DUP7 ADD MSTORE PUSH2 0x231E DUP3 DUP3 PUSH2 0x229F JUMP JUMPDEST SWAP2 POP POP PUSH1 0x40 DUP4 ADD MLOAD PUSH2 0x2333 PUSH1 0x40 DUP7 ADD DUP3 PUSH2 0x22D8 JUMP JUMPDEST POP PUSH1 0x60 DUP4 ADD MLOAD DUP5 DUP3 SUB PUSH1 0x60 DUP7 ADD MSTORE PUSH2 0x234B DUP3 DUP3 PUSH2 0x229F JUMP JUMPDEST SWAP2 POP POP DUP1 SWAP2 POP POP SWAP3 SWAP2 POP POP JUMP JUMPDEST PUSH1 0x0 PUSH2 0x2364 DUP4 DUP4 PUSH2 0x22E7 JUMP JUMPDEST SWAP1 POP SWAP3 SWAP2 POP POP JUMP JUMPDEST PUSH1 0x0 PUSH1 0x20 DUP3 ADD SWAP1 POP SWAP2 SWAP1 POP JUMP JUMPDEST PUSH1 0x0 PUSH2 0x2384 DUP3 PUSH2 0x2262 JUMP JUMPDEST PUSH2 0x238E DUP2 DUP6 PUSH2 0x226D JUMP JUMPDEST SWAP4 POP DUP4 PUSH1 0x20 DUP3 MUL DUP6 ADD PUSH2 0x23A0 DUP6 PUSH2 0x227E JUMP JUMPDEST DUP1 PUSH1 0x0 JUMPDEST DUP6 DUP2 LT ISZERO PUSH2 0x23DC JUMPI DUP5 DUP5 SUB DUP10 MSTORE DUP2 MLOAD PUSH2 0x23BD DUP6 DUP3 PUSH2 0x2358 JUMP JUMPDEST SWAP5 POP PUSH2 0x23C8 DUP4 PUSH2 0x236C JUMP JUMPDEST SWAP3 POP PUSH1 0x20 DUP11 ADD SWAP10 POP POP PUSH1 0x1 DUP2 ADD SWAP1 POP PUSH2 0x23A4 JUMP JUMPDEST POP DUP3 SWAP8 POP DUP8 SWAP6 POP POP POP POP POP POP SWAP3 SWAP2 POP POP JUMP JUMPDEST PUSH1 0x0 PUSH1 0x20 DUP3 ADD SWAP1 POP DUP2 DUP2 SUB PUSH1 0x0 DUP4 ADD MSTORE PUSH2 0x2408 DUP2 DUP5 PUSH2 0x2379 JUMP JUMPDEST SWAP1 POP SWAP3 SWAP2 POP POP JUMP JUMPDEST PUSH1 0x0 PUSH1 0x20 DUP3 DUP5 SUB SLT ISZERO PUSH2 0x2426 JUMPI PUSH2 0x2425 PUSH2 0x1E34 JUMP JUMPDEST JUMPDEST PUSH1 0x0 PUSH2 0x2434 DUP5 DUP3 DUP6 ADD PUSH2 0x1E87 JUMP JUMPDEST SWAP2 POP POP SWAP3 SWAP2 POP POP JUMP JUMPDEST PUSH2 0x2446 DUP2 PUSH2 0x1E5E JUMP JUMPDEST DUP3 MSTORE POP POP JUMP JUMPDEST PUSH1 0x0 PUSH1 0x20 DUP3 ADD SWAP1 POP PUSH2 0x2461 PUSH1 0x0 DUP4 ADD DUP5 PUSH2 0x243D JUMP JUMPDEST SWAP3 SWAP2 POP POP JUMP JUMPDEST PUSH1 0x0 DUP1 PUSH1 0x40 DUP4 DUP6 SUB SLT ISZERO PUSH2 0x247E JUMPI PUSH2 0x247D PUSH2 0x1E34 JUMP JUMPDEST JUMPDEST PUSH1 0x0 PUSH2 0x248C DUP6 DUP3 DUP7 ADD PUSH2 0x1E87 JUMP JUMPDEST SWAP3 POP POP PUSH1 0x20 PUSH2 0x249D DUP6 DUP3 DUP7 ADD PUSH2 0x1E87 JUMP JUMPDEST SWAP2 POP POP SWAP3 POP SWAP3 SWAP1 POP JUMP JUMPDEST PUSH32 0x4E487B7100000000000000000000000000000000000000000000000000000000 PUSH1 0x0 MSTORE PUSH1 0x22 PUSH1 0x4 MSTORE PUSH1 0x24 PUSH1 0x0 REVERT JUMPDEST PUSH1 0x0 PUSH1 0x2 DUP3 DIV SWAP1 POP PUSH1 0x1 DUP3 AND DUP1 PUSH2 0x24EE JUMPI PUSH1 0x7F DUP3 AND SWAP2 POP JUMPDEST PUSH1 0x20 DUP3 LT DUP2 SUB PUSH2 0x2501 JUMPI PUSH2 0x2500 PUSH2 0x24A7 JUMP JUMPDEST JUMPDEST POP SWAP2 SWAP1 POP JUMP JUMPDEST PUSH1 0x0 DUP2 SWAP1 POP SWAP3 SWAP2 POP POP JUMP JUMPDEST PUSH1 0x0 PUSH2 0x251D DUP3 PUSH2 0x1D78 JUMP JUMPDEST PUSH2 0x2527 DUP2 DUP6 PUSH2 0x2507 JUMP JUMPDEST SWAP4 POP PUSH2 0x2537 DUP2 DUP6 PUSH1 0x20 DUP7 ADD PUSH2 0x1D94 JUMP JUMPDEST DUP1 DUP5 ADD SWAP2 POP POP SWAP3 SWAP2 POP POP JUMP JUMPDEST PUSH1 0x0 PUSH2 0x254F DUP3 DUP5 PUSH2 0x2512 JUMP JUMPDEST SWAP2 POP DUP2 SWAP1 POP SWAP3 SWAP2 POP POP JUMP JUMPDEST PUSH32 0x4974656D20646F6573206E6F7420657869737400000000000000000000000000 PUSH1 0x0 DUP3 ADD MSTORE POP JUMP JUMPDEST PUSH1 0x0 PUSH2 0x2590 PUSH1 0x13 DUP4 PUSH2 0x1D83 JUMP JUMPDEST SWAP2 POP PUSH2 0x259B DUP3 PUSH2 0x255A JUMP JUMPDEST PUSH1 0x20 DUP3 ADD SWAP1 POP SWAP2 SWAP1 POP JUMP JUMPDEST PUSH1 0x0 PUSH1 0x20 DUP3 ADD SWAP1 POP DUP2 DUP2 SUB PUSH1 0x0 DUP4 ADD MSTORE PUSH2 0x25BF DUP2 PUSH2 0x2583 JUMP JUMPDEST SWAP1 POP SWAP2 SWAP1 POP JUMP JUMPDEST PUSH32 0x496E73756666696369656E742062616C616E6365000000000000000000000000 PUSH1 0x0 DUP3 ADD MSTORE POP JUMP JUMPDEST PUSH1 0x0 PUSH2 0x25FC PUSH1 0x14 DUP4 PUSH2 0x1D83 JUMP JUMPDEST SWAP2 POP PUSH2 0x2607 DUP3 PUSH2 0x25C6 JUMP JUMPDEST PUSH1 0x20 DUP3 ADD SWAP1 POP SWAP2 SWAP1 POP JUMP JUMPDEST PUSH1 0x0 PUSH1 0x20 DUP3 ADD SWAP1 POP DUP2 DUP2 SUB PUSH1 0x0 DUP4 ADD MSTORE PUSH2 0x262B DUP2 PUSH2 0x25EF JUMP JUMPDEST SWAP1 POP SWAP2 SWAP1 POP JUMP JUMPDEST PUSH1 0x0 DUP2 SWAP1 POP DUP2 PUSH1 0x0 MSTORE PUSH1 0x20 PUSH1 0x0 KECCAK256 SWAP1 POP SWAP2 SWAP1 POP JUMP JUMPDEST PUSH1 0x0 PUSH1 0x20 PUSH1 0x1F DUP4 ADD DIV SWAP1 POP SWAP2 SWAP1 POP JUMP JUMPDEST PUSH1 0x0 DUP3 DUP3 SHL SWAP1 POP SWAP3 SWAP2 POP POP JUMP JUMPDEST PUSH1 0x0 PUSH1 0x8 DUP4 MUL PUSH2 0x2694 PUSH32 0xFFFFFFFFFFFFFFFFFFFFFFFFFFFFFFFFFFFFFFFFFFFFFFFFFFFFFFFFFFFFFFFF DUP3 PUSH2 0x2657 JUMP JUMPDEST PUSH2 0x269E DUP7 DUP4 PUSH2 0x2657 JUMP JUMPDEST SWAP6 POP DUP1 NOT DUP5 AND SWAP4 POP DUP1 DUP7 AND DUP5 OR SWAP3 POP POP POP SWAP4 SWAP3 POP POP POP JUMP JUMPDEST PUSH1 0x0 DUP2 SWAP1 POP SWAP2 SWAP1 POP JUMP JUMPDEST PUSH1 0x0 PUSH2 0x26DB PUSH2 0x26D6 PUSH2 0x26D1 DUP5 PUSH2 0x1E9C JUMP JUMPDEST PUSH2 0x26B6 JUMP JUMPDEST PUSH2 0x1E9C JUMP JUMPDEST SWAP1 POP SWAP2 SWAP1 POP JUMP JUMPDEST PUSH1 0x0 DUP2 SWAP1 POP SWAP2 SWAP1 POP JUMP JUMPDEST PUSH2 0x26F5 DUP4 PUSH2 0x26C0 JUMP JUMPDEST PUSH2 0x2709 PUSH2 0x2701 DUP3 PUSH2 0x26E2 JUMP JUMPDEST DUP5 DUP5 SLOAD PUSH2 0x2664 JUMP JUMPDEST DUP3 SSTORE POP POP POP POP JUMP JUMPDEST PUSH1 0x0 SWAP1 JUMP JUMPDEST PUSH2 0x271E PUSH2 0x2711 JUMP JUMPDEST PUSH2 0x2729 DUP2 DUP5 DUP5 PUSH2 0x26EC JUMP JUMPDEST POP POP POP JUMP JUMPDEST JUMPDEST DUP2 DUP2 LT ISZERO PUSH2 0x274D JUMPI PUSH2 0x2742 PUSH1 0x0 DUP3 PUSH2 0x2716 JUMP JUMPDEST PUSH1 0x1 DUP2 ADD SWAP1 POP PUSH2 0x272F JUMP JUMPDEST POP POP JUMP JUMPDEST PUSH1 0x1F DUP3 GT ISZERO PUSH2 0x2792 JUMPI PUSH2 0x2763 DUP2 PUSH2 0x2632 JUMP JUMPDEST PUSH2 0x276C DUP5 PUSH2 0x2647 JUMP JUMPDEST DUP2 ADD PUSH1 0x20 DUP6 LT ISZERO PUSH2 0x277B JUMPI DUP2 SWAP1 POP JUMPDEST PUSH2 0x278F PUSH2 0x2787 DUP6 PUSH2 0x2647 JUMP JUMPDEST DUP4 ADD DUP3 PUSH2 0x272E JUMP JUMPDEST POP POP JUMPDEST POP POP POP JUMP JUMPDEST PUSH1 0x0 DUP3 DUP3 SHR SWAP1 POP SWAP3 SWAP2 POP POP JUMP JUMPDEST PUSH1 0x0 PUSH2 0x27B5 PUSH1 0x0 NOT DUP5 PUSH1 0x8 MUL PUSH2 0x2797 JUMP JUMPDEST NOT DUP1 DUP4 AND SWAP2 POP POP SWAP3 SWAP2 POP POP JUMP JUMPDEST PUSH1 0x0 PUSH2 0x27CE DUP4 DUP4 PUSH2 0x27A4 JUMP JUMPDEST SWAP2 POP DUP3 PUSH1 0x2 MUL DUP3 OR SWAP1 POP SWAP3 SWAP2 POP POP JUMP JUMPDEST PUSH2 0x27E7 DUP3 PUSH2 0x1D78 JUMP JUMPDEST PUSH8 0xFFFFFFFFFFFFFFFF DUP2 GT ISZERO PUSH2 0x2800 JUMPI PUSH2 0x27FF PUSH2 0x1F52 JUMP JUMPDEST JUMPDEST PUSH2 0x280A DUP3 SLOAD PUSH2 0x24D6 JUMP JUMPDEST PUSH2 0x2815 DUP3 DUP3 DUP6 PUSH2 0x2751 JUMP JUMPDEST PUSH1 0x0 PUSH1 0x20 SWAP1 POP PUSH1 0x1F DUP4 GT PUSH1 0x1 DUP2 EQ PUSH2 0x2848 JUMPI PUSH1 0x0 DUP5 ISZERO PUSH2 0x2836 JUMPI DUP3 DUP8 ADD MLOAD SWAP1 POP JUMPDEST PUSH2 0x2840 DUP6 DUP3 PUSH2 0x27C2 JUMP JUMPDEST DUP7 SSTORE POP PUSH2 0x28A8 JUMP JUMPDEST PUSH1 0x1F NOT DUP5 AND PUSH2 0x2856 DUP7 PUSH2 0x2632 JUMP JUMPDEST PUSH1 0x0 JUMPDEST DUP3 DUP2 LT ISZERO PUSH2 0x287E JUMPI DUP5 DUP10 ADD MLOAD DUP3 SSTORE PUSH1 0x1 DUP3 ADD SWAP2 POP PUSH1 0x20 DUP6 ADD SWAP5 POP PUSH1 0x20 DUP2 ADD SWAP1 POP PUSH2 0x2859 JUMP JUMPDEST DUP7 DUP4 LT ISZERO PUSH2 0x289B JUMPI DUP5 DUP10 ADD MLOAD PUSH2 0x2897 PUSH1 0x1F DUP10 AND DUP3 PUSH2 0x27A4 JUMP JUMPDEST DUP4 SSTORE POP JUMPDEST PUSH1 0x1 PUSH1 0x2 DUP9 MUL ADD DUP9 SSTORE POP POP POP JUMPDEST POP POP POP POP POP POP JUMP JUMPDEST PUSH1 0x0 PUSH1 0x60 DUP3 ADD SWAP1 POP DUP2 DUP2 SUB PUSH1 0x0 DUP4 ADD MSTORE PUSH2 0x28CA DUP2 DUP7 PUSH2 0x1DCF JUMP JUMPDEST SWAP1 POP DUP2 DUP2 SUB PUSH1 0x20 DUP4 ADD MSTORE PUSH2 0x28DE DUP2 DUP6 PUSH2 0x1DCF JUMP JUMPDEST SWAP1 POP PUSH2 0x28ED PUSH1 0x40 DUP4 ADD DUP5 PUSH2 0x2181 JUMP JUMPDEST SWAP5 SWAP4 POP POP POP POP JUMP JUMPDEST PUSH32 0x4E487B7100000000000000000000000000000000000000000000000000000000 PUSH1 0x0 MSTORE PUSH1 0x11 PUSH1 0x4 MSTORE PUSH1 0x24 PUSH1 0x0 REVERT JUMPDEST PUSH1 0x0 PUSH2 0x292F DUP3 PUSH2 0x1E9C JUMP JUMPDEST SWAP2 POP PUSH2 0x293A DUP4 PUSH2 0x1E9C JUMP JUMPDEST SWAP3 POP DUP3 DUP3 ADD SWAP1 POP DUP1 DUP3 GT ISZERO PUSH2 0x2952 JUMPI PUSH2 0x2951 PUSH2 0x28F5 JUMP JUMPDEST JUMPDEST SWAP3 SWAP2 POP POP JUMP JUMPDEST PUSH32 0x416D6F756E74206D7573742062652067726561746572207468616E207A65726F PUSH1 0x0 DUP3 ADD MSTORE POP JUMP JUMPDEST PUSH1 0x0 PUSH2 0x298E PUSH1 0x20 DUP4 PUSH2 0x1D83 JUMP JUMPDEST SWAP2 POP PUSH2 0x2999 DUP3 PUSH2 0x2958 JUMP JUMPDEST PUSH1 0x20 DUP3 ADD SWAP1 POP SWAP2 SWAP1 POP JUMP JUMPDEST PUSH1 0x0 PUSH1 0x20 DUP3 ADD SWAP1 POP DUP2 DUP2 SUB PUSH1 0x0 DUP4 ADD MSTORE PUSH2 0x29BD DUP2 PUSH2 0x2981 JUMP JUMPDEST SWAP1 POP SWAP2 SWAP1 POP JUMP JUMPDEST PUSH32 0x676F6C642D73776F726400000000000000000000000000000000000000000000 PUSH1 0x0 DUP3 ADD MSTORE POP JUMP JUMPDEST PUSH1 0x0 PUSH2 0x29FA PUSH1 0xA DUP4 PUSH2 0x2507 JUMP JUMPDEST SWAP2 POP PUSH2 0x2A05 DUP3 PUSH2 0x29C4 JUMP JUMPDEST PUSH1 0xA DUP3 ADD SWAP1 POP SWAP2 SWAP1 POP JUMP JUMPDEST PUSH1 0x0 PUSH2 0x2A1B DUP3 PUSH2 0x29ED JUMP JUMPDEST SWAP2 POP DUP2 SWAP1 POP SWAP2 SWAP1 POP JUMP JUMPDEST PUSH32 0x4E487B7100000000000000000000000000000000000000000000000000000000 PUSH1 0x0 MSTORE PUSH1 0x32 PUSH1 0x4 MSTORE PUSH1 0x24 PUSH1 0x0 REVERT JUMPDEST PUSH32 0x73696C7665722D736869656C6400000000000000000000000000000000000000 PUSH1 0x0 DUP3 ADD MSTORE POP JUMP JUMPDEST PUSH1 0x0 PUSH2 0x2A8A PUSH1 0xD DUP4 PUSH2 0x2507 JUMP JUMPDEST SWAP2 POP PUSH2 0x2A95 DUP3 PUSH2 0x2A54 JUMP JUMPDEST PUSH1 0xD DUP3 ADD SWAP1 POP SWAP2 SWAP1 POP JUMP JUMPDEST PUSH1 0x0 PUSH2 0x2AAB DUP3 PUSH2 0x2A7D JUMP JUMPDEST SWAP2 POP DUP2 SWAP1 POP SWAP2 SWAP1 POP JUMP JUMPDEST PUSH32 0x6865616C696E672D706F74696F6E000000000000000000000000000000000000 PUSH1 0x0 DUP3 ADD MSTORE POP JUMP JUMPDEST PUSH1 0x0 PUSH2 0x2AEB PUSH1 0xE DUP4 PUSH2 0x2507 JUMP JUMPDEST SWAP2 POP PUSH2 0x2AF6 DUP3 PUSH2 0x2AB5 JUMP JUMPDEST PUSH1 0xE DUP3 ADD SWAP1 POP SWAP2 SWAP1 POP JUMP JUMPDEST PUSH1 0x0 PUSH2 0x2B0C DUP3 PUSH2 0x2ADE JUMP JUMPDEST SWAP2 POP DUP2 SWAP1 POP SWAP2 SWAP1 POP JUMP JUMPDEST PUSH32 0x45524332303A2064656372656173656420616C6C6F77616E63652062656C6F77 PUSH1 0x0 DUP3 ADD MSTORE PUSH32 0x207A65726F000000000000000000000000000000000000000000000000000000 PUSH1 0x20 DUP3 ADD MSTORE POP JUMP JUMPDEST PUSH1 0x0 PUSH2 0x2B72 PUSH1 0x25 DUP4 PUSH2 0x1D83 JUMP JUMPDEST SWAP2 POP PUSH2 0x2B7D DUP3 PUSH2 0x2B16 JUMP JUMPDEST PUSH1 0x40 DUP3 ADD SWAP1 POP SWAP2 SWAP1 POP JUMP JUMPDEST PUSH1 0x0 PUSH1 0x20 DUP3 ADD SWAP1 POP DUP2 DUP2 SUB PUSH1 0x0 DUP4 ADD MSTORE PUSH2 0x2BA1 DUP2 PUSH2 0x2B65 JUMP JUMPDEST SWAP1 POP SWAP2 SWAP1 POP JUMP JUMPDEST PUSH32 0x4F776E61626C653A206E6577206F776E657220697320746865207A65726F2061 PUSH1 0x0 DUP3 ADD MSTORE PUSH32 0x6464726573730000000000000000000000000000000000000000000000000000 PUSH1 0x20 DUP3 ADD MSTORE POP JUMP JUMPDEST PUSH1 0x0 PUSH2 0x2C04 PUSH1 0x26 DUP4 PUSH2 0x1D83 JUMP JUMPDEST SWAP2 POP PUSH2 0x2C0F DUP3 PUSH2 0x2BA8 JUMP JUMPDEST PUSH1 0x40 DUP3 ADD SWAP1 POP SWAP2 SWAP1 POP JUMP JUMPDEST PUSH1 0x0 PUSH1 0x20 DUP3 ADD SWAP1 POP DUP2 DUP2 SUB PUSH1 0x0 DUP4 ADD MSTORE PUSH2 0x2C33 DUP2 PUSH2 0x2BF7 JUMP JUMPDEST SWAP1 POP SWAP2 SWAP1 POP JUMP JUMPDEST PUSH32 0x45524332303A20617070726F76652066726F6D20746865207A65726F20616464 PUSH1 0x0 DUP3 ADD MSTORE PUSH32 0x7265737300000000000000000000000000000000000000000000000000000000 PUSH1 0x20 DUP3 ADD MSTORE POP JUMP JUMPDEST PUSH1 0x0 PUSH2 0x2C96 PUSH1 0x24 DUP4 PUSH2 0x1D83 JUMP JUMPDEST SWAP2 POP PUSH2 0x2CA1 DUP3 PUSH2 0x2C3A JUMP JUMPDEST PUSH1 0x40 DUP3 ADD SWAP1 POP SWAP2 SWAP1 POP JUMP JUMPDEST PUSH1 0x0 PUSH1 0x20 DUP3 ADD SWAP1 POP DUP2 DUP2 SUB PUSH1 0x0 DUP4 ADD MSTORE PUSH2 0x2CC5 DUP2 PUSH2 0x2C89 JUMP JUMPDEST SWAP1 POP SWAP2 SWAP1 POP JUMP JUMPDEST PUSH32 0x45524332303A20617070726F766520746F20746865207A65726F206164647265 PUSH1 0x0 DUP3 ADD MSTORE PUSH32 0x7373000000000000000000000000000000000000000000000000000000000000 PUSH1 0x20 DUP3 ADD MSTORE POP JUMP JUMPDEST PUSH1 0x0 PUSH2 0x2D28 PUSH1 0x22 DUP4 PUSH2 0x1D83 JUMP JUMPDEST SWAP2 POP PUSH2 0x2D33 DUP3 PUSH2 0x2CCC JUMP JUMPDEST PUSH1 0x40 DUP3 ADD SWAP1 POP SWAP2 SWAP1 POP JUMP JUMPDEST PUSH1 0x0 PUSH1 0x20 DUP3 ADD SWAP1 POP DUP2 DUP2 SUB PUSH1 0x0 DUP4 ADD MSTORE PUSH2 0x2D57 DUP2 PUSH2 0x2D1B JUMP JUMPDEST SWAP1 POP SWAP2 SWAP1 POP JUMP JUMPDEST PUSH32 0x45524332303A206275726E2066726F6D20746865207A65726F20616464726573 PUSH1 0x0 DUP3 ADD MSTORE PUSH32 0x7300000000000000000000000000000000000000000000000000000000000000 PUSH1 0x20 DUP3 ADD MSTORE POP JUMP JUMPDEST PUSH1 0x0 PUSH2 0x2DBA PUSH1 0x21 DUP4 PUSH2 0x1D83 JUMP JUMPDEST SWAP2 POP PUSH2 0x2DC5 DUP3 PUSH2 0x2D5E JUMP JUMPDEST PUSH1 0x40 DUP3 ADD SWAP1 POP SWAP2 SWAP1 POP JUMP JUMPDEST PUSH1 0x0 PUSH1 0x20 DUP3 ADD SWAP1 POP DUP2 DUP2 SUB PUSH1 0x0 DUP4 ADD MSTORE PUSH2 0x2DE9 DUP2 PUSH2 0x2DAD JUMP JUMPDEST SWAP1 POP SWAP2 SWAP1 POP JUMP JUMPDEST PUSH32 0x45524332303A206275726E20616D6F756E7420657863656564732062616C616E PUSH1 0x0 DUP3 ADD MSTORE PUSH32 0x6365000000000000000000000000000000000000000000000000000000000000 PUSH1 0x20 DUP3 ADD MSTORE POP JUMP JUMPDEST PUSH1 0x0 PUSH2 0x2E4C PUSH1 0x22 DUP4 PUSH2 0x1D83 JUMP JUMPDEST SWAP2 POP PUSH2 0x2E57 DUP3 PUSH2 0x2DF0 JUMP JUMPDEST PUSH1 0x40 DUP3 ADD SWAP1 POP SWAP2 SWAP1 POP JUMP JUMPDEST PUSH1 0x0 PUSH1 0x20 DUP3 ADD SWAP1 POP DUP2 DUP2 SUB PUSH1 0x0 DUP4 ADD MSTORE PUSH2 0x2E7B DUP2 PUSH2 0x2E3F JUMP JUMPDEST SWAP1 POP SWAP2 SWAP1 POP JUMP JUMPDEST PUSH32 0x4F776E61626C653A2063616C6C6572206973206E6F7420746865206F776E6572 PUSH1 0x0 DUP3 ADD MSTORE POP JUMP JUMPDEST PUSH1 0x0 PUSH2 0x2EB8 PUSH1 0x20 DUP4 PUSH2 0x1D83 JUMP JUMPDEST SWAP2 POP PUSH2 0x2EC3 DUP3 PUSH2 0x2E82 JUMP JUMPDEST PUSH1 0x20 DUP3 ADD SWAP1 POP SWAP2 SWAP1 POP JUMP JUMPDEST PUSH1 0x0 PUSH1 0x20 DUP3 ADD SWAP1 POP DUP2 DUP2 SUB PUSH1 0x0 DUP4 ADD MSTORE PUSH2 0x2EE7 DUP2 PUSH2 0x2EAB JUMP JUMPDEST SWAP1 POP SWAP2 SWAP1 POP JUMP JUMPDEST PUSH32 0x45524332303A20696E73756666696369656E7420616C6C6F77616E6365000000 PUSH1 0x0 DUP3 ADD MSTORE POP JUMP JUMPDEST PUSH1 0x0 PUSH2 0x2F24 PUSH1 0x1D DUP4 PUSH2 0x1D83 JUMP JUMPDEST SWAP2 POP PUSH2 0x2F2F DUP3 PUSH2 0x2EEE JUMP JUMPDEST PUSH1 0x20 DUP3 ADD SWAP1 POP SWAP2 SWAP1 POP JUMP JUMPDEST PUSH1 0x0 PUSH1 0x20 DUP3 ADD SWAP1 POP DUP2 DUP2 SUB PUSH1 0x0 DUP4 ADD MSTORE PUSH2 0x2F53 DUP2 PUSH2 0x2F17 JUMP JUMPDEST SWAP1 POP SWAP2 SWAP1 POP JUMP JUMPDEST PUSH32 0x45524332303A207472616E736665722066726F6D20746865207A65726F206164 PUSH1 0x0 DUP3 ADD MSTORE PUSH32 0x6472657373000000000000000000000000000000000000000000000000000000 PUSH1 0x20 DUP3 ADD MSTORE POP JUMP JUMPDEST PUSH1 0x0 PUSH2 0x2FB6 PUSH1 0x25 DUP4 PUSH2 0x1D83 JUMP JUMPDEST SWAP2 POP PUSH2 0x2FC1 DUP3 PUSH2 0x2F5A JUMP JUMPDEST PUSH1 0x40 DUP3 ADD SWAP1 POP SWAP2 SWAP1 POP JUMP JUMPDEST PUSH1 0x0 PUSH1 0x20 DUP3 ADD SWAP1 POP DUP2 DUP2 SUB PUSH1 0x0 DUP4 ADD MSTORE PUSH2 0x2FE5 DUP2 PUSH2 0x2FA9 JUMP JUMPDEST SWAP1 POP SWAP2 SWAP1 POP JUMP JUMPDEST PUSH32 0x45524332303A207472616E7366657220746F20746865207A65726F2061646472 PUSH1 0x0 DUP3 ADD MSTORE PUSH32 0x6573730000000000000000000000000000000000000000000000000000000000 PUSH1 0x20 DUP3 ADD MSTORE POP JUMP JUMPDEST PUSH1 0x0 PUSH2 0x3048 PUSH1 0x23 DUP4 PUSH2 0x1D83 JUMP JUMPDEST SWAP2 POP PUSH2 0x3053 DUP3 PUSH2 0x2FEC JUMP JUMPDEST PUSH1 0x40 DUP3 ADD SWAP1 POP SWAP2 SWAP1 POP JUMP JUMPDEST PUSH1 0x0 PUSH1 0x20 DUP3 ADD SWAP1 POP DUP2 DUP2 SUB PUSH1 0x0 DUP4 ADD MSTORE PUSH2 0x3077 DUP2 PUSH2 0x303B JUMP JUMPDEST SWAP1 POP SWAP2 SWAP1 POP JUMP JUMPDEST PUSH32 0x45524332303A207472616E7366657220616D6F756E7420657863656564732062 PUSH1 0x0 DUP3 ADD MSTORE PUSH32 0x616C616E63650000000000000000000000000000000000000000000000000000 PUSH1 0x20 DUP3 ADD MSTORE POP JUMP JUMPDEST PUSH1 0x0 PUSH2 0x30DA PUSH1 0x26 DUP4 PUSH2 0x1D83 JUMP JUMPDEST SWAP2 POP PUSH2 0x30E5 DUP3 PUSH2 0x307E JUMP JUMPDEST PUSH1 0x40 DUP3 ADD SWAP1 POP SWAP2 SWAP1 POP JUMP JUMPDEST PUSH1 0x0 PUSH1 0x20 DUP3 ADD SWAP1 POP DUP2 DUP2 SUB PUSH1 0x0 DUP4 ADD MSTORE PUSH2 0x3109 DUP2 PUSH2 0x30CD JUMP JUMPDEST SWAP1 POP SWAP2 SWAP1 POP JUMP JUMPDEST PUSH32 0x45524332303A206D696E7420746F20746865207A65726F206164647265737300 PUSH1 0x0 DUP3 ADD MSTORE POP JUMP JUMPDEST PUSH1 0x0 PUSH2 0x3146 PUSH1 0x1F DUP4 PUSH2 0x1D83 JUMP JUMPDEST SWAP2 POP PUSH2 0x3151 DUP3 PUSH2 0x3110 JUMP JUMPDEST PUSH1 0x20 DUP3 ADD SWAP1 POP SWAP2 SWAP1 POP JUMP JUMPDEST PUSH1 0x0 PUSH1 0x20 DUP3 ADD SWAP1 POP DUP2 DUP2 SUB PUSH1 0x0 DUP4 ADD MSTORE PUSH2 0x3175 DUP2 PUSH2 0x3139 JUMP JUMPDEST SWAP1 POP SWAP2 SWAP1 POP JUMP INVALID LOG2 PUSH5 0x6970667358 0x22 SLT KECCAK256 SWAP3 DUP8 CODESIZE PUSH6 0xF3A12E8106BC SIGNEXTEND 0x22 SELFBALANCE PUSH13 0xD84C6EDD7442E206505A9EE98D 0x2F 0x2B DUP9 0xBC 0x25 PUSH5 0x736F6C6343 STOP ADDMOD SLT STOP CALLER "
				},
				"gasEstimates": {
					"creation": {
						"codeDepositCost": "2544400",
						"executionCost": "infinite",
						"totalCost": "infinite"
					},
					"external": {
						"addItem(string,string,uint256,string)": "infinite",
						"allowance(address,address)": "infinite",
						"approve(address,uint256)": "infinite",
						"balanceOf(address)": "2908",
						"burn(uint256)": "infinite",
						"decimals()": "410",
						"decreaseAllowance(address,uint256)": "infinite",
						"getShopItems()": "infinite",
						"increaseAllowance(address,uint256)": "infinite",
						"mint(address,uint256)": "infinite",
						"name()": "infinite",
						"owner()": "2633",
						"redeem(string)": "infinite",
						"renounceOwnership()": "30487",
						"symbol()": "infinite",
						"totalSupply()": "2460",
						"transfer(address,uint256)": "infinite",
						"transferFrom(address,address,uint256)": "infinite",
						"transferOwnership(address)": "30854"
					}
				},
				"methodIdentifiers": {
					"addItem(string,string,uint256,string)": "13df81d6",
					"allowance(address,address)": "dd62ed3e",
					"approve(address,uint256)": "095ea7b3",
					"balanceOf(address)": "70a08231",
					"burn(uint256)": "42966c68",
					"decimals()": "313ce567",
					"decreaseAllowance(address,uint256)": "a457c2d7",
					"getShopItems()": "65e17540",
					"increaseAllowance(address,uint256)": "39509351",
					"mint(address,uint256)": "40c10f19",
					"name()": "06fdde03",
					"owner()": "8da5cb5b",
					"redeem(string)": "1222c25a",
					"renounceOwnership()": "715018a6",
					"symbol()": "95d89b41",
					"totalSupply()": "18160ddd",
					"transfer(address,uint256)": "a9059cbb",
					"transferFrom(address,address,uint256)": "23b872dd",
					"transferOwnership(address)": "f2fde38b"
				}
			},
			"storageLayout": {
				"storage": [
					{
						"astId": 128,
						"contract": "contracts/DegenToken.sol:DegenToken",
						"label": "_balances",
						"offset": 0,
						"slot": "0",
						"type": "t_mapping(t_address,t_uint256)"
					},
					{
						"astId": 134,
						"contract": "contracts/DegenToken.sol:DegenToken",
						"label": "_allowances",
						"offset": 0,
						"slot": "1",
						"type": "t_mapping(t_address,t_mapping(t_address,t_uint256))"
					},
					{
						"astId": 136,
						"contract": "contracts/DegenToken.sol:DegenToken",
						"label": "_totalSupply",
						"offset": 0,
						"slot": "2",
						"type": "t_uint256"
					},
					{
						"astId": 138,
						"contract": "contracts/DegenToken.sol:DegenToken",
						"label": "_name",
						"offset": 0,
						"slot": "3",
						"type": "t_string_storage"
					},
					{
						"astId": 140,
						"contract": "contracts/DegenToken.sol:DegenToken",
						"label": "_symbol",
						"offset": 0,
						"slot": "4",
						"type": "t_string_storage"
					},
					{
						"astId": 7,
						"contract": "contracts/DegenToken.sol:DegenToken",
						"label": "_owner",
						"offset": 0,
						"slot": "5",
						"type": "t_address"
					},
					{
						"astId": 846,
						"contract": "contracts/DegenToken.sol:DegenToken",
						"label": "shop",
						"offset": 0,
						"slot": "6",
						"type": "t_mapping(t_string_memory_ptr,t_struct(Item)841_storage)"
					},
					{
						"astId": 851,
						"contract": "contracts/DegenToken.sol:DegenToken",
						"label": "playerOwnedItems",
						"offset": 0,
						"slot": "7",
						"type": "t_mapping(t_address,t_array(t_string_storage)dyn_storage)"
					}
				],
				"types": {
					"t_address": {
						"encoding": "inplace",
						"label": "address",
						"numberOfBytes": "20"
					},
					"t_array(t_string_storage)dyn_storage": {
						"base": "t_string_storage",
						"encoding": "dynamic_array",
						"label": "string[]",
						"numberOfBytes": "32"
					},
					"t_mapping(t_address,t_array(t_string_storage)dyn_storage)": {
						"encoding": "mapping",
						"key": "t_address",
						"label": "mapping(address => string[])",
						"numberOfBytes": "32",
						"value": "t_array(t_string_storage)dyn_storage"
					},
					"t_mapping(t_address,t_mapping(t_address,t_uint256))": {
						"encoding": "mapping",
						"key": "t_address",
						"label": "mapping(address => mapping(address => uint256))",
						"numberOfBytes": "32",
						"value": "t_mapping(t_address,t_uint256)"
					},
					"t_mapping(t_address,t_uint256)": {
						"encoding": "mapping",
						"key": "t_address",
						"label": "mapping(address => uint256)",
						"numberOfBytes": "32",
						"value": "t_uint256"
					},
					"t_mapping(t_string_memory_ptr,t_struct(Item)841_storage)": {
						"encoding": "mapping",
						"key": "t_string_memory_ptr",
						"label": "mapping(string => struct DegenToken.Item)",
						"numberOfBytes": "32",
						"value": "t_struct(Item)841_storage"
					},
					"t_string_memory_ptr": {
						"encoding": "bytes",
						"label": "string",
						"numberOfBytes": "32"
					},
					"t_string_storage": {
						"encoding": "bytes",
						"label": "string",
						"numberOfBytes": "32"
					},
					"t_struct(Item)841_storage": {
						"encoding": "inplace",
						"label": "struct DegenToken.Item",
						"members": [
							{
								"astId": 834,
								"contract": "contracts/DegenToken.sol:DegenToken",
								"label": "id",
								"offset": 0,
								"slot": "0",
								"type": "t_string_storage"
							},
							{
								"astId": 836,
								"contract": "contracts/DegenToken.sol:DegenToken",
								"label": "name",
								"offset": 0,
								"slot": "1",
								"type": "t_string_storage"
							},
							{
								"astId": 838,
								"contract": "contracts/DegenToken.sol:DegenToken",
								"label": "price",
								"offset": 0,
								"slot": "2",
								"type": "t_uint256"
							},
							{
								"astId": 840,
								"contract": "contracts/DegenToken.sol:DegenToken",
								"label": "description",
								"offset": 0,
								"slot": "3",
								"type": "t_string_storage"
							}
						],
						"numberOfBytes": "128"
					},
					"t_uint256": {
						"encoding": "inplace",
						"label": "uint256",
						"numberOfBytes": "32"
					}
				}
			},
			"userdoc": {
				"kind": "user",
				"methods": {},
				"version": 1
			}
		}
	}
}